{
  "contractName": "AssetManager",
  "abi": [
    {
      "constant": true,
      "inputs": [],
      "name": "owner",
      "outputs": [
        {
          "name": "",
          "type": "address"
        }
      ],
      "payable": false,
      "stateMutability": "view",
      "type": "function"
    },
    {
      "constant": false,
      "inputs": [
        {
          "name": "newOwner",
          "type": "address"
        }
      ],
      "name": "transferOwnership",
      "outputs": [],
      "payable": false,
      "stateMutability": "nonpayable",
      "type": "function"
    },
    {
      "anonymous": false,
      "inputs": [
        {
          "indexed": true,
          "name": "previousOwner",
          "type": "address"
        },
        {
          "indexed": true,
          "name": "newOwner",
          "type": "address"
        }
      ],
      "name": "OwnershipTransferred",
      "type": "event"
    },
    {
      "constant": false,
      "inputs": [
        {
          "name": "_packCover",
          "type": "bytes32"
        },
        {
          "name": "_name",
          "type": "string"
        },
        {
          "name": "_attributes",
          "type": "uint256[]"
        },
        {
          "name": "_ipfsHashes",
          "type": "bytes32[]"
        },
        {
          "name": "_packPrice",
          "type": "uint256"
        }
      ],
      "name": "createAssetPack",
      "outputs": [],
      "payable": false,
      "stateMutability": "nonpayable",
      "type": "function"
    },
    {
      "constant": false,
      "inputs": [
        {
          "name": "_attributes",
          "type": "uint256"
        },
        {
          "name": "_ipfsHash",
          "type": "bytes32"
        },
        {
          "name": "_packId",
          "type": "uint256"
        }
      ],
      "name": "createAsset",
      "outputs": [],
      "payable": false,
      "stateMutability": "nonpayable",
      "type": "function"
    },
    {
      "constant": false,
      "inputs": [
        {
          "name": "_assetPackId",
          "type": "uint256"
        }
      ],
      "name": "buyAssetPack",
      "outputs": [],
      "payable": true,
      "stateMutability": "payable",
      "type": "function"
    },
    {
      "constant": true,
      "inputs": [],
      "name": "getNumberOfAssets",
      "outputs": [
        {
          "name": "",
          "type": "uint256"
        }
      ],
      "payable": false,
      "stateMutability": "view",
      "type": "function"
    },
    {
      "constant": true,
      "inputs": [],
      "name": "getNumberOfAssetPacks",
      "outputs": [
        {
          "name": "",
          "type": "uint256"
        }
      ],
      "payable": false,
      "stateMutability": "view",
      "type": "function"
    },
    {
      "constant": true,
      "inputs": [
        {
          "name": "_address",
          "type": "address"
        },
        {
          "name": "_packId",
          "type": "uint256"
        }
      ],
      "name": "checkHasPermissionForPack",
      "outputs": [
        {
          "name": "",
          "type": "bool"
        }
      ],
      "payable": false,
      "stateMutability": "view",
      "type": "function"
    },
    {
      "constant": true,
      "inputs": [
        {
          "name": "_ipfsHash",
          "type": "bytes32"
        }
      ],
      "name": "checkHashExists",
      "outputs": [
        {
          "name": "",
          "type": "bool"
        }
      ],
      "payable": false,
      "stateMutability": "view",
      "type": "function"
    },
    {
      "constant": false,
      "inputs": [
        {
          "name": "_address",
          "type": "address"
        },
        {
          "name": "_packId",
          "type": "uint256"
        }
      ],
      "name": "givePermission",
      "outputs": [],
      "payable": false,
      "stateMutability": "nonpayable",
      "type": "function"
    },
    {
      "constant": true,
      "inputs": [
        {
          "name": "assetIds",
          "type": "uint256[]"
        }
      ],
      "name": "pickUniquePacks",
      "outputs": [
        {
          "name": "",
          "type": "uint256[]"
        }
      ],
      "payable": false,
      "stateMutability": "view",
      "type": "function"
    },
    {
      "constant": true,
      "inputs": [
        {
          "name": "id",
          "type": "uint256"
        }
      ],
      "name": "getAssetInfo",
      "outputs": [
        {
          "name": "",
          "type": "uint256"
        },
        {
          "name": "",
          "type": "uint256"
        },
        {
          "name": "",
          "type": "bytes32"
        }
      ],
      "payable": false,
      "stateMutability": "view",
      "type": "function"
    },
    {
      "constant": true,
      "inputs": [
        {
          "name": "_address",
          "type": "address"
        }
      ],
      "name": "getAssetPacksUserCreated",
      "outputs": [
        {
          "name": "",
          "type": "uint256[]"
        }
      ],
      "payable": false,
      "stateMutability": "view",
      "type": "function"
    },
    {
      "constant": true,
      "inputs": [
        {
          "name": "_id",
          "type": "uint256"
        }
      ],
      "name": "getAssetIpfs",
      "outputs": [
        {
          "name": "",
          "type": "bytes32"
        }
      ],
      "payable": false,
      "stateMutability": "view",
      "type": "function"
    },
    {
      "constant": true,
      "inputs": [
        {
          "name": "_id",
          "type": "uint256"
        }
      ],
      "name": "getAssetAttributes",
      "outputs": [
        {
          "name": "",
          "type": "uint256"
        }
      ],
      "payable": false,
      "stateMutability": "view",
      "type": "function"
    },
    {
      "constant": true,
      "inputs": [
        {
          "name": "_ids",
          "type": "uint256[]"
        }
      ],
      "name": "getIpfsForAssets",
      "outputs": [
        {
          "name": "",
          "type": "bytes32[]"
        }
      ],
      "payable": false,
      "stateMutability": "view",
      "type": "function"
    },
    {
      "constant": true,
      "inputs": [
        {
          "name": "_ids",
          "type": "uint256[]"
        }
      ],
      "name": "getAttributesForAssets",
      "outputs": [
        {
          "name": "",
          "type": "uint256[]"
        }
      ],
      "payable": false,
      "stateMutability": "view",
      "type": "function"
    },
    {
      "constant": false,
      "inputs": [],
      "name": "withdraw",
      "outputs": [],
      "payable": false,
      "stateMutability": "nonpayable",
      "type": "function"
    },
    {
      "constant": true,
      "inputs": [
        {
          "name": "_assetPackId",
          "type": "uint256"
        }
      ],
      "name": "getAssetPackData",
      "outputs": [
        {
          "name": "",
          "type": "string"
        },
        {
          "name": "",
          "type": "uint256[]"
        },
        {
          "name": "",
          "type": "uint256[]"
        },
        {
          "name": "",
          "type": "bytes32[]"
        }
      ],
      "payable": false,
      "stateMutability": "view",
      "type": "function"
    },
    {
      "constant": true,
      "inputs": [
        {
          "name": "_assetPackId",
          "type": "uint256"
        }
      ],
      "name": "getAssetPackName",
      "outputs": [
        {
          "name": "",
          "type": "string"
        }
      ],
      "payable": false,
      "stateMutability": "view",
      "type": "function"
    },
    {
      "constant": true,
      "inputs": [
        {
          "name": "_assetPackId",
          "type": "uint256"
        }
      ],
      "name": "getAssetPackPrice",
      "outputs": [
        {
          "name": "",
          "type": "uint256"
        }
      ],
      "payable": false,
      "stateMutability": "view",
      "type": "function"
    },
    {
      "constant": true,
      "inputs": [
        {
          "name": "_packIds",
          "type": "uint256[]"
        }
      ],
      "name": "getCoversForPacks",
      "outputs": [
        {
          "name": "",
          "type": "bytes32[]"
        }
      ],
      "payable": false,
      "stateMutability": "view",
      "type": "function"
    }
  ],
  "bytecode": "0x6080604052336000806101000a81548173ffffffffffffffffffffffffffffffffffffffff021916908373ffffffffffffffffffffffffffffffffffffffff16021790555061287e806100536000396000f300608060405260043610610128576000357c0100000000000000000000000000000000000000000000000000000000900463ffffffff16806317228a581461012d578063225c76c31461014d5780632889bc8a1461019a5780632f405bb7146102325780633ccfd60b146102ed57806347c7e6a814610304578063511075a9146103aa57806358da9bbc146104655780638883c52a146105e35780638c96a2c91461060e5780638da5cb5b1461064f5780638f3bed06146106a6578063bb2aebe314610761578063c101365814610868578063c21ec92c146108ad578063c58b54ef146108f6578063ca774c8814610937578063e269053a1461099c578063ee08fcf3146109c7578063f23342d814610a82578063f2fde38b14610acb578063f637d95014610b0e575b600080fd5b61014b60048036038101908080359060200190929190505050610b65565b005b34801561015957600080fd5b50610198600480360381019080803573ffffffffffffffffffffffffffffffffffffffff16906020019092919080359060200190929190505050610e9d565b005b3480156101a657600080fd5b506101db600480360381019080803573ffffffffffffffffffffffffffffffffffffffff169060200190929190505050610f0a565b6040518080602001828103825283818151815260200191508051906020019060200280838360005b8381101561021e578082015181840152602081019050610203565b505050509050019250505060405180910390f35b34801561023e57600080fd5b5061029660048036038101908080359060200190820180359060200190808060200260200160405190810160405280939291908181526020018383602002808284378201915050505050509192919290505050610fa1565b6040518080602001828103825283818151815260200191508051906020019060200280838360005b838110156102d95780820151818401526020810190506102be565b505050509050019250505060405180910390f35b3480156102f957600080fd5b506103026111f0565b005b34801561031057600080fd5b5061032f600480360381019080803590602001909291905050506112b9565b6040518080602001828103825283818151815260200191508051906020019080838360005b8381101561036f578082015181840152602081019050610354565b50505050905090810190601f16801561039c5780820380516001836020036101000a031916815260200191505b509250505060405180910390f35b3480156103b657600080fd5b5061040e60048036038101908080359060200190820180359060200190808060200260200160405190810160405280939291908181526020018383602002808284378201915050505050509192919290505050611477565b6040518080602001828103825283818151815260200191508051906020019060200280838360005b83811015610451578082015181840152602081019050610436565b505050509050019250505060405180910390f35b34801561047157600080fd5b506104906004803603810190808035906020019092919050505061157a565b6040518080602001806020018060200180602001858103855289818151815260200191508051906020019080838360005b838110156104dc5780820151818401526020810190506104c1565b50505050905090810190601f1680156105095780820380516001836020036101000a031916815260200191505b50858103845288818151815260200191508051906020019060200280838360005b8381101561054557808201518184015260208101905061052a565b50505050905001858103835287818151815260200191508051906020019060200280838360005b8381101561058757808201518184015260208101905061056c565b50505050905001858103825286818151815260200191508051906020019060200280838360005b838110156105c95780820151818401526020810190506105ae565b505050509050019850505050505050505060405180910390f35b3480156105ef57600080fd5b506105f8611809565b6040518082815260200191505060405180910390f35b34801561061a57600080fd5b5061063960048036038101908080359060200190929190505050611813565b6040518082815260200191505060405180910390f35b34801561065b57600080fd5b506106646119d1565b604051808273ffffffffffffffffffffffffffffffffffffffff1673ffffffffffffffffffffffffffffffffffffffff16815260200191505060405180910390f35b3480156106b257600080fd5b5061070a600480360381019080803590602001908201803590602001908080602002602001604051908101604052809392919081815260200183836020028082843782019150505050505091929192905050506119f6565b6040518080602001828103825283818151815260200191508051906020019060200280838360005b8381101561074d578082015181840152602081019050610732565b505050509050019250505060405180910390f35b34801561076d57600080fd5b506108666004803603810190808035600019169060200190929190803590602001908201803590602001908080601f0160208091040260200160405190810160405280939291908181526020018383808284378201915050505050509192919290803590602001908201803590602001908080602002602001604051908101604052809392919081815260200183836020028082843782019150505050505091929192908035906020019082018035906020019080806020026020016040519081016040528093929190818152602001838360200280828437820191505050505050919291929080359060200190929190505050611c8a565b005b34801561087457600080fd5b506108ab60048036038101908080359060200190929190803560001916906020019092919080359060200190929190505050611ef8565b005b3480156108b957600080fd5b506108d860048036038101908080359060200190929190505050612004565b60405180826000191660001916815260200191505060405180910390f35b34801561090257600080fd5b5061092160048036038101908080359060200190929190505050612086565b6040518082815260200191505060405180910390f35b34801561094357600080fd5b50610982600480360381019080803573ffffffffffffffffffffffffffffffffffffffff16906020019092919080359060200190929190505050612108565b604051808215151515815260200191505060405180910390f35b3480156109a857600080fd5b506109b16123bc565b6040518082815260200191505060405180910390f35b3480156109d357600080fd5b50610a2b600480360381019080803590602001908201803590602001908080602002602001604051908101604052809392919081815260200183836020028082843782019150505050505091929192905050506123c6565b6040518080602001828103825283818151815260200191508051906020019060200280838360005b83811015610a6e578082015181840152602081019050610a53565b505050509050019250505060405180910390f35b348015610a8e57600080fd5b50610ab160048036038101908080356000191690602001909291905050506124bf565b604051808215151515815260200191505060405180910390f35b348015610ad757600080fd5b50610b0c600480360381019080803573ffffffffffffffffffffffffffffffffffffffff1690602001909291905050506124f1565b005b348015610b1a57600080fd5b50610b3960048036038101908080359060200190929190505050612646565b604051808481526020018381526020018260001916600019168152602001935050505060405180910390f35b6000610b6f6126eb565b600091505b600860003373ffffffffffffffffffffffffffffffffffffffff1673ffffffffffffffffffffffffffffffffffffffff16815260200190815260200160002080549050821015610c305782600860003373ffffffffffffffffffffffffffffffffffffffff1673ffffffffffffffffffffffffffffffffffffffff16815260200190815260200160002083815481101515610c0b57fe5b906000526020600020015414151515610c2357600080fd5b8180600101925050610b74565b600483815481101515610c3f57fe5b906000526020600020906005020160a06040519081016040529081600082015460001916600019168152602001600182018054600181600116156101000203166002900480601f016020809104026020016040519081016040528092919081815260200182805460018160011615610100020316600290048015610d045780601f10610cd957610100808354040283529160200191610d04565b820191906000526020600020905b815481529060010190602001808311610ce757829003601f168201915b5050505050815260200160028201805480602002602001604051908101604052809291908181526020018280548015610d5c57602002820191906000526020600020905b815481526020019060010190808311610d48575b505050505081526020016003820160009054906101000a900473ffffffffffffffffffffffffffffffffffffffff1673ffffffffffffffffffffffffffffffffffffffff1673ffffffffffffffffffffffffffffffffffffffff168152602001600482015481525050905080608001513410151515610dda57600080fd5b806080015160056000836060015173ffffffffffffffffffffffffffffffffffffffff1673ffffffffffffffffffffffffffffffffffffffff16815260200190815260200160002060008282540192505081905550600860003373ffffffffffffffffffffffffffffffffffffffff1673ffffffffffffffffffffffffffffffffffffffff168152602001908152602001600020839080600181540180825580915050906001820390600052602060002001600090919290919091505550505050565b600860008373ffffffffffffffffffffffffffffffffffffffff1673ffffffffffffffffffffffffffffffffffffffff1681526020019081526020016000208190806001815401808255809150509060018203906000526020600020016000909192909190915055505050565b6060600760008373ffffffffffffffffffffffffffffffffffffffff1673ffffffffffffffffffffffffffffffffffffffff168152602001908152602001600020805480602002602001604051908101604052809291908181526020018280548015610f9557602002820191906000526020600020905b815481526020019060010190808311610f81575b50505050509050919050565b6060806000610fae6126eb565b60008551111515610fbe57600080fd5b8451604051908082528060200260200182016040528015610fee5781602001602082028038833980820191505090505b509250600091505b84518210156111e5576004858381518110151561100f57fe5b9060200190602002015181548110151561102557fe5b906000526020600020906005020160a06040519081016040529081600082015460001916600019168152602001600182018054600181600116156101000203166002900480601f0160208091040260200160405190810160405280929190818152602001828054600181600116156101000203166002900480156110ea5780601f106110bf576101008083540402835291602001916110ea565b820191906000526020600020905b8154815290600101906020018083116110cd57829003601f168201915b505050505081526020016002820180548060200260200160405190810160405280929190818152602001828054801561114257602002820191906000526020600020905b81548152602001906001019080831161112e575b505050505081526020016003820160009054906101000a900473ffffffffffffffffffffffffffffffffffffffff1673ffffffffffffffffffffffffffffffffffffffff1673ffffffffffffffffffffffffffffffffffffffff1681526020016004820154815250509050806000015183838151811015156111c057fe5b9060200190602002019060001916908160001916815250508180600101925050610ff6565b829350505050919050565b60008073ffffffffffffffffffffffffffffffffffffffff163373ffffffffffffffffffffffffffffffffffffffff161415151561122d57600080fd5b600560003373ffffffffffffffffffffffffffffffffffffffff1673ffffffffffffffffffffffffffffffffffffffff1681526020019081526020016000205490503373ffffffffffffffffffffffffffffffffffffffff166108fc829081150290604051600060405180830381858888f193505050501580156112b5573d6000803e3d6000fd5b5050565b60606112c36126eb565b600254831015156112d357600080fd5b6004838154811015156112e257fe5b906000526020600020906005020160a06040519081016040529081600082015460001916600019168152602001600182018054600181600116156101000203166002900480601f0160208091040260200160405190810160405280929190818152602001828054600181600116156101000203166002900480156113a75780601f1061137c576101008083540402835291602001916113a7565b820191906000526020600020905b81548152906001019060200180831161138a57829003601f168201915b50505050508152602001600282018054806020026020016040519081016040528092919081815260200182805480156113ff57602002820191906000526020600020905b8154815260200190600101908083116113eb575b505050505081526020016003820160009054906101000a900473ffffffffffffffffffffffffffffffffffffffff1673ffffffffffffffffffffffffffffffffffffffff1673ffffffffffffffffffffffffffffffffffffffff16815260200160048201548152505090508060200151915050919050565b6060806000611484612734565b84516040519080825280602002602001820160405280156114b45781602001602082028038833980820191505090505b509250600091505b845182101561156f57600385838151811015156114d557fe5b906020019060200201518154811015156114eb57fe5b906000526020600020906004020160806040519081016040529081600082015481526020016001820154815260200160028201548152602001600382015460001916600019168152505090508060600151838381518110151561154a57fe5b90602001906020020190600019169081600019168152505081806001019250506114bc565b829350505050919050565b6060806060806115886126eb565b6060600060606002548910151561159e57600080fd5b6004898154811015156115ad57fe5b906000526020600020906005020160a06040519081016040529081600082015460001916600019168152602001600182018054600181600116156101000203166002900480601f0160208091040260200160405190810160405280929190818152602001828054600181600116156101000203166002900480156116725780601f1061164757610100808354040283529160200191611672565b820191906000526020600020905b81548152906001019060200180831161165557829003601f168201915b50505050508152602001600282018054806020026020016040519081016040528092919081815260200182805480156116ca57602002820191906000526020600020905b8154815260200190600101908083116116b6575b505050505081526020016003820160009054906101000a900473ffffffffffffffffffffffffffffffffffffffff1673ffffffffffffffffffffffffffffffffffffffff1673ffffffffffffffffffffffffffffffffffffffff16815260200160048201548152505093508360400151516040519080825280602002602001820160405280156117695781602001602082028038833980820191505090505b509250600091505b8360400151518210156117d5576117a284604001518381518110151561179357fe5b90602001906020020151612004565b83838151811015156117b057fe5b9060200190602002019060001916908160001916815250508180600101925050611771565b6117e284604001516123c6565b90508360200151846040015182858393508292509750975097509750505050509193509193565b6000600254905090565b600061181d6126eb565b6002548310151561182d57600080fd5b60048381548110151561183c57fe5b906000526020600020906005020160a06040519081016040529081600082015460001916600019168152602001600182018054600181600116156101000203166002900480601f0160208091040260200160405190810160405280929190818152602001828054600181600116156101000203166002900480156119015780601f106118d657610100808354040283529160200191611901565b820191906000526020600020905b8154815290600101906020018083116118e457829003601f168201915b505050505081526020016002820180548060200260200160405190810160405280929190818152602001828054801561195957602002820191906000526020600020905b815481526020019060010190808311611945575b505050505081526020016003820160009054906101000a900473ffffffffffffffffffffffffffffffffffffffff1673ffffffffffffffffffffffffffffffffffffffff1673ffffffffffffffffffffffffffffffffffffffff16815260200160048201548152505090508060800151915050919050565b6000809054906101000a900473ffffffffffffffffffffffffffffffffffffffff1681565b6060806000611a03612734565b600080611a0e612734565b600060606000808b51111515611a2357600080fd5b8a51604051908082528060200260200182016040528015611a535781602001602082028038833980820191505090505b5098506001975060038b6000815181101515611a6b57fe5b90602001906020020151815481101515611a8157fe5b906000526020600020906004020160806040519081016040529081600082015481526020016001820154815260200160028201548152602001600382015460001916600019168152505096508660200151896000815181101515611ae157fe5b906020019060200201818152505060009550600094505b8a51851015611bf95760038b86815181101515611b1157fe5b90602001906020020151815481101515611b2757fe5b90600052602060002090600402016080604051908101604052908160008201548152602001600182015481526020016002820154815260200160038201546000191660001916815250509350600092505b87831015611bb5578883815181101515611b8e57fe5b9060200190602002015184602001511415611ba857600195505b8280600101935050611b78565b6000861415611be85783602001518989815181101515611bd157fe5b906020019060200201818152505087806001019850505b600095508480600101955050611af8565b87604051908082528060200260200182016040528015611c285781602001602082028038833980820191505090505b509150600090505b87811015611c79578881815181101515611c4657fe5b906020019060200201518282815181101515611c5e57fe5b90602001906020020181815250508080600101915050611c30565b819950505050505050505050919050565b60606000808451111515611c9d57600080fd5b60328451101515611cad57600080fd5b60328551101515611cbd57600080fd5b8351604051908082528060200260200182016040528015611ced5781602001602082028038833980820191505090505b509150600090505b8351811015611d65576001548282815181101515611d0f57fe5b9060200190602002018181525050611d588582815181101515611d2e57fe5b906020019060200201518583815181101515611d4657fe5b90602001906020020151600254611ef8565b8080600101915050611cf5565b600460a060405190810160405280896000191681526020018881526020018481526020013373ffffffffffffffffffffffffffffffffffffffff1681526020018581525090806001815401808255809150509060018203906000526020600020906005020160009091929091909150600082015181600001906000191690556020820151816001019080519060200190611e00929190612760565b506040820151816002019080519060200190611e1d9291906127e0565b5060608201518160030160006101000a81548173ffffffffffffffffffffffffffffffffffffffff021916908373ffffffffffffffffffffffffffffffffffffffff16021790555060808201518160040155505050600760003373ffffffffffffffffffffffffffffffffffffffff1673ffffffffffffffffffffffffffffffffffffffff168152602001908152602001600020600254908060018154018082558091505090600182039060005260206000200160009091929091909150555060026000815480929190600101919050555050505050505050565b6000151560066000846000191660001916815260200190815260200160002060009054906101000a900460ff161515141515611f3357600080fd5b6003608060405190810160405280600154815260200183815260200185815260200184600019168152509080600181540180825580915050906001820390600052602060002090600402016000909192909190915060008201518160000155602082015181600101556040820151816002015560608201518160030190600019169055505050600160066000846000191660001916815260200190815260200160002060006101000a81548160ff021916908315150217905550600160008154809291906001019190505550505050565b600061200e612734565b6001548310151561201e57600080fd5b60038381548110151561202d57fe5b906000526020600020906004020160806040519081016040529081600082015481526020016001820154815260200160028201548152602001600382015460001916600019168152505090508060600151915050919050565b6000612090612734565b600154831015156120a057600080fd5b6003838154811015156120af57fe5b906000526020600020906004020160806040519081016040529081600082015481526020016001820154815260200160028201548152602001600382015460001916600019168152505090508060400151915050919050565b60006121126126eb565b600060048481548110151561212357fe5b906000526020600020906005020160a06040519081016040529081600082015460001916600019168152602001600182018054600181600116156101000203166002900480601f0160208091040260200160405190810160405280929190818152602001828054600181600116156101000203166002900480156121e85780601f106121bd576101008083540402835291602001916121e8565b820191906000526020600020905b8154815290600101906020018083116121cb57829003601f168201915b505050505081526020016002820180548060200260200160405190810160405280929190818152602001828054801561224057602002820191906000526020600020905b81548152602001906001019080831161222c575b505050505081526020016003820160009054906101000a900473ffffffffffffffffffffffffffffffffffffffff1673ffffffffffffffffffffffffffffffffffffffff1673ffffffffffffffffffffffffffffffffffffffff16815260200160048201548152505091508473ffffffffffffffffffffffffffffffffffffffff16826060015173ffffffffffffffffffffffffffffffffffffffff1614156122ec57600192506123b4565b600090505b600860008673ffffffffffffffffffffffffffffffffffffffff1673ffffffffffffffffffffffffffffffffffffffff168152602001908152602001600020805490508110156123af5783600860008773ffffffffffffffffffffffffffffffffffffffff1673ffffffffffffffffffffffffffffffffffffffff1681526020019081526020016000208281548110151561238857fe5b906000526020600020015414156123a257600192506123b4565b80806001019150506122f1565b600092505b505092915050565b6000600154905090565b60608060006123d3612734565b84516040519080825280602002602001820160405280156124035781602001602082028038833980820191505090505b509250600091505b84518210156124b4576003858381518110151561242457fe5b9060200190602002015181548110151561243a57fe5b906000526020600020906004020160806040519081016040529081600082015481526020016001820154815260200160028201548152602001600382015460001916600019168152505090508060400151838381518110151561249957fe5b9060200190602002018181525050818060010192505061240b565b829350505050919050565b600060066000836000191660001916815260200190815260200160002060009054906101000a900460ff169050919050565b6000809054906101000a900473ffffffffffffffffffffffffffffffffffffffff1673ffffffffffffffffffffffffffffffffffffffff163373ffffffffffffffffffffffffffffffffffffffff1614151561254c57600080fd5b600073ffffffffffffffffffffffffffffffffffffffff168173ffffffffffffffffffffffffffffffffffffffff161415151561258857600080fd5b8073ffffffffffffffffffffffffffffffffffffffff166000809054906101000a900473ffffffffffffffffffffffffffffffffffffffff1673ffffffffffffffffffffffffffffffffffffffff167f8be0079c531659141344cd1fd0a4f28419497f9722a3daafe3b4186f6b6457e060405160405180910390a3806000806101000a81548173ffffffffffffffffffffffffffffffffffffffff021916908373ffffffffffffffffffffffffffffffffffffffff16021790555050565b6000806000612653612734565b6000851015151561266357600080fd5b6001548510151561267357600080fd5b60038581548110151561268257fe5b90600052602060002090600402016080604051908101604052908160008201548152602001600182015481526020016002820154815260200160038201546000191660001916815250509050806000015181604001518260600151935093509350509193909250565b60a060405190810160405280600080191681526020016060815260200160608152602001600073ffffffffffffffffffffffffffffffffffffffff168152602001600081525090565b608060405190810160405280600081526020016000815260200160008152602001600080191681525090565b828054600181600116156101000203166002900490600052602060002090601f016020900481019282601f106127a157805160ff19168380011785556127cf565b828001600101855582156127cf579182015b828111156127ce5782518255916020019190600101906127b3565b5b5090506127dc919061282d565b5090565b82805482825590600052602060002090810192821561281c579160200282015b8281111561281b578251825591602001919060010190612800565b5b509050612829919061282d565b5090565b61284f91905b8082111561284b576000816000905550600101612833565b5090565b905600a165627a7a72305820856d59d759dc5ef43e3c4b536fbfdd35a1c180e8aed61fc218a36028374e1e3a0029",
  "source": "pragma solidity ^0.4.23;\nimport \"./Utils/Ownable.sol\";\n\n\ncontract AssetManager is Ownable {\n\n    struct Asset {\n        uint id;\n        /// atributes field is going to be 3 digit uint where every digit can be \"1\" or \"2\"\n        /// 1st digit will tell us if asset is background 1 - true / 2 - false\n        /// 2nd digit will tell us if rotation is enabled 1 - true / 2 - false\n        /// 3rd digit will tell us if scaling  is enabled 1 - true / 2 - false\n        uint pack_id;\n        uint attributes;\n        bytes32 ipfsHash;\n    }\n\n    struct AssetPack {\n        bytes32 packCover;\n        string name;\n        uint[] assetIds;\n        address creator;\n        uint price;\n    }\n\n\n    uint numberOfAssets;\n    uint numberOfAssetPacks;\n\n    Asset[] assets;\n    AssetPack[] assetPacks;\n\n    mapping(address => uint) artistBalance;\n    mapping(bytes32 => bool) hashExists;\n\n    mapping(address => uint[]) createdAssetPacks;\n    mapping(address => uint[]) boughtAssetPacks;\n\n\n    /// @notice Function to create assetpack\n    /// @dev ADD ATTRIBUTES VALIDATION\n    /// @param _packCover is cover image for asset pack\n    /// @param _name is name of the asset pack\n    /// @param _attributes is array of attributes\n    /// @param _ipfsHashes is array containing all ipfsHashes for assets we'd like to put in pack\n    /// @param _packPrice is price for total assetPack (every asset will have average price)\n    function createAssetPack(bytes32 _packCover, string _name, uint[] _attributes, bytes32[] _ipfsHashes, uint _packPrice) public {\n        require(_ipfsHashes.length > 0);\n        require(_ipfsHashes.length < 50);\n        require(_attributes.length < 50);\n\n        uint[] memory ids = new uint[](_ipfsHashes.length);\n\n        for(uint i=0; i< _ipfsHashes.length; i++){\n            ids[i] = numberOfAssets;\n            createAsset(_attributes[i], _ipfsHashes[i], numberOfAssetPacks);\n        }\n\n        assetPacks.push(AssetPack({\n            packCover: _packCover,\n            name: _name,\n            assetIds: ids,\n            creator: msg.sender,\n            price: _packPrice\n            }));\n\n        createdAssetPacks[msg.sender].push(numberOfAssetPacks);\n        numberOfAssetPacks++;\n    }\n\n    /// @notice Function which creates an asset\n    /// @dev this method will be internal/private later in production\n    /// @dev id is automatically generated, and it's it's position in array which holds all assets, also, creator of asset is msg.sender\n    /// @dev add attributes validation\n    /// @param _attributes is meta info for asset\n    /// @param _ipfsHash is ipfsHash to image of asset\n    function createAsset(uint _attributes, bytes32 _ipfsHash, uint _packId) public {\n        require(hashExists[_ipfsHash] == false);\n\n        assets.push(Asset({\n            id : numberOfAssets,\n            pack_id: _packId,\n            attributes: _attributes,\n            ipfsHash : _ipfsHash\n            }));\n\n        hashExists[_ipfsHash] = true;\n        numberOfAssets++;\n    }\n\n\n    function buyAssetPack(uint _assetPackId) public payable {\n        ///validate if user have already bought permission for this pack\n        for(uint i=0; i<boughtAssetPacks[msg.sender].length; i++) {\n            require(boughtAssetPacks[msg.sender][i] != _assetPackId);\n        }\n\n        AssetPack memory assetPack = assetPacks[_assetPackId];\n        require(msg.value >= assetPack.price);\n        artistBalance[assetPack.creator] += assetPack.price;\n        boughtAssetPacks[msg.sender].push(_assetPackId);\n    }\n\n\n    /// @notice Function to fetch total number of assets\n    /// @return numberOfAssets\n    function getNumberOfAssets() public view returns (uint) {\n        return numberOfAssets;\n    }\n\n    /// @notice Function to fetch total number of assetpacks\n    /// @return uint numberOfAssetPacks\n    function getNumberOfAssetPacks() public view returns(uint) {\n        return numberOfAssetPacks;\n    }\n    /// @notice Function to check if user have permission (owner / bought) for pack\n    /// @param _address is address of user\n    /// @param _packId is id of pack\n    function checkHasPermissionForPack(address _address, uint _packId) public view returns (bool) {\n        AssetPack memory assetPack = assetPacks[_packId];\n        if(assetPack.creator ==  _address) {\n            return true;\n        }\n        for(uint i=0; i<boughtAssetPacks[_address].length; i++) {\n            if(boughtAssetPacks[_address][i] == _packId) {\n                return true;\n            }\n        }\n        return false;\n    }\n\n    /// @notice Function to check does hash exist in mapping\n    /// @param _ipfsHash is bytes32 representation of hash\n    function checkHashExists(bytes32 _ipfsHash) public view returns (bool){\n        return hashExists[_ipfsHash];\n    }\n\n    /// @notice Function to give you permission for all assets you are buying during image creation\n    /// @param _address is address of buyer\n    /// @param _packId is id of assetpack\n    function givePermission(address _address, uint _packId) public {\n        boughtAssetPacks[_address].push(_packId);\n    }\n\n    function pickUniquePacks(uint[] assetIds) public view returns (uint[]){\n        require(assetIds.length > 0);\n        uint[] memory packs = new uint[](assetIds.length);\n        uint last = 1;\n        Asset memory asset1 = assets[assetIds[0]];\n        packs[0] = asset1.pack_id;\n        uint flag = 0;\n        for(uint i=0; i<assetIds.length; i++){\n            Asset memory asset = assets[assetIds[i]];\n            for(uint j=0; j<last;j++) {\n                if(asset.pack_id == packs[j]) {\n                    flag = 1;\n                }\n            }\n            if(flag == 0) {\n                packs[last] = asset.pack_id;\n                last++;\n            }\n            flag = 0;\n        }\n\n        uint[] memory finalPacks = new uint[](last);\n        for(uint z=0; z<last; z++) {\n            finalPacks[z] = packs[z];\n        }\n        return finalPacks;\n    }\n    /// @notice Method to get all info for an asset\n    /// @param id is id of asset\n    /// @return All data for an asset\n    function getAssetInfo(uint id) public view returns (uint, uint, bytes32){\n        require(id >= 0);\n        require(id < numberOfAssets);\n        Asset memory asset = assets[id];\n\n        return (asset.id, asset.attributes, asset.ipfsHash);\n    }\n\n\n\n    function getAssetPacksUserCreated(address _address) public view returns(uint[]){\n        return createdAssetPacks[_address];\n    }\n\n    /// @notice Function to get ipfsHash for selected asset\n    /// @param _id is id of asset we'd like to get ipfs hash\n    /// @return string representation of ipfs hash of that asset\n    function getAssetIpfs(uint _id) public view returns (bytes32) {\n        require(_id < numberOfAssets);\n        Asset memory asset = assets[_id];\n        return asset.ipfsHash;\n    }\n\n    /// @notice Function to get attributes for selected asset\n    /// @param _id is id of asset we'd like to get ipfs hash\n    /// @return uint representation of attributes of that asset\n    function getAssetAttributes(uint _id) public view returns (uint) {\n        require(_id < numberOfAssets);\n        Asset memory asset = assets[_id];\n        return asset.attributes;\n    }\n\n    /// @notice Function to get array of ipfsHashes for specific assets\n    /// @dev need for data parsing on frontend efficiently\n    /// @param _ids is array of ids\n    /// @return bytes32 array of hashes\n    function getIpfsForAssets(uint[] _ids) public view returns (bytes32[]) {\n        bytes32[] memory hashes = new bytes32[](_ids.length);\n        for(uint i=0; i<_ids.length; i++) {\n            Asset memory asset = assets[_ids[i]];\n            hashes[i] = asset.ipfsHash;\n        }\n\n        return hashes;\n    }\n\n    function getAttributesForAssets(uint[] _ids) public view returns(uint[]) {\n        uint[] memory attributes = new uint[](_ids.length);\n        for(uint i=0; i< _ids.length; i++) {\n            Asset memory asset = assets[_ids[i]];\n            attributes[i] = asset.attributes;\n        }\n        return attributes;\n    }\n    ///@notice Function where all artists can withdraw their funds\n    function withdraw() public {\n        require(msg.sender != address(0));\n        uint amount = artistBalance[msg.sender];\n\n        msg.sender.transfer(amount);\n    }\n\n\n    /// @notice Function to get ipfs hash and id for all assets in one asset pack\n    /// @param _assetPackId is id of asset pack\n    /// @return two arrays with data\n    function getAssetPackData(uint _assetPackId) public view returns(string, uint[], uint[], bytes32[]){\n        require(_assetPackId < numberOfAssetPacks);\n\n        AssetPack memory assetPack = assetPacks[_assetPackId];\n        bytes32[] memory hashes = new bytes32[](assetPack.assetIds.length);\n\n        for(uint i=0; i<assetPack.assetIds.length; i++){\n            hashes[i] = getAssetIpfs(assetPack.assetIds[i]);\n        }\n        uint[] memory attributes = getAttributesForAssets(assetPack.assetIds);\n\n        return(assetPack.name, assetPack.assetIds, attributes, hashes);\n    }\n\n    /// @notice Function to get name for asset pack\n    /// @param _assetPackId is id of asset pack\n    /// @return string name of asset pack\n    function getAssetPackName(uint _assetPackId) public view returns (string) {\n        require(_assetPackId < numberOfAssetPacks);\n\n        AssetPack memory assetPack = assetPacks[_assetPackId];\n\n        return assetPack.name;\n    }\n\n    function getAssetPackPrice(uint _assetPackId) public view returns (uint) {\n        require(_assetPackId < numberOfAssetPacks);\n        AssetPack memory assetPack = assetPacks[_assetPackId];\n\n        return assetPack.price;\n    }\n    /// @notice Function to get cover image for every assetpack\n    /// @param _packIds is array of asset pack ids\n    /// @return bytes32[] array of hashes\n    function getCoversForPacks(uint[] _packIds) public view returns (bytes32[]) {\n        require(_packIds.length > 0);\n        bytes32[] memory covers = new bytes32[](_packIds.length);\n        for(uint i=0; i<_packIds.length; i++) {\n            AssetPack memory assetPack = assetPacks[_packIds[i]];\n            covers[i] = assetPack.packCover;\n        }\n        return covers;\n    }\n\n\n    //    function getAssetsUserHaveInPack(uint packId, address _userAddress) public view returns (uint[]) {\n    //        AssetPack memory assetPack = assetPacks[packId];\n    //        uint[] memory ownedAssets = new uint[](assetPack.assetIds.length);\n    //        uint counter = 0;\n    //        for(uint i=0; i<assetPack.assetIds.length; i++) {\n    //            if(hasPermission[_userAddress][assetPack.assetIds[i]] == true) {\n    //                ownedAssets[counter] = assetPack.assetIds[i];\n    //            }\n    //        }\n    //        return ownedAssets;\n    //    }\n    //    /// @notice Function to get owned assets from one pack and pack size\n    //    /// @param _assetPacksIds is array with ids of asset packs we need information for\n    //    /// @param _userAddress is address of user we are checking this\n    //    /// @return two arrays one containing how many assets we have and second containing packs size\n    //    function getOwnedAssetsFromPacks(uint [] _assetPacksIds, address _userAddress) public view returns (uint[],uint[]) {\n    //        uint [] memory ownedAssets = new uint[](_assetPacksIds.length);\n    //        uint [] memory totalInPack = new uint[](_assetPacksIds.length);\n    //        uint counter = 0;\n    //        for(uint i=0; i< _assetPacksIds.length; i++) {\n    //            AssetPack memory assetPack = assetPacks[_assetPacksIds[i]];\n    //            for(uint j=0; j<assetPack.assetIds.length; j++) {\n    //                if(hasPermission[_userAddress][assetPack.assetIds[j]] == true) {\n    //                    counter++;\n    //                }\n    //            }\n    //            ownedAssets[i] = counter;\n    //            totalInPack[i] = assetPack.assetIds.length;\n    //            counter = 0;\n    //        }\n    //\n    //        return (ownedAssets, totalInPack);\n    //    }\n}",
  "sourcePath": "/Users/nikolaklipa/Decenter/Cryptographics/contracts/AssetManager.sol",
  "compiler": {
    "name": "solc",
    "version": "0.4.24+commit.e67f0147.Emscripten.clang"
  },
  "schemaVersion": "2.0.1",
  "updatedAt": "2018-07-11T08:14:57.274Z"
}