{
  "contractName": "AssetManager",
  "abi": [
    {
      "constant": true,
      "inputs": [],
      "name": "owner",
      "outputs": [
        {
          "name": "",
          "type": "address"
        }
      ],
      "payable": false,
      "stateMutability": "view",
      "type": "function"
    },
    {
      "constant": true,
      "inputs": [
        {
          "name": "",
          "type": "uint256"
        }
      ],
      "name": "assetPacks",
      "outputs": [
        {
          "name": "packCover",
          "type": "bytes32"
        },
        {
          "name": "name",
          "type": "string"
        },
        {
          "name": "creator",
          "type": "address"
        },
        {
          "name": "price",
          "type": "uint256"
        }
      ],
      "payable": false,
      "stateMutability": "view",
      "type": "function"
    },
    {
      "constant": true,
      "inputs": [
        {
          "name": "",
          "type": "uint256"
        }
      ],
      "name": "assets",
      "outputs": [
        {
          "name": "id",
          "type": "uint256"
        },
        {
          "name": "packId",
          "type": "uint256"
        },
        {
          "name": "attributes",
          "type": "uint256"
        },
        {
          "name": "ipfsHash",
          "type": "bytes32"
        }
      ],
      "payable": false,
      "stateMutability": "view",
      "type": "function"
    },
    {
      "constant": false,
      "inputs": [
        {
          "name": "newOwner",
          "type": "address"
        }
      ],
      "name": "transferOwnership",
      "outputs": [],
      "payable": false,
      "stateMutability": "nonpayable",
      "type": "function"
    },
    {
      "anonymous": false,
      "inputs": [
        {
          "indexed": true,
          "name": "previousOwner",
          "type": "address"
        },
        {
          "indexed": true,
          "name": "newOwner",
          "type": "address"
        }
      ],
      "name": "OwnershipTransferred",
      "type": "event"
    },
    {
      "constant": false,
      "inputs": [
        {
          "name": "_packCover",
          "type": "bytes32"
        },
        {
          "name": "_name",
          "type": "string"
        },
        {
          "name": "_attributes",
          "type": "uint256[]"
        },
        {
          "name": "_ipfsHashes",
          "type": "bytes32[]"
        },
        {
          "name": "_packPrice",
          "type": "uint256"
        }
      ],
      "name": "createAssetPack",
      "outputs": [],
      "payable": false,
      "stateMutability": "nonpayable",
      "type": "function"
    },
    {
      "constant": false,
      "inputs": [
        {
          "name": "_attributes",
          "type": "uint256"
        },
        {
          "name": "_ipfsHash",
          "type": "bytes32"
        },
        {
          "name": "_packId",
          "type": "uint256"
        }
      ],
      "name": "createAsset",
      "outputs": [
        {
          "name": "",
          "type": "uint256"
        }
      ],
      "payable": false,
      "stateMutability": "nonpayable",
      "type": "function"
    },
    {
      "constant": false,
      "inputs": [
        {
          "name": "_assetPackId",
          "type": "uint256"
        }
      ],
      "name": "buyAssetPack",
      "outputs": [],
      "payable": true,
      "stateMutability": "payable",
      "type": "function"
    },
    {
      "constant": true,
      "inputs": [],
      "name": "getNumberOfAssets",
      "outputs": [
        {
          "name": "",
          "type": "uint256"
        }
      ],
      "payable": false,
      "stateMutability": "view",
      "type": "function"
    },
    {
      "constant": true,
      "inputs": [],
      "name": "getNumberOfAssetPacks",
      "outputs": [
        {
          "name": "",
          "type": "uint256"
        }
      ],
      "payable": false,
      "stateMutability": "view",
      "type": "function"
    },
    {
      "constant": true,
      "inputs": [
        {
          "name": "_address",
          "type": "address"
        },
        {
          "name": "_packId",
          "type": "uint256"
        }
      ],
      "name": "checkHasPermissionForPack",
      "outputs": [
        {
          "name": "",
          "type": "bool"
        }
      ],
      "payable": false,
      "stateMutability": "view",
      "type": "function"
    },
    {
      "constant": true,
      "inputs": [
        {
          "name": "_ipfsHash",
          "type": "bytes32"
        }
      ],
      "name": "checkHashExists",
      "outputs": [
        {
          "name": "",
          "type": "bool"
        }
      ],
      "payable": false,
      "stateMutability": "view",
      "type": "function"
    },
    {
      "constant": false,
      "inputs": [
        {
          "name": "_address",
          "type": "address"
        },
        {
          "name": "_packId",
          "type": "uint256"
        }
      ],
      "name": "givePermission",
      "outputs": [],
      "payable": false,
      "stateMutability": "nonpayable",
      "type": "function"
    },
    {
      "constant": true,
      "inputs": [
        {
          "name": "assetIds",
          "type": "uint256[]"
        }
      ],
      "name": "pickUniquePacks",
      "outputs": [
        {
          "name": "",
          "type": "uint256[]"
        }
      ],
      "payable": false,
      "stateMutability": "view",
      "type": "function"
    },
    {
      "constant": true,
      "inputs": [
        {
          "name": "id",
          "type": "uint256"
        }
      ],
      "name": "getAssetInfo",
      "outputs": [
        {
          "name": "",
          "type": "uint256"
        },
        {
          "name": "",
          "type": "uint256"
        },
        {
          "name": "",
          "type": "uint256"
        },
        {
          "name": "",
          "type": "bytes32"
        }
      ],
      "payable": false,
      "stateMutability": "view",
      "type": "function"
    },
    {
      "constant": true,
      "inputs": [
        {
          "name": "_address",
          "type": "address"
        }
      ],
      "name": "getAssetPacksUserCreated",
      "outputs": [
        {
          "name": "",
          "type": "uint256[]"
        }
      ],
      "payable": false,
      "stateMutability": "view",
      "type": "function"
    },
    {
      "constant": true,
      "inputs": [
        {
          "name": "_id",
          "type": "uint256"
        }
      ],
      "name": "getAssetIpfs",
      "outputs": [
        {
          "name": "",
          "type": "bytes32"
        }
      ],
      "payable": false,
      "stateMutability": "view",
      "type": "function"
    },
    {
      "constant": true,
      "inputs": [
        {
          "name": "_id",
          "type": "uint256"
        }
      ],
      "name": "getAssetAttributes",
      "outputs": [
        {
          "name": "",
          "type": "uint256"
        }
      ],
      "payable": false,
      "stateMutability": "view",
      "type": "function"
    },
    {
      "constant": true,
      "inputs": [
        {
          "name": "_ids",
          "type": "uint256[]"
        }
      ],
      "name": "getIpfsForAssets",
      "outputs": [
        {
          "name": "",
          "type": "bytes32[]"
        }
      ],
      "payable": false,
      "stateMutability": "view",
      "type": "function"
    },
    {
      "constant": true,
      "inputs": [
        {
          "name": "_ids",
          "type": "uint256[]"
        }
      ],
      "name": "getAttributesForAssets",
      "outputs": [
        {
          "name": "",
          "type": "uint256[]"
        }
      ],
      "payable": false,
      "stateMutability": "view",
      "type": "function"
    },
    {
      "constant": false,
      "inputs": [],
      "name": "withdraw",
      "outputs": [],
      "payable": false,
      "stateMutability": "nonpayable",
      "type": "function"
    },
    {
      "constant": true,
      "inputs": [
        {
          "name": "_assetPackId",
          "type": "uint256"
        }
      ],
      "name": "getAssetPackData",
      "outputs": [
        {
          "name": "",
          "type": "string"
        },
        {
          "name": "",
          "type": "uint256[]"
        },
        {
          "name": "",
          "type": "uint256[]"
        },
        {
          "name": "",
          "type": "bytes32[]"
        }
      ],
      "payable": false,
      "stateMutability": "view",
      "type": "function"
    },
    {
      "constant": true,
      "inputs": [
        {
          "name": "_assetPackId",
          "type": "uint256"
        }
      ],
      "name": "getAssetPackName",
      "outputs": [
        {
          "name": "",
          "type": "string"
        }
      ],
      "payable": false,
      "stateMutability": "view",
      "type": "function"
    },
    {
      "constant": true,
      "inputs": [
        {
          "name": "_assetPackId",
          "type": "uint256"
        }
      ],
      "name": "getAssetPackPrice",
      "outputs": [
        {
          "name": "",
          "type": "uint256"
        }
      ],
      "payable": false,
      "stateMutability": "view",
      "type": "function"
    },
    {
      "constant": true,
      "inputs": [
        {
          "name": "_packIds",
          "type": "uint256[]"
        }
      ],
      "name": "getCoversForPacks",
      "outputs": [
        {
          "name": "",
          "type": "bytes32[]"
        }
      ],
      "payable": false,
      "stateMutability": "view",
      "type": "function"
    }
  ],
  "bytecode": "0x6080604052336000806101000a81548173ffffffffffffffffffffffffffffffffffffffff021916908373ffffffffffffffffffffffffffffffffffffffff160217905550612bac806100536000396000f30060806040526004361061013e576000357c0100000000000000000000000000000000000000000000000000000000900463ffffffff16806317228a5814610143578063225c76c3146101635780632889bc8a146101b05780632f405bb7146102485780633ccfd60b1461030357806347c7e6a81461031a578063511075a9146103c057806358da9bbc1461047b5780638883c52a146105f95780638c96a2c9146106245780638da5cb5b146106655780638f3bed06146106bc57806393ea515f14610777578063bb2aebe314610866578063c10136581461096d578063c21ec92c146109c6578063c58b54ef14610a0f578063ca774c8814610a50578063cf35bdd014610ab5578063e269053a14610b13578063ee08fcf314610b3e578063f23342d814610bf9578063f2fde38b14610c42578063f637d95014610c85575b600080fd5b61016160048036038101908080359060200190929190505050610ce3565b005b34801561016f57600080fd5b506101ae600480360381019080803573ffffffffffffffffffffffffffffffffffffffff16906020019092919080359060200190929190505050611017565b005b3480156101bc57600080fd5b506101f1600480360381019080803573ffffffffffffffffffffffffffffffffffffffff169060200190929190505050611084565b6040518080602001828103825283818151815260200191508051906020019060200280838360005b83811015610234578082015181840152602081019050610219565b505050509050019250505060405180910390f35b34801561025457600080fd5b506102ac6004803603810190808035906020019082018035906020019080806020026020016040519081016040528093929190818152602001838360200280828437820191505050505050919291929050505061111b565b6040518080602001828103825283818151815260200191508051906020019060200280838360005b838110156102ef5780820151818401526020810190506102d4565b505050509050019250505060405180910390f35b34801561030f57600080fd5b5061031861136a565b005b34801561032657600080fd5b5061034560048036038101908080359060200190929190505050611433565b6040518080602001828103825283818151815260200191508051906020019080838360005b8381101561038557808201518184015260208101905061036a565b50505050905090810190601f1680156103b25780820380516001836020036101000a031916815260200191505b509250505060405180910390f35b3480156103cc57600080fd5b50610424600480360381019080803590602001908201803590602001908080602002602001604051908101604052809392919081815260200183836020028082843782019150505050505091929192905050506115f1565b6040518080602001828103825283818151815260200191508051906020019060200280838360005b8381101561046757808201518184015260208101905061044c565b505050509050019250505060405180910390f35b34801561048757600080fd5b506104a6600480360381019080803590602001909291905050506116f4565b6040518080602001806020018060200180602001858103855289818151815260200191508051906020019080838360005b838110156104f25780820151818401526020810190506104d7565b50505050905090810190601f16801561051f5780820380516001836020036101000a031916815260200191505b50858103845288818151815260200191508051906020019060200280838360005b8381101561055b578082015181840152602081019050610540565b50505050905001858103835287818151815260200191508051906020019060200280838360005b8381101561059d578082015181840152602081019050610582565b50505050905001858103825286818151815260200191508051906020019060200280838360005b838110156105df5780820151818401526020810190506105c4565b505050509050019850505050505050505060405180910390f35b34801561060557600080fd5b5061060e611983565b6040518082815260200191505060405180910390f35b34801561063057600080fd5b5061064f6004803603810190808035906020019092919050505061198d565b6040518082815260200191505060405180910390f35b34801561067157600080fd5b5061067a611b4b565b604051808273ffffffffffffffffffffffffffffffffffffffff1673ffffffffffffffffffffffffffffffffffffffff16815260200191505060405180910390f35b3480156106c857600080fd5b5061072060048036038101908080359060200190820180359060200190808060200260200160405190810160405280939291908181526020018383602002808284378201915050505050509192919290505050611b70565b6040518080602001828103825283818151815260200191508051906020019060200280838360005b83811015610763578082015181840152602081019050610748565b505050509050019250505060405180910390f35b34801561078357600080fd5b506107a260048036038101908080359060200190929190505050611d5d565b604051808560001916600019168152602001806020018473ffffffffffffffffffffffffffffffffffffffff1673ffffffffffffffffffffffffffffffffffffffff168152602001838152602001828103825285818151815260200191508051906020019080838360005b8381101561082857808201518184015260208101905061080d565b50505050905090810190601f1680156108555780820380516001836020036101000a031916815260200191505b509550505050505060405180910390f35b34801561087257600080fd5b5061096b6004803603810190808035600019169060200190929190803590602001908201803590602001908080601f0160208091040260200160405190810160405280939291908181526020018383808284378201915050505050509192919290803590602001908201803590602001908080602002602001604051908101604052809392919081815260200183836020028082843782019150505050505091929192908035906020019082018035906020019080806020026020016040519081016040528093929190818152602001838360200280828437820191505050505050919291929080359060200190929190505050611e54565b005b34801561097957600080fd5b506109b060048036038101908080359060200190929190803560001916906020019092919080359060200190929190505050612153565b6040518082815260200191505060405180910390f35b3480156109d257600080fd5b506109f16004803603810190808035906020019092919050505061226b565b60405180826000191660001916815260200191505060405180910390f35b348015610a1b57600080fd5b50610a3a600480360381019080803590602001909291905050506122ed565b6040518082815260200191505060405180910390f35b348015610a5c57600080fd5b50610a9b600480360381019080803573ffffffffffffffffffffffffffffffffffffffff1690602001909291908035906020019092919050505061236f565b604051808215151515815260200191505060405180910390f35b348015610ac157600080fd5b50610ae060048036038101908080359060200190929190505050612623565b60405180858152602001848152602001838152602001826000191660001916815260200194505050505060405180910390f35b348015610b1f57600080fd5b50610b28612662565b6040518082815260200191505060405180910390f35b348015610b4a57600080fd5b50610ba26004803603810190808035906020019082018035906020019080806020026020016040519081016040528093929190818152602001838360200280828437820191505050505050919291929050505061266c565b6040518080602001828103825283818151815260200191508051906020019060200280838360005b83811015610be5578082015181840152602081019050610bca565b505050509050019250505060405180910390f35b348015610c0557600080fd5b50610c286004803603810190808035600019169060200190929190505050612765565b604051808215151515815260200191505060405180910390f35b348015610c4e57600080fd5b50610c83600480360381019080803573ffffffffffffffffffffffffffffffffffffffff169060200190929190505050612797565b005b348015610c9157600080fd5b50610cb0600480360381019080803590602001909291905050506128ec565b60405180858152602001848152602001838152602001826000191660001916815260200194505050505060405180910390f35b6000610ced612a19565b600091505b600860003373ffffffffffffffffffffffffffffffffffffffff1673ffffffffffffffffffffffffffffffffffffffff16815260200190815260200160002080549050821015610dae5782600860003373ffffffffffffffffffffffffffffffffffffffff1673ffffffffffffffffffffffffffffffffffffffff16815260200190815260200160002083815481101515610d8957fe5b906000526020600020015414151515610da157600080fd5b8180600101925050610cf2565b600483815481101515610dbd57fe5b906000526020600020906005020160a06040519081016040529081600082015460001916600019168152602001600182018054600181600116156101000203166002900480601f016020809104026020016040519081016040528092919081815260200182805460018160011615610100020316600290048015610e825780601f10610e5757610100808354040283529160200191610e82565b820191906000526020600020905b815481529060010190602001808311610e6557829003601f168201915b5050505050815260200160028201805480602002602001604051908101604052809291908181526020018280548015610eda57602002820191906000526020600020905b815481526020019060010190808311610ec6575b505050505081526020016003820160009054906101000a900473ffffffffffffffffffffffffffffffffffffffff1673ffffffffffffffffffffffffffffffffffffffff1673ffffffffffffffffffffffffffffffffffffffff168152602001600482015481525050905080608001513410151515610f5857600080fd5b3460056000836060015173ffffffffffffffffffffffffffffffffffffffff1673ffffffffffffffffffffffffffffffffffffffff16815260200190815260200160002060008282540192505081905550600860003373ffffffffffffffffffffffffffffffffffffffff1673ffffffffffffffffffffffffffffffffffffffff168152602001908152602001600020839080600181540180825580915050906001820390600052602060002001600090919290919091505550505050565b600860008373ffffffffffffffffffffffffffffffffffffffff1673ffffffffffffffffffffffffffffffffffffffff1681526020019081526020016000208190806001815401808255809150509060018203906000526020600020016000909192909190915055505050565b6060600760008373ffffffffffffffffffffffffffffffffffffffff1673ffffffffffffffffffffffffffffffffffffffff16815260200190815260200160002080548060200260200160405190810160405280929190818152602001828054801561110f57602002820191906000526020600020905b8154815260200190600101908083116110fb575b50505050509050919050565b6060806000611128612a19565b6000855111151561113857600080fd5b84516040519080825280602002602001820160405280156111685781602001602082028038833980820191505090505b509250600091505b845182101561135f576004858381518110151561118957fe5b9060200190602002015181548110151561119f57fe5b906000526020600020906005020160a06040519081016040529081600082015460001916600019168152602001600182018054600181600116156101000203166002900480601f0160208091040260200160405190810160405280929190818152602001828054600181600116156101000203166002900480156112645780601f1061123957610100808354040283529160200191611264565b820191906000526020600020905b81548152906001019060200180831161124757829003601f168201915b50505050508152602001600282018054806020026020016040519081016040528092919081815260200182805480156112bc57602002820191906000526020600020905b8154815260200190600101908083116112a8575b505050505081526020016003820160009054906101000a900473ffffffffffffffffffffffffffffffffffffffff1673ffffffffffffffffffffffffffffffffffffffff1673ffffffffffffffffffffffffffffffffffffffff16815260200160048201548152505090508060000151838381518110151561133a57fe5b9060200190602002019060001916908160001916815250508180600101925050611170565b829350505050919050565b60008073ffffffffffffffffffffffffffffffffffffffff163373ffffffffffffffffffffffffffffffffffffffff16141515156113a757600080fd5b600560003373ffffffffffffffffffffffffffffffffffffffff1673ffffffffffffffffffffffffffffffffffffffff1681526020019081526020016000205490503373ffffffffffffffffffffffffffffffffffffffff166108fc829081150290604051600060405180830381858888f1935050505015801561142f573d6000803e3d6000fd5b5050565b606061143d612a19565b6002548310151561144d57600080fd5b60048381548110151561145c57fe5b906000526020600020906005020160a06040519081016040529081600082015460001916600019168152602001600182018054600181600116156101000203166002900480601f0160208091040260200160405190810160405280929190818152602001828054600181600116156101000203166002900480156115215780601f106114f657610100808354040283529160200191611521565b820191906000526020600020905b81548152906001019060200180831161150457829003601f168201915b505050505081526020016002820180548060200260200160405190810160405280929190818152602001828054801561157957602002820191906000526020600020905b815481526020019060010190808311611565575b505050505081526020016003820160009054906101000a900473ffffffffffffffffffffffffffffffffffffffff1673ffffffffffffffffffffffffffffffffffffffff1673ffffffffffffffffffffffffffffffffffffffff16815260200160048201548152505090508060200151915050919050565b60608060006115fe612a62565b845160405190808252806020026020018201604052801561162e5781602001602082028038833980820191505090505b509250600091505b84518210156116e9576003858381518110151561164f57fe5b9060200190602002015181548110151561166557fe5b90600052602060002090600402016080604051908101604052908160008201548152602001600182015481526020016002820154815260200160038201546000191660001916815250509050806060015183838151811015156116c457fe5b9060200190602002019060001916908160001916815250508180600101925050611636565b829350505050919050565b606080606080611702612a19565b6060600060606002548910151561171857600080fd5b60048981548110151561172757fe5b906000526020600020906005020160a06040519081016040529081600082015460001916600019168152602001600182018054600181600116156101000203166002900480601f0160208091040260200160405190810160405280929190818152602001828054600181600116156101000203166002900480156117ec5780601f106117c1576101008083540402835291602001916117ec565b820191906000526020600020905b8154815290600101906020018083116117cf57829003601f168201915b505050505081526020016002820180548060200260200160405190810160405280929190818152602001828054801561184457602002820191906000526020600020905b815481526020019060010190808311611830575b505050505081526020016003820160009054906101000a900473ffffffffffffffffffffffffffffffffffffffff1673ffffffffffffffffffffffffffffffffffffffff1673ffffffffffffffffffffffffffffffffffffffff16815260200160048201548152505093508360400151516040519080825280602002602001820160405280156118e35781602001602082028038833980820191505090505b509250600091505b83604001515182101561194f5761191c84604001518381518110151561190d57fe5b9060200190602002015161226b565b838381518110151561192a57fe5b90602001906020020190600019169081600019168152505081806001019250506118eb565b61195c846040015161266c565b90508360200151846040015182858393508292509750975097509750505050509193509193565b6000600254905090565b6000611997612a19565b600254831015156119a757600080fd5b6004838154811015156119b657fe5b906000526020600020906005020160a06040519081016040529081600082015460001916600019168152602001600182018054600181600116156101000203166002900480601f016020809104026020016040519081016040528092919081815260200182805460018160011615610100020316600290048015611a7b5780601f10611a5057610100808354040283529160200191611a7b565b820191906000526020600020905b815481529060010190602001808311611a5e57829003601f168201915b5050505050815260200160028201805480602002602001604051908101604052809291908181526020018280548015611ad357602002820191906000526020600020905b815481526020019060010190808311611abf575b505050505081526020016003820160009054906101000a900473ffffffffffffffffffffffffffffffffffffffff1673ffffffffffffffffffffffffffffffffffffffff1673ffffffffffffffffffffffffffffffffffffffff16815260200160048201548152505090508060800151915050919050565b6000809054906101000a900473ffffffffffffffffffffffffffffffffffffffff1681565b606080600080611b7e612a62565b600080606060008951111515611b9357600080fd5b8851604051908082528060200260200182016040528015611bc35781602001602082028038833980820191505090505b50965060009550600094505b8851851015611cce5760038986815181101515611be857fe5b90602001906020020151815481101515611bfe57fe5b9060005260206000209060040201608060405190810160405290816000820154815260200160018201548152602001600282015481526020016003820154600019166000191681525050935060009250600091505b85821015611c90578682815181101515611c6957fe5b9060200190602002015184602001511415611c8357600192505b8180600101925050611c53565b821515611cc15783602001518787815181101515611caa57fe5b906020019060200201818152505085806001019650505b8480600101955050611bcf565b85604051908082528060200260200182016040528015611cfd5781602001602082028038833980820191505090505b509050600094505b85851015611d4e578685815181101515611d1b57fe5b906020019060200201518186815181101515611d3357fe5b90602001906020020181815250508480600101955050611d05565b80975050505050505050919050565b600481815481101515611d6c57fe5b9060005260206000209060050201600091509050806000015490806001018054600181600116156101000203166002900480601f016020809104026020016040519081016040528092919081815260200182805460018160011615610100020316600290048015611e1e5780601f10611df357610100808354040283529160200191611e1e565b820191906000526020600020905b815481529060010190602001808311611e0157829003601f168201915b5050505050908060030160009054906101000a900473ffffffffffffffffffffffffffffffffffffffff16908060040154905084565b60606000808451111515611e6757600080fd5b60328451101515611e7757600080fd5b60328551101515611e8757600080fd5b8351604051908082528060200260200182016040528015611eb75781602001602082028038833980820191505090505b509150600090505b8351811015611fc057611ee88582815181101515611ed957fe5b90602001906020020151612999565b1515611f5c576040517f08c379a00000000000000000000000000000000000000000000000000000000081526004018080602001828103825260198152602001807f4174747269627574657320617265206e6f742076616c69642e0000000000000081525060200191505060405180910390fd5b611f978582815181101515611f6d57fe5b906020019060200201518583815181101515611f8557fe5b90602001906020020151600254612153565b8282815181101515611fa557fe5b90602001906020020181815250508080600101915050611ebf565b600460a060405190810160405280896000191681526020018881526020018481526020013373ffffffffffffffffffffffffffffffffffffffff168152602001858152509080600181540180825580915050906001820390600052602060002090600502016000909192909190915060008201518160000190600019169055602082015181600101908051906020019061205b929190612a8e565b506040820151816002019080519060200190612078929190612b0e565b5060608201518160030160006101000a81548173ffffffffffffffffffffffffffffffffffffffff021916908373ffffffffffffffffffffffffffffffffffffffff16021790555060808201518160040155505050600760003373ffffffffffffffffffffffffffffffffffffffff1673ffffffffffffffffffffffffffffffffffffffff168152602001908152602001600020600254908060018154018082558091505090600182039060005260206000200160009091929091909150555060026000815480929190600101919050555050505050505050565b6000806000151560066000866000191660001916815260200190815260200160002060009054906101000a900460ff16151514151561219157600080fd5b6001549050600360806040519081016040528083815260200185815260200187815260200186600019168152509080600181540180825580915050906001820390600052602060002090600402016000909192909190915060008201518160000155602082015181600101556040820151816002015560608201518160030190600019169055505050600160066000866000191660001916815260200190815260200160002060006101000a81548160ff021916908315150217905550600160008154809291906001019190505550809150509392505050565b6000612275612a62565b6001548310151561228557600080fd5b60038381548110151561229457fe5b906000526020600020906004020160806040519081016040529081600082015481526020016001820154815260200160028201548152602001600382015460001916600019168152505090508060600151915050919050565b60006122f7612a62565b6001548310151561230757600080fd5b60038381548110151561231657fe5b906000526020600020906004020160806040519081016040529081600082015481526020016001820154815260200160028201548152602001600382015460001916600019168152505090508060400151915050919050565b6000612379612a19565b600060048481548110151561238a57fe5b906000526020600020906005020160a06040519081016040529081600082015460001916600019168152602001600182018054600181600116156101000203166002900480601f01602080910402602001604051908101604052809291908181526020018280546001816001161561010002031660029004801561244f5780601f106124245761010080835404028352916020019161244f565b820191906000526020600020905b81548152906001019060200180831161243257829003601f168201915b50505050508152602001600282018054806020026020016040519081016040528092919081815260200182805480156124a757602002820191906000526020600020905b815481526020019060010190808311612493575b505050505081526020016003820160009054906101000a900473ffffffffffffffffffffffffffffffffffffffff1673ffffffffffffffffffffffffffffffffffffffff1673ffffffffffffffffffffffffffffffffffffffff16815260200160048201548152505091508473ffffffffffffffffffffffffffffffffffffffff16826060015173ffffffffffffffffffffffffffffffffffffffff161415612553576001925061261b565b600090505b600860008673ffffffffffffffffffffffffffffffffffffffff1673ffffffffffffffffffffffffffffffffffffffff168152602001908152602001600020805490508110156126165783600860008773ffffffffffffffffffffffffffffffffffffffff1673ffffffffffffffffffffffffffffffffffffffff168152602001908152602001600020828154811015156125ef57fe5b90600052602060002001541415612609576001925061261b565b8080600101915050612558565b600092505b505092915050565b60038181548110151561263257fe5b90600052602060002090600402016000915090508060000154908060010154908060020154908060030154905084565b6000600154905090565b6060806000612679612a62565b84516040519080825280602002602001820160405280156126a95781602001602082028038833980820191505090505b509250600091505b845182101561275a57600385838151811015156126ca57fe5b906020019060200201518154811015156126e057fe5b906000526020600020906004020160806040519081016040529081600082015481526020016001820154815260200160028201548152602001600382015460001916600019168152505090508060400151838381518110151561273f57fe5b906020019060200201818152505081806001019250506126b1565b829350505050919050565b600060066000836000191660001916815260200190815260200160002060009054906101000a900460ff169050919050565b6000809054906101000a900473ffffffffffffffffffffffffffffffffffffffff1673ffffffffffffffffffffffffffffffffffffffff163373ffffffffffffffffffffffffffffffffffffffff161415156127f257600080fd5b600073ffffffffffffffffffffffffffffffffffffffff168173ffffffffffffffffffffffffffffffffffffffff161415151561282e57600080fd5b8073ffffffffffffffffffffffffffffffffffffffff166000809054906101000a900473ffffffffffffffffffffffffffffffffffffffff1673ffffffffffffffffffffffffffffffffffffffff167f8be0079c531659141344cd1fd0a4f28419497f9722a3daafe3b4186f6b6457e060405160405180910390a3806000806101000a81548173ffffffffffffffffffffffffffffffffffffffff021916908373ffffffffffffffffffffffffffffffffffffffff16021790555050565b6000806000806128fa612a62565b6000861015151561290a57600080fd5b6001548610151561291a57600080fd5b60038681548110151561292957fe5b9060005260206000209060040201608060405190810160405290816000820154815260200160018201548152602001600282015481526020016003820154600019166000191681525050905080600001518160200151826040015183606001519450945094509450509193509193565b600060648210806129ab57506103e782115b156129b95760009050612a14565b5b6000821115612a0f576001600a838115156129d157fe5b06141580156129ed57506002600a838115156129e957fe5b0614155b156129fb5760009050612a14565b600a82811515612a0757fe5b0491506129ba565b600190505b919050565b60a060405190810160405280600080191681526020016060815260200160608152602001600073ffffffffffffffffffffffffffffffffffffffff168152602001600081525090565b608060405190810160405280600081526020016000815260200160008152602001600080191681525090565b828054600181600116156101000203166002900490600052602060002090601f016020900481019282601f10612acf57805160ff1916838001178555612afd565b82800160010185558215612afd579182015b82811115612afc578251825591602001919060010190612ae1565b5b509050612b0a9190612b5b565b5090565b828054828255906000526020600020908101928215612b4a579160200282015b82811115612b49578251825591602001919060010190612b2e565b5b509050612b579190612b5b565b5090565b612b7d91905b80821115612b79576000816000905550600101612b61565b5090565b905600a165627a7a723058206316fb377d8ed662867922cc2383b2871fd14c31e1c856741cf3f0f7d35b34190029",
  "source": "pragma solidity ^0.4.23;\nimport \"./Utils/Ownable.sol\";\n\n\ncontract AssetManager is Ownable {\n\n    struct Asset {\n        uint id;\n        uint packId;\n        /// atributes field is going to be 3 digit uint where every digit can be \"1\" or \"2\"\n        /// 1st digit will tell us if asset is background 1 - true / 2 - false\n        /// 2nd digit will tell us if rotation is enabled 1 - true / 2 - false\n        /// 3rd digit will tell us if scaling  is enabled 1 - true / 2 - false\n        uint attributes;\n        bytes32 ipfsHash;\n    }\n\n    struct AssetPack {\n        bytes32 packCover;\n        string name;\n        uint[] assetIds;\n        address creator;\n        uint price;\n    }\n\n\n    uint numberOfAssets;\n    uint numberOfAssetPacks;\n\n    Asset[] public assets;\n    AssetPack[] public assetPacks;\n\n    mapping(address => uint) artistBalance;\n    mapping(bytes32 => bool) hashExists;\n\n    mapping(address => uint[]) createdAssetPacks;\n    mapping(address => uint[]) boughtAssetPacks;\n\n\n    /// @notice Function to create assetpack\n    /// @param _packCover is cover image for asset pack\n    /// @param _name is name of the asset pack\n    /// @param _attributes is array of attributes\n    /// @param _ipfsHashes is array containing all ipfsHashes for assets we'd like to put in pack\n    /// @param _packPrice is price for total assetPack (every asset will have average price)\n    function createAssetPack(bytes32 _packCover, string _name, uint[] _attributes, bytes32[] _ipfsHashes, uint _packPrice) public {\n        require(_ipfsHashes.length > 0);\n        require(_ipfsHashes.length < 50);\n        require(_attributes.length < 50);\n\n        uint[] memory ids = new uint[](_ipfsHashes.length);\n\n        for(uint i=0; i< _ipfsHashes.length; i++){\n            require(isAttributesValid(_attributes[i]), \"Attributes are not valid.\");\n            ids[i] = createAsset(_attributes[i], _ipfsHashes[i], numberOfAssetPacks);\n        }\n\n        assetPacks.push(AssetPack({\n            packCover: _packCover,\n            name: _name,\n            assetIds: ids,\n            creator: msg.sender,\n            price: _packPrice\n        }));\n\n        createdAssetPacks[msg.sender].push(numberOfAssetPacks);\n        numberOfAssetPacks++;\n    }\n\n    /// @notice Function which creates an asset\n    /// @dev this method will be internal/private later in production\n    /// @dev id is automatically generated, and it's it's position in array which holds all assets, also, creator of asset is msg.sender\n    /// @dev add attributes validation\n    /// @param _attributes is meta info for asset\n    /// @param _ipfsHash is ipfsHash to image of asset\n    function createAsset(uint _attributes, bytes32 _ipfsHash, uint _packId) public returns(uint) {\n        require(hashExists[_ipfsHash] == false);\n\n        uint id = numberOfAssets;\n\n        assets.push(Asset({\n            id : id,\n            packId: _packId,\n            attributes: _attributes,\n            ipfsHash : _ipfsHash\n            }));\n\n        hashExists[_ipfsHash] = true;\n        numberOfAssets++;\n\n        return id;\n    }\n\n\n    function buyAssetPack(uint _assetPackId) public payable {\n        ///validate if user have already bought permission for this pack\n        for(uint i=0; i<boughtAssetPacks[msg.sender].length; i++) {\n            require(boughtAssetPacks[msg.sender][i] != _assetPackId);\n        }\n\n        AssetPack memory assetPack = assetPacks[_assetPackId];\n        require(msg.value >= assetPack.price);\n        // if someone wants to pay more money for asset pack, we will give all of it to creator\n        artistBalance[assetPack.creator] += msg.value;\n        boughtAssetPacks[msg.sender].push(_assetPackId);\n    }\n\n\n    /// @notice Function to fetch total number of assets\n    /// @return numberOfAssets\n    function getNumberOfAssets() public view returns (uint) {\n        return numberOfAssets;\n    }\n\n    /// @notice Function to fetch total number of assetpacks\n    /// @return uint numberOfAssetPacks\n    function getNumberOfAssetPacks() public view returns(uint) {\n        return numberOfAssetPacks;\n    }\n    /// @notice Function to check if user have permission (owner / bought) for pack\n    /// @param _address is address of user\n    /// @param _packId is id of pack\n    function checkHasPermissionForPack(address _address, uint _packId) public view returns (bool) {\n        AssetPack memory assetPack = assetPacks[_packId];\n        if (assetPack.creator == _address) {\n            return true;\n        }\n\n        for(uint i = 0; i<boughtAssetPacks[_address].length; i++) {\n            if (boughtAssetPacks[_address][i] == _packId) {\n                return true;\n            }\n        }\n\n        return false;\n    }\n\n    /// @notice Function to check does hash exist in mapping\n    /// @param _ipfsHash is bytes32 representation of hash\n    function checkHashExists(bytes32 _ipfsHash) public view returns (bool){\n        return hashExists[_ipfsHash];\n    }\n\n    /// @notice Function to give you permission for all assets you are buying during image creation\n    /// @param _address is address of buyer\n    /// @param _packId is id of assetpack\n    function givePermission(address _address, uint _packId) public {\n        boughtAssetPacks[_address].push(_packId);\n    }\n\n    function pickUniquePacks(uint[] assetIds) public view returns (uint[]){\n        require(assetIds.length > 0);\n\n        uint[] memory packs = new uint[](assetIds.length);\n        uint packsCount = 0;\n        \n        for(uint i = 0; i<assetIds.length; i++){\n            Asset memory asset = assets[assetIds[i]];\n            bool exists = false;\n\n            for(uint j = 0; j<packsCount; j++) {\n                if(asset.packId == packs[j]) {\n                    exists = true;\n                }\n            }\n\n            if (!exists) {\n                packs[packsCount] = asset.packId;\n                packsCount++;\n            }\n        }\n\n        uint[] memory finalPacks = new uint[](packsCount);\n        for(i = 0; i<packsCount; i++) {\n            finalPacks[i] = packs[i];\n        }\n\n        return finalPacks;\n    }\n    \n    /// @notice Method to get all info for an asset\n    /// @param id is id of asset\n    /// @return All data for an asset\n    function getAssetInfo(uint id) public view returns (uint, uint, uint, bytes32){\n        require(id >= 0);\n        require(id < numberOfAssets);\n        Asset memory asset = assets[id];\n\n        return (asset.id, asset.packId, asset.attributes, asset.ipfsHash);\n    }\n\n\n\n    function getAssetPacksUserCreated(address _address) public view returns(uint[]){\n        return createdAssetPacks[_address];\n    }\n\n    /// @notice Function to get ipfsHash for selected asset\n    /// @param _id is id of asset we'd like to get ipfs hash\n    /// @return string representation of ipfs hash of that asset\n    function getAssetIpfs(uint _id) public view returns (bytes32) {\n        require(_id < numberOfAssets);\n        Asset memory asset = assets[_id];\n        return asset.ipfsHash;\n    }\n\n    /// @notice Function to get attributes for selected asset\n    /// @param _id is id of asset we'd like to get ipfs hash\n    /// @return uint representation of attributes of that asset\n    function getAssetAttributes(uint _id) public view returns (uint) {\n        require(_id < numberOfAssets);\n        Asset memory asset = assets[_id];\n        return asset.attributes;\n    }\n\n    /// @notice Function to get array of ipfsHashes for specific assets\n    /// @dev need for data parsing on frontend efficiently\n    /// @param _ids is array of ids\n    /// @return bytes32 array of hashes\n    function getIpfsForAssets(uint[] _ids) public view returns (bytes32[]) {\n        bytes32[] memory hashes = new bytes32[](_ids.length);\n        for(uint i=0; i<_ids.length; i++) {\n            Asset memory asset = assets[_ids[i]];\n            hashes[i] = asset.ipfsHash;\n        }\n\n        return hashes;\n    }\n\n    function getAttributesForAssets(uint[] _ids) public view returns(uint[]) {\n        uint[] memory attributes = new uint[](_ids.length);\n        for(uint i=0; i< _ids.length; i++) {\n            Asset memory asset = assets[_ids[i]];\n            attributes[i] = asset.attributes;\n        }\n        return attributes;\n    }\n    ///@notice Function where all artists can withdraw their funds\n    function withdraw() public {\n        require(msg.sender != address(0));\n        uint amount = artistBalance[msg.sender];\n\n        msg.sender.transfer(amount);\n    }\n\n\n    /// @notice Function to get ipfs hash and id for all assets in one asset pack\n    /// @param _assetPackId is id of asset pack\n    /// @return two arrays with data\n    function getAssetPackData(uint _assetPackId) public view returns(string, uint[], uint[], bytes32[]){\n        require(_assetPackId < numberOfAssetPacks);\n\n        AssetPack memory assetPack = assetPacks[_assetPackId];\n        bytes32[] memory hashes = new bytes32[](assetPack.assetIds.length);\n\n        for(uint i=0; i<assetPack.assetIds.length; i++){\n            hashes[i] = getAssetIpfs(assetPack.assetIds[i]);\n        }\n        uint[] memory attributes = getAttributesForAssets(assetPack.assetIds);\n\n        return(assetPack.name, assetPack.assetIds, attributes, hashes);\n    }\n\n    /// @notice Function to get name for asset pack\n    /// @param _assetPackId is id of asset pack\n    /// @return string name of asset pack\n    function getAssetPackName(uint _assetPackId) public view returns (string) {\n        require(_assetPackId < numberOfAssetPacks);\n\n        AssetPack memory assetPack = assetPacks[_assetPackId];\n\n        return assetPack.name;\n    }\n\n    function getAssetPackPrice(uint _assetPackId) public view returns (uint) {\n        require(_assetPackId < numberOfAssetPacks);\n        AssetPack memory assetPack = assetPacks[_assetPackId];\n\n        return assetPack.price;\n    }\n    /// @notice Function to get cover image for every assetpack\n    /// @param _packIds is array of asset pack ids\n    /// @return bytes32[] array of hashes\n    function getCoversForPacks(uint[] _packIds) public view returns (bytes32[]) {\n        require(_packIds.length > 0);\n        bytes32[] memory covers = new bytes32[](_packIds.length);\n        for(uint i=0; i<_packIds.length; i++) {\n            AssetPack memory assetPack = assetPacks[_packIds[i]];\n            covers[i] = assetPack.packCover;\n        }\n        return covers;\n    }\n\n    function isAttributesValid(uint attributes) private pure returns(bool) {\n        if (attributes < 100 || attributes > 999) {\n            return false;\n        }\n\n        while (attributes > 0) {\n            if (attributes % 10 != 1 && attributes % 10 != 2) {\n                return false;\n            } \n            attributes = attributes / 10;\n        }\n\n        return true;\n    }\n\n\n    //    function getAssetsUserHaveInPack(uint packId, address _userAddress) public view returns (uint[]) {\n    //        AssetPack memory assetPack = assetPacks[packId];\n    //        uint[] memory ownedAssets = new uint[](assetPack.assetIds.length);\n    //        uint counter = 0;\n    //        for(uint i=0; i<assetPack.assetIds.length; i++) {\n    //            if(hasPermission[_userAddress][assetPack.assetIds[i]] == true) {\n    //                ownedAssets[counter] = assetPack.assetIds[i];\n    //            }\n    //        }\n    //        return ownedAssets;\n    //    }\n    //    /// @notice Function to get owned assets from one pack and pack size\n    //    /// @param _assetPacksIds is array with ids of asset packs we need information for\n    //    /// @param _userAddress is address of user we are checking this\n    //    /// @return two arrays one containing how many assets we have and second containing packs size\n    //    function getOwnedAssetsFromPacks(uint [] _assetPacksIds, address _userAddress) public view returns (uint[],uint[]) {\n    //        uint [] memory ownedAssets = new uint[](_assetPacksIds.length);\n    //        uint [] memory totalInPack = new uint[](_assetPacksIds.length);\n    //        uint counter = 0;\n    //        for(uint i=0; i< _assetPacksIds.length; i++) {\n    //            AssetPack memory assetPack = assetPacks[_assetPacksIds[i]];\n    //            for(uint j=0; j<assetPack.assetIds.length; j++) {\n    //                if(hasPermission[_userAddress][assetPack.assetIds[j]] == true) {\n    //                    counter++;\n    //                }\n    //            }\n    //            ownedAssets[i] = counter;\n    //            totalInPack[i] = assetPack.assetIds.length;\n    //            counter = 0;\n    //        }\n    //\n    //        return (ownedAssets, totalInPack);\n    //    }\n}",
  "sourcePath": "/Users/nikolaklipa/Decenter/Cryptographics/contracts/AssetManager.sol",
  "compiler": {
    "name": "solc",
    "version": "0.4.24+commit.e67f0147.Emscripten.clang"
  },
  "schemaVersion": "2.0.1",
  "updatedAt": "2018-07-13T11:07:00.098Z"
}