{
  "contractName": "AssetManager",
  "abi": [
    {
      "constant": true,
      "inputs": [],
      "name": "owner",
      "outputs": [
        {
          "name": "",
          "type": "address"
        }
      ],
      "payable": false,
      "stateMutability": "view",
      "type": "function"
    },
    {
      "constant": true,
      "inputs": [
        {
          "name": "",
          "type": "uint256"
        }
      ],
      "name": "assetPacks",
      "outputs": [
        {
          "name": "packCover",
          "type": "bytes32"
        },
        {
          "name": "name",
          "type": "string"
        },
        {
          "name": "creator",
          "type": "address"
        },
        {
          "name": "price",
          "type": "uint256"
        }
      ],
      "payable": false,
      "stateMutability": "view",
      "type": "function"
    },
    {
      "constant": true,
      "inputs": [
        {
          "name": "",
          "type": "uint256"
        }
      ],
      "name": "assets",
      "outputs": [
        {
          "name": "id",
          "type": "uint256"
        },
        {
          "name": "packId",
          "type": "uint256"
        },
        {
          "name": "attributes",
          "type": "uint256"
        },
        {
          "name": "ipfsHash",
          "type": "bytes32"
        }
      ],
      "payable": false,
      "stateMutability": "view",
      "type": "function"
    },
    {
      "constant": false,
      "inputs": [
        {
          "name": "newOwner",
          "type": "address"
        }
      ],
      "name": "transferOwnership",
      "outputs": [],
      "payable": false,
      "stateMutability": "nonpayable",
      "type": "function"
    },
    {
      "anonymous": false,
      "inputs": [
        {
          "indexed": true,
          "name": "previousOwner",
          "type": "address"
        },
        {
          "indexed": true,
          "name": "newOwner",
          "type": "address"
        }
      ],
      "name": "OwnershipTransferred",
      "type": "event"
    },
    {
      "constant": false,
      "inputs": [
        {
          "name": "_packCover",
          "type": "bytes32"
        },
        {
          "name": "_name",
          "type": "string"
        },
        {
          "name": "_attributes",
          "type": "uint256[]"
        },
        {
          "name": "_ipfsHashes",
          "type": "bytes32[]"
        },
        {
          "name": "_packPrice",
          "type": "uint256"
        }
      ],
      "name": "createAssetPack",
      "outputs": [],
      "payable": false,
      "stateMutability": "nonpayable",
      "type": "function"
    },
    {
      "constant": false,
      "inputs": [
        {
          "name": "_attributes",
          "type": "uint256"
        },
        {
          "name": "_ipfsHash",
          "type": "bytes32"
        },
        {
          "name": "_packId",
          "type": "uint256"
        }
      ],
      "name": "createAsset",
      "outputs": [
        {
          "name": "",
          "type": "uint256"
        }
      ],
      "payable": false,
      "stateMutability": "nonpayable",
      "type": "function"
    },
    {
      "constant": false,
      "inputs": [
        {
          "name": "_assetPackId",
          "type": "uint256"
        }
      ],
      "name": "buyAssetPack",
      "outputs": [],
      "payable": true,
      "stateMutability": "payable",
      "type": "function"
    },
    {
      "constant": true,
      "inputs": [],
      "name": "getNumberOfAssets",
      "outputs": [
        {
          "name": "",
          "type": "uint256"
        }
      ],
      "payable": false,
      "stateMutability": "view",
      "type": "function"
    },
    {
      "constant": true,
      "inputs": [],
      "name": "getNumberOfAssetPacks",
      "outputs": [
        {
          "name": "",
          "type": "uint256"
        }
      ],
      "payable": false,
      "stateMutability": "view",
      "type": "function"
    },
    {
      "constant": true,
      "inputs": [
        {
          "name": "_address",
          "type": "address"
        },
        {
          "name": "_packId",
          "type": "uint256"
        }
      ],
      "name": "checkHasPermissionForPack",
      "outputs": [
        {
          "name": "",
          "type": "bool"
        }
      ],
      "payable": false,
      "stateMutability": "view",
      "type": "function"
    },
    {
      "constant": true,
      "inputs": [
        {
          "name": "_ipfsHash",
          "type": "bytes32"
        }
      ],
      "name": "checkHashExists",
      "outputs": [
        {
          "name": "",
          "type": "bool"
        }
      ],
      "payable": false,
      "stateMutability": "view",
      "type": "function"
    },
    {
      "constant": false,
      "inputs": [
        {
          "name": "_address",
          "type": "address"
        },
        {
          "name": "_packId",
          "type": "uint256"
        }
      ],
      "name": "givePermission",
      "outputs": [],
      "payable": false,
      "stateMutability": "nonpayable",
      "type": "function"
    },
    {
      "constant": true,
      "inputs": [
        {
          "name": "assetIds",
          "type": "uint256[]"
        }
      ],
      "name": "pickUniquePacks",
      "outputs": [
        {
          "name": "",
          "type": "uint256[]"
        }
      ],
      "payable": false,
      "stateMutability": "view",
      "type": "function"
    },
    {
      "constant": true,
      "inputs": [
        {
          "name": "id",
          "type": "uint256"
        }
      ],
      "name": "getAssetInfo",
      "outputs": [
        {
          "name": "",
          "type": "uint256"
        },
        {
          "name": "",
          "type": "uint256"
        },
        {
          "name": "",
          "type": "uint256"
        },
        {
          "name": "",
          "type": "bytes32"
        }
      ],
      "payable": false,
      "stateMutability": "view",
      "type": "function"
    },
    {
      "constant": true,
      "inputs": [
        {
          "name": "_address",
          "type": "address"
        }
      ],
      "name": "getAssetPacksUserCreated",
      "outputs": [
        {
          "name": "",
          "type": "uint256[]"
        }
      ],
      "payable": false,
      "stateMutability": "view",
      "type": "function"
    },
    {
      "constant": true,
      "inputs": [
        {
          "name": "_id",
          "type": "uint256"
        }
      ],
      "name": "getAssetIpfs",
      "outputs": [
        {
          "name": "",
          "type": "bytes32"
        }
      ],
      "payable": false,
      "stateMutability": "view",
      "type": "function"
    },
    {
      "constant": true,
      "inputs": [
        {
          "name": "_id",
          "type": "uint256"
        }
      ],
      "name": "getAssetAttributes",
      "outputs": [
        {
          "name": "",
          "type": "uint256"
        }
      ],
      "payable": false,
      "stateMutability": "view",
      "type": "function"
    },
    {
      "constant": true,
      "inputs": [
        {
          "name": "_ids",
          "type": "uint256[]"
        }
      ],
      "name": "getIpfsForAssets",
      "outputs": [
        {
          "name": "",
          "type": "bytes32[]"
        }
      ],
      "payable": false,
      "stateMutability": "view",
      "type": "function"
    },
    {
      "constant": true,
      "inputs": [
        {
          "name": "_ids",
          "type": "uint256[]"
        }
      ],
      "name": "getAttributesForAssets",
      "outputs": [
        {
          "name": "",
          "type": "uint256[]"
        }
      ],
      "payable": false,
      "stateMutability": "view",
      "type": "function"
    },
    {
      "constant": false,
      "inputs": [],
      "name": "withdraw",
      "outputs": [],
      "payable": false,
      "stateMutability": "nonpayable",
      "type": "function"
    },
    {
      "constant": true,
      "inputs": [
        {
          "name": "_assetPackId",
          "type": "uint256"
        }
      ],
      "name": "getAssetPackData",
      "outputs": [
        {
          "name": "",
          "type": "string"
        },
        {
          "name": "",
          "type": "uint256[]"
        },
        {
          "name": "",
          "type": "uint256[]"
        },
        {
          "name": "",
          "type": "bytes32[]"
        }
      ],
      "payable": false,
      "stateMutability": "view",
      "type": "function"
    },
    {
      "constant": true,
      "inputs": [
        {
          "name": "_assetPackId",
          "type": "uint256"
        }
      ],
      "name": "getAssetPackName",
      "outputs": [
        {
          "name": "",
          "type": "string"
        }
      ],
      "payable": false,
      "stateMutability": "view",
      "type": "function"
    },
    {
      "constant": true,
      "inputs": [
        {
          "name": "_assetPackId",
          "type": "uint256"
        }
      ],
      "name": "getAssetPackPrice",
      "outputs": [
        {
          "name": "",
          "type": "uint256"
        }
      ],
      "payable": false,
      "stateMutability": "view",
      "type": "function"
    },
    {
      "constant": true,
      "inputs": [
        {
          "name": "_packIds",
          "type": "uint256[]"
        }
      ],
      "name": "getCoversForPacks",
      "outputs": [
        {
          "name": "",
          "type": "bytes32[]"
        }
      ],
      "payable": false,
      "stateMutability": "view",
      "type": "function"
    },
    {
      "constant": true,
      "inputs": [
        {
          "name": "attributes",
          "type": "uint256"
        }
      ],
      "name": "isAttributesValid",
      "outputs": [
        {
          "name": "",
          "type": "bool"
        }
      ],
      "payable": false,
      "stateMutability": "pure",
      "type": "function"
    }
  ],
  "bytecode": "0x6080604052336000806101000a81548173ffffffffffffffffffffffffffffffffffffffff021916908373ffffffffffffffffffffffffffffffffffffffff160217905550612ca7806100536000396000f300608060405260043610610149576000357c0100000000000000000000000000000000000000000000000000000000900463ffffffff16806317228a581461014e578063225c76c31461016e5780632889bc8a146101bb5780632f405bb7146102535780633ccfd60b1461030e57806347c7e6a814610325578063511075a9146103cb57806358da9bbc146104865780638883c52a146106045780638c96a2c91461062f5780638da5cb5b146106705780638f3bed06146106c757806393ea515f14610782578063bb2aebe314610871578063c101365814610978578063c21ec92c146109d1578063c58b54ef14610a1a578063ca774c8814610a5b578063cf35bdd014610ac0578063e269053a14610b1e578063ee08fcf314610b49578063f0c4fd0c14610c04578063f23342d814610c49578063f2fde38b14610c92578063f637d95014610cd5575b600080fd5b61016c60048036038101908080359060200190929190505050610d33565b005b34801561017a57600080fd5b506101b9600480360381019080803573ffffffffffffffffffffffffffffffffffffffff1690602001909291908035906020019092919050505061106b565b005b3480156101c757600080fd5b506101fc600480360381019080803573ffffffffffffffffffffffffffffffffffffffff1690602001909291905050506110d8565b6040518080602001828103825283818151815260200191508051906020019060200280838360005b8381101561023f578082015181840152602081019050610224565b505050509050019250505060405180910390f35b34801561025f57600080fd5b506102b76004803603810190808035906020019082018035906020019080806020026020016040519081016040528093929190818152602001838360200280828437820191505050505050919291929050505061116f565b6040518080602001828103825283818151815260200191508051906020019060200280838360005b838110156102fa5780820151818401526020810190506102df565b505050509050019250505060405180910390f35b34801561031a57600080fd5b506103236113be565b005b34801561033157600080fd5b5061035060048036038101908080359060200190929190505050611487565b6040518080602001828103825283818151815260200191508051906020019080838360005b83811015610390578082015181840152602081019050610375565b50505050905090810190601f1680156103bd5780820380516001836020036101000a031916815260200191505b509250505060405180910390f35b3480156103d757600080fd5b5061042f60048036038101908080359060200190820180359060200190808060200260200160405190810160405280939291908181526020018383602002808284378201915050505050509192919290505050611645565b6040518080602001828103825283818151815260200191508051906020019060200280838360005b83811015610472578082015181840152602081019050610457565b505050509050019250505060405180910390f35b34801561049257600080fd5b506104b160048036038101908080359060200190929190505050611748565b6040518080602001806020018060200180602001858103855289818151815260200191508051906020019080838360005b838110156104fd5780820151818401526020810190506104e2565b50505050905090810190601f16801561052a5780820380516001836020036101000a031916815260200191505b50858103845288818151815260200191508051906020019060200280838360005b8381101561056657808201518184015260208101905061054b565b50505050905001858103835287818151815260200191508051906020019060200280838360005b838110156105a857808201518184015260208101905061058d565b50505050905001858103825286818151815260200191508051906020019060200280838360005b838110156105ea5780820151818401526020810190506105cf565b505050509050019850505050505050505060405180910390f35b34801561061057600080fd5b506106196119d7565b6040518082815260200191505060405180910390f35b34801561063b57600080fd5b5061065a600480360381019080803590602001909291905050506119e1565b6040518082815260200191505060405180910390f35b34801561067c57600080fd5b50610685611b9f565b604051808273ffffffffffffffffffffffffffffffffffffffff1673ffffffffffffffffffffffffffffffffffffffff16815260200191505060405180910390f35b3480156106d357600080fd5b5061072b60048036038101908080359060200190820180359060200190808060200260200160405190810160405280939291908181526020018383602002808284378201915050505050509192919290505050611bc4565b6040518080602001828103825283818151815260200191508051906020019060200280838360005b8381101561076e578082015181840152602081019050610753565b505050509050019250505060405180910390f35b34801561078e57600080fd5b506107ad60048036038101908080359060200190929190505050611e58565b604051808560001916600019168152602001806020018473ffffffffffffffffffffffffffffffffffffffff1673ffffffffffffffffffffffffffffffffffffffff168152602001838152602001828103825285818151815260200191508051906020019080838360005b83811015610833578082015181840152602081019050610818565b50505050905090810190601f1680156108605780820380516001836020036101000a031916815260200191505b509550505050505060405180910390f35b34801561087d57600080fd5b506109766004803603810190808035600019169060200190929190803590602001908201803590602001908080601f0160208091040260200160405190810160405280939291908181526020018383808284378201915050505050509192919290803590602001908201803590602001908080602002602001604051908101604052809392919081815260200183836020028082843782019150505050505091929192908035906020019082018035906020019080806020026020016040519081016040528093929190818152602001838360200280828437820191505050505050919291929080359060200190929190505050611f4f565b005b34801561098457600080fd5b506109bb6004803603810190808035906020019092919080356000191690602001909291908035906020019092919050505061224e565b6040518082815260200191505060405180910390f35b3480156109dd57600080fd5b506109fc60048036038101908080359060200190929190505050612366565b60405180826000191660001916815260200191505060405180910390f35b348015610a2657600080fd5b50610a45600480360381019080803590602001909291905050506123e8565b6040518082815260200191505060405180910390f35b348015610a6757600080fd5b50610aa6600480360381019080803573ffffffffffffffffffffffffffffffffffffffff1690602001909291908035906020019092919050505061246a565b604051808215151515815260200191505060405180910390f35b348015610acc57600080fd5b50610aeb6004803603810190808035906020019092919050505061271e565b60405180858152602001848152602001838152602001826000191660001916815260200194505050505060405180910390f35b348015610b2a57600080fd5b50610b3361275d565b6040518082815260200191505060405180910390f35b348015610b5557600080fd5b50610bad60048036038101908080359060200190820180359060200190808060200260200160405190810160405280939291908181526020018383602002808284378201915050505050509192919290505050612767565b6040518080602001828103825283818151815260200191508051906020019060200280838360005b83811015610bf0578082015181840152602081019050610bd5565b505050509050019250505060405180910390f35b348015610c1057600080fd5b50610c2f60048036038101908080359060200190929190505050612860565b604051808215151515815260200191505060405180910390f35b348015610c5557600080fd5b50610c7860048036038101908080356000191690602001909291905050506128e0565b604051808215151515815260200191505060405180910390f35b348015610c9e57600080fd5b50610cd3600480360381019080803573ffffffffffffffffffffffffffffffffffffffff169060200190929190505050612912565b005b348015610ce157600080fd5b50610d0060048036038101908080359060200190929190505050612a67565b60405180858152602001848152602001838152602001826000191660001916815260200194505050505060405180910390f35b6000610d3d612b14565b600091505b600860003373ffffffffffffffffffffffffffffffffffffffff1673ffffffffffffffffffffffffffffffffffffffff16815260200190815260200160002080549050821015610dfe5782600860003373ffffffffffffffffffffffffffffffffffffffff1673ffffffffffffffffffffffffffffffffffffffff16815260200190815260200160002083815481101515610dd957fe5b906000526020600020015414151515610df157600080fd5b8180600101925050610d42565b600483815481101515610e0d57fe5b906000526020600020906005020160a06040519081016040529081600082015460001916600019168152602001600182018054600181600116156101000203166002900480601f016020809104026020016040519081016040528092919081815260200182805460018160011615610100020316600290048015610ed25780601f10610ea757610100808354040283529160200191610ed2565b820191906000526020600020905b815481529060010190602001808311610eb557829003601f168201915b5050505050815260200160028201805480602002602001604051908101604052809291908181526020018280548015610f2a57602002820191906000526020600020905b815481526020019060010190808311610f16575b505050505081526020016003820160009054906101000a900473ffffffffffffffffffffffffffffffffffffffff1673ffffffffffffffffffffffffffffffffffffffff1673ffffffffffffffffffffffffffffffffffffffff168152602001600482015481525050905080608001513410151515610fa857600080fd5b806080015160056000836060015173ffffffffffffffffffffffffffffffffffffffff1673ffffffffffffffffffffffffffffffffffffffff16815260200190815260200160002060008282540192505081905550600860003373ffffffffffffffffffffffffffffffffffffffff1673ffffffffffffffffffffffffffffffffffffffff168152602001908152602001600020839080600181540180825580915050906001820390600052602060002001600090919290919091505550505050565b600860008373ffffffffffffffffffffffffffffffffffffffff1673ffffffffffffffffffffffffffffffffffffffff1681526020019081526020016000208190806001815401808255809150509060018203906000526020600020016000909192909190915055505050565b6060600760008373ffffffffffffffffffffffffffffffffffffffff1673ffffffffffffffffffffffffffffffffffffffff16815260200190815260200160002080548060200260200160405190810160405280929190818152602001828054801561116357602002820191906000526020600020905b81548152602001906001019080831161114f575b50505050509050919050565b606080600061117c612b14565b6000855111151561118c57600080fd5b84516040519080825280602002602001820160405280156111bc5781602001602082028038833980820191505090505b509250600091505b84518210156113b357600485838151811015156111dd57fe5b906020019060200201518154811015156111f357fe5b906000526020600020906005020160a06040519081016040529081600082015460001916600019168152602001600182018054600181600116156101000203166002900480601f0160208091040260200160405190810160405280929190818152602001828054600181600116156101000203166002900480156112b85780601f1061128d576101008083540402835291602001916112b8565b820191906000526020600020905b81548152906001019060200180831161129b57829003601f168201915b505050505081526020016002820180548060200260200160405190810160405280929190818152602001828054801561131057602002820191906000526020600020905b8154815260200190600101908083116112fc575b505050505081526020016003820160009054906101000a900473ffffffffffffffffffffffffffffffffffffffff1673ffffffffffffffffffffffffffffffffffffffff1673ffffffffffffffffffffffffffffffffffffffff16815260200160048201548152505090508060000151838381518110151561138e57fe5b90602001906020020190600019169081600019168152505081806001019250506111c4565b829350505050919050565b60008073ffffffffffffffffffffffffffffffffffffffff163373ffffffffffffffffffffffffffffffffffffffff16141515156113fb57600080fd5b600560003373ffffffffffffffffffffffffffffffffffffffff1673ffffffffffffffffffffffffffffffffffffffff1681526020019081526020016000205490503373ffffffffffffffffffffffffffffffffffffffff166108fc829081150290604051600060405180830381858888f19350505050158015611483573d6000803e3d6000fd5b5050565b6060611491612b14565b600254831015156114a157600080fd5b6004838154811015156114b057fe5b906000526020600020906005020160a06040519081016040529081600082015460001916600019168152602001600182018054600181600116156101000203166002900480601f0160208091040260200160405190810160405280929190818152602001828054600181600116156101000203166002900480156115755780601f1061154a57610100808354040283529160200191611575565b820191906000526020600020905b81548152906001019060200180831161155857829003601f168201915b50505050508152602001600282018054806020026020016040519081016040528092919081815260200182805480156115cd57602002820191906000526020600020905b8154815260200190600101908083116115b9575b505050505081526020016003820160009054906101000a900473ffffffffffffffffffffffffffffffffffffffff1673ffffffffffffffffffffffffffffffffffffffff1673ffffffffffffffffffffffffffffffffffffffff16815260200160048201548152505090508060200151915050919050565b6060806000611652612b5d565b84516040519080825280602002602001820160405280156116825781602001602082028038833980820191505090505b509250600091505b845182101561173d57600385838151811015156116a357fe5b906020019060200201518154811015156116b957fe5b906000526020600020906004020160806040519081016040529081600082015481526020016001820154815260200160028201548152602001600382015460001916600019168152505090508060600151838381518110151561171857fe5b906020019060200201906000191690816000191681525050818060010192505061168a565b829350505050919050565b606080606080611756612b14565b6060600060606002548910151561176c57600080fd5b60048981548110151561177b57fe5b906000526020600020906005020160a06040519081016040529081600082015460001916600019168152602001600182018054600181600116156101000203166002900480601f0160208091040260200160405190810160405280929190818152602001828054600181600116156101000203166002900480156118405780601f1061181557610100808354040283529160200191611840565b820191906000526020600020905b81548152906001019060200180831161182357829003601f168201915b505050505081526020016002820180548060200260200160405190810160405280929190818152602001828054801561189857602002820191906000526020600020905b815481526020019060010190808311611884575b505050505081526020016003820160009054906101000a900473ffffffffffffffffffffffffffffffffffffffff1673ffffffffffffffffffffffffffffffffffffffff1673ffffffffffffffffffffffffffffffffffffffff16815260200160048201548152505093508360400151516040519080825280602002602001820160405280156119375781602001602082028038833980820191505090505b509250600091505b8360400151518210156119a35761197084604001518381518110151561196157fe5b90602001906020020151612366565b838381518110151561197e57fe5b906020019060200201906000191690816000191681525050818060010192505061193f565b6119b08460400151612767565b90508360200151846040015182858393508292509750975097509750505050509193509193565b6000600254905090565b60006119eb612b14565b600254831015156119fb57600080fd5b600483815481101515611a0a57fe5b906000526020600020906005020160a06040519081016040529081600082015460001916600019168152602001600182018054600181600116156101000203166002900480601f016020809104026020016040519081016040528092919081815260200182805460018160011615610100020316600290048015611acf5780601f10611aa457610100808354040283529160200191611acf565b820191906000526020600020905b815481529060010190602001808311611ab257829003601f168201915b5050505050815260200160028201805480602002602001604051908101604052809291908181526020018280548015611b2757602002820191906000526020600020905b815481526020019060010190808311611b13575b505050505081526020016003820160009054906101000a900473ffffffffffffffffffffffffffffffffffffffff1673ffffffffffffffffffffffffffffffffffffffff1673ffffffffffffffffffffffffffffffffffffffff16815260200160048201548152505090508060800151915050919050565b6000809054906101000a900473ffffffffffffffffffffffffffffffffffffffff1681565b6060806000611bd1612b5d565b600080611bdc612b5d565b600060606000808b51111515611bf157600080fd5b8a51604051908082528060200260200182016040528015611c215781602001602082028038833980820191505090505b5098506001975060038b6000815181101515611c3957fe5b90602001906020020151815481101515611c4f57fe5b906000526020600020906004020160806040519081016040529081600082015481526020016001820154815260200160028201548152602001600382015460001916600019168152505096508660200151896000815181101515611caf57fe5b906020019060200201818152505060009550600094505b8a51851015611dc75760038b86815181101515611cdf57fe5b90602001906020020151815481101515611cf557fe5b90600052602060002090600402016080604051908101604052908160008201548152602001600182015481526020016002820154815260200160038201546000191660001916815250509350600092505b87831015611d83578883815181101515611d5c57fe5b9060200190602002015184602001511415611d7657600195505b8280600101935050611d46565b6000861415611db65783602001518989815181101515611d9f57fe5b906020019060200201818152505087806001019850505b600095508480600101955050611cc6565b87604051908082528060200260200182016040528015611df65781602001602082028038833980820191505090505b509150600090505b87811015611e47578881815181101515611e1457fe5b906020019060200201518282815181101515611e2c57fe5b90602001906020020181815250508080600101915050611dfe565b819950505050505050505050919050565b600481815481101515611e6757fe5b9060005260206000209060050201600091509050806000015490806001018054600181600116156101000203166002900480601f016020809104026020016040519081016040528092919081815260200182805460018160011615610100020316600290048015611f195780601f10611eee57610100808354040283529160200191611f19565b820191906000526020600020905b815481529060010190602001808311611efc57829003601f168201915b5050505050908060030160009054906101000a900473ffffffffffffffffffffffffffffffffffffffff16908060040154905084565b60606000808451111515611f6257600080fd5b60328451101515611f7257600080fd5b60328551101515611f8257600080fd5b8351604051908082528060200260200182016040528015611fb25781602001602082028038833980820191505090505b509150600090505b83518110156120bb57611fe38582815181101515611fd457fe5b90602001906020020151612860565b1515612057576040517f08c379a00000000000000000000000000000000000000000000000000000000081526004018080602001828103825260198152602001807f4174747269627574657320617265206e6f742076616c69642e0000000000000081525060200191505060405180910390fd5b612092858281518110151561206857fe5b90602001906020020151858381518110151561208057fe5b9060200190602002015160025461224e565b82828151811015156120a057fe5b90602001906020020181815250508080600101915050611fba565b600460a060405190810160405280896000191681526020018881526020018481526020013373ffffffffffffffffffffffffffffffffffffffff1681526020018581525090806001815401808255809150509060018203906000526020600020906005020160009091929091909150600082015181600001906000191690556020820151816001019080519060200190612156929190612b89565b506040820151816002019080519060200190612173929190612c09565b5060608201518160030160006101000a81548173ffffffffffffffffffffffffffffffffffffffff021916908373ffffffffffffffffffffffffffffffffffffffff16021790555060808201518160040155505050600760003373ffffffffffffffffffffffffffffffffffffffff1673ffffffffffffffffffffffffffffffffffffffff168152602001908152602001600020600254908060018154018082558091505090600182039060005260206000200160009091929091909150555060026000815480929190600101919050555050505050505050565b6000806000151560066000866000191660001916815260200190815260200160002060009054906101000a900460ff16151514151561228c57600080fd5b6001549050600360806040519081016040528083815260200185815260200187815260200186600019168152509080600181540180825580915050906001820390600052602060002090600402016000909192909190915060008201518160000155602082015181600101556040820151816002015560608201518160030190600019169055505050600160066000866000191660001916815260200190815260200160002060006101000a81548160ff021916908315150217905550600160008154809291906001019190505550809150509392505050565b6000612370612b5d565b6001548310151561238057600080fd5b60038381548110151561238f57fe5b906000526020600020906004020160806040519081016040529081600082015481526020016001820154815260200160028201548152602001600382015460001916600019168152505090508060600151915050919050565b60006123f2612b5d565b6001548310151561240257600080fd5b60038381548110151561241157fe5b906000526020600020906004020160806040519081016040529081600082015481526020016001820154815260200160028201548152602001600382015460001916600019168152505090508060400151915050919050565b6000612474612b14565b600060048481548110151561248557fe5b906000526020600020906005020160a06040519081016040529081600082015460001916600019168152602001600182018054600181600116156101000203166002900480601f01602080910402602001604051908101604052809291908181526020018280546001816001161561010002031660029004801561254a5780601f1061251f5761010080835404028352916020019161254a565b820191906000526020600020905b81548152906001019060200180831161252d57829003601f168201915b50505050508152602001600282018054806020026020016040519081016040528092919081815260200182805480156125a257602002820191906000526020600020905b81548152602001906001019080831161258e575b505050505081526020016003820160009054906101000a900473ffffffffffffffffffffffffffffffffffffffff1673ffffffffffffffffffffffffffffffffffffffff1673ffffffffffffffffffffffffffffffffffffffff16815260200160048201548152505091508473ffffffffffffffffffffffffffffffffffffffff16826060015173ffffffffffffffffffffffffffffffffffffffff16141561264e5760019250612716565b600090505b600860008673ffffffffffffffffffffffffffffffffffffffff1673ffffffffffffffffffffffffffffffffffffffff168152602001908152602001600020805490508110156127115783600860008773ffffffffffffffffffffffffffffffffffffffff1673ffffffffffffffffffffffffffffffffffffffff168152602001908152602001600020828154811015156126ea57fe5b906000526020600020015414156127045760019250612716565b8080600101915050612653565b600092505b505092915050565b60038181548110151561272d57fe5b90600052602060002090600402016000915090508060000154908060010154908060020154908060030154905084565b6000600154905090565b6060806000612774612b5d565b84516040519080825280602002602001820160405280156127a45781602001602082028038833980820191505090505b509250600091505b845182101561285557600385838151811015156127c557fe5b906020019060200201518154811015156127db57fe5b906000526020600020906004020160806040519081016040529081600082015481526020016001820154815260200160028201548152602001600382015460001916600019168152505090508060400151838381518110151561283a57fe5b906020019060200201818152505081806001019250506127ac565b829350505050919050565b6000606482108061287257506103e782115b1561288057600090506128db565b5b60008211156128d6576001600a8381151561289857fe5b06141580156128b457506002600a838115156128b057fe5b0614155b156128c257600090506128db565b600a828115156128ce57fe5b049150612881565b600190505b919050565b600060066000836000191660001916815260200190815260200160002060009054906101000a900460ff169050919050565b6000809054906101000a900473ffffffffffffffffffffffffffffffffffffffff1673ffffffffffffffffffffffffffffffffffffffff163373ffffffffffffffffffffffffffffffffffffffff1614151561296d57600080fd5b600073ffffffffffffffffffffffffffffffffffffffff168173ffffffffffffffffffffffffffffffffffffffff16141515156129a957600080fd5b8073ffffffffffffffffffffffffffffffffffffffff166000809054906101000a900473ffffffffffffffffffffffffffffffffffffffff1673ffffffffffffffffffffffffffffffffffffffff167f8be0079c531659141344cd1fd0a4f28419497f9722a3daafe3b4186f6b6457e060405160405180910390a3806000806101000a81548173ffffffffffffffffffffffffffffffffffffffff021916908373ffffffffffffffffffffffffffffffffffffffff16021790555050565b600080600080612a75612b5d565b60008610151515612a8557600080fd5b60015486101515612a9557600080fd5b600386815481101515612aa457fe5b9060005260206000209060040201608060405190810160405290816000820154815260200160018201548152602001600282015481526020016003820154600019166000191681525050905080600001518160200151826040015183606001519450945094509450509193509193565b60a060405190810160405280600080191681526020016060815260200160608152602001600073ffffffffffffffffffffffffffffffffffffffff168152602001600081525090565b608060405190810160405280600081526020016000815260200160008152602001600080191681525090565b828054600181600116156101000203166002900490600052602060002090601f016020900481019282601f10612bca57805160ff1916838001178555612bf8565b82800160010185558215612bf8579182015b82811115612bf7578251825591602001919060010190612bdc565b5b509050612c059190612c56565b5090565b828054828255906000526020600020908101928215612c45579160200282015b82811115612c44578251825591602001919060010190612c29565b5b509050612c529190612c56565b5090565b612c7891905b80821115612c74576000816000905550600101612c5c565b5090565b905600a165627a7a72305820996630fe42ca00a54f55a063e9196af3615aaba5e5637fb91e5faf67baceab560029",
  "source": "pragma solidity ^0.4.23;\nimport \"./Utils/Ownable.sol\";\n\n\ncontract AssetManager is Ownable {\n\n    struct Asset {\n        uint id;\n        uint packId;\n        /// atributes field is going to be 3 digit uint where every digit can be \"1\" or \"2\"\n        /// 1st digit will tell us if asset is background 1 - true / 2 - false\n        /// 2nd digit will tell us if rotation is enabled 1 - true / 2 - false\n        /// 3rd digit will tell us if scaling  is enabled 1 - true / 2 - false\n        uint attributes;\n        bytes32 ipfsHash;\n    }\n\n    struct AssetPack {\n        bytes32 packCover;\n        string name;\n        uint[] assetIds;\n        address creator;\n        uint price;\n    }\n\n\n    uint numberOfAssets;\n    uint numberOfAssetPacks;\n\n    Asset[] public assets;\n    AssetPack[] public assetPacks;\n\n    mapping(address => uint) artistBalance;\n    mapping(bytes32 => bool) hashExists;\n\n    mapping(address => uint[]) createdAssetPacks;\n    mapping(address => uint[]) boughtAssetPacks;\n\n\n    /// @notice Function to create assetpack\n    /// @param _packCover is cover image for asset pack\n    /// @param _name is name of the asset pack\n    /// @param _attributes is array of attributes\n    /// @param _ipfsHashes is array containing all ipfsHashes for assets we'd like to put in pack\n    /// @param _packPrice is price for total assetPack (every asset will have average price)\n    function createAssetPack(bytes32 _packCover, string _name, uint[] _attributes, bytes32[] _ipfsHashes, uint _packPrice) public {\n        require(_ipfsHashes.length > 0);\n        require(_ipfsHashes.length < 50);\n        require(_attributes.length < 50);\n\n        uint[] memory ids = new uint[](_ipfsHashes.length);\n\n        for(uint i=0; i< _ipfsHashes.length; i++){\n            require(isAttributesValid(_attributes[i]), \"Attributes are not valid.\");\n            ids[i] = createAsset(_attributes[i], _ipfsHashes[i], numberOfAssetPacks);\n        }\n\n        assetPacks.push(AssetPack({\n            packCover: _packCover,\n            name: _name,\n            assetIds: ids,\n            creator: msg.sender,\n            price: _packPrice\n            }));\n\n        createdAssetPacks[msg.sender].push(numberOfAssetPacks);\n        numberOfAssetPacks++;\n    }\n\n    /// @notice Function which creates an asset\n    /// @dev this method will be internal/private later in production\n    /// @dev id is automatically generated, and it's it's position in array which holds all assets, also, creator of asset is msg.sender\n    /// @dev add attributes validation\n    /// @param _attributes is meta info for asset\n    /// @param _ipfsHash is ipfsHash to image of asset\n    function createAsset(uint _attributes, bytes32 _ipfsHash, uint _packId) public returns(uint) {\n        require(hashExists[_ipfsHash] == false);\n\n        uint id = numberOfAssets;\n\n        assets.push(Asset({\n            id : id,\n            packId: _packId,\n            attributes: _attributes,\n            ipfsHash : _ipfsHash\n            }));\n\n        hashExists[_ipfsHash] = true;\n        numberOfAssets++;\n\n        return id;\n    }\n\n\n    function buyAssetPack(uint _assetPackId) public payable {\n        ///validate if user have already bought permission for this pack\n        for(uint i=0; i<boughtAssetPacks[msg.sender].length; i++) {\n            require(boughtAssetPacks[msg.sender][i] != _assetPackId);\n        }\n\n        AssetPack memory assetPack = assetPacks[_assetPackId];\n        require(msg.value >= assetPack.price);\n        artistBalance[assetPack.creator] += assetPack.price;\n        boughtAssetPacks[msg.sender].push(_assetPackId);\n    }\n\n\n    /// @notice Function to fetch total number of assets\n    /// @return numberOfAssets\n    function getNumberOfAssets() public view returns (uint) {\n        return numberOfAssets;\n    }\n\n    /// @notice Function to fetch total number of assetpacks\n    /// @return uint numberOfAssetPacks\n    function getNumberOfAssetPacks() public view returns(uint) {\n        return numberOfAssetPacks;\n    }\n    /// @notice Function to check if user have permission (owner / bought) for pack\n    /// @param _address is address of user\n    /// @param _packId is id of pack\n    function checkHasPermissionForPack(address _address, uint _packId) public view returns (bool) {\n        AssetPack memory assetPack = assetPacks[_packId];\n        if(assetPack.creator ==  _address) {\n            return true;\n        }\n        for(uint i=0; i<boughtAssetPacks[_address].length; i++) {\n            if(boughtAssetPacks[_address][i] == _packId) {\n                return true;\n            }\n        }\n        return false;\n    }\n\n    /// @notice Function to check does hash exist in mapping\n    /// @param _ipfsHash is bytes32 representation of hash\n    function checkHashExists(bytes32 _ipfsHash) public view returns (bool){\n        return hashExists[_ipfsHash];\n    }\n\n    /// @notice Function to give you permission for all assets you are buying during image creation\n    /// @param _address is address of buyer\n    /// @param _packId is id of assetpack\n    function givePermission(address _address, uint _packId) public {\n        boughtAssetPacks[_address].push(_packId);\n    }\n\n    function pickUniquePacks(uint[] assetIds) public view returns (uint[]){\n        require(assetIds.length > 0);\n        uint[] memory packs = new uint[](assetIds.length);\n        uint last = 1;\n        Asset memory asset1 = assets[assetIds[0]];\n        packs[0] = asset1.packId;\n        uint flag = 0;\n        for(uint i=0; i<assetIds.length; i++){\n            Asset memory asset = assets[assetIds[i]];\n            for(uint j=0; j<last;j++) {\n                if(asset.packId == packs[j]) {\n                    flag = 1;\n                }\n            }\n            if(flag == 0) {\n                packs[last] = asset.packId;\n                last++;\n            }\n            flag = 0;\n        }\n\n        uint[] memory finalPacks = new uint[](last);\n        for(uint z=0; z<last; z++) {\n            finalPacks[z] = packs[z];\n        }\n        return finalPacks;\n    }\n    /// @notice Method to get all info for an asset\n    /// @param id is id of asset\n    /// @return All data for an asset\n    function getAssetInfo(uint id) public view returns (uint, uint, uint, bytes32){\n        require(id >= 0);\n        require(id < numberOfAssets);\n        Asset memory asset = assets[id];\n\n        return (asset.id, asset.packId, asset.attributes, asset.ipfsHash);\n    }\n\n\n\n    function getAssetPacksUserCreated(address _address) public view returns(uint[]){\n        return createdAssetPacks[_address];\n    }\n\n    /// @notice Function to get ipfsHash for selected asset\n    /// @param _id is id of asset we'd like to get ipfs hash\n    /// @return string representation of ipfs hash of that asset\n    function getAssetIpfs(uint _id) public view returns (bytes32) {\n        require(_id < numberOfAssets);\n        Asset memory asset = assets[_id];\n        return asset.ipfsHash;\n    }\n\n    /// @notice Function to get attributes for selected asset\n    /// @param _id is id of asset we'd like to get ipfs hash\n    /// @return uint representation of attributes of that asset\n    function getAssetAttributes(uint _id) public view returns (uint) {\n        require(_id < numberOfAssets);\n        Asset memory asset = assets[_id];\n        return asset.attributes;\n    }\n\n    /// @notice Function to get array of ipfsHashes for specific assets\n    /// @dev need for data parsing on frontend efficiently\n    /// @param _ids is array of ids\n    /// @return bytes32 array of hashes\n    function getIpfsForAssets(uint[] _ids) public view returns (bytes32[]) {\n        bytes32[] memory hashes = new bytes32[](_ids.length);\n        for(uint i=0; i<_ids.length; i++) {\n            Asset memory asset = assets[_ids[i]];\n            hashes[i] = asset.ipfsHash;\n        }\n\n        return hashes;\n    }\n\n    function getAttributesForAssets(uint[] _ids) public view returns(uint[]) {\n        uint[] memory attributes = new uint[](_ids.length);\n        for(uint i=0; i< _ids.length; i++) {\n            Asset memory asset = assets[_ids[i]];\n            attributes[i] = asset.attributes;\n        }\n        return attributes;\n    }\n    ///@notice Function where all artists can withdraw their funds\n    function withdraw() public {\n        require(msg.sender != address(0));\n        uint amount = artistBalance[msg.sender];\n\n        msg.sender.transfer(amount);\n    }\n\n\n    /// @notice Function to get ipfs hash and id for all assets in one asset pack\n    /// @param _assetPackId is id of asset pack\n    /// @return two arrays with data\n    function getAssetPackData(uint _assetPackId) public view returns(string, uint[], uint[], bytes32[]){\n        require(_assetPackId < numberOfAssetPacks);\n\n        AssetPack memory assetPack = assetPacks[_assetPackId];\n        bytes32[] memory hashes = new bytes32[](assetPack.assetIds.length);\n\n        for(uint i=0; i<assetPack.assetIds.length; i++){\n            hashes[i] = getAssetIpfs(assetPack.assetIds[i]);\n        }\n        uint[] memory attributes = getAttributesForAssets(assetPack.assetIds);\n\n        return(assetPack.name, assetPack.assetIds, attributes, hashes);\n    }\n\n    /// @notice Function to get name for asset pack\n    /// @param _assetPackId is id of asset pack\n    /// @return string name of asset pack\n    function getAssetPackName(uint _assetPackId) public view returns (string) {\n        require(_assetPackId < numberOfAssetPacks);\n\n        AssetPack memory assetPack = assetPacks[_assetPackId];\n\n        return assetPack.name;\n    }\n\n    function getAssetPackPrice(uint _assetPackId) public view returns (uint) {\n        require(_assetPackId < numberOfAssetPacks);\n        AssetPack memory assetPack = assetPacks[_assetPackId];\n\n        return assetPack.price;\n    }\n    /// @notice Function to get cover image for every assetpack\n    /// @param _packIds is array of asset pack ids\n    /// @return bytes32[] array of hashes\n    function getCoversForPacks(uint[] _packIds) public view returns (bytes32[]) {\n        require(_packIds.length > 0);\n        bytes32[] memory covers = new bytes32[](_packIds.length);\n        for(uint i=0; i<_packIds.length; i++) {\n            AssetPack memory assetPack = assetPacks[_packIds[i]];\n            covers[i] = assetPack.packCover;\n        }\n        return covers;\n    }\n\n    function isAttributesValid(uint attributes) public pure returns(bool) {\n        if (attributes < 100 || attributes > 999) {\n            return false;\n        }\n\n        while (attributes > 0) {\n            if (attributes % 10 != 1 && attributes % 10 != 2) {\n                return false;\n            } \n            attributes = attributes / 10;\n        }\n\n        return true;\n    }\n\n\n    //    function getAssetsUserHaveInPack(uint packId, address _userAddress) public view returns (uint[]) {\n    //        AssetPack memory assetPack = assetPacks[packId];\n    //        uint[] memory ownedAssets = new uint[](assetPack.assetIds.length);\n    //        uint counter = 0;\n    //        for(uint i=0; i<assetPack.assetIds.length; i++) {\n    //            if(hasPermission[_userAddress][assetPack.assetIds[i]] == true) {\n    //                ownedAssets[counter] = assetPack.assetIds[i];\n    //            }\n    //        }\n    //        return ownedAssets;\n    //    }\n    //    /// @notice Function to get owned assets from one pack and pack size\n    //    /// @param _assetPacksIds is array with ids of asset packs we need information for\n    //    /// @param _userAddress is address of user we are checking this\n    //    /// @return two arrays one containing how many assets we have and second containing packs size\n    //    function getOwnedAssetsFromPacks(uint [] _assetPacksIds, address _userAddress) public view returns (uint[],uint[]) {\n    //        uint [] memory ownedAssets = new uint[](_assetPacksIds.length);\n    //        uint [] memory totalInPack = new uint[](_assetPacksIds.length);\n    //        uint counter = 0;\n    //        for(uint i=0; i< _assetPacksIds.length; i++) {\n    //            AssetPack memory assetPack = assetPacks[_assetPacksIds[i]];\n    //            for(uint j=0; j<assetPack.assetIds.length; j++) {\n    //                if(hasPermission[_userAddress][assetPack.assetIds[j]] == true) {\n    //                    counter++;\n    //                }\n    //            }\n    //            ownedAssets[i] = counter;\n    //            totalInPack[i] = assetPack.assetIds.length;\n    //            counter = 0;\n    //        }\n    //\n    //        return (ownedAssets, totalInPack);\n    //    }\n}",
  "sourcePath": "/Users/nikolaklipa/Decenter/Cryptographics/contracts/AssetManager.sol",
  "compiler": {
    "name": "solc",
    "version": "0.4.24+commit.e67f0147.Emscripten.clang"
  },
  "schemaVersion": "2.0.1",
  "updatedAt": "2018-07-13T10:22:31.180Z"
}