{
  "contractName": "DigitalPrintImage",
  "abi": [
    {
      "constant": true,
      "inputs": [
        {
          "name": "",
          "type": "uint256"
        }
      ],
      "name": "tokenPosInArr",
      "outputs": [
        {
          "name": "",
          "type": "uint256"
        }
      ],
      "payable": false,
      "stateMutability": "view",
      "type": "function"
    },
    {
      "constant": true,
      "inputs": [],
      "name": "name",
      "outputs": [
        {
          "name": "",
          "type": "string"
        }
      ],
      "payable": false,
      "stateMutability": "view",
      "type": "function"
    },
    {
      "constant": true,
      "inputs": [
        {
          "name": "",
          "type": "uint256"
        }
      ],
      "name": "tokensForOwner",
      "outputs": [
        {
          "name": "",
          "type": "address"
        }
      ],
      "payable": false,
      "stateMutability": "view",
      "type": "function"
    },
    {
      "constant": false,
      "inputs": [
        {
          "name": "_to",
          "type": "address"
        },
        {
          "name": "_imageId",
          "type": "uint256"
        }
      ],
      "name": "approve",
      "outputs": [],
      "payable": false,
      "stateMutability": "nonpayable",
      "type": "function"
    },
    {
      "constant": true,
      "inputs": [
        {
          "name": "",
          "type": "uint256"
        }
      ],
      "name": "tokensForApproved",
      "outputs": [
        {
          "name": "",
          "type": "address"
        }
      ],
      "payable": false,
      "stateMutability": "view",
      "type": "function"
    },
    {
      "constant": true,
      "inputs": [
        {
          "name": "_finalSeed",
          "type": "uint256"
        },
        {
          "name": "_potentialAssets",
          "type": "bytes32[]"
        }
      ],
      "name": "pickRandomZoomAndRotation",
      "outputs": [
        {
          "name": "",
          "type": "uint256[]"
        },
        {
          "name": "",
          "type": "uint256[]"
        },
        {
          "name": "",
          "type": "uint256[]"
        }
      ],
      "payable": false,
      "stateMutability": "pure",
      "type": "function"
    },
    {
      "constant": true,
      "inputs": [],
      "name": "implementsERC721",
      "outputs": [
        {
          "name": "",
          "type": "bool"
        }
      ],
      "payable": false,
      "stateMutability": "pure",
      "type": "function"
    },
    {
      "constant": true,
      "inputs": [],
      "name": "totalSupply",
      "outputs": [
        {
          "name": "",
          "type": "uint256"
        }
      ],
      "payable": false,
      "stateMutability": "view",
      "type": "function"
    },
    {
      "constant": false,
      "inputs": [
        {
          "name": "_from",
          "type": "address"
        },
        {
          "name": "_to",
          "type": "address"
        },
        {
          "name": "_imageId",
          "type": "uint256"
        }
      ],
      "name": "transferFrom",
      "outputs": [],
      "payable": false,
      "stateMutability": "nonpayable",
      "type": "function"
    },
    {
      "constant": true,
      "inputs": [
        {
          "name": "_random_seed",
          "type": "uint256"
        }
      ],
      "name": "pickRandomAssetPosition",
      "outputs": [
        {
          "name": "",
          "type": "uint256"
        },
        {
          "name": "",
          "type": "uint256"
        },
        {
          "name": "",
          "type": "uint256"
        },
        {
          "name": "",
          "type": "uint256"
        }
      ],
      "payable": false,
      "stateMutability": "pure",
      "type": "function"
    },
    {
      "constant": true,
      "inputs": [
        {
          "name": "_owner",
          "type": "address"
        },
        {
          "name": "_index",
          "type": "uint256"
        }
      ],
      "name": "tokenOfOwnerByIndex",
      "outputs": [
        {
          "name": "",
          "type": "uint256"
        }
      ],
      "payable": false,
      "stateMutability": "view",
      "type": "function"
    },
    {
      "constant": false,
      "inputs": [],
      "name": "fillWithHashes",
      "outputs": [],
      "payable": false,
      "stateMutability": "nonpayable",
      "type": "function"
    },
    {
      "constant": true,
      "inputs": [
        {
          "name": "_random_seed",
          "type": "uint256"
        },
        {
          "name": "_iterations",
          "type": "uint256"
        }
      ],
      "name": "getFinalSeed",
      "outputs": [
        {
          "name": "",
          "type": "bytes32"
        }
      ],
      "payable": false,
      "stateMutability": "pure",
      "type": "function"
    },
    {
      "constant": true,
      "inputs": [],
      "name": "getLen",
      "outputs": [
        {
          "name": "",
          "type": "uint256"
        }
      ],
      "payable": false,
      "stateMutability": "view",
      "type": "function"
    },
    {
      "constant": false,
      "inputs": [
        {
          "name": "_hashToProfilePicture",
          "type": "bytes32"
        }
      ],
      "name": "changeProfilePicture",
      "outputs": [],
      "payable": false,
      "stateMutability": "nonpayable",
      "type": "function"
    },
    {
      "constant": true,
      "inputs": [
        {
          "name": "",
          "type": "uint256"
        }
      ],
      "name": "imageMetadata",
      "outputs": [
        {
          "name": "finalSeed",
          "type": "uint256"
        },
        {
          "name": "timestamp",
          "type": "uint256"
        },
        {
          "name": "creator",
          "type": "address"
        },
        {
          "name": "ipfsHash",
          "type": "string"
        }
      ],
      "payable": false,
      "stateMutability": "view",
      "type": "function"
    },
    {
      "constant": true,
      "inputs": [
        {
          "name": "_imageId",
          "type": "uint256"
        }
      ],
      "name": "ownerOf",
      "outputs": [
        {
          "name": "",
          "type": "address"
        }
      ],
      "payable": false,
      "stateMutability": "view",
      "type": "function"
    },
    {
      "constant": true,
      "inputs": [
        {
          "name": "_address",
          "type": "address"
        }
      ],
      "name": "getUserInfo",
      "outputs": [
        {
          "name": "",
          "type": "string"
        },
        {
          "name": "",
          "type": "bytes32"
        }
      ],
      "payable": false,
      "stateMutability": "view",
      "type": "function"
    },
    {
      "constant": false,
      "inputs": [
        {
          "name": "_username",
          "type": "string"
        },
        {
          "name": "_hashToProfilePicture",
          "type": "bytes32"
        }
      ],
      "name": "register",
      "outputs": [],
      "payable": false,
      "stateMutability": "nonpayable",
      "type": "function"
    },
    {
      "constant": true,
      "inputs": [
        {
          "name": "_owner",
          "type": "address"
        }
      ],
      "name": "balanceOf",
      "outputs": [
        {
          "name": "balance",
          "type": "uint256"
        }
      ],
      "payable": false,
      "stateMutability": "view",
      "type": "function"
    },
    {
      "constant": true,
      "inputs": [
        {
          "name": "",
          "type": "address"
        },
        {
          "name": "",
          "type": "uint256"
        }
      ],
      "name": "tokensOwned",
      "outputs": [
        {
          "name": "",
          "type": "uint256"
        }
      ],
      "payable": false,
      "stateMutability": "view",
      "type": "function"
    },
    {
      "constant": true,
      "inputs": [],
      "name": "owner",
      "outputs": [
        {
          "name": "",
          "type": "address"
        }
      ],
      "payable": false,
      "stateMutability": "view",
      "type": "function"
    },
    {
      "constant": true,
      "inputs": [],
      "name": "symbol",
      "outputs": [
        {
          "name": "",
          "type": "string"
        }
      ],
      "payable": false,
      "stateMutability": "view",
      "type": "function"
    },
    {
      "constant": true,
      "inputs": [
        {
          "name": "assetId",
          "type": "uint256"
        },
        {
          "name": "random_seed",
          "type": "uint256"
        }
      ],
      "name": "getSeed",
      "outputs": [
        {
          "name": "",
          "type": "uint256"
        }
      ],
      "payable": false,
      "stateMutability": "pure",
      "type": "function"
    },
    {
      "constant": false,
      "inputs": [
        {
          "name": "_to",
          "type": "address"
        },
        {
          "name": "_imageId",
          "type": "uint256"
        }
      ],
      "name": "transfer",
      "outputs": [],
      "payable": false,
      "stateMutability": "nonpayable",
      "type": "function"
    },
    {
      "constant": true,
      "inputs": [
        {
          "name": "_index",
          "type": "uint256"
        }
      ],
      "name": "getRandomHash",
      "outputs": [
        {
          "name": "",
          "type": "bytes32"
        }
      ],
      "payable": false,
      "stateMutability": "view",
      "type": "function"
    },
    {
      "constant": true,
      "inputs": [
        {
          "name": "_randomHashIds",
          "type": "uint256[]"
        },
        {
          "name": "_timestamp",
          "type": "uint256"
        }
      ],
      "name": "calculateSeed",
      "outputs": [
        {
          "name": "",
          "type": "uint256"
        }
      ],
      "payable": false,
      "stateMutability": "view",
      "type": "function"
    },
    {
      "constant": true,
      "inputs": [
        {
          "name": "",
          "type": "uint256"
        }
      ],
      "name": "idToIpfsHash",
      "outputs": [
        {
          "name": "",
          "type": "string"
        }
      ],
      "payable": false,
      "stateMutability": "view",
      "type": "function"
    },
    {
      "constant": true,
      "inputs": [
        {
          "name": "random_seed",
          "type": "uint256"
        }
      ],
      "name": "toHex",
      "outputs": [
        {
          "name": "",
          "type": "bytes32"
        }
      ],
      "payable": false,
      "stateMutability": "pure",
      "type": "function"
    },
    {
      "constant": true,
      "inputs": [
        {
          "name": "_potentialAssets",
          "type": "bytes32[]"
        }
      ],
      "name": "decodeAssets",
      "outputs": [
        {
          "name": "",
          "type": "uint256[]"
        }
      ],
      "payable": false,
      "stateMutability": "pure",
      "type": "function"
    },
    {
      "constant": true,
      "inputs": [],
      "name": "marketplaceContract",
      "outputs": [
        {
          "name": "",
          "type": "address"
        }
      ],
      "payable": false,
      "stateMutability": "view",
      "type": "function"
    },
    {
      "constant": true,
      "inputs": [],
      "name": "numOfImages",
      "outputs": [
        {
          "name": "",
          "type": "uint256"
        }
      ],
      "payable": false,
      "stateMutability": "view",
      "type": "function"
    },
    {
      "constant": true,
      "inputs": [
        {
          "name": "_owner",
          "type": "address"
        }
      ],
      "name": "getUserImages",
      "outputs": [
        {
          "name": "",
          "type": "uint256[]"
        }
      ],
      "payable": false,
      "stateMutability": "view",
      "type": "function"
    },
    {
      "constant": true,
      "inputs": [
        {
          "name": "_finalSeed",
          "type": "uint256"
        },
        {
          "name": "_potentialAssets",
          "type": "bytes32[]"
        }
      ],
      "name": "pickRandomAssets",
      "outputs": [
        {
          "name": "",
          "type": "uint256[]"
        },
        {
          "name": "",
          "type": "uint256[]"
        },
        {
          "name": "",
          "type": "uint256[]"
        }
      ],
      "payable": false,
      "stateMutability": "pure",
      "type": "function"
    },
    {
      "constant": false,
      "inputs": [
        {
          "name": "newOwner",
          "type": "address"
        }
      ],
      "name": "transferOwnership",
      "outputs": [],
      "payable": false,
      "stateMutability": "nonpayable",
      "type": "function"
    },
    {
      "anonymous": false,
      "inputs": [
        {
          "indexed": true,
          "name": "from",
          "type": "address"
        },
        {
          "indexed": true,
          "name": "to",
          "type": "address"
        },
        {
          "indexed": true,
          "name": "tokenId",
          "type": "uint256"
        }
      ],
      "name": "Transfer",
      "type": "event"
    },
    {
      "anonymous": false,
      "inputs": [
        {
          "indexed": true,
          "name": "owner",
          "type": "address"
        },
        {
          "indexed": true,
          "name": "approved",
          "type": "address"
        },
        {
          "indexed": true,
          "name": "tokenId",
          "type": "uint256"
        }
      ],
      "name": "Approval",
      "type": "event"
    },
    {
      "anonymous": false,
      "inputs": [
        {
          "indexed": true,
          "name": "_to",
          "type": "address"
        },
        {
          "indexed": true,
          "name": "_tokenId",
          "type": "uint256"
        }
      ],
      "name": "Mint",
      "type": "event"
    },
    {
      "anonymous": false,
      "inputs": [
        {
          "indexed": true,
          "name": "previousOwner",
          "type": "address"
        },
        {
          "indexed": true,
          "name": "newOwner",
          "type": "address"
        }
      ],
      "name": "OwnershipTransferred",
      "type": "event"
    },
    {
      "constant": false,
      "inputs": [
        {
          "name": "_randomHashIds",
          "type": "uint256[]"
        },
        {
          "name": "_timestamp",
          "type": "uint256"
        },
        {
          "name": "_iterations",
          "type": "uint256"
        },
        {
          "name": "_potentialAssets",
          "type": "bytes32[]"
        },
        {
          "name": "_author",
          "type": "string"
        },
        {
          "name": "_ipfsHash",
          "type": "string"
        }
      ],
      "name": "createImage",
      "outputs": [
        {
          "name": "",
          "type": "uint256"
        }
      ],
      "payable": true,
      "stateMutability": "payable",
      "type": "function"
    },
    {
      "constant": true,
      "inputs": [
        {
          "name": "_pickedAssets",
          "type": "uint256[]"
        },
        {
          "name": "_owner",
          "type": "address"
        }
      ],
      "name": "calculatePrice",
      "outputs": [
        {
          "name": "",
          "type": "uint256"
        }
      ],
      "payable": false,
      "stateMutability": "view",
      "type": "function"
    },
    {
      "constant": true,
      "inputs": [
        {
          "name": "_imageId",
          "type": "uint256"
        }
      ],
      "name": "getImageMetadata",
      "outputs": [
        {
          "name": "",
          "type": "uint256"
        },
        {
          "name": "",
          "type": "bytes32[]"
        },
        {
          "name": "",
          "type": "uint256"
        },
        {
          "name": "",
          "type": "string"
        },
        {
          "name": "",
          "type": "address"
        },
        {
          "name": "",
          "type": "string"
        }
      ],
      "payable": false,
      "stateMutability": "view",
      "type": "function"
    },
    {
      "constant": false,
      "inputs": [
        {
          "name": "_marketplaceContract",
          "type": "address"
        }
      ],
      "name": "addMarketplaceContract",
      "outputs": [],
      "payable": false,
      "stateMutability": "nonpayable",
      "type": "function"
    },
    {
      "constant": false,
      "inputs": [
        {
          "name": "_from",
          "type": "address"
        },
        {
          "name": "_to",
          "type": "address"
        },
        {
          "name": "_imageId",
          "type": "uint256"
        }
      ],
      "name": "transferFromMarketplace",
      "outputs": [],
      "payable": false,
      "stateMutability": "nonpayable",
      "type": "function"
    },
    {
      "constant": false,
      "inputs": [
        {
          "name": "_assetManager",
          "type": "address"
        }
      ],
      "name": "addAssetManager",
      "outputs": [],
      "payable": false,
      "stateMutability": "nonpayable",
      "type": "function"
    }
  ],
  "bytecode": "0x6080604052336000806101000a81548173ffffffffffffffffffffffffffffffffffffffff021916908373ffffffffffffffffffffffffffffffffffffffff1602179055506040805190810160405280600a81526020017f496d616765546f6b656e000000000000000000000000000000000000000000008152506005908051906020019062000091929190620000ee565b506040805190810160405280600381526020017f494d54000000000000000000000000000000000000000000000000000000000081525060069080519060200190620000df929190620000ee565b5060006007819055506200019d565b828054600181600116156101000203166002900490600052602060002090601f016020900481019282601f106200013157805160ff191683800117855562000162565b8280016001018555821562000162579182015b828111156200016157825182559160200191906001019062000144565b5b50905062000171919062000175565b5090565b6200019a91905b80821115620001965760008160009055506001016200017c565b5090565b90565b614d9380620001ad6000396000f3006080604052600436106101f9576000357c0100000000000000000000000000000000000000000000000000000000900463ffffffff168063040e9576146101fe578063056cf1d91461034e57806306fdde031461038f57806308a6c05a1461041f57806308adf7b11461048c578063095ea7b3146104f95780630de66a7d146105465780630e6d6465146105b35780631051db341461070857806318160ddd146107375780631e14d823146107625780632041518d146107a557806323b872dd1461083f578063298a423c146108ac5780632f745c5914610902578063390b8482146109635780633bbb11a11461097a578063469506bf14610b155780634a90be5714610b685780634ea8b6d014610b9357806355d8d13514610bc45780636352211e14610cab5780636386c1c714610d18578063656afdee14610de357806370a0823114610e5a578063853b5bb314610eb15780638da5cb5b14610f1257806395d89b4114610f6957806396e6031114610ff9578063987ea89914611044578063a9059cbb14611087578063ab6ca6dc146110d4578063b52c1d5b1461111d578063bb2daa73146111a1578063bf1792b314611247578063c933405114611290578063d1bb5cf11461134b578063e75e7005146113a2578063eb6bbd78146113cd578063ee007a5414611465578063f2fde38b146115ba575b600080fd5b61033860048036038101908080359060200190820180359060200190808060200260200160405190810160405280939291908181526020018383602002808284378201915050505050509192919290803590602001909291908035906020019092919080359060200190820180359060200190808060200260200160405190810160405280939291908181526020018383602002808284378201915050505050509192919290803590602001908201803590602001908080601f0160208091040260200160405190810160405280939291908181526020018383808284378201915050505050509192919290803590602001908201803590602001908080601f01602080910402602001604051908101604052809392919081815260200183838082843782019150505050505091929192905050506115fd565b6040518082815260200191505060405180910390f35b34801561035a57600080fd5b5061037960048036038101908080359060200190929190505050611d7b565b6040518082815260200191505060405180910390f35b34801561039b57600080fd5b506103a4611d93565b6040518080602001828103825283818151815260200191508051906020019080838360005b838110156103e45780820151818401526020810190506103c9565b50505050905090810190601f1680156104115780820380516001836020036101000a031916815260200191505b509250505060405180910390f35b34801561042b57600080fd5b5061044a60048036038101908080359060200190929190505050611e31565b604051808273ffffffffffffffffffffffffffffffffffffffff1673ffffffffffffffffffffffffffffffffffffffff16815260200191505060405180910390f35b34801561049857600080fd5b506104f7600480360381019080803573ffffffffffffffffffffffffffffffffffffffff169060200190929190803573ffffffffffffffffffffffffffffffffffffffff16906020019092919080359060200190929190505050611e64565b005b34801561050557600080fd5b50610544600480360381019080803573ffffffffffffffffffffffffffffffffffffffff16906020019092919080359060200190929190505050612068565b005b34801561055257600080fd5b506105716004803603810190808035906020019092919050505061223a565b604051808273ffffffffffffffffffffffffffffffffffffffff1673ffffffffffffffffffffffffffffffffffffffff16815260200191505060405180910390f35b3480156105bf57600080fd5b50610621600480360381019080803590602001909291908035906020019082018035906020019080806020026020016040519081016040528093929190818152602001838360200280828437820191505050505050919291929050505061226d565b60405180806020018060200180602001848103845287818151815260200191508051906020019060200280838360005b8381101561066c578082015181840152602081019050610651565b50505050905001848103835286818151815260200191508051906020019060200280838360005b838110156106ae578082015181840152602081019050610693565b50505050905001848103825285818151815260200191508051906020019060200280838360005b838110156106f05780820151818401526020810190506106d5565b50505050905001965050505050505060405180910390f35b34801561071457600080fd5b5061071d61253e565b604051808215151515815260200191505060405180910390f35b34801561074357600080fd5b5061074c612547565b6040518082815260200191505060405180910390f35b34801561076e57600080fd5b506107a3600480360381019080803573ffffffffffffffffffffffffffffffffffffffff169060200190929190505050612551565b005b3480156107b157600080fd5b5061082960048036038101908080359060200190820180359060200190808060200260200160405190810160405280939291908181526020018383602002808284378201915050505050509192919290803573ffffffffffffffffffffffffffffffffffffffff1690602001909291905050506125f0565b6040518082815260200191505060405180910390f35b34801561084b57600080fd5b506108aa600480360381019080803573ffffffffffffffffffffffffffffffffffffffff169060200190929190803573ffffffffffffffffffffffffffffffffffffffff169060200190929190803590602001909291905050506129a6565b005b3480156108b857600080fd5b506108d760048036038101908080359060200190929190505050612bb6565b6040518085815260200184815260200183815260200182815260200194505050505060405180910390f35b34801561090e57600080fd5b5061094d600480360381019080803573ffffffffffffffffffffffffffffffffffffffff16906020019092919080359060200190929190505050612c57565b6040518082815260200191505060405180910390f35b34801561096f57600080fd5b50610978612cb8565b005b34801561098657600080fd5b506109a560048036038101908080359060200190929190505050612d0c565b6040518087815260200180602001868152602001806020018573ffffffffffffffffffffffffffffffffffffffff1673ffffffffffffffffffffffffffffffffffffffff16815260200180602001848103845289818151815260200191508051906020019060200280838360005b83811015610a2e578082015181840152602081019050610a13565b50505050905001848103835287818151815260200191508051906020019080838360005b83811015610a6d578082015181840152602081019050610a52565b50505050905090810190601f168015610a9a5780820380516001836020036101000a031916815260200191505b50848103825285818151815260200191508051906020019080838360005b83811015610ad3578082015181840152602081019050610ab8565b50505050905090810190601f168015610b005780820380516001836020036101000a031916815260200191505b50995050505050505050505060405180910390f35b348015610b2157600080fd5b50610b4a6004803603810190808035906020019092919080359060200190929190505050612fd4565b60405180826000191660001916815260200191505060405180910390f35b348015610b7457600080fd5b50610b7d613143565b6040518082815260200191505060405180910390f35b348015610b9f57600080fd5b50610bc26004803603810190808035600019169060200190929190505050613150565b005b348015610bd057600080fd5b50610bef60048036038101908080359060200190929190505050613262565b604051808581526020018481526020018373ffffffffffffffffffffffffffffffffffffffff1673ffffffffffffffffffffffffffffffffffffffff16815260200180602001828103825283818151815260200191508051906020019080838360005b83811015610c6d578082015181840152602081019050610c52565b50505050905090810190601f168015610c9a5780820380516001836020036101000a031916815260200191505b509550505050505060405180910390f35b348015610cb757600080fd5b50610cd66004803603810190808035906020019092919050505061334a565b604051808273ffffffffffffffffffffffffffffffffffffffff1673ffffffffffffffffffffffffffffffffffffffff16815260200191505060405180910390f35b348015610d2457600080fd5b50610d59600480360381019080803573ffffffffffffffffffffffffffffffffffffffff169060200190929190505050613387565b60405180806020018360001916600019168152602001828103825284818151815260200191508051906020019080838360005b83811015610da7578082015181840152602081019050610d8c565b50505050905090810190601f168015610dd45780820380516001836020036101000a031916815260200191505b50935050505060405180910390f35b348015610def57600080fd5b50610e58600480360381019080803590602001908201803590602001908080601f016020809104026020016040519081016040528093929190818152602001838380828437820191505050505050919291929080356000191690602001909291905050506134c6565b005b348015610e6657600080fd5b50610e9b600480360381019080803573ffffffffffffffffffffffffffffffffffffffff1690602001909291905050506137b6565b6040518082815260200191505060405180910390f35b348015610ebd57600080fd5b50610efc600480360381019080803573ffffffffffffffffffffffffffffffffffffffff16906020019092919080359060200190929190505050613802565b6040518082815260200191505060405180910390f35b348015610f1e57600080fd5b50610f27613832565b604051808273ffffffffffffffffffffffffffffffffffffffff1673ffffffffffffffffffffffffffffffffffffffff16815260200191505060405180910390f35b348015610f7557600080fd5b50610f7e613857565b6040518080602001828103825283818151815260200191508051906020019080838360005b83811015610fbe578082015181840152602081019050610fa3565b50505050905090810190601f168015610feb5780820380516001836020036101000a031916815260200191505b509250505060405180910390f35b34801561100557600080fd5b5061102e60048036038101908080359060200190929190803590602001909291905050506138f5565b6040518082815260200191505060405180910390f35b34801561105057600080fd5b50611085600480360381019080803573ffffffffffffffffffffffffffffffffffffffff16906020019092919050505061398d565b005b34801561109357600080fd5b506110d2600480360381019080803573ffffffffffffffffffffffffffffffffffffffff16906020019092919080359060200190929190505050613a2c565b005b3480156110e057600080fd5b506110ff60048036038101908080359060200190929190505050613bd3565b60405180826000191660001916815260200191505060405180910390f35b34801561112957600080fd5b5061118b6004803603810190808035906020019082018035906020019080806020026020016040519081016040528093929190818152602001838360200280828437820191505050505050919291929080359060200190929190505050613bf6565b6040518082815260200191505060405180910390f35b3480156111ad57600080fd5b506111cc60048036038101908080359060200190929190505050613f35565b6040518080602001828103825283818151815260200191508051906020019080838360005b8381101561120c5780820151818401526020810190506111f1565b50505050905090810190601f1680156112395780820380516001836020036101000a031916815260200191505b509250505060405180910390f35b34801561125357600080fd5b5061127260048036038101908080359060200190929190505050613fe5565b60405180826000191660001916815260200191505060405180910390f35b34801561129c57600080fd5b506112f460048036038101908080359060200190820180359060200190808060200260200160405190810160405280939291908181526020018383602002808284378201915050505050509192919290505050613ff2565b6040518080602001828103825283818151815260200191508051906020019060200280838360005b8381101561133757808201518184015260208101905061131c565b505050509050019250505060405180910390f35b34801561135757600080fd5b5061136061418e565b604051808273ffffffffffffffffffffffffffffffffffffffff1673ffffffffffffffffffffffffffffffffffffffff16815260200191505060405180910390f35b3480156113ae57600080fd5b506113b76141b4565b6040518082815260200191505060405180910390f35b3480156113d957600080fd5b5061140e600480360381019080803573ffffffffffffffffffffffffffffffffffffffff1690602001909291905050506141ba565b6040518080602001828103825283818151815260200191508051906020019060200280838360005b83811015611451578082015181840152602081019050611436565b505050509050019250505060405180910390f35b34801561147157600080fd5b506114d36004803603810190808035906020019092919080359060200190820180359060200190808060200260200160405190810160405280939291908181526020018383602002808284378201915050505050509192919290505050614251565b60405180806020018060200180602001848103845287818151815260200191508051906020019060200280838360005b8381101561151e578082015181840152602081019050611503565b50505050905001848103835286818151815260200191508051906020019060200280838360005b83811015611560578082015181840152602081019050611545565b50505050905001848103825285818151815260200191508051906020019060200280838360005b838110156115a2578082015181840152602081019050611587565b50505050905001965050505050505060405180910390f35b3480156115c657600080fd5b506115fb600480360381019080803573ffffffffffffffffffffffffffffffffffffffff16906020019092919050505061451e565b005b600080606060006060600080600060058b511115151561161c57600080fd5b600c8a6040518082805190602001908083835b602083101515611654578051825260208201915060208101905060208303925061162f565b6001836020036101000a038019825116818451168082178552505050505050905001915050908152602001604051809103902060009054906101000a900473ffffffffffffffffffffffffffffffffffffffff1673ffffffffffffffffffffffffffffffffffffffff163373ffffffffffffffffffffffffffffffffffffffff1614806117575750600a8a6040518082805190602001908083835b60208310151561171457805182526020820191506020810190506020830392506116ef565b6001836020036101000a038019825116818451168082178552505050505050905001915050908152602001604051809103902060009054906101000a900460ff16155b151561176257600080fd5b600a8a6040518082805190602001908083835b60208310151561179a5780518252602082019150602081019050602083039250611775565b6001836020036101000a038019825116818451168082178552505050505050905001915050908152602001604051809103902060009054906101000a900460ff16151561180c5761180b8a7f30783000000000000000000000000000000000000000000000000000000000006134c6565b5b61181f6118198f8f613bf6565b8d612fd4565b60019004965060001515600e600089815260200190815260200160002060009054906101000a900460ff16151514151561185857600080fd5b611862878c614251565b90505080965050339450601260009054906101000a900473ffffffffffffffffffffffffffffffffffffffff1673ffffffffffffffffffffffffffffffffffffffff16638f3bed06876040518263ffffffff167c01000000000000000000000000000000000000000000000000000000000281526004018080602001828103825283818151815260200191508051906020019060200280838360005b838110156119195780820151818401526020810190506118fe565b5050505090500192505050600060405180830381600087803b15801561193e57600080fd5b505af1158015611952573d6000803e3d6000fd5b505050506040513d6000823e3d601f19601f82011682018060405250602081101561197c57600080fd5b81019080805164010000000081111561199457600080fd5b828101905060208101848111156119aa57600080fd5b81518560208202830111640100000000821117156119c757600080fd5b505092919050505093506119db84866125f0565b92508234101515156119ec57600080fd5b600091505b8351821015611c1f5760001515601260009054906101000a900473ffffffffffffffffffffffffffffffffffffffff1673ffffffffffffffffffffffffffffffffffffffff1663ca774c88878786815181101515611a4b57fe5b906020019060200201516040518363ffffffff167c0100000000000000000000000000000000000000000000000000000000028152600401808373ffffffffffffffffffffffffffffffffffffffff1673ffffffffffffffffffffffffffffffffffffffff16815260200182815260200192505050602060405180830381600087803b158015611ada57600080fd5b505af1158015611aee573d6000803e3d6000fd5b505050506040513d6020811015611b0457600080fd5b810190808051906020019092919050505015151415611c1257601260009054906101000a900473ffffffffffffffffffffffffffffffffffffffff1673ffffffffffffffffffffffffffffffffffffffff1663225c76c3338685815181101515611b6a57fe5b906020019060200201516040518363ffffffff167c0100000000000000000000000000000000000000000000000000000000028152600401808373ffffffffffffffffffffffffffffffffffffffff1673ffffffffffffffffffffffffffffffffffffffff16815260200182815260200192505050600060405180830381600087803b158015611bf957600080fd5b505af1158015611c0d573d6000803e3d6000fd5b505050505b81806001019250506119f1565b611c2885614673565b905060a0604051908101604052808881526020018c81526020018e81526020018673ffffffffffffffffffffffffffffffffffffffff1681526020018a815250600f6000838152602001908152602001600020600082015181600001556020820151816001019080519060200190611ca1929190614b31565b506040820151816002015560608201518160030160006101000a81548173ffffffffffffffffffffffffffffffffffffffff021916908373ffffffffffffffffffffffffffffffffffffffff1602179055506080820151816004019080519060200190611d0f929190614b84565b5090505088601060008381526020019081526020016000209080519060200190611d3a929190614c04565b506001600e600089815260200190815260200160002060006101000a81548160ff021916908315150217905550809750505050505050509695505050505050565b60046020528060005260406000206000915090505481565b60058054600181600116156101000203166002900480601f016020809104026020016040519081016040528092919081815260200182805460018160011615610100020316600290048015611e295780601f10611dfe57610100808354040283529160200191611e29565b820191906000526020600020905b815481529060010190602001808311611e0c57829003601f168201915b505050505081565b60016020528060005260406000206000915054906101000a900473ffffffffffffffffffffffffffffffffffffffff1681565b601160009054906101000a900473ffffffffffffffffffffffffffffffffffffffff1673ffffffffffffffffffffffffffffffffffffffff163373ffffffffffffffffffffffffffffffffffffffff16141515611ec057600080fd5b60006001600083815260200190815260200160002060009054906101000a900473ffffffffffffffffffffffffffffffffffffffff1673ffffffffffffffffffffffffffffffffffffffff1614151515611f1957600080fd5b8273ffffffffffffffffffffffffffffffffffffffff16611f398261334a565b73ffffffffffffffffffffffffffffffffffffffff16141515611f5b57600080fd5b60006002600083815260200190815260200160002060006101000a81548173ffffffffffffffffffffffffffffffffffffffff021916908373ffffffffffffffffffffffffffffffffffffffff160217905550611fb883826147f2565b611fc282826149d8565b8060008473ffffffffffffffffffffffffffffffffffffffff167f8c5be1e5ebec7d5bd14f71427d1e84f3dd0314c0f7b2291e5b200ac8c7c3b92560405160405180910390a4808273ffffffffffffffffffffffffffffffffffffffff168473ffffffffffffffffffffffffffffffffffffffff167fddf252ad1be2c89b69c2b068fc378daa952ba7f163c4a11628f55a4df523b3ef60405160405180910390a4505050565b60006001600083815260200190815260200160002060009054906101000a900473ffffffffffffffffffffffffffffffffffffffff1673ffffffffffffffffffffffffffffffffffffffff16141515156120c157600080fd5b3373ffffffffffffffffffffffffffffffffffffffff166120e18261334a565b73ffffffffffffffffffffffffffffffffffffffff1614151561210357600080fd5b3373ffffffffffffffffffffffffffffffffffffffff168273ffffffffffffffffffffffffffffffffffffffff161415151561213e57600080fd5b600061214982614af4565b73ffffffffffffffffffffffffffffffffffffffff16141580612183575060008273ffffffffffffffffffffffffffffffffffffffff1614155b1561223657816002600083815260200190815260200160002060006101000a81548173ffffffffffffffffffffffffffffffffffffffff021916908373ffffffffffffffffffffffffffffffffffffffff160217905550808273ffffffffffffffffffffffffffffffffffffffff163373ffffffffffffffffffffffffffffffffffffffff167f8c5be1e5ebec7d5bd14f71427d1e84f3dd0314c0f7b2291e5b200ac8c7c3b92560405160405180910390a45b5050565b60026020528060005260406000206000915054906101000a900473ffffffffffffffffffffffffffffffffffffffff1681565b60608060608060608060606000806000606060008d1415151561228f57600080fd5b60008c5111151561229f57600080fd5b6122a88c613ff2565b975087516040519080825280602002602001820160405280156122da5781602001602082028038833980820191505090505b509650875160405190808252806020026020018201604052801561230d5781602001602082028038833980820191505090505b50955087516040519080825280602002602001820160405280156123405781602001602082028038833980820191505090505b5094508c935060009250600091505b87518210156124a65783888381518110151561236757fe5b9060200190602002015160405160200180838152602001828152602001925050506040516020818303038152906040526040518082805190602001908083835b6020831015156123cc57805182526020820191506020810190506020830392506123a7565b6001836020036101000a0380198251168184511680821785525050505050509050019150506040518091039020600190049350600060028581151561240d57fe5b06141561249957878281518110151561242257fe5b90602001906020020151878481518110151561243a57fe5b906020019060200201818152505061245184612bb6565b90919250909150878581518110151561246657fe5b906020019060200201878681518110151561247d57fe5b9060200190602002018281525082815250505082806001019350505b818060010192505061234f565b826040519080825280602002602001820160405280156124d55781602001602082028038833980820191505090505b509050600091505b828210156125265786828151811015156124f357fe5b90602001906020020151818381518110151561250b57fe5b906020019060200201818152505081806001019250506124dd565b8086869a509a509a5050505050505050509250925092565b60006001905090565b6000600754905090565b6000809054906101000a900473ffffffffffffffffffffffffffffffffffffffff1673ffffffffffffffffffffffffffffffffffffffff163373ffffffffffffffffffffffffffffffffffffffff161415156125ac57600080fd5b80601160006101000a81548173ffffffffffffffffffffffffffffffffffffffff021916908373ffffffffffffffffffffffffffffffffffffffff16021790555050565b6000606060008060008651141561260a576000935061299d565b601260009054906101000a900473ffffffffffffffffffffffffffffffffffffffff1673ffffffffffffffffffffffffffffffffffffffff16638f3bed06876040518263ffffffff167c01000000000000000000000000000000000000000000000000000000000281526004018080602001828103825283818151815260200191508051906020019060200280838360005b838110156126b757808201518184015260208101905061269c565b5050505090500192505050600060405180830381600087803b1580156126dc57600080fd5b505af11580156126f0573d6000803e3d6000fd5b505050506040513d6000823e3d601f19601f82011682018060405250602081101561271a57600080fd5b81019080805164010000000081111561273257600080fd5b8281019050602081018481111561274857600080fd5b815185602082028301116401000000008211171561276557600080fd5b5050929190505050925060009150600090505b82518110156129995760001515601260009054906101000a900473ffffffffffffffffffffffffffffffffffffffff1673ffffffffffffffffffffffffffffffffffffffff1663ca774c888786858151811015156127d257fe5b906020019060200201516040518363ffffffff167c0100000000000000000000000000000000000000000000000000000000028152600401808373ffffffffffffffffffffffffffffffffffffffff1673ffffffffffffffffffffffffffffffffffffffff16815260200182815260200192505050602060405180830381600087803b15801561286157600080fd5b505af1158015612875573d6000803e3d6000fd5b505050506040513d602081101561288b57600080fd5b81019080805190602001909291905050501515141561298c57601260009054906101000a900473ffffffffffffffffffffffffffffffffffffffff1673ffffffffffffffffffffffffffffffffffffffff16638c96a2c984838151811015156128f057fe5b906020019060200201516040518263ffffffff167c010000000000000000000000000000000000000000000000000000000002815260040180828152602001915050602060405180830381600087803b15801561294c57600080fd5b505af1158015612960573d6000803e3d6000fd5b505050506040513d602081101561297657600080fd5b8101908080519060200190929190505050820191505b8080600101915050612778565b8193505b50505092915050565b60006001600083815260200190815260200160002060009054906101000a900473ffffffffffffffffffffffffffffffffffffffff1673ffffffffffffffffffffffffffffffffffffffff16141515156129ff57600080fd5b3373ffffffffffffffffffffffffffffffffffffffff16612a1f82614af4565b73ffffffffffffffffffffffffffffffffffffffff16141515612a4157600080fd5b8273ffffffffffffffffffffffffffffffffffffffff16612a618261334a565b73ffffffffffffffffffffffffffffffffffffffff16141515612a8357600080fd5b60008273ffffffffffffffffffffffffffffffffffffffff1614151515612aa957600080fd5b60006002600083815260200190815260200160002060006101000a81548173ffffffffffffffffffffffffffffffffffffffff021916908373ffffffffffffffffffffffffffffffffffffffff160217905550612b0683826147f2565b612b1082826149d8565b8060008473ffffffffffffffffffffffffffffffffffffffff167f8c5be1e5ebec7d5bd14f71427d1e84f3dd0314c0f7b2291e5b200ac8c7c3b92560405160405180910390a4808273ffffffffffffffffffffffffffffffffffffffff168473ffffffffffffffffffffffffffffffffffffffff167fddf252ad1be2c89b69c2b068fc378daa952ba7f163c4a11628f55a4df523b3ef60405160405180910390a4505050565b6000806000806000806000806000808a14151515612bd357600080fd5b89945061271085811515612be357fe5b0694506000600286811515612bf457fe5b061415612c3f5761099285811515612c0857fe5b069350610dac85811515612c1857fe5b06925061032060c886811515612c2a57fe5b0601915061016885811515612c3b57fe5b0690505b83838383985098509850985050505050509193509193565b6000600360008473ffffffffffffffffffffffffffffffffffffffff1673ffffffffffffffffffffffffffffffffffffffff16815260200190815260200160002082815481101515612ca557fe5b9060005260206000200154905092915050565b60006064430390505b43811015612d09576008814090806001815401808255809150509060018203906000526020600020016000909192909190915090600019169055508080600101915050612cc1565b50565b600060606000606060006060612d20614c84565b60075488101515612d3057600080fd5b600f600089815260200190815260200160002060a060405190810160405290816000820154815260200160018201805480602002602001604051908101604052809291908181526020018280548015612dac57602002820191906000526020600020905b81546000191681526020019060010190808311612d94575b50505050508152602001600282015481526020016003820160009054906101000a900473ffffffffffffffffffffffffffffffffffffffff1673ffffffffffffffffffffffffffffffffffffffff1673ffffffffffffffffffffffffffffffffffffffff168152602001600482018054600181600116156101000203166002900480601f016020809104026020016040519081016040528092919081815260200182805460018160011615610100020316600290048015612eae5780601f10612e8357610100808354040283529160200191612eae565b820191906000526020600020905b815481529060010190602001808311612e9157829003601f168201915b5050505050815250509050806000015181602001518260400151600d6000856060015173ffffffffffffffffffffffffffffffffffffffff1673ffffffffffffffffffffffffffffffffffffffff168152602001908152602001600020600001612f178c61334a565b8560800151849450828054600181600116156101000203166002900480601f016020809104026020016040519081016040528092919081815260200182805460018160011615610100020316600290048015612fb45780601f10612f8957610100808354040283529160200191612fb4565b820191906000526020600020905b815481529060010190602001808311612f9757829003601f168201915b505050505092508090509650965096509650965096505091939550919395565b6000806000808514151515612fe857600080fd5b60008414151515612ff857600080fd5b846001029150848460405160200180838152602001828152602001925050506040516020818303038152906040526040518082805190602001908083835b60208310151561305b5780518252602082019150602081019050602083039250613036565b6001836020036101000a03801982511681845116808217855250505050505090500191505060405180910390209150600090505b83811015613138578181604051602001808360001916600019168152602001828152602001925050506040516020818303038152906040526040518082805190602001908083835b6020831015156130fc57805182526020820191506020810190506020830392506130d7565b6001836020036101000a03801982511681845116808217855250505050505090500191505060405180910390209150808060010191505061308f565b819250505092915050565b6000600880549050905090565b600d60003373ffffffffffffffffffffffffffffffffffffffff1673ffffffffffffffffffffffffffffffffffffffff16815260200190815260200160002060020160009054906101000a900460ff161515613214576040517f08c379a00000000000000000000000000000000000000000000000000000000081526004018080602001828103825260138152602001807f5573657220646f65736e2774206578697374730000000000000000000000000081525060200191505060405180910390fd5b80600d60003373ffffffffffffffffffffffffffffffffffffffff1673ffffffffffffffffffffffffffffffffffffffff168152602001908152602001600020600101816000191690555050565b600f6020528060005260406000206000915090508060000154908060020154908060030160009054906101000a900473ffffffffffffffffffffffffffffffffffffffff1690806004018054600181600116156101000203166002900480601f0160208091040260200160405190810160405280929190818152602001828054600181600116156101000203166002900480156133405780601f1061331557610100808354040283529160200191613340565b820191906000526020600020905b81548152906001019060200180831161332357829003601f168201915b5050505050905084565b60006001600083815260200190815260200160002060009054906101000a900473ffffffffffffffffffffffffffffffffffffffff169050919050565b60606000613393614cca565b600d60008573ffffffffffffffffffffffffffffffffffffffff1673ffffffffffffffffffffffffffffffffffffffff16815260200190815260200160002060606040519081016040529081600082018054600181600116156101000203166002900480601f0160208091040260200160405190810160405280929190818152602001828054600181600116156101000203166002900480156134775780601f1061344c57610100808354040283529160200191613477565b820191906000526020600020905b81548152906001019060200180831161345a57829003601f168201915b505050505081526020016001820154600019166000191681526020016002820160009054906101000a900460ff1615151515815250509050806000015181602001518191509250925050915091565b60001515600a836040518082805190602001908083835b60208310151561350257805182526020820191506020810190506020830392506134dd565b6001836020036101000a038019825116818451168082178552505050505050905001915050908152602001604051809103902060009054906101000a900460ff16151514151561355157600080fd5b60001515600b6000836000191660001916815260200190815260200160002060009054906101000a900460ff16151514151561358c57600080fd5b6060604051908101604052808381526020018260001916815260200160011515815250600d60003373ffffffffffffffffffffffffffffffffffffffff1673ffffffffffffffffffffffffffffffffffffffff168152602001908152602001600020600082015181600001908051906020019061360a929190614b84565b506020820151816001019060001916905560408201518160020160006101000a81548160ff0219169083151502179055509050506001600a836040518082805190602001908083835b6020831015156136785780518252602082019150602081019050602083039250613653565b6001836020036101000a038019825116818451168082178552505050505050905001915050908152602001604051809103902060006101000a81548160ff0219169083151502179055506001600b6000836000191660001916815260200190815260200160002060006101000a81548160ff02191690831515021790555033600c836040518082805190602001908083835b60208310151561372f578051825260208201915060208101905060208303925061370a565b6001836020036101000a038019825116818451168082178552505050505050905001915050908152602001604051809103902060006101000a81548173ffffffffffffffffffffffffffffffffffffffff021916908373ffffffffffffffffffffffffffffffffffffffff1602179055506009600081548092919060010191905055505050565b6000600360008373ffffffffffffffffffffffffffffffffffffffff1673ffffffffffffffffffffffffffffffffffffffff168152602001908152602001600020805490509050919050565b60036020528160005260406000208181548110151561381d57fe5b90600052602060002001600091509150505481565b6000809054906101000a900473ffffffffffffffffffffffffffffffffffffffff1681565b60068054600181600116156101000203166002900480601f0160208091040260200160405190810160405280929190818152602001828054600181600116156101000203166002900480156138ed5780601f106138c2576101008083540402835291602001916138ed565b820191906000526020600020905b8154815290600101906020018083116138d057829003601f168201915b505050505081565b6000818360405160200180838152602001828152602001925050506040516020818303038152906040526040518082805190602001908083835b602083101515613954578051825260208201915060208101905060208303925061392f565b6001836020036101000a038019825116818451168082178552505050505050905001915050604051809103902060019004905092915050565b6000809054906101000a900473ffffffffffffffffffffffffffffffffffffffff1673ffffffffffffffffffffffffffffffffffffffff163373ffffffffffffffffffffffffffffffffffffffff161415156139e857600080fd5b80601260006101000a81548173ffffffffffffffffffffffffffffffffffffffff021916908373ffffffffffffffffffffffffffffffffffffffff16021790555050565b60006001600083815260200190815260200160002060009054906101000a900473ffffffffffffffffffffffffffffffffffffffff1673ffffffffffffffffffffffffffffffffffffffff1614151515613a8557600080fd5b3373ffffffffffffffffffffffffffffffffffffffff16613aa58261334a565b73ffffffffffffffffffffffffffffffffffffffff16141515613ac757600080fd5b60006002600083815260200190815260200160002060006101000a81548173ffffffffffffffffffffffffffffffffffffffff021916908373ffffffffffffffffffffffffffffffffffffffff160217905550613b2433826147f2565b613b2e82826149d8565b8060003373ffffffffffffffffffffffffffffffffffffffff167f8c5be1e5ebec7d5bd14f71427d1e84f3dd0314c0f7b2291e5b200ac8c7c3b92560405160405180910390a4808273ffffffffffffffffffffffffffffffffffffffff163373ffffffffffffffffffffffffffffffffffffffff167fddf252ad1be2c89b69c2b068fc378daa952ba7f163c4a11628f55a4df523b3ef60405160405180910390a45050565b6000600882815481101515613be457fe5b90600052602060002001549050919050565b60008060008314151515613c0957600080fd5b600a8451141515613c1957600080fd5b6008846000815181101515613c2a57fe5b90602001906020020151815481101515613c4057fe5b90600052602060002001546008856001815181101515613c5c57fe5b90602001906020020151815481101515613c7257fe5b90600052602060002001546008866002815181101515613c8e57fe5b90602001906020020151815481101515613ca457fe5b90600052602060002001546008876003815181101515613cc057fe5b90602001906020020151815481101515613cd657fe5b90600052602060002001546008886004815181101515613cf257fe5b90602001906020020151815481101515613d0857fe5b90600052602060002001546008896005815181101515613d2457fe5b90602001906020020151815481101515613d3a57fe5b906000526020600020015460088a6006815181101515613d5657fe5b90602001906020020151815481101515613d6c57fe5b906000526020600020015460088b6007815181101515613d8857fe5b90602001906020020151815481101515613d9e57fe5b906000526020600020015460088c6008815181101515613dba57fe5b90602001906020020151815481101515613dd057fe5b906000526020600020015460088d6009815181101515613dec57fe5b90602001906020020151815481101515613e0257fe5b90600052602060002001548c604051602001808c600019166000191681526020018b600019166000191681526020018a6000191660001916815260200189600019166000191681526020018860001916600019168152602001876000191660001916815260200186600019166000191681526020018560001916600019168152602001846000191660001916815260200183600019166000191681526020018281526020019b5050505050505050505050506040516020818303038152906040526040518082805190602001908083835b602083101515613ef85780518252602082019150602081019050602083039250613ed3565b6001836020036101000a03801982511681845116808217855250505050505090500191505060405180910390209050806001900491505092915050565b60106020528060005260406000206000915090508054600181600116156101000203166002900480601f016020809104026020016040519081016040528092919081815260200182805460018160011615610100020316600290048015613fdd5780601f10613fb257610100808354040283529160200191613fdd565b820191906000526020600020905b815481529060010190602001808311613fc057829003601f168201915b505050505081565b6000816001029050919050565b6060806000806000806000806000606060008b5111151561401257600080fd5b600a8b51026040519080825280602002602001820160405280156140455781602001602082028038833980820191505090505b50985060009750600096505b8a518710156140fd578a8781518110151561406857fe5b906020019060200201519450849550600093505b600a8410156140f05760026018850260029060020a0281151561409b57fe5b0492508262ffffff840287168115156140b057fe5b0491506000821415156140e3578189898151811015156140cc57fe5b906020019060200201818152505087806001019850505b838060010194505061407c565b8680600101975050614051565b8760405190808252806020026020018201604052801561412c5781602001602082028038833980820191505090505b509050600093505b8784101561417d57888481518110151561414a57fe5b90602001906020020151818581518110151561416257fe5b90602001906020020181815250508380600101945050614134565b809950505050505050505050919050565b601160009054906101000a900473ffffffffffffffffffffffffffffffffffffffff1681565b60075481565b6060600360008373ffffffffffffffffffffffffffffffffffffffff1673ffffffffffffffffffffffffffffffffffffffff16815260200190815260200160002080548060200260200160405190810160405280929190818152602001828054801561424557602002820191906000526020600020905b815481526020019060010190808311614231575b50505050509050919050565b60608060608060608060606000806000606060008d1415151561427357600080fd5b60008c5111151561428357600080fd5b61428c8c613ff2565b975087516040519080825280602002602001820160405280156142be5781602001602082028038833980820191505090505b50965087516040519080825280602002602001820160405280156142f15781602001602082028038833980820191505090505b50955087516040519080825280602002602001820160405280156143245781602001602082028038833980820191505090505b5094508c935060009250600091505b87518210156144865783888381518110151561434b57fe5b9060200190602002015160405160200180838152602001828152602001925050506040516020818303038152906040526040518082805190602001908083835b6020831015156143b0578051825260208201915060208101905060208303925061438b565b6001836020036101000a038019825116818451168082178552505050505050905001915050604051809103902060019004935060006002858115156143f157fe5b06141561447957878281518110151561440657fe5b90602001906020020151878481518110151561441e57fe5b906020019060200201818152505061443584612bb6565b905050878581518110151561444657fe5b906020019060200201878681518110151561445d57fe5b9060200190602002018281525082815250505082806001019350505b8180600101925050614333565b826040519080825280602002602001820160405280156144b55781602001602082028038833980820191505090505b509050600091505b828210156145065786828151811015156144d357fe5b9060200190602002015181838151811015156144eb57fe5b906020019060200201818152505081806001019250506144bd565b8086869a509a509a5050505050505050509250925092565b6000809054906101000a900473ffffffffffffffffffffffffffffffffffffffff1673ffffffffffffffffffffffffffffffffffffffff163373ffffffffffffffffffffffffffffffffffffffff1614151561457957600080fd5b600073ffffffffffffffffffffffffffffffffffffffff168173ffffffffffffffffffffffffffffffffffffffff16141515156145b557600080fd5b8073ffffffffffffffffffffffffffffffffffffffff166000809054906101000a900473ffffffffffffffffffffffffffffffffffffffff1673ffffffffffffffffffffffffffffffffffffffff167f8be0079c531659141344cd1fd0a4f28419497f9722a3daafe3b4186f6b6457e060405160405180910390a3806000806101000a81548173ffffffffffffffffffffffffffffffffffffffff021916908373ffffffffffffffffffffffffffffffffffffffff16021790555050565b6000806007549050826001600083815260200190815260200160002060006101000a81548173ffffffffffffffffffffffffffffffffffffffff021916908373ffffffffffffffffffffffffffffffffffffffff160217905550600360008473ffffffffffffffffffffffffffffffffffffffff1673ffffffffffffffffffffffffffffffffffffffff1681526020019081526020016000208190806001815401808255809150509060018203906000526020600020016000909192909190915055506001600360008573ffffffffffffffffffffffffffffffffffffffff1673ffffffffffffffffffffffffffffffffffffffff16815260200190815260200160002080549050036004600083815260200190815260200160002081905550600760008154809291906001019190505550808373ffffffffffffffffffffffffffffffffffffffff167f0f6798a560793a54c3bcfe86a93cde1e73087d944c0ea20544137d412139688560405160405180910390a380915050919050565b6000806000600360008673ffffffffffffffffffffffffffffffffffffffff1673ffffffffffffffffffffffffffffffffffffffff16815260200190815260200160002080549050925060046000858152602001908152602001600020549150600360008673ffffffffffffffffffffffffffffffffffffffff1673ffffffffffffffffffffffffffffffffffffffff168152602001908152602001600020600184038154811015156148a157fe5b9060005260206000200154905080600360008773ffffffffffffffffffffffffffffffffffffffff1673ffffffffffffffffffffffffffffffffffffffff168152602001908152602001600020838154811015156148fb57fe5b9060005260206000200181905550816004600083815260200190815260200160002081905550600360008673ffffffffffffffffffffffffffffffffffffffff1673ffffffffffffffffffffffffffffffffffffffff1681526020019081526020016000206001840381548110151561497057fe5b9060005260206000200160009055600360008673ffffffffffffffffffffffffffffffffffffffff1673ffffffffffffffffffffffffffffffffffffffff1681526020019081526020016000208054809190600190036149d09190614cf1565b505050505050565b816001600083815260200190815260200160002060006101000a81548173ffffffffffffffffffffffffffffffffffffffff021916908373ffffffffffffffffffffffffffffffffffffffff160217905550600360008373ffffffffffffffffffffffffffffffffffffffff1673ffffffffffffffffffffffffffffffffffffffff1681526020019081526020016000208190806001815401808255809150509060018203906000526020600020016000909192909190915055506001600360008473ffffffffffffffffffffffffffffffffffffffff1673ffffffffffffffffffffffffffffffffffffffff168152602001908152602001600020805490500360046000838152602001908152602001600020819055505050565b60006002600083815260200190815260200160002060009054906101000a900473ffffffffffffffffffffffffffffffffffffffff169050919050565b828054828255906000526020600020908101928215614b73579160200282015b82811115614b72578251829060001916905591602001919060010190614b51565b5b509050614b809190614d1d565b5090565b828054600181600116156101000203166002900490600052602060002090601f016020900481019282601f10614bc557805160ff1916838001178555614bf3565b82800160010185558215614bf3579182015b82811115614bf2578251825591602001919060010190614bd7565b5b509050614c009190614d42565b5090565b828054600181600116156101000203166002900490600052602060002090601f016020900481019282601f10614c4557805160ff1916838001178555614c73565b82800160010185558215614c73579182015b82811115614c72578251825591602001919060010190614c57565b5b509050614c809190614d42565b5090565b60a060405190810160405280600081526020016060815260200160008152602001600073ffffffffffffffffffffffffffffffffffffffff168152602001606081525090565b60606040519081016040528060608152602001600080191681526020016000151581525090565b815481835581811115614d1857818360005260206000209182019101614d179190614d42565b5b505050565b614d3f91905b80821115614d3b576000816000905550600101614d23565b5090565b90565b614d6491905b80821115614d60576000816000905550600101614d48565b5090565b905600a165627a7a72305820d19e17e5fdd30c0ac42ee3d1f3b21e4a5550540c0b45fe3510f9b72059d2dfae0029",
  "source": "pragma solidity ^0.4.23;\n\nimport \"./ImageToken.sol\";\nimport \"../Utils/Functions.sol\";\nimport \"../IAssetManager.sol\";\nimport \"../UserManager.sol\";\n\n\ncontract DigitalPrintImage is ImageToken, Functions, UserManager {\n\n    struct ImageMetadata {\n        uint finalSeed;\n        bytes32[] potentialAssets;\n        uint timestamp;\n        address creator;\n        string ipfsHash;\n    }\n\n\n    mapping(uint => bool) seedExists;\n    mapping(uint => ImageMetadata) public imageMetadata;\n    mapping(uint => string) public idToIpfsHash;\n\n    address public marketplaceContract;\n    IAssetManager assetManager;\n\n\n    modifier onlyMarketplaceContract() {\n        require(msg.sender == address(marketplaceContract));\n        _;\n    }\n\n    /// @dev only for testing purposes\n    // function createImageTest() public returns(uint) {\n    //     return createImage(msg.sender);\n    // }\n\n    /// @notice Function will create new image\n    /// @dev owner of image will be msg.sender, and timestamp will be automatically generated, timestamp will be automatically generated\n    /// @dev _txHash and _timestamp together with keccak256 will give us randomSeed for user\n    /// @param _randomHashIds is array of random hashes from our array\n    /// @param _timestamp is timestamp when image is created\n    /// @param _iterations is number of how many times he generated random asset positions until he liked what he got\n    /// @param _potentialAssets is set of all potential assets user selected for an image\n    /// @param _author is nickname of image owner\n    /// @param _ipfsHash is ipfsHash of the image .png\n    /// @return returns id of created image\n    function createImage(\n        uint[] _randomHashIds,\n        uint _timestamp,\n        uint _iterations,\n        bytes32[] _potentialAssets,\n        string _author,\n        string _ipfsHash) public payable returns (uint) {\n        require(_potentialAssets.length <= 5);\n        // if user exists send his username, if it doesn't check for some username that doesn't exists\n        require(msg.sender == usernameToAddress[_author] || !usernameExists[_author]);\n\n        // if user doesn't exists create that user with no profile picture\n        if (!usernameExists[_author]) {\n            register(_author, \"0x0\");\n        }\n\n        uint finalSeed = uint(getFinalSeed(calculateSeed(_randomHashIds, _timestamp), _iterations));\n\n        require(seedExists[finalSeed] == false);\n\n        uint[] memory pickedAssets;\n\n        (pickedAssets,,) = pickRandomAssets(finalSeed, _potentialAssets);\n        address _creator = msg.sender;\n\n        uint[] memory pickedAssetPacks = assetManager.pickUniquePacks(pickedAssets);\n\n        uint finalPrice = calculatePrice(pickedAssetPacks, _creator);\n        require(msg.value >= finalPrice);\n\n        for(uint i = 0; i<pickedAssetPacks.length ;i++) {\n            if(assetManager.checkHasPermissionForPack(_creator, pickedAssetPacks[i]) == false){\n                assetManager.givePermission(msg.sender, pickedAssetPacks[i]);\n            }\n        }\n\n        uint id = createImage(_creator);\n\n        imageMetadata[id] = ImageMetadata({\n            finalSeed: finalSeed,\n            potentialAssets: _potentialAssets,\n            timestamp: _timestamp,\n            creator: _creator,\n            ipfsHash: _ipfsHash\n        });\n\n        idToIpfsHash[id] = _ipfsHash;\n        seedExists[finalSeed] = true;\n        return id;\n    }\n\n    /// @notice Function to calculate final price for an image based on selected assets\n    /// @param _pickedAssets is array of picked packs\n    /// @param _owner is address of image owner\n    /// @return finalPrice for the image\n    function calculatePrice(uint[] _pickedAssets, address _owner) public view returns (uint) {\n        if(_pickedAssets.length == 0) {\n            return 0;\n        }\n\n        uint[] memory pickedAssetPacks = assetManager.pickUniquePacks(_pickedAssets);\n        uint finalPrice = 0;\n        for(uint i = 0; i<pickedAssetPacks.length; i++) {\n            if(assetManager.checkHasPermissionForPack(_owner, pickedAssetPacks[i]) == false) {\n                finalPrice += assetManager.getAssetPackPrice(pickedAssetPacks[i]);\n            }\n        }\n\n        return finalPrice;\n    }\n\n\n    function getImageMetadata(uint _imageId) public view returns(uint, bytes32[], uint, string, address, string) {\n        require(_imageId < numOfImages);\n\n        ImageMetadata memory metadata = imageMetadata[_imageId];\n\n        return(\n            metadata.finalSeed,\n            metadata.potentialAssets,\n            metadata.timestamp,\n            addressToUser[metadata.creator].username,\n            ownerOf(_imageId),\n            metadata.ipfsHash\n        );\n\n    }\n\n\n    /// @notice adds marketplace address to contract only if it doesn't already exist\n    /// @param _marketplaceContract address of marketplace contract\n    function addMarketplaceContract(address _marketplaceContract) public onlyOwner {\n        // not required while on testnet\n        // @dev require(address(marketplaceContract) == 0x0);\n        marketplaceContract = _marketplaceContract;\n    }\n\n\n    /// @notice approving image to be taken from specific address\n    /// @param _from address from which we transfer image\n    /// @param _to address that we give permission to take image\n    /// @param _imageId we are willing to give\n    function transferFromMarketplace(address _from, address _to, uint256 _imageId) public onlyMarketplaceContract {\n        require(tokensForOwner[_imageId] != 0x0);\n        require(ownerOf(_imageId) == _from);\n\n        tokensForApproved[_imageId] = 0x0;\n        removeImage(_from, _imageId);\n        addImage(_to, _imageId);\n\n        emit Approval(_from, 0, _imageId);\n        emit Transfer(_from, _to, _imageId);\n    }\n\n\n    /// @notice Function to add assetManager\n    /// @dev during testing can be changed, after deployment to main network can be set only once\n    /// @param _assetManager is address of assetManager contract\n    function addAssetManager(address _assetManager) public onlyOwner {\n        assetManager = IAssetManager(_assetManager);\n    }\n\n}",
  "sourcePath": "/Users/nikolamadjarevic/Desktop/Decenter/Cryptographics/contracts/Image/DigitalPrintImage.sol",
  "compiler": {
    "name": "solc",
    "version": "0.4.24+commit.e67f0147.Emscripten.clang"
  },
  "schemaVersion": "2.0.1",
  "updatedAt": "2018-07-17T09:42:50.713Z"
}