{
  "contractName": "DigitalPrintImage",
  "abi": [
    {
      "constant": true,
      "inputs": [
        {
          "name": "",
          "type": "uint256"
        }
      ],
      "name": "tokenPosInArr",
      "outputs": [
        {
          "name": "",
          "type": "uint256"
        }
      ],
      "payable": false,
      "stateMutability": "view",
      "type": "function"
    },
    {
      "constant": true,
      "inputs": [],
      "name": "name",
      "outputs": [
        {
          "name": "",
          "type": "string"
        }
      ],
      "payable": false,
      "stateMutability": "view",
      "type": "function"
    },
    {
      "constant": true,
      "inputs": [
        {
          "name": "",
          "type": "uint256"
        }
      ],
      "name": "tokensForOwner",
      "outputs": [
        {
          "name": "",
          "type": "address"
        }
      ],
      "payable": false,
      "stateMutability": "view",
      "type": "function"
    },
    {
      "constant": false,
      "inputs": [
        {
          "name": "_to",
          "type": "address"
        },
        {
          "name": "_imageId",
          "type": "uint256"
        }
      ],
      "name": "approve",
      "outputs": [],
      "payable": false,
      "stateMutability": "nonpayable",
      "type": "function"
    },
    {
      "constant": true,
      "inputs": [
        {
          "name": "",
          "type": "uint256"
        }
      ],
      "name": "tokensForApproved",
      "outputs": [
        {
          "name": "",
          "type": "address"
        }
      ],
      "payable": false,
      "stateMutability": "view",
      "type": "function"
    },
    {
      "constant": true,
      "inputs": [],
      "name": "implementsERC721",
      "outputs": [
        {
          "name": "",
          "type": "bool"
        }
      ],
      "payable": false,
      "stateMutability": "pure",
      "type": "function"
    },
    {
      "constant": true,
      "inputs": [],
      "name": "totalSupply",
      "outputs": [
        {
          "name": "",
          "type": "uint256"
        }
      ],
      "payable": false,
      "stateMutability": "view",
      "type": "function"
    },
    {
      "constant": false,
      "inputs": [
        {
          "name": "_from",
          "type": "address"
        },
        {
          "name": "_to",
          "type": "address"
        },
        {
          "name": "_imageId",
          "type": "uint256"
        }
      ],
      "name": "transferFrom",
      "outputs": [],
      "payable": false,
      "stateMutability": "nonpayable",
      "type": "function"
    },
    {
      "constant": true,
      "inputs": [
        {
          "name": "_random_seed",
          "type": "uint256"
        }
      ],
      "name": "pickRandomAssetPosition",
      "outputs": [
        {
          "name": "",
          "type": "uint256"
        },
        {
          "name": "",
          "type": "uint256"
        },
        {
          "name": "",
          "type": "uint256"
        },
        {
          "name": "",
          "type": "uint256"
        }
      ],
      "payable": false,
      "stateMutability": "view",
      "type": "function"
    },
    {
      "constant": true,
      "inputs": [
        {
          "name": "_owner",
          "type": "address"
        },
        {
          "name": "_index",
          "type": "uint256"
        }
      ],
      "name": "tokenOfOwnerByIndex",
      "outputs": [
        {
          "name": "",
          "type": "uint256"
        }
      ],
      "payable": false,
      "stateMutability": "view",
      "type": "function"
    },
    {
      "constant": false,
      "inputs": [],
      "name": "fillWithHashes",
      "outputs": [],
      "payable": false,
      "stateMutability": "nonpayable",
      "type": "function"
    },
    {
      "constant": true,
      "inputs": [
        {
          "name": "_random_seed",
          "type": "uint256"
        },
        {
          "name": "_iterations",
          "type": "uint256"
        }
      ],
      "name": "getFinalSeed",
      "outputs": [
        {
          "name": "",
          "type": "bytes32"
        }
      ],
      "payable": false,
      "stateMutability": "view",
      "type": "function"
    },
    {
      "constant": true,
      "inputs": [],
      "name": "getLen",
      "outputs": [
        {
          "name": "",
          "type": "uint256"
        }
      ],
      "payable": false,
      "stateMutability": "view",
      "type": "function"
    },
    {
      "constant": false,
      "inputs": [
        {
          "name": "_hashToProfilePicture",
          "type": "bytes32"
        }
      ],
      "name": "changeProfilePicture",
      "outputs": [],
      "payable": false,
      "stateMutability": "nonpayable",
      "type": "function"
    },
    {
      "constant": true,
      "inputs": [
        {
          "name": "",
          "type": "uint256"
        }
      ],
      "name": "imageMetadata",
      "outputs": [
        {
          "name": "randomSeed",
          "type": "uint256"
        },
        {
          "name": "iterations",
          "type": "uint256"
        },
        {
          "name": "timestamp",
          "type": "uint256"
        },
        {
          "name": "creator",
          "type": "address"
        },
        {
          "name": "ipfsHash",
          "type": "string"
        }
      ],
      "payable": false,
      "stateMutability": "view",
      "type": "function"
    },
    {
      "constant": true,
      "inputs": [
        {
          "name": "_imageId",
          "type": "uint256"
        }
      ],
      "name": "ownerOf",
      "outputs": [
        {
          "name": "",
          "type": "address"
        }
      ],
      "payable": false,
      "stateMutability": "view",
      "type": "function"
    },
    {
      "constant": true,
      "inputs": [
        {
          "name": "_address",
          "type": "address"
        }
      ],
      "name": "getUserInfo",
      "outputs": [
        {
          "name": "",
          "type": "string"
        },
        {
          "name": "",
          "type": "bytes32"
        }
      ],
      "payable": false,
      "stateMutability": "view",
      "type": "function"
    },
    {
      "constant": false,
      "inputs": [
        {
          "name": "_username",
          "type": "string"
        },
        {
          "name": "_hashToProfilePicture",
          "type": "bytes32"
        }
      ],
      "name": "register",
      "outputs": [],
      "payable": false,
      "stateMutability": "nonpayable",
      "type": "function"
    },
    {
      "constant": true,
      "inputs": [
        {
          "name": "_owner",
          "type": "address"
        }
      ],
      "name": "balanceOf",
      "outputs": [
        {
          "name": "balance",
          "type": "uint256"
        }
      ],
      "payable": false,
      "stateMutability": "view",
      "type": "function"
    },
    {
      "constant": true,
      "inputs": [
        {
          "name": "",
          "type": "address"
        },
        {
          "name": "",
          "type": "uint256"
        }
      ],
      "name": "tokensOwned",
      "outputs": [
        {
          "name": "",
          "type": "uint256"
        }
      ],
      "payable": false,
      "stateMutability": "view",
      "type": "function"
    },
    {
      "constant": true,
      "inputs": [],
      "name": "owner",
      "outputs": [
        {
          "name": "",
          "type": "address"
        }
      ],
      "payable": false,
      "stateMutability": "view",
      "type": "function"
    },
    {
      "constant": true,
      "inputs": [],
      "name": "symbol",
      "outputs": [
        {
          "name": "",
          "type": "string"
        }
      ],
      "payable": false,
      "stateMutability": "view",
      "type": "function"
    },
    {
      "constant": true,
      "inputs": [
        {
          "name": "assetId",
          "type": "uint256"
        },
        {
          "name": "random_seed",
          "type": "uint256"
        }
      ],
      "name": "getSeed",
      "outputs": [
        {
          "name": "",
          "type": "uint256"
        }
      ],
      "payable": false,
      "stateMutability": "pure",
      "type": "function"
    },
    {
      "constant": true,
      "inputs": [
        {
          "name": "_random_seed",
          "type": "uint256"
        },
        {
          "name": "_iterations",
          "type": "uint256"
        },
        {
          "name": "_potentialAssets",
          "type": "bytes32[]"
        }
      ],
      "name": "pickRandomAssets",
      "outputs": [
        {
          "name": "",
          "type": "uint256[]"
        },
        {
          "name": "",
          "type": "uint256[]"
        },
        {
          "name": "",
          "type": "uint256[]"
        }
      ],
      "payable": false,
      "stateMutability": "view",
      "type": "function"
    },
    {
      "constant": false,
      "inputs": [
        {
          "name": "_to",
          "type": "address"
        },
        {
          "name": "_imageId",
          "type": "uint256"
        }
      ],
      "name": "transfer",
      "outputs": [],
      "payable": false,
      "stateMutability": "nonpayable",
      "type": "function"
    },
    {
      "constant": true,
      "inputs": [
        {
          "name": "_index",
          "type": "uint256"
        }
      ],
      "name": "getRandomHash",
      "outputs": [
        {
          "name": "",
          "type": "bytes32"
        }
      ],
      "payable": false,
      "stateMutability": "view",
      "type": "function"
    },
    {
      "constant": true,
      "inputs": [
        {
          "name": "_randomHashIds",
          "type": "uint256[]"
        },
        {
          "name": "_timestamp",
          "type": "uint256"
        }
      ],
      "name": "calculateSeed",
      "outputs": [
        {
          "name": "",
          "type": "uint256"
        }
      ],
      "payable": false,
      "stateMutability": "view",
      "type": "function"
    },
    {
      "constant": true,
      "inputs": [
        {
          "name": "",
          "type": "uint256"
        }
      ],
      "name": "idToIpfsHash",
      "outputs": [
        {
          "name": "",
          "type": "string"
        }
      ],
      "payable": false,
      "stateMutability": "view",
      "type": "function"
    },
    {
      "constant": true,
      "inputs": [
        {
          "name": "random_seed",
          "type": "uint256"
        }
      ],
      "name": "toHex",
      "outputs": [
        {
          "name": "",
          "type": "bytes32"
        }
      ],
      "payable": false,
      "stateMutability": "view",
      "type": "function"
    },
    {
      "constant": true,
      "inputs": [
        {
          "name": "_potentialAssets",
          "type": "bytes32[]"
        }
      ],
      "name": "decodeAssets",
      "outputs": [
        {
          "name": "",
          "type": "uint256[]"
        }
      ],
      "payable": false,
      "stateMutability": "view",
      "type": "function"
    },
    {
      "constant": true,
      "inputs": [],
      "name": "marketplaceContract",
      "outputs": [
        {
          "name": "",
          "type": "address"
        }
      ],
      "payable": false,
      "stateMutability": "view",
      "type": "function"
    },
    {
      "constant": true,
      "inputs": [],
      "name": "numOfImages",
      "outputs": [
        {
          "name": "",
          "type": "uint256"
        }
      ],
      "payable": false,
      "stateMutability": "view",
      "type": "function"
    },
    {
      "constant": true,
      "inputs": [
        {
          "name": "_owner",
          "type": "address"
        }
      ],
      "name": "getUserImages",
      "outputs": [
        {
          "name": "",
          "type": "uint256[]"
        }
      ],
      "payable": false,
      "stateMutability": "view",
      "type": "function"
    },
    {
      "constant": false,
      "inputs": [
        {
          "name": "newOwner",
          "type": "address"
        }
      ],
      "name": "transferOwnership",
      "outputs": [],
      "payable": false,
      "stateMutability": "nonpayable",
      "type": "function"
    },
    {
      "anonymous": false,
      "inputs": [
        {
          "indexed": true,
          "name": "from",
          "type": "address"
        },
        {
          "indexed": true,
          "name": "to",
          "type": "address"
        },
        {
          "indexed": true,
          "name": "tokenId",
          "type": "uint256"
        }
      ],
      "name": "Transfer",
      "type": "event"
    },
    {
      "anonymous": false,
      "inputs": [
        {
          "indexed": true,
          "name": "owner",
          "type": "address"
        },
        {
          "indexed": true,
          "name": "approved",
          "type": "address"
        },
        {
          "indexed": true,
          "name": "tokenId",
          "type": "uint256"
        }
      ],
      "name": "Approval",
      "type": "event"
    },
    {
      "anonymous": false,
      "inputs": [
        {
          "indexed": true,
          "name": "_to",
          "type": "address"
        },
        {
          "indexed": true,
          "name": "_tokenId",
          "type": "uint256"
        }
      ],
      "name": "Mint",
      "type": "event"
    },
    {
      "anonymous": false,
      "inputs": [
        {
          "indexed": true,
          "name": "previousOwner",
          "type": "address"
        },
        {
          "indexed": true,
          "name": "newOwner",
          "type": "address"
        }
      ],
      "name": "OwnershipTransferred",
      "type": "event"
    },
    {
      "constant": false,
      "inputs": [
        {
          "name": "_randomHashIds",
          "type": "uint256[]"
        },
        {
          "name": "_timestamp",
          "type": "uint256"
        },
        {
          "name": "_iterations",
          "type": "uint256"
        },
        {
          "name": "_potentialAssets",
          "type": "bytes32[]"
        },
        {
          "name": "_author",
          "type": "string"
        },
        {
          "name": "_ipfsHash",
          "type": "string"
        }
      ],
      "name": "createImage",
      "outputs": [
        {
          "name": "",
          "type": "uint256"
        }
      ],
      "payable": true,
      "stateMutability": "payable",
      "type": "function"
    },
    {
      "constant": true,
      "inputs": [
        {
          "name": "_pickedAssets",
          "type": "uint256[]"
        },
        {
          "name": "_owner",
          "type": "address"
        }
      ],
      "name": "calculatePrice",
      "outputs": [
        {
          "name": "",
          "type": "uint256"
        }
      ],
      "payable": false,
      "stateMutability": "view",
      "type": "function"
    },
    {
      "constant": true,
      "inputs": [
        {
          "name": "_imageId",
          "type": "uint256"
        }
      ],
      "name": "getImageMetadata",
      "outputs": [
        {
          "name": "",
          "type": "uint256"
        },
        {
          "name": "",
          "type": "uint256"
        },
        {
          "name": "",
          "type": "bytes32[]"
        },
        {
          "name": "",
          "type": "uint256"
        },
        {
          "name": "",
          "type": "string"
        },
        {
          "name": "",
          "type": "address"
        },
        {
          "name": "",
          "type": "string"
        }
      ],
      "payable": false,
      "stateMutability": "view",
      "type": "function"
    },
    {
      "constant": false,
      "inputs": [
        {
          "name": "_marketplaceContract",
          "type": "address"
        }
      ],
      "name": "addMarketplaceContract",
      "outputs": [],
      "payable": false,
      "stateMutability": "nonpayable",
      "type": "function"
    },
    {
      "constant": false,
      "inputs": [
        {
          "name": "_from",
          "type": "address"
        },
        {
          "name": "_to",
          "type": "address"
        },
        {
          "name": "_imageId",
          "type": "uint256"
        }
      ],
      "name": "transferFromMarketplace",
      "outputs": [],
      "payable": false,
      "stateMutability": "nonpayable",
      "type": "function"
    },
    {
      "constant": false,
      "inputs": [
        {
          "name": "_assetManager",
          "type": "address"
        }
      ],
      "name": "addAssetManager",
      "outputs": [],
      "payable": false,
      "stateMutability": "nonpayable",
      "type": "function"
    }
  ],
  "bytecode": "0x6080604052336000806101000a81548173ffffffffffffffffffffffffffffffffffffffff021916908373ffffffffffffffffffffffffffffffffffffffff1602179055506040805190810160405280600a81526020017f496d616765546f6b656e000000000000000000000000000000000000000000008152506005908051906020019062000091929190620000ee565b506040805190810160405280600381526020017f494d54000000000000000000000000000000000000000000000000000000000081525060069080519060200190620000df929190620000ee565b5060006007819055506200019d565b828054600181600116156101000203166002900490600052602060002090601f016020900481019282601f106200013157805160ff191683800117855562000162565b8280016001018555821562000162579182015b828111156200016157825182559160200191906001019062000144565b5b50905062000171919062000175565b5090565b6200019a91905b80821115620001965760008160009055506001016200017c565b5090565b90565b6147b680620001ad6000396000f3006080604052600436106101ee576000357c0100000000000000000000000000000000000000000000000000000000900463ffffffff168063040e9576146101f3578063056cf1d91461034357806306fdde031461038457806308a6c05a1461041457806308adf7b114610481578063095ea7b3146104ee5780630de66a7d1461053b5780631051db34146105a857806318160ddd146105d75780631e14d823146106025780632041518d1461064557806323b872dd146106df578063298a423c1461074c5780632f745c59146107a2578063390b8482146108035780633bbb11a11461081a578063469506bf146109bc5780634a90be5714610a0f5780634ea8b6d014610a3a57806355d8d13514610a6b5780636352211e14610b595780636386c1c714610bc6578063656afdee14610c9157806370a0823114610d08578063853b5bb314610d5f5780638da5cb5b14610dc057806395d89b4114610e1757806396e6031114610ea7578063987ea89914610ef25780639f6ff8a514610f35578063a9059cbb14611094578063ab6ca6dc146110e1578063b52c1d5b1461112a578063bb2daa73146111ae578063bf1792b314611254578063c93340511461129d578063d1bb5cf114611358578063e75e7005146113af578063eb6bbd78146113da578063f2fde38b14611472575b600080fd5b61032d60048036038101908080359060200190820180359060200190808060200260200160405190810160405280939291908181526020018383602002808284378201915050505050509192919290803590602001909291908035906020019092919080359060200190820180359060200190808060200260200160405190810160405280939291908181526020018383602002808284378201915050505050509192919290803590602001908201803590602001908080601f0160208091040260200160405190810160405280939291908181526020018383808284378201915050505050509192919290803590602001908201803590602001908080601f01602080910402602001604051908101604052809392919081815260200183838082843782019150505050505091929192905050506114b5565b6040518082815260200191505060405180910390f35b34801561034f57600080fd5b5061036e60048036038101908080359060200190929190505050611c4a565b6040518082815260200191505060405180910390f35b34801561039057600080fd5b50610399611c62565b6040518080602001828103825283818151815260200191508051906020019080838360005b838110156103d95780820151818401526020810190506103be565b50505050905090810190601f1680156104065780820380516001836020036101000a031916815260200191505b509250505060405180910390f35b34801561042057600080fd5b5061043f60048036038101908080359060200190929190505050611d00565b604051808273ffffffffffffffffffffffffffffffffffffffff1673ffffffffffffffffffffffffffffffffffffffff16815260200191505060405180910390f35b34801561048d57600080fd5b506104ec600480360381019080803573ffffffffffffffffffffffffffffffffffffffff169060200190929190803573ffffffffffffffffffffffffffffffffffffffff16906020019092919080359060200190929190505050611d33565b005b3480156104fa57600080fd5b50610539600480360381019080803573ffffffffffffffffffffffffffffffffffffffff16906020019092919080359060200190929190505050611f37565b005b34801561054757600080fd5b5061056660048036038101908080359060200190929190505050612109565b604051808273ffffffffffffffffffffffffffffffffffffffff1673ffffffffffffffffffffffffffffffffffffffff16815260200191505060405180910390f35b3480156105b457600080fd5b506105bd61213c565b604051808215151515815260200191505060405180910390f35b3480156105e357600080fd5b506105ec612145565b6040518082815260200191505060405180910390f35b34801561060e57600080fd5b50610643600480360381019080803573ffffffffffffffffffffffffffffffffffffffff16906020019092919050505061214f565b005b34801561065157600080fd5b506106c960048036038101908080359060200190820180359060200190808060200260200160405190810160405280939291908181526020018383602002808284378201915050505050509192919290803573ffffffffffffffffffffffffffffffffffffffff1690602001909291905050506121ee565b6040518082815260200191505060405180910390f35b3480156106eb57600080fd5b5061074a600480360381019080803573ffffffffffffffffffffffffffffffffffffffff169060200190929190803573ffffffffffffffffffffffffffffffffffffffff169060200190929190803590602001909291905050506125a4565b005b34801561075857600080fd5b50610777600480360381019080803590602001909291905050506127b4565b6040518085815260200184815260200183815260200182815260200194505050505060405180910390f35b3480156107ae57600080fd5b506107ed600480360381019080803573ffffffffffffffffffffffffffffffffffffffff16906020019092919080359060200190929190505050612855565b6040518082815260200191505060405180910390f35b34801561080f57600080fd5b506108186128b6565b005b34801561082657600080fd5b506108456004803603810190808035906020019092919050505061290a565b6040518088815260200187815260200180602001868152602001806020018573ffffffffffffffffffffffffffffffffffffffff1673ffffffffffffffffffffffffffffffffffffffff16815260200180602001848103845289818151815260200191508051906020019060200280838360005b838110156108d45780820151818401526020810190506108b9565b50505050905001848103835287818151815260200191508051906020019080838360005b838110156109135780820151818401526020810190506108f8565b50505050905090810190601f1680156109405780820380516001836020036101000a031916815260200191505b50848103825285818151815260200191508051906020019080838360005b8381101561097957808201518184015260208101905061095e565b50505050905090810190601f1680156109a65780820380516001836020036101000a031916815260200191505b509a505050505050505050505060405180910390f35b3480156109c857600080fd5b506109f16004803603810190808035906020019092919080359060200190929190505050612be6565b60405180826000191660001916815260200191505060405180910390f35b348015610a1b57600080fd5b50610a24612c7d565b6040518082815260200191505060405180910390f35b348015610a4657600080fd5b50610a696004803603810190808035600019169060200190929190505050612c8a565b005b348015610a7757600080fd5b50610a9660048036038101908080359060200190929190505050612d9c565b604051808681526020018581526020018481526020018373ffffffffffffffffffffffffffffffffffffffff1673ffffffffffffffffffffffffffffffffffffffff16815260200180602001828103825283818151815260200191508051906020019080838360005b83811015610b1a578082015181840152602081019050610aff565b50505050905090810190601f168015610b475780820380516001836020036101000a031916815260200191505b50965050505050505060405180910390f35b348015610b6557600080fd5b50610b8460048036038101908080359060200190929190505050612e8a565b604051808273ffffffffffffffffffffffffffffffffffffffff1673ffffffffffffffffffffffffffffffffffffffff16815260200191505060405180910390f35b348015610bd257600080fd5b50610c07600480360381019080803573ffffffffffffffffffffffffffffffffffffffff169060200190929190505050612ec7565b60405180806020018360001916600019168152602001828103825284818151815260200191508051906020019080838360005b83811015610c55578082015181840152602081019050610c3a565b50505050905090810190601f168015610c825780820380516001836020036101000a031916815260200191505b50935050505060405180910390f35b348015610c9d57600080fd5b50610d06600480360381019080803590602001908201803590602001908080601f01602080910402602001604051908101604052809392919081815260200183838082843782019150505050505091929192908035600019169060200190929190505050613006565b005b348015610d1457600080fd5b50610d49600480360381019080803573ffffffffffffffffffffffffffffffffffffffff1690602001909291905050506132f6565b6040518082815260200191505060405180910390f35b348015610d6b57600080fd5b50610daa600480360381019080803573ffffffffffffffffffffffffffffffffffffffff16906020019092919080359060200190929190505050613342565b6040518082815260200191505060405180910390f35b348015610dcc57600080fd5b50610dd5613372565b604051808273ffffffffffffffffffffffffffffffffffffffff1673ffffffffffffffffffffffffffffffffffffffff16815260200191505060405180910390f35b348015610e2357600080fd5b50610e2c613397565b6040518080602001828103825283818151815260200191508051906020019080838360005b83811015610e6c578082015181840152602081019050610e51565b50505050905090810190601f168015610e995780820380516001836020036101000a031916815260200191505b509250505060405180910390f35b348015610eb357600080fd5b50610edc6004803603810190808035906020019092919080359060200190929190505050613435565b6040518082815260200191505060405180910390f35b348015610efe57600080fd5b50610f33600480360381019080803573ffffffffffffffffffffffffffffffffffffffff169060200190929190505050613461565b005b348015610f4157600080fd5b50610fad600480360381019080803590602001909291908035906020019092919080359060200190820180359060200190808060200260200160405190810160405280939291908181526020018383602002808284378201915050505050509192919290505050613500565b60405180806020018060200180602001848103845287818151815260200191508051906020019060200280838360005b83811015610ff8578082015181840152602081019050610fdd565b50505050905001848103835286818151815260200191508051906020019060200280838360005b8381101561103a57808201518184015260208101905061101f565b50505050905001848103825285818151815260200191508051906020019060200280838360005b8381101561107c578082015181840152602081019050611061565b50505050905001965050505050505060405180910390f35b3480156110a057600080fd5b506110df600480360381019080803573ffffffffffffffffffffffffffffffffffffffff1690602001909291908035906020019092919050505061377f565b005b3480156110ed57600080fd5b5061110c60048036038101908080359060200190929190505050613926565b60405180826000191660001916815260200191505060405180910390f35b34801561113657600080fd5b506111986004803603810190808035906020019082018035906020019080806020026020016040519081016040528093929190818152602001838360200280828437820191505050505050919291929080359060200190929190505050613949565b6040518082815260200191505060405180910390f35b3480156111ba57600080fd5b506111d960048036038101908080359060200190929190505050613c1c565b6040518080602001828103825283818151815260200191508051906020019080838360005b838110156112195780820151818401526020810190506111fe565b50505050905090810190601f1680156112465780820380516001836020036101000a031916815260200191505b509250505060405180910390f35b34801561126057600080fd5b5061127f60048036038101908080359060200190929190505050613ccc565b60405180826000191660001916815260200191505060405180910390f35b3480156112a957600080fd5b5061130160048036038101908080359060200190820180359060200190808060200260200160405190810160405280939291908181526020018383602002808284378201915050505050509192919290505050613cd9565b6040518080602001828103825283818151815260200191508051906020019060200280838360005b83811015611344578082015181840152602081019050611329565b505050509050019250505060405180910390f35b34801561136457600080fd5b5061136d613e77565b604051808273ffffffffffffffffffffffffffffffffffffffff1673ffffffffffffffffffffffffffffffffffffffff16815260200191505060405180910390f35b3480156113bb57600080fd5b506113c4613e9d565b6040518082815260200191505060405180910390f35b3480156113e657600080fd5b5061141b600480360381019080803573ffffffffffffffffffffffffffffffffffffffff169060200190929190505050613ea3565b6040518080602001828103825283818151815260200191508051906020019060200280838360005b8381101561145e578082015181840152602081019050611443565b505050509050019250505060405180910390f35b34801561147e57600080fd5b506114b3600480360381019080803573ffffffffffffffffffffffffffffffffffffffff169060200190929190505050613f3a565b005b6000806000606060006060600080600060058c51111515156114d657600080fd5b600c8b6040518082805190602001908083835b60208310151561150e57805182526020820191506020810190506020830392506114e9565b6001836020036101000a038019825116818451168082178552505050505050905001915050908152602001604051809103902060009054906101000a900473ffffffffffffffffffffffffffffffffffffffff1673ffffffffffffffffffffffffffffffffffffffff163373ffffffffffffffffffffffffffffffffffffffff1614806116115750600a8b6040518082805190602001908083835b6020831015156115ce57805182526020820191506020810190506020830392506115a9565b6001836020036101000a038019825116818451168082178552505050505050905001915050908152602001604051809103902060009054906101000a900460ff16155b151561161c57600080fd5b600a8b6040518082805190602001908083835b602083101515611654578051825260208201915060208101905060208303925061162f565b6001836020036101000a038019825116818451168082178552505050505050905001915050908152602001604051809103902060009054906101000a900460ff1615156116c6576116c58b7f3078300000000000000000000000000000000000000000000000000000000000613006565b5b6116d08f8f613949565b97506116dc888e612be6565b60019004965060001515600e600089815260200190815260200160002060009054906101000a900460ff16151514151561171557600080fd5b611720888e8e613500565b90505080965050339450601260009054906101000a900473ffffffffffffffffffffffffffffffffffffffff1673ffffffffffffffffffffffffffffffffffffffff16638f3bed06876040518263ffffffff167c01000000000000000000000000000000000000000000000000000000000281526004018080602001828103825283818151815260200191508051906020019060200280838360005b838110156117d75780820151818401526020810190506117bc565b5050505090500192505050600060405180830381600087803b1580156117fc57600080fd5b505af1158015611810573d6000803e3d6000fd5b505050506040513d6000823e3d601f19601f82011682018060405250602081101561183a57600080fd5b81019080805164010000000081111561185257600080fd5b8281019050602081018481111561186857600080fd5b815185602082028301116401000000008211171561188557600080fd5b5050929190505050935061189984866121ee565b92508234101515156118aa57600080fd5b600091505b8351821015611add5760001515601260009054906101000a900473ffffffffffffffffffffffffffffffffffffffff1673ffffffffffffffffffffffffffffffffffffffff1663ca774c8887878681518110151561190957fe5b906020019060200201516040518363ffffffff167c0100000000000000000000000000000000000000000000000000000000028152600401808373ffffffffffffffffffffffffffffffffffffffff1673ffffffffffffffffffffffffffffffffffffffff16815260200182815260200192505050602060405180830381600087803b15801561199857600080fd5b505af11580156119ac573d6000803e3d6000fd5b505050506040513d60208110156119c257600080fd5b810190808051906020019092919050505015151415611ad057601260009054906101000a900473ffffffffffffffffffffffffffffffffffffffff1673ffffffffffffffffffffffffffffffffffffffff1663225c76c3338685815181101515611a2857fe5b906020019060200201516040518363ffffffff167c0100000000000000000000000000000000000000000000000000000000028152600401808373ffffffffffffffffffffffffffffffffffffffff1673ffffffffffffffffffffffffffffffffffffffff16815260200182815260200192505050600060405180830381600087803b158015611ab757600080fd5b505af1158015611acb573d6000803e3d6000fd5b505050505b81806001019250506118af565b611ae68561408f565b905060c0604051908101604052808981526020018e81526020018d81526020018f81526020018673ffffffffffffffffffffffffffffffffffffffff1681526020018b815250600f600083815260200190815260200160002060008201518160000155602082015181600101556040820151816002019080519060200190611b6f92919061454d565b506060820151816003015560808201518160040160006101000a81548173ffffffffffffffffffffffffffffffffffffffff021916908373ffffffffffffffffffffffffffffffffffffffff16021790555060a0820151816005019080519060200190611bdd9291906145a0565b5090505089601060008381526020019081526020016000209080519060200190611c08929190614620565b506001600e600089815260200190815260200160002060006101000a81548160ff02191690831515021790555080985050505050505050509695505050505050565b60046020528060005260406000206000915090505481565b60058054600181600116156101000203166002900480601f016020809104026020016040519081016040528092919081815260200182805460018160011615610100020316600290048015611cf85780601f10611ccd57610100808354040283529160200191611cf8565b820191906000526020600020905b815481529060010190602001808311611cdb57829003601f168201915b505050505081565b60016020528060005260406000206000915054906101000a900473ffffffffffffffffffffffffffffffffffffffff1681565b601160009054906101000a900473ffffffffffffffffffffffffffffffffffffffff1673ffffffffffffffffffffffffffffffffffffffff163373ffffffffffffffffffffffffffffffffffffffff16141515611d8f57600080fd5b60006001600083815260200190815260200160002060009054906101000a900473ffffffffffffffffffffffffffffffffffffffff1673ffffffffffffffffffffffffffffffffffffffff1614151515611de857600080fd5b8273ffffffffffffffffffffffffffffffffffffffff16611e0882612e8a565b73ffffffffffffffffffffffffffffffffffffffff16141515611e2a57600080fd5b60006002600083815260200190815260200160002060006101000a81548173ffffffffffffffffffffffffffffffffffffffff021916908373ffffffffffffffffffffffffffffffffffffffff160217905550611e87838261420e565b611e9182826143f4565b8060008473ffffffffffffffffffffffffffffffffffffffff167f8c5be1e5ebec7d5bd14f71427d1e84f3dd0314c0f7b2291e5b200ac8c7c3b92560405160405180910390a4808273ffffffffffffffffffffffffffffffffffffffff168473ffffffffffffffffffffffffffffffffffffffff167fddf252ad1be2c89b69c2b068fc378daa952ba7f163c4a11628f55a4df523b3ef60405160405180910390a4505050565b60006001600083815260200190815260200160002060009054906101000a900473ffffffffffffffffffffffffffffffffffffffff1673ffffffffffffffffffffffffffffffffffffffff1614151515611f9057600080fd5b3373ffffffffffffffffffffffffffffffffffffffff16611fb082612e8a565b73ffffffffffffffffffffffffffffffffffffffff16141515611fd257600080fd5b3373ffffffffffffffffffffffffffffffffffffffff168273ffffffffffffffffffffffffffffffffffffffff161415151561200d57600080fd5b600061201882614510565b73ffffffffffffffffffffffffffffffffffffffff16141580612052575060008273ffffffffffffffffffffffffffffffffffffffff1614155b1561210557816002600083815260200190815260200160002060006101000a81548173ffffffffffffffffffffffffffffffffffffffff021916908373ffffffffffffffffffffffffffffffffffffffff160217905550808273ffffffffffffffffffffffffffffffffffffffff163373ffffffffffffffffffffffffffffffffffffffff167f8c5be1e5ebec7d5bd14f71427d1e84f3dd0314c0f7b2291e5b200ac8c7c3b92560405160405180910390a45b5050565b60026020528060005260406000206000915054906101000a900473ffffffffffffffffffffffffffffffffffffffff1681565b60006001905090565b6000600754905090565b6000809054906101000a900473ffffffffffffffffffffffffffffffffffffffff1673ffffffffffffffffffffffffffffffffffffffff163373ffffffffffffffffffffffffffffffffffffffff161415156121aa57600080fd5b80601160006101000a81548173ffffffffffffffffffffffffffffffffffffffff021916908373ffffffffffffffffffffffffffffffffffffffff16021790555050565b60006060600080600086511415612208576000935061259b565b601260009054906101000a900473ffffffffffffffffffffffffffffffffffffffff1673ffffffffffffffffffffffffffffffffffffffff16638f3bed06876040518263ffffffff167c01000000000000000000000000000000000000000000000000000000000281526004018080602001828103825283818151815260200191508051906020019060200280838360005b838110156122b557808201518184015260208101905061229a565b5050505090500192505050600060405180830381600087803b1580156122da57600080fd5b505af11580156122ee573d6000803e3d6000fd5b505050506040513d6000823e3d601f19601f82011682018060405250602081101561231857600080fd5b81019080805164010000000081111561233057600080fd5b8281019050602081018481111561234657600080fd5b815185602082028301116401000000008211171561236357600080fd5b5050929190505050925060009150600090505b82518110156125975760001515601260009054906101000a900473ffffffffffffffffffffffffffffffffffffffff1673ffffffffffffffffffffffffffffffffffffffff1663ca774c888786858151811015156123d057fe5b906020019060200201516040518363ffffffff167c0100000000000000000000000000000000000000000000000000000000028152600401808373ffffffffffffffffffffffffffffffffffffffff1673ffffffffffffffffffffffffffffffffffffffff16815260200182815260200192505050602060405180830381600087803b15801561245f57600080fd5b505af1158015612473573d6000803e3d6000fd5b505050506040513d602081101561248957600080fd5b81019080805190602001909291905050501515141561258a57601260009054906101000a900473ffffffffffffffffffffffffffffffffffffffff1673ffffffffffffffffffffffffffffffffffffffff16638c96a2c984838151811015156124ee57fe5b906020019060200201516040518263ffffffff167c010000000000000000000000000000000000000000000000000000000002815260040180828152602001915050602060405180830381600087803b15801561254a57600080fd5b505af115801561255e573d6000803e3d6000fd5b505050506040513d602081101561257457600080fd5b8101908080519060200190929190505050820191505b8080600101915050612376565b8193505b50505092915050565b60006001600083815260200190815260200160002060009054906101000a900473ffffffffffffffffffffffffffffffffffffffff1673ffffffffffffffffffffffffffffffffffffffff16141515156125fd57600080fd5b3373ffffffffffffffffffffffffffffffffffffffff1661261d82614510565b73ffffffffffffffffffffffffffffffffffffffff1614151561263f57600080fd5b8273ffffffffffffffffffffffffffffffffffffffff1661265f82612e8a565b73ffffffffffffffffffffffffffffffffffffffff1614151561268157600080fd5b60008273ffffffffffffffffffffffffffffffffffffffff16141515156126a757600080fd5b60006002600083815260200190815260200160002060006101000a81548173ffffffffffffffffffffffffffffffffffffffff021916908373ffffffffffffffffffffffffffffffffffffffff160217905550612704838261420e565b61270e82826143f4565b8060008473ffffffffffffffffffffffffffffffffffffffff167f8c5be1e5ebec7d5bd14f71427d1e84f3dd0314c0f7b2291e5b200ac8c7c3b92560405160405180910390a4808273ffffffffffffffffffffffffffffffffffffffff168473ffffffffffffffffffffffffffffffffffffffff167fddf252ad1be2c89b69c2b068fc378daa952ba7f163c4a11628f55a4df523b3ef60405160405180910390a4505050565b6000806000806000806000806000808a141515156127d157600080fd5b899450612710858115156127e157fe5b06945060006002868115156127f257fe5b06141561283d576109928581151561280657fe5b069350610dac8581151561281657fe5b06925061032060c88681151561282857fe5b060191506101688581151561283957fe5b0690505b83838383985098509850985050505050509193509193565b6000600360008473ffffffffffffffffffffffffffffffffffffffff1673ffffffffffffffffffffffffffffffffffffffff168152602001908152602001600020828154811015156128a357fe5b9060005260206000200154905092915050565b60006064430390505b438110156129075760088140908060018154018082558091505090600182039060005260206000200160009091929091909150906000191690555080806001019150506128bf565b50565b6000806060600060606000606061291f6146a0565b6007548910151561292f57600080fd5b600f60008a815260200190815260200160002060c060405190810160405290816000820154815260200160018201548152602001600282018054806020026020016040519081016040528092919081815260200182805480156129b557602002820191906000526020600020905b8154600019168152602001906001019080831161299d575b50505050508152602001600382015481526020016004820160009054906101000a900473ffffffffffffffffffffffffffffffffffffffff1673ffffffffffffffffffffffffffffffffffffffff1673ffffffffffffffffffffffffffffffffffffffff168152602001600582018054600181600116156101000203166002900480601f016020809104026020016040519081016040528092919081815260200182805460018160011615610100020316600290048015612ab75780601f10612a8c57610100808354040283529160200191612ab7565b820191906000526020600020905b815481529060010190602001808311612a9a57829003601f168201915b50505050508152505090508060000151816020015182604001518360600151600d6000866080015173ffffffffffffffffffffffffffffffffffffffff1673ffffffffffffffffffffffffffffffffffffffff168152602001908152602001600020600001612b258e612e8a565b8660a00151849450828054600181600116156101000203166002900480601f016020809104026020016040519081016040528092919081815260200182805460018160011615610100020316600290048015612bc25780601f10612b9757610100808354040283529160200191612bc2565b820191906000526020600020905b815481529060010190602001808311612ba557829003601f168201915b50505050509250809050975097509750975097509750975050919395979092949650565b6000806000808514151515612bfa57600080fd5b60008414151515612c0a57600080fd5b8460010291508484604051808381526020018281526020019250505060405180910390209150600090505b83811015612c7257818160405180836000191660001916815260200182815260200192505050604051809103902091508080600101915050612c35565b819250505092915050565b6000600880549050905090565b600d60003373ffffffffffffffffffffffffffffffffffffffff1673ffffffffffffffffffffffffffffffffffffffff16815260200190815260200160002060020160009054906101000a900460ff161515612d4e576040517f08c379a00000000000000000000000000000000000000000000000000000000081526004018080602001828103825260138152602001807f5573657220646f65736e2774206578697374730000000000000000000000000081525060200191505060405180910390fd5b80600d60003373ffffffffffffffffffffffffffffffffffffffff1673ffffffffffffffffffffffffffffffffffffffff168152602001908152602001600020600101816000191690555050565b600f6020528060005260406000206000915090508060000154908060010154908060030154908060040160009054906101000a900473ffffffffffffffffffffffffffffffffffffffff1690806005018054600181600116156101000203166002900480601f016020809104026020016040519081016040528092919081815260200182805460018160011615610100020316600290048015612e805780601f10612e5557610100808354040283529160200191612e80565b820191906000526020600020905b815481529060010190602001808311612e6357829003601f168201915b5050505050905085565b60006001600083815260200190815260200160002060009054906101000a900473ffffffffffffffffffffffffffffffffffffffff169050919050565b60606000612ed36146ed565b600d60008573ffffffffffffffffffffffffffffffffffffffff1673ffffffffffffffffffffffffffffffffffffffff16815260200190815260200160002060606040519081016040529081600082018054600181600116156101000203166002900480601f016020809104026020016040519081016040528092919081815260200182805460018160011615610100020316600290048015612fb75780601f10612f8c57610100808354040283529160200191612fb7565b820191906000526020600020905b815481529060010190602001808311612f9a57829003601f168201915b505050505081526020016001820154600019166000191681526020016002820160009054906101000a900460ff1615151515815250509050806000015181602001518191509250925050915091565b60001515600a836040518082805190602001908083835b602083101515613042578051825260208201915060208101905060208303925061301d565b6001836020036101000a038019825116818451168082178552505050505050905001915050908152602001604051809103902060009054906101000a900460ff16151514151561309157600080fd5b60001515600b6000836000191660001916815260200190815260200160002060009054906101000a900460ff1615151415156130cc57600080fd5b6060604051908101604052808381526020018260001916815260200160011515815250600d60003373ffffffffffffffffffffffffffffffffffffffff1673ffffffffffffffffffffffffffffffffffffffff168152602001908152602001600020600082015181600001908051906020019061314a9291906145a0565b506020820151816001019060001916905560408201518160020160006101000a81548160ff0219169083151502179055509050506001600a836040518082805190602001908083835b6020831015156131b85780518252602082019150602081019050602083039250613193565b6001836020036101000a038019825116818451168082178552505050505050905001915050908152602001604051809103902060006101000a81548160ff0219169083151502179055506001600b6000836000191660001916815260200190815260200160002060006101000a81548160ff02191690831515021790555033600c836040518082805190602001908083835b60208310151561326f578051825260208201915060208101905060208303925061324a565b6001836020036101000a038019825116818451168082178552505050505050905001915050908152602001604051809103902060006101000a81548173ffffffffffffffffffffffffffffffffffffffff021916908373ffffffffffffffffffffffffffffffffffffffff1602179055506009600081548092919060010191905055505050565b6000600360008373ffffffffffffffffffffffffffffffffffffffff1673ffffffffffffffffffffffffffffffffffffffff168152602001908152602001600020805490509050919050565b60036020528160005260406000208181548110151561335d57fe5b90600052602060002001600091509150505481565b6000809054906101000a900473ffffffffffffffffffffffffffffffffffffffff1681565b60068054600181600116156101000203166002900480601f01602080910402602001604051908101604052809291908181526020018280546001816001161561010002031660029004801561342d5780601f106134025761010080835404028352916020019161342d565b820191906000526020600020905b81548152906001019060200180831161341057829003601f168201915b505050505081565b600081836040518083815260200182815260200192505050604051809103902060019004905092915050565b6000809054906101000a900473ffffffffffffffffffffffffffffffffffffffff1673ffffffffffffffffffffffffffffffffffffffff163373ffffffffffffffffffffffffffffffffffffffff161415156134bc57600080fd5b80601260006101000a81548173ffffffffffffffffffffffffffffffffffffffff021916908373ffffffffffffffffffffffffffffffffffffffff16021790555050565b606080606080606080606060008060606000808d1415151561352157600080fd5b60008e1415151561353157600080fd5b60008c5111151561354157600080fd5b61354b8e8e612be6565b600190049d5061355a8c613cd9565b9750875160405190808252806020026020018201604052801561358c5781602001602082028038833980820191505090505b50965087516040519080825280602002602001820160405280156135bf5781602001602082028038833980820191505090505b50955087516040519080825280602002602001820160405280156135f25781602001602082028038833980820191505090505b50945060009350600092505b87518310156136e5578d888481518110151561361657fe5b9060200190602002015160405180838152602001828152602001925050506040518091039020600190049d50600060028f81151561365057fe5b0614156136d857878381518110151561366557fe5b90602001906020020151878581518110151561367d57fe5b90602001906020020181815250506136948e6127b4565b90505087868151811015156136a557fe5b90602001906020020187878151811015156136bc57fe5b9060200190602002018281525082815250505083806001019450505b82806001019350506135fe565b836040519080825280602002602001820160405280156137145781602001602082028038833980820191505090505b509150600090505b8381101561376557868181518110151561373257fe5b90602001906020020151828281518110151561374a57fe5b9060200190602002018181525050808060010191505061371c565b8186869a509a509a50505050505050505093509350939050565b60006001600083815260200190815260200160002060009054906101000a900473ffffffffffffffffffffffffffffffffffffffff1673ffffffffffffffffffffffffffffffffffffffff16141515156137d857600080fd5b3373ffffffffffffffffffffffffffffffffffffffff166137f882612e8a565b73ffffffffffffffffffffffffffffffffffffffff1614151561381a57600080fd5b60006002600083815260200190815260200160002060006101000a81548173ffffffffffffffffffffffffffffffffffffffff021916908373ffffffffffffffffffffffffffffffffffffffff160217905550613877338261420e565b61388182826143f4565b8060003373ffffffffffffffffffffffffffffffffffffffff167f8c5be1e5ebec7d5bd14f71427d1e84f3dd0314c0f7b2291e5b200ac8c7c3b92560405160405180910390a4808273ffffffffffffffffffffffffffffffffffffffff163373ffffffffffffffffffffffffffffffffffffffff167fddf252ad1be2c89b69c2b068fc378daa952ba7f163c4a11628f55a4df523b3ef60405160405180910390a45050565b600060088281548110151561393757fe5b90600052602060002001549050919050565b6000806000831415151561395c57600080fd5b600a845114151561396c57600080fd5b600884600081518110151561397d57fe5b9060200190602002015181548110151561399357fe5b906000526020600020015460088560018151811015156139af57fe5b906020019060200201518154811015156139c557fe5b906000526020600020015460088660028151811015156139e157fe5b906020019060200201518154811015156139f757fe5b90600052602060002001546008876003815181101515613a1357fe5b90602001906020020151815481101515613a2957fe5b90600052602060002001546008886004815181101515613a4557fe5b90602001906020020151815481101515613a5b57fe5b90600052602060002001546008896005815181101515613a7757fe5b90602001906020020151815481101515613a8d57fe5b906000526020600020015460088a6006815181101515613aa957fe5b90602001906020020151815481101515613abf57fe5b906000526020600020015460088b6007815181101515613adb57fe5b90602001906020020151815481101515613af157fe5b906000526020600020015460088c6008815181101515613b0d57fe5b90602001906020020151815481101515613b2357fe5b906000526020600020015460088d6009815181101515613b3f57fe5b90602001906020020151815481101515613b5557fe5b90600052602060002001548c604051808c600019166000191681526020018b600019166000191681526020018a6000191660001916815260200189600019166000191681526020018860001916600019168152602001876000191660001916815260200186600019166000191681526020018560001916600019168152602001846000191660001916815260200183600019166000191681526020018281526020019b50505050505050505050505060405180910390209050806001900491505092915050565b60106020528060005260406000206000915090508054600181600116156101000203166002900480601f016020809104026020016040519081016040528092919081815260200182805460018160011615610100020316600290048015613cc45780601f10613c9957610100808354040283529160200191613cc4565b820191906000526020600020905b815481529060010190602001808311613ca757829003601f168201915b505050505081565b6000816001029050919050565b606080600080600080600080600060606000808c51111515613cfa57600080fd5b600a8c5102604051908082528060200260200182016040528015613d2d5781602001602082028038833980820191505090505b50995060009850600097505b8b51881015613de5578b88815181101515613d5057fe5b906020019060200201519550859650600094505b600a851015613dd85760026018860260029060020a02811515613d8357fe5b0493508362ffffff85028816811515613d9857fe5b049250600083141515613dcb57828a8a815181101515613db457fe5b906020019060200201818152505088806001019950505b8480600101955050613d64565b8780600101985050613d39565b88604051908082528060200260200182016040528015613e145781602001602082028038833980820191505090505b509150600090505b88811015613e65578981815181101515613e3257fe5b906020019060200201518282815181101515613e4a57fe5b90602001906020020181815250508080600101915050613e1c565b819a5050505050505050505050919050565b601160009054906101000a900473ffffffffffffffffffffffffffffffffffffffff1681565b60075481565b6060600360008373ffffffffffffffffffffffffffffffffffffffff1673ffffffffffffffffffffffffffffffffffffffff168152602001908152602001600020805480602002602001604051908101604052809291908181526020018280548015613f2e57602002820191906000526020600020905b815481526020019060010190808311613f1a575b50505050509050919050565b6000809054906101000a900473ffffffffffffffffffffffffffffffffffffffff1673ffffffffffffffffffffffffffffffffffffffff163373ffffffffffffffffffffffffffffffffffffffff16141515613f9557600080fd5b600073ffffffffffffffffffffffffffffffffffffffff168173ffffffffffffffffffffffffffffffffffffffff1614151515613fd157600080fd5b8073ffffffffffffffffffffffffffffffffffffffff166000809054906101000a900473ffffffffffffffffffffffffffffffffffffffff1673ffffffffffffffffffffffffffffffffffffffff167f8be0079c531659141344cd1fd0a4f28419497f9722a3daafe3b4186f6b6457e060405160405180910390a3806000806101000a81548173ffffffffffffffffffffffffffffffffffffffff021916908373ffffffffffffffffffffffffffffffffffffffff16021790555050565b6000806007549050826001600083815260200190815260200160002060006101000a81548173ffffffffffffffffffffffffffffffffffffffff021916908373ffffffffffffffffffffffffffffffffffffffff160217905550600360008473ffffffffffffffffffffffffffffffffffffffff1673ffffffffffffffffffffffffffffffffffffffff1681526020019081526020016000208190806001815401808255809150509060018203906000526020600020016000909192909190915055506001600360008573ffffffffffffffffffffffffffffffffffffffff1673ffffffffffffffffffffffffffffffffffffffff16815260200190815260200160002080549050036004600083815260200190815260200160002081905550600760008154809291906001019190505550808373ffffffffffffffffffffffffffffffffffffffff167f0f6798a560793a54c3bcfe86a93cde1e73087d944c0ea20544137d412139688560405160405180910390a380915050919050565b6000806000600360008673ffffffffffffffffffffffffffffffffffffffff1673ffffffffffffffffffffffffffffffffffffffff16815260200190815260200160002080549050925060046000858152602001908152602001600020549150600360008673ffffffffffffffffffffffffffffffffffffffff1673ffffffffffffffffffffffffffffffffffffffff168152602001908152602001600020600184038154811015156142bd57fe5b9060005260206000200154905080600360008773ffffffffffffffffffffffffffffffffffffffff1673ffffffffffffffffffffffffffffffffffffffff1681526020019081526020016000208381548110151561431757fe5b9060005260206000200181905550816004600083815260200190815260200160002081905550600360008673ffffffffffffffffffffffffffffffffffffffff1673ffffffffffffffffffffffffffffffffffffffff1681526020019081526020016000206001840381548110151561438c57fe5b9060005260206000200160009055600360008673ffffffffffffffffffffffffffffffffffffffff1673ffffffffffffffffffffffffffffffffffffffff1681526020019081526020016000208054809190600190036143ec9190614714565b505050505050565b816001600083815260200190815260200160002060006101000a81548173ffffffffffffffffffffffffffffffffffffffff021916908373ffffffffffffffffffffffffffffffffffffffff160217905550600360008373ffffffffffffffffffffffffffffffffffffffff1673ffffffffffffffffffffffffffffffffffffffff1681526020019081526020016000208190806001815401808255809150509060018203906000526020600020016000909192909190915055506001600360008473ffffffffffffffffffffffffffffffffffffffff1673ffffffffffffffffffffffffffffffffffffffff168152602001908152602001600020805490500360046000838152602001908152602001600020819055505050565b60006002600083815260200190815260200160002060009054906101000a900473ffffffffffffffffffffffffffffffffffffffff169050919050565b82805482825590600052602060002090810192821561458f579160200282015b8281111561458e57825182906000191690559160200191906001019061456d565b5b50905061459c9190614740565b5090565b828054600181600116156101000203166002900490600052602060002090601f016020900481019282601f106145e157805160ff191683800117855561460f565b8280016001018555821561460f579182015b8281111561460e5782518255916020019190600101906145f3565b5b50905061461c9190614765565b5090565b828054600181600116156101000203166002900490600052602060002090601f016020900481019282601f1061466157805160ff191683800117855561468f565b8280016001018555821561468f579182015b8281111561468e578251825591602001919060010190614673565b5b50905061469c9190614765565b5090565b60c06040519081016040528060008152602001600081526020016060815260200160008152602001600073ffffffffffffffffffffffffffffffffffffffff168152602001606081525090565b60606040519081016040528060608152602001600080191681526020016000151581525090565b81548183558181111561473b5781836000526020600020918201910161473a9190614765565b5b505050565b61476291905b8082111561475e576000816000905550600101614746565b5090565b90565b61478791905b8082111561478357600081600090555060010161476b565b5090565b905600a165627a7a72305820afc68a50e4a5d50cbca5351f4e263c6ece1c921e062a48f3c877bfce660a1d340029",
  "source": "pragma solidity ^0.4.23;\n\nimport \"./ImageToken.sol\";\nimport \"../Utils/Functions.sol\";\nimport \"../IAssetManager.sol\";\nimport \"../UserManager.sol\";\n\n\ncontract DigitalPrintImage is ImageToken, Functions, UserManager {\n\n    struct ImageMetadata {\n        uint randomSeed;\n        uint iterations;\n        bytes32[] potentialAssets;\n        uint timestamp;\n        address creator;\n        string ipfsHash;\n    }\n\n\n    mapping(uint => bool) seedExists;\n    mapping(uint => ImageMetadata) public imageMetadata;\n    mapping(uint => string) public idToIpfsHash;\n\n    address public marketplaceContract;\n    IAssetManager assetManager;\n\n\n    modifier onlyMarketplaceContract() {\n        require(msg.sender == address(marketplaceContract));\n        _;\n    }\n\n    /// @dev only for testing purposes\n    // function createImageTest() public returns(uint) {\n    //     return createImage(msg.sender);\n    // }\n\n    /// @notice Function will create new image\n    /// @dev owner of image will be msg.sender, and timestamp will be automatically generated, timestamp will be automatically generated\n    /// @dev _txHash and _timestamp together with keccak256 will give us randomSeed for user\n    /// @param _randomHashIds is array of random hashes from our array\n    /// @param _timestamp is timestamp when image is created\n    /// @param _iterations is number of how many times he generated random asset positions until he liked what he got\n    /// @param _potentialAssets is set of all potential assets user selected for an image\n    /// @param _author is nickname of image owner\n    /// @param _ipfsHash is ipfsHash of the image .png\n    /// @return returns id of created image\n    function createImage(\n        uint[] _randomHashIds,\n        uint _timestamp,\n        uint _iterations,\n        bytes32[] _potentialAssets,\n        string _author,\n        string _ipfsHash) public payable returns (uint) {\n        require(_potentialAssets.length <= 5);\n        // if user exists send his username, if it doesn't check for some username that doesn't exists\n        require(msg.sender == usernameToAddress[_author] || !usernameExists[_author]);\n\n        // if user doesn't exists create that user with no profile picture\n        if (!usernameExists[_author]) {\n            register(_author, \"0x0\");\n        }\n\n        uint randomSeed = calculateSeed(_randomHashIds, _timestamp);\n        uint finalSeed = uint(getFinalSeed(randomSeed, _iterations));\n\n        require(seedExists[finalSeed] == false);\n\n        uint[] memory pickedAssets;\n\n        (pickedAssets,,) = pickRandomAssets(randomSeed,_iterations, _potentialAssets);\n        address _creator = msg.sender;\n\n        uint[] memory pickedAssetPacks = assetManager.pickUniquePacks(pickedAssets);\n\n        uint finalPrice = calculatePrice(pickedAssetPacks, _creator);\n        require(msg.value >= finalPrice);\n\n        for(uint i = 0; i<pickedAssetPacks.length ;i++) {\n            if(assetManager.checkHasPermissionForPack(_creator, pickedAssetPacks[i]) == false){\n                assetManager.givePermission(msg.sender, pickedAssetPacks[i]);\n            }\n        }\n\n        uint id = createImage(_creator);\n\n        imageMetadata[id] = ImageMetadata({\n            randomSeed: randomSeed,\n            iterations: _iterations,\n            potentialAssets: _potentialAssets,\n            timestamp: _timestamp,\n            creator: _creator,\n            ipfsHash: _ipfsHash\n        });\n\n        idToIpfsHash[id] = _ipfsHash;\n        seedExists[finalSeed] = true;\n        return id;\n    }\n\n    /// @notice Function to calculate final price for an image based on selected assets\n    /// @param _pickedAssets is array of picked packs\n    /// @param _owner is address of image owner\n    /// @return finalPrice for the image\n    function calculatePrice(uint[] _pickedAssets, address _owner) public view returns (uint) {\n        if(_pickedAssets.length == 0) {\n            return 0;\n        }\n\n        uint[] memory pickedAssetPacks = assetManager.pickUniquePacks(_pickedAssets);\n        uint finalPrice = 0;\n        for(uint i = 0; i<pickedAssetPacks.length; i++) {\n            if(assetManager.checkHasPermissionForPack(_owner, pickedAssetPacks[i]) == false) {\n                finalPrice += assetManager.getAssetPackPrice(pickedAssetPacks[i]);\n            }\n        }\n\n        return finalPrice;\n    }\n\n\n\n    function getImageMetadata(uint _imageId) public view returns(uint, uint, bytes32[], uint, string, address, string) {\n        require(_imageId < numOfImages);\n\n        ImageMetadata memory metadata = imageMetadata[_imageId];\n\n        return(\n            metadata.randomSeed,\n            metadata.iterations,\n            metadata.potentialAssets,\n            metadata.timestamp,\n            addressToUser[metadata.creator].username,\n            ownerOf(_imageId),\n            metadata.ipfsHash\n        );\n\n    }\n\n\n\n    /// @notice adds marketplace address to contract only if it doesn't already exist\n    /// @param _marketplaceContract address of marketplace contract\n    function addMarketplaceContract(address _marketplaceContract) public onlyOwner {\n        // not required while on testnet\n        // @dev require(address(marketplaceContract) == 0x0);\n        marketplaceContract = _marketplaceContract;\n    }\n\n\n    /// @notice approving image to be taken from specific address\n    /// @param _from address from which we transfer image\n    /// @param _to address that we give permission to take image\n    /// @param _imageId we are willing to give\n    function transferFromMarketplace(address _from, address _to, uint256 _imageId) public onlyMarketplaceContract {\n        require(tokensForOwner[_imageId] != 0x0);\n        require(ownerOf(_imageId) == _from);\n\n        tokensForApproved[_imageId] = 0x0;\n        removeImage(_from, _imageId);\n        addImage(_to, _imageId);\n\n        emit Approval(_from, 0, _imageId);\n        emit Transfer(_from, _to, _imageId);\n    }\n\n\n    /// @notice Function to add assetManager\n    /// @dev during testing can be changed, after deployment to main network can be set only once\n    /// @param _assetManager is address of assetManager contract\n    function addAssetManager(address _assetManager) public onlyOwner {\n        assetManager = IAssetManager(_assetManager);\n    }\n\n}",
  "sourcePath": "/Users/nikolaklipa/Decenter/Cryptographics/contracts/Image/DigitalPrintImage.sol",
  "compiler": {
    "name": "solc",
    "version": "0.4.24+commit.e67f0147.Emscripten.clang"
  },
  "schemaVersion": "2.0.1",
  "updatedAt": "2018-07-13T12:08:56.669Z"
}