{
  "contractName": "DigitalPrintImage",
  "abi": [
    {
      "constant": true,
      "inputs": [
        {
          "name": "",
          "type": "uint256"
        }
      ],
      "name": "tokenPosInArr",
      "outputs": [
        {
          "name": "",
          "type": "uint256"
        }
      ],
      "payable": false,
      "stateMutability": "view",
      "type": "function"
    },
    {
      "constant": true,
      "inputs": [],
      "name": "name",
      "outputs": [
        {
          "name": "",
          "type": "string"
        }
      ],
      "payable": false,
      "stateMutability": "view",
      "type": "function"
    },
    {
      "constant": true,
      "inputs": [
        {
          "name": "",
          "type": "uint256"
        }
      ],
      "name": "tokensForOwner",
      "outputs": [
        {
          "name": "",
          "type": "address"
        }
      ],
      "payable": false,
      "stateMutability": "view",
      "type": "function"
    },
    {
      "constant": false,
      "inputs": [
        {
          "name": "_to",
          "type": "address"
        },
        {
          "name": "_imageId",
          "type": "uint256"
        }
      ],
      "name": "approve",
      "outputs": [],
      "payable": false,
      "stateMutability": "nonpayable",
      "type": "function"
    },
    {
      "constant": true,
      "inputs": [
        {
          "name": "",
          "type": "uint256"
        }
      ],
      "name": "tokensForApproved",
      "outputs": [
        {
          "name": "",
          "type": "address"
        }
      ],
      "payable": false,
      "stateMutability": "view",
      "type": "function"
    },
    {
      "constant": true,
      "inputs": [],
      "name": "implementsERC721",
      "outputs": [
        {
          "name": "",
          "type": "bool"
        }
      ],
      "payable": false,
      "stateMutability": "pure",
      "type": "function"
    },
    {
      "constant": true,
      "inputs": [],
      "name": "totalSupply",
      "outputs": [
        {
          "name": "",
          "type": "uint256"
        }
      ],
      "payable": false,
      "stateMutability": "view",
      "type": "function"
    },
    {
      "constant": false,
      "inputs": [
        {
          "name": "_from",
          "type": "address"
        },
        {
          "name": "_to",
          "type": "address"
        },
        {
          "name": "_imageId",
          "type": "uint256"
        }
      ],
      "name": "transferFrom",
      "outputs": [],
      "payable": false,
      "stateMutability": "nonpayable",
      "type": "function"
    },
    {
      "constant": true,
      "inputs": [
        {
          "name": "_random_seed",
          "type": "uint256"
        }
      ],
      "name": "pickRandomAssetPosition",
      "outputs": [
        {
          "name": "",
          "type": "uint256"
        },
        {
          "name": "",
          "type": "uint256"
        },
        {
          "name": "",
          "type": "uint256"
        },
        {
          "name": "",
          "type": "uint256"
        }
      ],
      "payable": false,
      "stateMutability": "pure",
      "type": "function"
    },
    {
      "constant": true,
      "inputs": [
        {
          "name": "_owner",
          "type": "address"
        },
        {
          "name": "_index",
          "type": "uint256"
        }
      ],
      "name": "tokenOfOwnerByIndex",
      "outputs": [
        {
          "name": "",
          "type": "uint256"
        }
      ],
      "payable": false,
      "stateMutability": "view",
      "type": "function"
    },
    {
      "constant": false,
      "inputs": [],
      "name": "fillWithHashes",
      "outputs": [],
      "payable": false,
      "stateMutability": "nonpayable",
      "type": "function"
    },
    {
      "constant": true,
      "inputs": [
        {
          "name": "_random_seed",
          "type": "uint256"
        },
        {
          "name": "_iterations",
          "type": "uint256"
        }
      ],
      "name": "getFinalSeed",
      "outputs": [
        {
          "name": "",
          "type": "bytes32"
        }
      ],
      "payable": false,
      "stateMutability": "pure",
      "type": "function"
    },
    {
      "constant": true,
      "inputs": [],
      "name": "getLen",
      "outputs": [
        {
          "name": "",
          "type": "uint256"
        }
      ],
      "payable": false,
      "stateMutability": "view",
      "type": "function"
    },
    {
      "constant": false,
      "inputs": [
        {
          "name": "_hashToProfilePicture",
          "type": "bytes32"
        }
      ],
      "name": "changeProfilePicture",
      "outputs": [],
      "payable": false,
      "stateMutability": "nonpayable",
      "type": "function"
    },
    {
      "constant": true,
      "inputs": [
        {
          "name": "",
          "type": "uint256"
        }
      ],
      "name": "imageMetadata",
      "outputs": [
        {
          "name": "finalSeed",
          "type": "uint256"
        },
        {
          "name": "timestamp",
          "type": "uint256"
        },
        {
          "name": "creator",
          "type": "address"
        },
        {
          "name": "ipfsHash",
          "type": "string"
        }
      ],
      "payable": false,
      "stateMutability": "view",
      "type": "function"
    },
    {
      "constant": true,
      "inputs": [
        {
          "name": "_imageId",
          "type": "uint256"
        }
      ],
      "name": "ownerOf",
      "outputs": [
        {
          "name": "",
          "type": "address"
        }
      ],
      "payable": false,
      "stateMutability": "view",
      "type": "function"
    },
    {
      "constant": true,
      "inputs": [
        {
          "name": "_address",
          "type": "address"
        }
      ],
      "name": "getUserInfo",
      "outputs": [
        {
          "name": "",
          "type": "string"
        },
        {
          "name": "",
          "type": "bytes32"
        }
      ],
      "payable": false,
      "stateMutability": "view",
      "type": "function"
    },
    {
      "constant": false,
      "inputs": [
        {
          "name": "_username",
          "type": "string"
        },
        {
          "name": "_hashToProfilePicture",
          "type": "bytes32"
        }
      ],
      "name": "register",
      "outputs": [],
      "payable": false,
      "stateMutability": "nonpayable",
      "type": "function"
    },
    {
      "constant": true,
      "inputs": [
        {
          "name": "_owner",
          "type": "address"
        }
      ],
      "name": "balanceOf",
      "outputs": [
        {
          "name": "balance",
          "type": "uint256"
        }
      ],
      "payable": false,
      "stateMutability": "view",
      "type": "function"
    },
    {
      "constant": true,
      "inputs": [
        {
          "name": "",
          "type": "address"
        },
        {
          "name": "",
          "type": "uint256"
        }
      ],
      "name": "tokensOwned",
      "outputs": [
        {
          "name": "",
          "type": "uint256"
        }
      ],
      "payable": false,
      "stateMutability": "view",
      "type": "function"
    },
    {
      "constant": true,
      "inputs": [],
      "name": "owner",
      "outputs": [
        {
          "name": "",
          "type": "address"
        }
      ],
      "payable": false,
      "stateMutability": "view",
      "type": "function"
    },
    {
      "constant": true,
      "inputs": [],
      "name": "symbol",
      "outputs": [
        {
          "name": "",
          "type": "string"
        }
      ],
      "payable": false,
      "stateMutability": "view",
      "type": "function"
    },
    {
      "constant": true,
      "inputs": [
        {
          "name": "assetId",
          "type": "uint256"
        },
        {
          "name": "random_seed",
          "type": "uint256"
        }
      ],
      "name": "getSeed",
      "outputs": [
        {
          "name": "",
          "type": "uint256"
        }
      ],
      "payable": false,
      "stateMutability": "pure",
      "type": "function"
    },
    {
      "constant": false,
      "inputs": [
        {
          "name": "_to",
          "type": "address"
        },
        {
          "name": "_imageId",
          "type": "uint256"
        }
      ],
      "name": "transfer",
      "outputs": [],
      "payable": false,
      "stateMutability": "nonpayable",
      "type": "function"
    },
    {
      "constant": true,
      "inputs": [
        {
          "name": "_index",
          "type": "uint256"
        }
      ],
      "name": "getRandomHash",
      "outputs": [
        {
          "name": "",
          "type": "bytes32"
        }
      ],
      "payable": false,
      "stateMutability": "view",
      "type": "function"
    },
    {
      "constant": true,
      "inputs": [
        {
          "name": "_randomHashIds",
          "type": "uint256[]"
        },
        {
          "name": "_timestamp",
          "type": "uint256"
        }
      ],
      "name": "calculateSeed",
      "outputs": [
        {
          "name": "",
          "type": "uint256"
        }
      ],
      "payable": false,
      "stateMutability": "view",
      "type": "function"
    },
    {
      "constant": true,
      "inputs": [
        {
          "name": "",
          "type": "uint256"
        }
      ],
      "name": "idToIpfsHash",
      "outputs": [
        {
          "name": "",
          "type": "string"
        }
      ],
      "payable": false,
      "stateMutability": "view",
      "type": "function"
    },
    {
      "constant": true,
      "inputs": [
        {
          "name": "random_seed",
          "type": "uint256"
        }
      ],
      "name": "toHex",
      "outputs": [
        {
          "name": "",
          "type": "bytes32"
        }
      ],
      "payable": false,
      "stateMutability": "pure",
      "type": "function"
    },
    {
      "constant": true,
      "inputs": [
        {
          "name": "_potentialAssets",
          "type": "bytes32[]"
        }
      ],
      "name": "decodeAssets",
      "outputs": [
        {
          "name": "",
          "type": "uint256[]"
        }
      ],
      "payable": false,
      "stateMutability": "pure",
      "type": "function"
    },
    {
      "constant": true,
      "inputs": [],
      "name": "marketplaceContract",
      "outputs": [
        {
          "name": "",
          "type": "address"
        }
      ],
      "payable": false,
      "stateMutability": "view",
      "type": "function"
    },
    {
      "constant": true,
      "inputs": [],
      "name": "numOfImages",
      "outputs": [
        {
          "name": "",
          "type": "uint256"
        }
      ],
      "payable": false,
      "stateMutability": "view",
      "type": "function"
    },
    {
      "constant": true,
      "inputs": [
        {
          "name": "_owner",
          "type": "address"
        }
      ],
      "name": "getUserImages",
      "outputs": [
        {
          "name": "",
          "type": "uint256[]"
        }
      ],
      "payable": false,
      "stateMutability": "view",
      "type": "function"
    },
    {
      "constant": true,
      "inputs": [
        {
          "name": "_finalSeed",
          "type": "uint256"
        },
        {
          "name": "_potentialAssets",
          "type": "bytes32[]"
        }
      ],
      "name": "pickRandomAssets",
      "outputs": [
        {
          "name": "",
          "type": "uint256[]"
        },
        {
          "name": "",
          "type": "uint256[]"
        },
        {
          "name": "",
          "type": "uint256[]"
        }
      ],
      "payable": false,
      "stateMutability": "pure",
      "type": "function"
    },
    {
      "constant": false,
      "inputs": [
        {
          "name": "newOwner",
          "type": "address"
        }
      ],
      "name": "transferOwnership",
      "outputs": [],
      "payable": false,
      "stateMutability": "nonpayable",
      "type": "function"
    },
    {
      "anonymous": false,
      "inputs": [
        {
          "indexed": true,
          "name": "from",
          "type": "address"
        },
        {
          "indexed": true,
          "name": "to",
          "type": "address"
        },
        {
          "indexed": true,
          "name": "tokenId",
          "type": "uint256"
        }
      ],
      "name": "Transfer",
      "type": "event"
    },
    {
      "anonymous": false,
      "inputs": [
        {
          "indexed": true,
          "name": "owner",
          "type": "address"
        },
        {
          "indexed": true,
          "name": "approved",
          "type": "address"
        },
        {
          "indexed": true,
          "name": "tokenId",
          "type": "uint256"
        }
      ],
      "name": "Approval",
      "type": "event"
    },
    {
      "anonymous": false,
      "inputs": [
        {
          "indexed": true,
          "name": "_to",
          "type": "address"
        },
        {
          "indexed": true,
          "name": "_tokenId",
          "type": "uint256"
        }
      ],
      "name": "Mint",
      "type": "event"
    },
    {
      "anonymous": false,
      "inputs": [
        {
          "indexed": true,
          "name": "previousOwner",
          "type": "address"
        },
        {
          "indexed": true,
          "name": "newOwner",
          "type": "address"
        }
      ],
      "name": "OwnershipTransferred",
      "type": "event"
    },
    {
      "constant": false,
      "inputs": [
        {
          "name": "_randomHashIds",
          "type": "uint256[]"
        },
        {
          "name": "_timestamp",
          "type": "uint256"
        },
        {
          "name": "_iterations",
          "type": "uint256"
        },
        {
          "name": "_potentialAssets",
          "type": "bytes32[]"
        },
        {
          "name": "_author",
          "type": "string"
        },
        {
          "name": "_ipfsHash",
          "type": "string"
        }
      ],
      "name": "createImage",
      "outputs": [
        {
          "name": "",
          "type": "uint256"
        }
      ],
      "payable": true,
      "stateMutability": "payable",
      "type": "function"
    },
    {
      "constant": true,
      "inputs": [
        {
          "name": "_pickedAssets",
          "type": "uint256[]"
        },
        {
          "name": "_owner",
          "type": "address"
        }
      ],
      "name": "calculatePrice",
      "outputs": [
        {
          "name": "",
          "type": "uint256"
        }
      ],
      "payable": false,
      "stateMutability": "view",
      "type": "function"
    },
    {
      "constant": true,
      "inputs": [
        {
          "name": "_imageId",
          "type": "uint256"
        }
      ],
      "name": "getImageMetadata",
      "outputs": [
        {
          "name": "",
          "type": "uint256"
        },
        {
          "name": "",
          "type": "bytes32[]"
        },
        {
          "name": "",
          "type": "uint256"
        },
        {
          "name": "",
          "type": "string"
        },
        {
          "name": "",
          "type": "address"
        },
        {
          "name": "",
          "type": "string"
        }
      ],
      "payable": false,
      "stateMutability": "view",
      "type": "function"
    },
    {
      "constant": false,
      "inputs": [
        {
          "name": "_marketplaceContract",
          "type": "address"
        }
      ],
      "name": "addMarketplaceContract",
      "outputs": [],
      "payable": false,
      "stateMutability": "nonpayable",
      "type": "function"
    },
    {
      "constant": false,
      "inputs": [
        {
          "name": "_from",
          "type": "address"
        },
        {
          "name": "_to",
          "type": "address"
        },
        {
          "name": "_imageId",
          "type": "uint256"
        }
      ],
      "name": "transferFromMarketplace",
      "outputs": [],
      "payable": false,
      "stateMutability": "nonpayable",
      "type": "function"
    },
    {
      "constant": false,
      "inputs": [
        {
          "name": "_assetManager",
          "type": "address"
        }
      ],
      "name": "addAssetManager",
      "outputs": [],
      "payable": false,
      "stateMutability": "nonpayable",
      "type": "function"
    }
  ],
  "bytecode": "0x6080604052336000806101000a81548173ffffffffffffffffffffffffffffffffffffffff021916908373ffffffffffffffffffffffffffffffffffffffff1602179055506040805190810160405280600a81526020017f496d616765546f6b656e000000000000000000000000000000000000000000008152506005908051906020019062000091929190620000ee565b506040805190810160405280600381526020017f494d54000000000000000000000000000000000000000000000000000000000081525060069080519060200190620000df929190620000ee565b5060006007819055506200019d565b828054600181600116156101000203166002900490600052602060002090601f016020900481019282601f106200013157805160ff191683800117855562000162565b8280016001018555821562000162579182015b828111156200016157825182559160200191906001019062000144565b5b50905062000171919062000175565b5090565b6200019a91905b80821115620001965760008160009055506001016200017c565b5090565b90565b61496280620001ad6000396000f3006080604052600436106101ee576000357c0100000000000000000000000000000000000000000000000000000000900463ffffffff168063040e9576146101f3578063056cf1d91461034357806306fdde031461038457806308a6c05a1461041457806308adf7b114610481578063095ea7b3146104ee5780630de66a7d1461053b5780631051db34146105a857806318160ddd146105d75780631e14d823146106025780632041518d1461064557806323b872dd146106df578063298a423c1461074c5780632f745c59146107a2578063390b8482146108035780633bbb11a11461081a578063469506bf146109b55780634a90be5714610a085780634ea8b6d014610a3357806355d8d13514610a645780636352211e14610b4b5780636386c1c714610bb8578063656afdee14610c8357806370a0823114610cfa578063853b5bb314610d515780638da5cb5b14610db257806395d89b4114610e0957806396e6031114610e99578063987ea89914610ee4578063a9059cbb14610f27578063ab6ca6dc14610f74578063b52c1d5b14610fbd578063bb2daa7314611041578063bf1792b3146110e7578063c933405114611130578063d1bb5cf1146111eb578063e75e700514611242578063eb6bbd781461126d578063ee007a5414611305578063f2fde38b1461145a575b600080fd5b61032d60048036038101908080359060200190820180359060200190808060200260200160405190810160405280939291908181526020018383602002808284378201915050505050509192919290803590602001909291908035906020019092919080359060200190820180359060200190808060200260200160405190810160405280939291908181526020018383602002808284378201915050505050509192919290803590602001908201803590602001908080601f0160208091040260200160405190810160405280939291908181526020018383808284378201915050505050509192919290803590602001908201803590602001908080601f016020809104026020016040519081016040528093929190818152602001838380828437820191505050505050919291929050505061149d565b6040518082815260200191505060405180910390f35b34801561034f57600080fd5b5061036e60048036038101908080359060200190929190505050611c1b565b6040518082815260200191505060405180910390f35b34801561039057600080fd5b50610399611c33565b6040518080602001828103825283818151815260200191508051906020019080838360005b838110156103d95780820151818401526020810190506103be565b50505050905090810190601f1680156104065780820380516001836020036101000a031916815260200191505b509250505060405180910390f35b34801561042057600080fd5b5061043f60048036038101908080359060200190929190505050611cd1565b604051808273ffffffffffffffffffffffffffffffffffffffff1673ffffffffffffffffffffffffffffffffffffffff16815260200191505060405180910390f35b34801561048d57600080fd5b506104ec600480360381019080803573ffffffffffffffffffffffffffffffffffffffff169060200190929190803573ffffffffffffffffffffffffffffffffffffffff16906020019092919080359060200190929190505050611d04565b005b3480156104fa57600080fd5b50610539600480360381019080803573ffffffffffffffffffffffffffffffffffffffff16906020019092919080359060200190929190505050611f08565b005b34801561054757600080fd5b50610566600480360381019080803590602001909291905050506120da565b604051808273ffffffffffffffffffffffffffffffffffffffff1673ffffffffffffffffffffffffffffffffffffffff16815260200191505060405180910390f35b3480156105b457600080fd5b506105bd61210d565b604051808215151515815260200191505060405180910390f35b3480156105e357600080fd5b506105ec612116565b6040518082815260200191505060405180910390f35b34801561060e57600080fd5b50610643600480360381019080803573ffffffffffffffffffffffffffffffffffffffff169060200190929190505050612120565b005b34801561065157600080fd5b506106c960048036038101908080359060200190820180359060200190808060200260200160405190810160405280939291908181526020018383602002808284378201915050505050509192919290803573ffffffffffffffffffffffffffffffffffffffff1690602001909291905050506121bf565b6040518082815260200191505060405180910390f35b3480156106eb57600080fd5b5061074a600480360381019080803573ffffffffffffffffffffffffffffffffffffffff169060200190929190803573ffffffffffffffffffffffffffffffffffffffff16906020019092919080359060200190929190505050612575565b005b34801561075857600080fd5b5061077760048036038101908080359060200190929190505050612785565b6040518085815260200184815260200183815260200182815260200194505050505060405180910390f35b3480156107ae57600080fd5b506107ed600480360381019080803573ffffffffffffffffffffffffffffffffffffffff16906020019092919080359060200190929190505050612826565b6040518082815260200191505060405180910390f35b34801561080f57600080fd5b50610818612887565b005b34801561082657600080fd5b50610845600480360381019080803590602001909291905050506128db565b6040518087815260200180602001868152602001806020018573ffffffffffffffffffffffffffffffffffffffff1673ffffffffffffffffffffffffffffffffffffffff16815260200180602001848103845289818151815260200191508051906020019060200280838360005b838110156108ce5780820151818401526020810190506108b3565b50505050905001848103835287818151815260200191508051906020019080838360005b8381101561090d5780820151818401526020810190506108f2565b50505050905090810190601f16801561093a5780820380516001836020036101000a031916815260200191505b50848103825285818151815260200191508051906020019080838360005b83811015610973578082015181840152602081019050610958565b50505050905090810190601f1680156109a05780820380516001836020036101000a031916815260200191505b50995050505050505050505060405180910390f35b3480156109c157600080fd5b506109ea6004803603810190808035906020019092919080359060200190929190505050612ba3565b60405180826000191660001916815260200191505060405180910390f35b348015610a1457600080fd5b50610a1d612d12565b6040518082815260200191505060405180910390f35b348015610a3f57600080fd5b50610a626004803603810190808035600019169060200190929190505050612d1f565b005b348015610a7057600080fd5b50610a8f60048036038101908080359060200190929190505050612e31565b604051808581526020018481526020018373ffffffffffffffffffffffffffffffffffffffff1673ffffffffffffffffffffffffffffffffffffffff16815260200180602001828103825283818151815260200191508051906020019080838360005b83811015610b0d578082015181840152602081019050610af2565b50505050905090810190601f168015610b3a5780820380516001836020036101000a031916815260200191505b509550505050505060405180910390f35b348015610b5757600080fd5b50610b7660048036038101908080359060200190929190505050612f19565b604051808273ffffffffffffffffffffffffffffffffffffffff1673ffffffffffffffffffffffffffffffffffffffff16815260200191505060405180910390f35b348015610bc457600080fd5b50610bf9600480360381019080803573ffffffffffffffffffffffffffffffffffffffff169060200190929190505050612f56565b60405180806020018360001916600019168152602001828103825284818151815260200191508051906020019080838360005b83811015610c47578082015181840152602081019050610c2c565b50505050905090810190601f168015610c745780820380516001836020036101000a031916815260200191505b50935050505060405180910390f35b348015610c8f57600080fd5b50610cf8600480360381019080803590602001908201803590602001908080601f01602080910402602001604051908101604052809392919081815260200183838082843782019150505050505091929192908035600019169060200190929190505050613095565b005b348015610d0657600080fd5b50610d3b600480360381019080803573ffffffffffffffffffffffffffffffffffffffff169060200190929190505050613385565b6040518082815260200191505060405180910390f35b348015610d5d57600080fd5b50610d9c600480360381019080803573ffffffffffffffffffffffffffffffffffffffff169060200190929190803590602001909291905050506133d1565b6040518082815260200191505060405180910390f35b348015610dbe57600080fd5b50610dc7613401565b604051808273ffffffffffffffffffffffffffffffffffffffff1673ffffffffffffffffffffffffffffffffffffffff16815260200191505060405180910390f35b348015610e1557600080fd5b50610e1e613426565b6040518080602001828103825283818151815260200191508051906020019080838360005b83811015610e5e578082015181840152602081019050610e43565b50505050905090810190601f168015610e8b5780820380516001836020036101000a031916815260200191505b509250505060405180910390f35b348015610ea557600080fd5b50610ece60048036038101908080359060200190929190803590602001909291905050506134c4565b6040518082815260200191505060405180910390f35b348015610ef057600080fd5b50610f25600480360381019080803573ffffffffffffffffffffffffffffffffffffffff16906020019092919050505061355c565b005b348015610f3357600080fd5b50610f72600480360381019080803573ffffffffffffffffffffffffffffffffffffffff169060200190929190803590602001909291905050506135fb565b005b348015610f8057600080fd5b50610f9f600480360381019080803590602001909291905050506137a2565b60405180826000191660001916815260200191505060405180910390f35b348015610fc957600080fd5b5061102b60048036038101908080359060200190820180359060200190808060200260200160405190810160405280939291908181526020018383602002808284378201915050505050509192919290803590602001909291905050506137c5565b6040518082815260200191505060405180910390f35b34801561104d57600080fd5b5061106c60048036038101908080359060200190929190505050613b04565b6040518080602001828103825283818151815260200191508051906020019080838360005b838110156110ac578082015181840152602081019050611091565b50505050905090810190601f1680156110d95780820380516001836020036101000a031916815260200191505b509250505060405180910390f35b3480156110f357600080fd5b5061111260048036038101908080359060200190929190505050613bb4565b60405180826000191660001916815260200191505060405180910390f35b34801561113c57600080fd5b5061119460048036038101908080359060200190820180359060200190808060200260200160405190810160405280939291908181526020018383602002808284378201915050505050509192919290505050613bc1565b6040518080602001828103825283818151815260200191508051906020019060200280838360005b838110156111d75780820151818401526020810190506111bc565b505050509050019250505060405180910390f35b3480156111f757600080fd5b50611200613d5d565b604051808273ffffffffffffffffffffffffffffffffffffffff1673ffffffffffffffffffffffffffffffffffffffff16815260200191505060405180910390f35b34801561124e57600080fd5b50611257613d83565b6040518082815260200191505060405180910390f35b34801561127957600080fd5b506112ae600480360381019080803573ffffffffffffffffffffffffffffffffffffffff169060200190929190505050613d89565b6040518080602001828103825283818151815260200191508051906020019060200280838360005b838110156112f15780820151818401526020810190506112d6565b505050509050019250505060405180910390f35b34801561131157600080fd5b506113736004803603810190808035906020019092919080359060200190820180359060200190808060200260200160405190810160405280939291908181526020018383602002808284378201915050505050509192919290505050613e20565b60405180806020018060200180602001848103845287818151815260200191508051906020019060200280838360005b838110156113be5780820151818401526020810190506113a3565b50505050905001848103835286818151815260200191508051906020019060200280838360005b838110156114005780820151818401526020810190506113e5565b50505050905001848103825285818151815260200191508051906020019060200280838360005b83811015611442578082015181840152602081019050611427565b50505050905001965050505050505060405180910390f35b34801561146657600080fd5b5061149b600480360381019080803573ffffffffffffffffffffffffffffffffffffffff1690602001909291905050506140ed565b005b600080606060006060600080600060058b51111515156114bc57600080fd5b600c8a6040518082805190602001908083835b6020831015156114f457805182526020820191506020810190506020830392506114cf565b6001836020036101000a038019825116818451168082178552505050505050905001915050908152602001604051809103902060009054906101000a900473ffffffffffffffffffffffffffffffffffffffff1673ffffffffffffffffffffffffffffffffffffffff163373ffffffffffffffffffffffffffffffffffffffff1614806115f75750600a8a6040518082805190602001908083835b6020831015156115b4578051825260208201915060208101905060208303925061158f565b6001836020036101000a038019825116818451168082178552505050505050905001915050908152602001604051809103902060009054906101000a900460ff16155b151561160257600080fd5b600a8a6040518082805190602001908083835b60208310151561163a5780518252602082019150602081019050602083039250611615565b6001836020036101000a038019825116818451168082178552505050505050905001915050908152602001604051809103902060009054906101000a900460ff1615156116ac576116ab8a7f3078300000000000000000000000000000000000000000000000000000000000613095565b5b6116bf6116b98f8f6137c5565b8d612ba3565b60019004965060001515600e600089815260200190815260200160002060009054906101000a900460ff1615151415156116f857600080fd5b611702878c613e20565b90505080965050339450601260009054906101000a900473ffffffffffffffffffffffffffffffffffffffff1673ffffffffffffffffffffffffffffffffffffffff16638f3bed06876040518263ffffffff167c01000000000000000000000000000000000000000000000000000000000281526004018080602001828103825283818151815260200191508051906020019060200280838360005b838110156117b957808201518184015260208101905061179e565b5050505090500192505050600060405180830381600087803b1580156117de57600080fd5b505af11580156117f2573d6000803e3d6000fd5b505050506040513d6000823e3d601f19601f82011682018060405250602081101561181c57600080fd5b81019080805164010000000081111561183457600080fd5b8281019050602081018481111561184a57600080fd5b815185602082028301116401000000008211171561186757600080fd5b5050929190505050935061187b84866121bf565b925082341015151561188c57600080fd5b600091505b8351821015611abf5760001515601260009054906101000a900473ffffffffffffffffffffffffffffffffffffffff1673ffffffffffffffffffffffffffffffffffffffff1663ca774c888787868151811015156118eb57fe5b906020019060200201516040518363ffffffff167c0100000000000000000000000000000000000000000000000000000000028152600401808373ffffffffffffffffffffffffffffffffffffffff1673ffffffffffffffffffffffffffffffffffffffff16815260200182815260200192505050602060405180830381600087803b15801561197a57600080fd5b505af115801561198e573d6000803e3d6000fd5b505050506040513d60208110156119a457600080fd5b810190808051906020019092919050505015151415611ab257601260009054906101000a900473ffffffffffffffffffffffffffffffffffffffff1673ffffffffffffffffffffffffffffffffffffffff1663225c76c3338685815181101515611a0a57fe5b906020019060200201516040518363ffffffff167c0100000000000000000000000000000000000000000000000000000000028152600401808373ffffffffffffffffffffffffffffffffffffffff1673ffffffffffffffffffffffffffffffffffffffff16815260200182815260200192505050600060405180830381600087803b158015611a9957600080fd5b505af1158015611aad573d6000803e3d6000fd5b505050505b8180600101925050611891565b611ac885614242565b905060a0604051908101604052808881526020018c81526020018e81526020018673ffffffffffffffffffffffffffffffffffffffff1681526020018a815250600f6000838152602001908152602001600020600082015181600001556020820151816001019080519060200190611b41929190614700565b506040820151816002015560608201518160030160006101000a81548173ffffffffffffffffffffffffffffffffffffffff021916908373ffffffffffffffffffffffffffffffffffffffff1602179055506080820151816004019080519060200190611baf929190614753565b5090505088601060008381526020019081526020016000209080519060200190611bda9291906147d3565b506001600e600089815260200190815260200160002060006101000a81548160ff021916908315150217905550809750505050505050509695505050505050565b60046020528060005260406000206000915090505481565b60058054600181600116156101000203166002900480601f016020809104026020016040519081016040528092919081815260200182805460018160011615610100020316600290048015611cc95780601f10611c9e57610100808354040283529160200191611cc9565b820191906000526020600020905b815481529060010190602001808311611cac57829003601f168201915b505050505081565b60016020528060005260406000206000915054906101000a900473ffffffffffffffffffffffffffffffffffffffff1681565b601160009054906101000a900473ffffffffffffffffffffffffffffffffffffffff1673ffffffffffffffffffffffffffffffffffffffff163373ffffffffffffffffffffffffffffffffffffffff16141515611d6057600080fd5b60006001600083815260200190815260200160002060009054906101000a900473ffffffffffffffffffffffffffffffffffffffff1673ffffffffffffffffffffffffffffffffffffffff1614151515611db957600080fd5b8273ffffffffffffffffffffffffffffffffffffffff16611dd982612f19565b73ffffffffffffffffffffffffffffffffffffffff16141515611dfb57600080fd5b60006002600083815260200190815260200160002060006101000a81548173ffffffffffffffffffffffffffffffffffffffff021916908373ffffffffffffffffffffffffffffffffffffffff160217905550611e5883826143c1565b611e6282826145a7565b8060008473ffffffffffffffffffffffffffffffffffffffff167f8c5be1e5ebec7d5bd14f71427d1e84f3dd0314c0f7b2291e5b200ac8c7c3b92560405160405180910390a4808273ffffffffffffffffffffffffffffffffffffffff168473ffffffffffffffffffffffffffffffffffffffff167fddf252ad1be2c89b69c2b068fc378daa952ba7f163c4a11628f55a4df523b3ef60405160405180910390a4505050565b60006001600083815260200190815260200160002060009054906101000a900473ffffffffffffffffffffffffffffffffffffffff1673ffffffffffffffffffffffffffffffffffffffff1614151515611f6157600080fd5b3373ffffffffffffffffffffffffffffffffffffffff16611f8182612f19565b73ffffffffffffffffffffffffffffffffffffffff16141515611fa357600080fd5b3373ffffffffffffffffffffffffffffffffffffffff168273ffffffffffffffffffffffffffffffffffffffff1614151515611fde57600080fd5b6000611fe9826146c3565b73ffffffffffffffffffffffffffffffffffffffff16141580612023575060008273ffffffffffffffffffffffffffffffffffffffff1614155b156120d657816002600083815260200190815260200160002060006101000a81548173ffffffffffffffffffffffffffffffffffffffff021916908373ffffffffffffffffffffffffffffffffffffffff160217905550808273ffffffffffffffffffffffffffffffffffffffff163373ffffffffffffffffffffffffffffffffffffffff167f8c5be1e5ebec7d5bd14f71427d1e84f3dd0314c0f7b2291e5b200ac8c7c3b92560405160405180910390a45b5050565b60026020528060005260406000206000915054906101000a900473ffffffffffffffffffffffffffffffffffffffff1681565b60006001905090565b6000600754905090565b6000809054906101000a900473ffffffffffffffffffffffffffffffffffffffff1673ffffffffffffffffffffffffffffffffffffffff163373ffffffffffffffffffffffffffffffffffffffff1614151561217b57600080fd5b80601160006101000a81548173ffffffffffffffffffffffffffffffffffffffff021916908373ffffffffffffffffffffffffffffffffffffffff16021790555050565b600060606000806000865114156121d9576000935061256c565b601260009054906101000a900473ffffffffffffffffffffffffffffffffffffffff1673ffffffffffffffffffffffffffffffffffffffff16638f3bed06876040518263ffffffff167c01000000000000000000000000000000000000000000000000000000000281526004018080602001828103825283818151815260200191508051906020019060200280838360005b8381101561228657808201518184015260208101905061226b565b5050505090500192505050600060405180830381600087803b1580156122ab57600080fd5b505af11580156122bf573d6000803e3d6000fd5b505050506040513d6000823e3d601f19601f8201168201806040525060208110156122e957600080fd5b81019080805164010000000081111561230157600080fd5b8281019050602081018481111561231757600080fd5b815185602082028301116401000000008211171561233457600080fd5b5050929190505050925060009150600090505b82518110156125685760001515601260009054906101000a900473ffffffffffffffffffffffffffffffffffffffff1673ffffffffffffffffffffffffffffffffffffffff1663ca774c888786858151811015156123a157fe5b906020019060200201516040518363ffffffff167c0100000000000000000000000000000000000000000000000000000000028152600401808373ffffffffffffffffffffffffffffffffffffffff1673ffffffffffffffffffffffffffffffffffffffff16815260200182815260200192505050602060405180830381600087803b15801561243057600080fd5b505af1158015612444573d6000803e3d6000fd5b505050506040513d602081101561245a57600080fd5b81019080805190602001909291905050501515141561255b57601260009054906101000a900473ffffffffffffffffffffffffffffffffffffffff1673ffffffffffffffffffffffffffffffffffffffff16638c96a2c984838151811015156124bf57fe5b906020019060200201516040518263ffffffff167c010000000000000000000000000000000000000000000000000000000002815260040180828152602001915050602060405180830381600087803b15801561251b57600080fd5b505af115801561252f573d6000803e3d6000fd5b505050506040513d602081101561254557600080fd5b8101908080519060200190929190505050820191505b8080600101915050612347565b8193505b50505092915050565b60006001600083815260200190815260200160002060009054906101000a900473ffffffffffffffffffffffffffffffffffffffff1673ffffffffffffffffffffffffffffffffffffffff16141515156125ce57600080fd5b3373ffffffffffffffffffffffffffffffffffffffff166125ee826146c3565b73ffffffffffffffffffffffffffffffffffffffff1614151561261057600080fd5b8273ffffffffffffffffffffffffffffffffffffffff1661263082612f19565b73ffffffffffffffffffffffffffffffffffffffff1614151561265257600080fd5b60008273ffffffffffffffffffffffffffffffffffffffff161415151561267857600080fd5b60006002600083815260200190815260200160002060006101000a81548173ffffffffffffffffffffffffffffffffffffffff021916908373ffffffffffffffffffffffffffffffffffffffff1602179055506126d583826143c1565b6126df82826145a7565b8060008473ffffffffffffffffffffffffffffffffffffffff167f8c5be1e5ebec7d5bd14f71427d1e84f3dd0314c0f7b2291e5b200ac8c7c3b92560405160405180910390a4808273ffffffffffffffffffffffffffffffffffffffff168473ffffffffffffffffffffffffffffffffffffffff167fddf252ad1be2c89b69c2b068fc378daa952ba7f163c4a11628f55a4df523b3ef60405160405180910390a4505050565b6000806000806000806000806000808a141515156127a257600080fd5b899450612710858115156127b257fe5b06945060006002868115156127c357fe5b06141561280e57610992858115156127d757fe5b069350610dac858115156127e757fe5b06925061032060c8868115156127f957fe5b060191506101688581151561280a57fe5b0690505b83838383985098509850985050505050509193509193565b6000600360008473ffffffffffffffffffffffffffffffffffffffff1673ffffffffffffffffffffffffffffffffffffffff1681526020019081526020016000208281548110151561287457fe5b9060005260206000200154905092915050565b60006064430390505b438110156128d8576008814090806001815401808255809150509060018203906000526020600020016000909192909190915090600019169055508080600101915050612890565b50565b6000606060006060600060606128ef614853565b600754881015156128ff57600080fd5b600f600089815260200190815260200160002060a06040519081016040529081600082015481526020016001820180548060200260200160405190810160405280929190818152602001828054801561297b57602002820191906000526020600020905b81546000191681526020019060010190808311612963575b50505050508152602001600282015481526020016003820160009054906101000a900473ffffffffffffffffffffffffffffffffffffffff1673ffffffffffffffffffffffffffffffffffffffff1673ffffffffffffffffffffffffffffffffffffffff168152602001600482018054600181600116156101000203166002900480601f016020809104026020016040519081016040528092919081815260200182805460018160011615610100020316600290048015612a7d5780601f10612a5257610100808354040283529160200191612a7d565b820191906000526020600020905b815481529060010190602001808311612a6057829003601f168201915b5050505050815250509050806000015181602001518260400151600d6000856060015173ffffffffffffffffffffffffffffffffffffffff1673ffffffffffffffffffffffffffffffffffffffff168152602001908152602001600020600001612ae68c612f19565b8560800151849450828054600181600116156101000203166002900480601f016020809104026020016040519081016040528092919081815260200182805460018160011615610100020316600290048015612b835780601f10612b5857610100808354040283529160200191612b83565b820191906000526020600020905b815481529060010190602001808311612b6657829003601f168201915b505050505092508090509650965096509650965096505091939550919395565b6000806000808514151515612bb757600080fd5b60008414151515612bc757600080fd5b846001029150848460405160200180838152602001828152602001925050506040516020818303038152906040526040518082805190602001908083835b602083101515612c2a5780518252602082019150602081019050602083039250612c05565b6001836020036101000a03801982511681845116808217855250505050505090500191505060405180910390209150600090505b83811015612d07578181604051602001808360001916600019168152602001828152602001925050506040516020818303038152906040526040518082805190602001908083835b602083101515612ccb5780518252602082019150602081019050602083039250612ca6565b6001836020036101000a038019825116818451168082178552505050505050905001915050604051809103902091508080600101915050612c5e565b819250505092915050565b6000600880549050905090565b600d60003373ffffffffffffffffffffffffffffffffffffffff1673ffffffffffffffffffffffffffffffffffffffff16815260200190815260200160002060020160009054906101000a900460ff161515612de3576040517f08c379a00000000000000000000000000000000000000000000000000000000081526004018080602001828103825260138152602001807f5573657220646f65736e2774206578697374730000000000000000000000000081525060200191505060405180910390fd5b80600d60003373ffffffffffffffffffffffffffffffffffffffff1673ffffffffffffffffffffffffffffffffffffffff168152602001908152602001600020600101816000191690555050565b600f6020528060005260406000206000915090508060000154908060020154908060030160009054906101000a900473ffffffffffffffffffffffffffffffffffffffff1690806004018054600181600116156101000203166002900480601f016020809104026020016040519081016040528092919081815260200182805460018160011615610100020316600290048015612f0f5780601f10612ee457610100808354040283529160200191612f0f565b820191906000526020600020905b815481529060010190602001808311612ef257829003601f168201915b5050505050905084565b60006001600083815260200190815260200160002060009054906101000a900473ffffffffffffffffffffffffffffffffffffffff169050919050565b60606000612f62614899565b600d60008573ffffffffffffffffffffffffffffffffffffffff1673ffffffffffffffffffffffffffffffffffffffff16815260200190815260200160002060606040519081016040529081600082018054600181600116156101000203166002900480601f0160208091040260200160405190810160405280929190818152602001828054600181600116156101000203166002900480156130465780601f1061301b57610100808354040283529160200191613046565b820191906000526020600020905b81548152906001019060200180831161302957829003601f168201915b505050505081526020016001820154600019166000191681526020016002820160009054906101000a900460ff1615151515815250509050806000015181602001518191509250925050915091565b60001515600a836040518082805190602001908083835b6020831015156130d157805182526020820191506020810190506020830392506130ac565b6001836020036101000a038019825116818451168082178552505050505050905001915050908152602001604051809103902060009054906101000a900460ff16151514151561312057600080fd5b60001515600b6000836000191660001916815260200190815260200160002060009054906101000a900460ff16151514151561315b57600080fd5b6060604051908101604052808381526020018260001916815260200160011515815250600d60003373ffffffffffffffffffffffffffffffffffffffff1673ffffffffffffffffffffffffffffffffffffffff16815260200190815260200160002060008201518160000190805190602001906131d9929190614753565b506020820151816001019060001916905560408201518160020160006101000a81548160ff0219169083151502179055509050506001600a836040518082805190602001908083835b6020831015156132475780518252602082019150602081019050602083039250613222565b6001836020036101000a038019825116818451168082178552505050505050905001915050908152602001604051809103902060006101000a81548160ff0219169083151502179055506001600b6000836000191660001916815260200190815260200160002060006101000a81548160ff02191690831515021790555033600c836040518082805190602001908083835b6020831015156132fe57805182526020820191506020810190506020830392506132d9565b6001836020036101000a038019825116818451168082178552505050505050905001915050908152602001604051809103902060006101000a81548173ffffffffffffffffffffffffffffffffffffffff021916908373ffffffffffffffffffffffffffffffffffffffff1602179055506009600081548092919060010191905055505050565b6000600360008373ffffffffffffffffffffffffffffffffffffffff1673ffffffffffffffffffffffffffffffffffffffff168152602001908152602001600020805490509050919050565b6003602052816000526040600020818154811015156133ec57fe5b90600052602060002001600091509150505481565b6000809054906101000a900473ffffffffffffffffffffffffffffffffffffffff1681565b60068054600181600116156101000203166002900480601f0160208091040260200160405190810160405280929190818152602001828054600181600116156101000203166002900480156134bc5780601f10613491576101008083540402835291602001916134bc565b820191906000526020600020905b81548152906001019060200180831161349f57829003601f168201915b505050505081565b6000818360405160200180838152602001828152602001925050506040516020818303038152906040526040518082805190602001908083835b60208310151561352357805182526020820191506020810190506020830392506134fe565b6001836020036101000a038019825116818451168082178552505050505050905001915050604051809103902060019004905092915050565b6000809054906101000a900473ffffffffffffffffffffffffffffffffffffffff1673ffffffffffffffffffffffffffffffffffffffff163373ffffffffffffffffffffffffffffffffffffffff161415156135b757600080fd5b80601260006101000a81548173ffffffffffffffffffffffffffffffffffffffff021916908373ffffffffffffffffffffffffffffffffffffffff16021790555050565b60006001600083815260200190815260200160002060009054906101000a900473ffffffffffffffffffffffffffffffffffffffff1673ffffffffffffffffffffffffffffffffffffffff161415151561365457600080fd5b3373ffffffffffffffffffffffffffffffffffffffff1661367482612f19565b73ffffffffffffffffffffffffffffffffffffffff1614151561369657600080fd5b60006002600083815260200190815260200160002060006101000a81548173ffffffffffffffffffffffffffffffffffffffff021916908373ffffffffffffffffffffffffffffffffffffffff1602179055506136f333826143c1565b6136fd82826145a7565b8060003373ffffffffffffffffffffffffffffffffffffffff167f8c5be1e5ebec7d5bd14f71427d1e84f3dd0314c0f7b2291e5b200ac8c7c3b92560405160405180910390a4808273ffffffffffffffffffffffffffffffffffffffff163373ffffffffffffffffffffffffffffffffffffffff167fddf252ad1be2c89b69c2b068fc378daa952ba7f163c4a11628f55a4df523b3ef60405160405180910390a45050565b60006008828154811015156137b357fe5b90600052602060002001549050919050565b600080600083141515156137d857600080fd5b600a84511415156137e857600080fd5b60088460008151811015156137f957fe5b9060200190602002015181548110151561380f57fe5b9060005260206000200154600885600181518110151561382b57fe5b9060200190602002015181548110151561384157fe5b9060005260206000200154600886600281518110151561385d57fe5b9060200190602002015181548110151561387357fe5b9060005260206000200154600887600381518110151561388f57fe5b906020019060200201518154811015156138a557fe5b906000526020600020015460088860048151811015156138c157fe5b906020019060200201518154811015156138d757fe5b906000526020600020015460088960058151811015156138f357fe5b9060200190602002015181548110151561390957fe5b906000526020600020015460088a600681518110151561392557fe5b9060200190602002015181548110151561393b57fe5b906000526020600020015460088b600781518110151561395757fe5b9060200190602002015181548110151561396d57fe5b906000526020600020015460088c600881518110151561398957fe5b9060200190602002015181548110151561399f57fe5b906000526020600020015460088d60098151811015156139bb57fe5b906020019060200201518154811015156139d157fe5b90600052602060002001548c604051602001808c600019166000191681526020018b600019166000191681526020018a6000191660001916815260200189600019166000191681526020018860001916600019168152602001876000191660001916815260200186600019166000191681526020018560001916600019168152602001846000191660001916815260200183600019166000191681526020018281526020019b5050505050505050505050506040516020818303038152906040526040518082805190602001908083835b602083101515613ac75780518252602082019150602081019050602083039250613aa2565b6001836020036101000a03801982511681845116808217855250505050505090500191505060405180910390209050806001900491505092915050565b60106020528060005260406000206000915090508054600181600116156101000203166002900480601f016020809104026020016040519081016040528092919081815260200182805460018160011615610100020316600290048015613bac5780601f10613b8157610100808354040283529160200191613bac565b820191906000526020600020905b815481529060010190602001808311613b8f57829003601f168201915b505050505081565b6000816001029050919050565b6060806000806000806000806000606060008b51111515613be157600080fd5b600a8b5102604051908082528060200260200182016040528015613c145781602001602082028038833980820191505090505b50985060009750600096505b8a51871015613ccc578a87815181101515613c3757fe5b906020019060200201519450849550600093505b600a841015613cbf5760026018850260029060020a02811515613c6a57fe5b0492508262ffffff84028716811515613c7f57fe5b049150600082141515613cb257818989815181101515613c9b57fe5b906020019060200201818152505087806001019850505b8380600101945050613c4b565b8680600101975050613c20565b87604051908082528060200260200182016040528015613cfb5781602001602082028038833980820191505090505b509050600093505b87841015613d4c578884815181101515613d1957fe5b906020019060200201518185815181101515613d3157fe5b90602001906020020181815250508380600101945050613d03565b809950505050505050505050919050565b601160009054906101000a900473ffffffffffffffffffffffffffffffffffffffff1681565b60075481565b6060600360008373ffffffffffffffffffffffffffffffffffffffff1673ffffffffffffffffffffffffffffffffffffffff168152602001908152602001600020805480602002602001604051908101604052809291908181526020018280548015613e1457602002820191906000526020600020905b815481526020019060010190808311613e00575b50505050509050919050565b60608060608060608060606000806000606060008d14151515613e4257600080fd5b60008c51111515613e5257600080fd5b613e5b8c613bc1565b97508751604051908082528060200260200182016040528015613e8d5781602001602082028038833980820191505090505b5096508751604051908082528060200260200182016040528015613ec05781602001602082028038833980820191505090505b5095508751604051908082528060200260200182016040528015613ef35781602001602082028038833980820191505090505b5094508c935060009250600091505b875182101561405557838883815181101515613f1a57fe5b9060200190602002015160405160200180838152602001828152602001925050506040516020818303038152906040526040518082805190602001908083835b602083101515613f7f5780518252602082019150602081019050602083039250613f5a565b6001836020036101000a03801982511681845116808217855250505050505090500191505060405180910390206001900493506000600285811515613fc057fe5b061415614048578782815181101515613fd557fe5b906020019060200201518784815181101515613fed57fe5b906020019060200201818152505061400484612785565b905050878581518110151561401557fe5b906020019060200201878681518110151561402c57fe5b9060200190602002018281525082815250505082806001019350505b8180600101925050613f02565b826040519080825280602002602001820160405280156140845781602001602082028038833980820191505090505b509050600091505b828210156140d55786828151811015156140a257fe5b9060200190602002015181838151811015156140ba57fe5b9060200190602002018181525050818060010192505061408c565b8086869a509a509a5050505050505050509250925092565b6000809054906101000a900473ffffffffffffffffffffffffffffffffffffffff1673ffffffffffffffffffffffffffffffffffffffff163373ffffffffffffffffffffffffffffffffffffffff1614151561414857600080fd5b600073ffffffffffffffffffffffffffffffffffffffff168173ffffffffffffffffffffffffffffffffffffffff161415151561418457600080fd5b8073ffffffffffffffffffffffffffffffffffffffff166000809054906101000a900473ffffffffffffffffffffffffffffffffffffffff1673ffffffffffffffffffffffffffffffffffffffff167f8be0079c531659141344cd1fd0a4f28419497f9722a3daafe3b4186f6b6457e060405160405180910390a3806000806101000a81548173ffffffffffffffffffffffffffffffffffffffff021916908373ffffffffffffffffffffffffffffffffffffffff16021790555050565b6000806007549050826001600083815260200190815260200160002060006101000a81548173ffffffffffffffffffffffffffffffffffffffff021916908373ffffffffffffffffffffffffffffffffffffffff160217905550600360008473ffffffffffffffffffffffffffffffffffffffff1673ffffffffffffffffffffffffffffffffffffffff1681526020019081526020016000208190806001815401808255809150509060018203906000526020600020016000909192909190915055506001600360008573ffffffffffffffffffffffffffffffffffffffff1673ffffffffffffffffffffffffffffffffffffffff16815260200190815260200160002080549050036004600083815260200190815260200160002081905550600760008154809291906001019190505550808373ffffffffffffffffffffffffffffffffffffffff167f0f6798a560793a54c3bcfe86a93cde1e73087d944c0ea20544137d412139688560405160405180910390a380915050919050565b6000806000600360008673ffffffffffffffffffffffffffffffffffffffff1673ffffffffffffffffffffffffffffffffffffffff16815260200190815260200160002080549050925060046000858152602001908152602001600020549150600360008673ffffffffffffffffffffffffffffffffffffffff1673ffffffffffffffffffffffffffffffffffffffff1681526020019081526020016000206001840381548110151561447057fe5b9060005260206000200154905080600360008773ffffffffffffffffffffffffffffffffffffffff1673ffffffffffffffffffffffffffffffffffffffff168152602001908152602001600020838154811015156144ca57fe5b9060005260206000200181905550816004600083815260200190815260200160002081905550600360008673ffffffffffffffffffffffffffffffffffffffff1673ffffffffffffffffffffffffffffffffffffffff1681526020019081526020016000206001840381548110151561453f57fe5b9060005260206000200160009055600360008673ffffffffffffffffffffffffffffffffffffffff1673ffffffffffffffffffffffffffffffffffffffff16815260200190815260200160002080548091906001900361459f91906148c0565b505050505050565b816001600083815260200190815260200160002060006101000a81548173ffffffffffffffffffffffffffffffffffffffff021916908373ffffffffffffffffffffffffffffffffffffffff160217905550600360008373ffffffffffffffffffffffffffffffffffffffff1673ffffffffffffffffffffffffffffffffffffffff1681526020019081526020016000208190806001815401808255809150509060018203906000526020600020016000909192909190915055506001600360008473ffffffffffffffffffffffffffffffffffffffff1673ffffffffffffffffffffffffffffffffffffffff168152602001908152602001600020805490500360046000838152602001908152602001600020819055505050565b60006002600083815260200190815260200160002060009054906101000a900473ffffffffffffffffffffffffffffffffffffffff169050919050565b828054828255906000526020600020908101928215614742579160200282015b82811115614741578251829060001916905591602001919060010190614720565b5b50905061474f91906148ec565b5090565b828054600181600116156101000203166002900490600052602060002090601f016020900481019282601f1061479457805160ff19168380011785556147c2565b828001600101855582156147c2579182015b828111156147c15782518255916020019190600101906147a6565b5b5090506147cf9190614911565b5090565b828054600181600116156101000203166002900490600052602060002090601f016020900481019282601f1061481457805160ff1916838001178555614842565b82800160010185558215614842579182015b82811115614841578251825591602001919060010190614826565b5b50905061484f9190614911565b5090565b60a060405190810160405280600081526020016060815260200160008152602001600073ffffffffffffffffffffffffffffffffffffffff168152602001606081525090565b60606040519081016040528060608152602001600080191681526020016000151581525090565b8154818355818111156148e7578183600052602060002091820191016148e69190614911565b5b505050565b61490e91905b8082111561490a5760008160009055506001016148f2565b5090565b90565b61493391905b8082111561492f576000816000905550600101614917565b5090565b905600a165627a7a72305820f90db8bda2b4661bbd5a654e96e54b4106955ead0a56db9a9b638ab9f766fa140029",
  "source": "pragma solidity ^0.4.23;\n\nimport \"./ImageToken.sol\";\nimport \"../Utils/Functions.sol\";\nimport \"../IAssetManager.sol\";\nimport \"../UserManager.sol\";\n\n\ncontract DigitalPrintImage is ImageToken, Functions, UserManager {\n\n    struct ImageMetadata {\n        uint finalSeed;\n        bytes32[] potentialAssets;\n        uint timestamp;\n        address creator;\n        string ipfsHash;\n    }\n\n\n    mapping(uint => bool) seedExists;\n    mapping(uint => ImageMetadata) public imageMetadata;\n    mapping(uint => string) public idToIpfsHash;\n\n    address public marketplaceContract;\n    IAssetManager assetManager;\n\n\n    modifier onlyMarketplaceContract() {\n        require(msg.sender == address(marketplaceContract));\n        _;\n    }\n\n    /// @dev only for testing purposes\n    // function createImageTest() public returns(uint) {\n    //     return createImage(msg.sender);\n    // }\n\n    /// @notice Function will create new image\n    /// @dev owner of image will be msg.sender, and timestamp will be automatically generated, timestamp will be automatically generated\n    /// @dev _txHash and _timestamp together with keccak256 will give us randomSeed for user\n    /// @param _randomHashIds is array of random hashes from our array\n    /// @param _timestamp is timestamp when image is created\n    /// @param _iterations is number of how many times he generated random asset positions until he liked what he got\n    /// @param _potentialAssets is set of all potential assets user selected for an image\n    /// @param _author is nickname of image owner\n    /// @param _ipfsHash is ipfsHash of the image .png\n    /// @return returns id of created image\n    function createImage(\n        uint[] _randomHashIds,\n        uint _timestamp,\n        uint _iterations,\n        bytes32[] _potentialAssets,\n        string _author,\n        string _ipfsHash) public payable returns (uint) {\n        require(_potentialAssets.length <= 5);\n        // if user exists send his username, if it doesn't check for some username that doesn't exists\n        require(msg.sender == usernameToAddress[_author] || !usernameExists[_author]);\n\n        // if user doesn't exists create that user with no profile picture\n        if (!usernameExists[_author]) {\n            register(_author, \"0x0\");\n        }\n\n        uint finalSeed = uint(getFinalSeed(calculateSeed(_randomHashIds, _timestamp), _iterations));\n\n        require(seedExists[finalSeed] == false);\n\n        uint[] memory pickedAssets;\n\n        (pickedAssets,,) = pickRandomAssets(finalSeed, _potentialAssets);\n        address _creator = msg.sender;\n\n        uint[] memory pickedAssetPacks = assetManager.pickUniquePacks(pickedAssets);\n\n        uint finalPrice = calculatePrice(pickedAssetPacks, _creator);\n        require(msg.value >= finalPrice);\n\n        for(uint i = 0; i<pickedAssetPacks.length ;i++) {\n            if(assetManager.checkHasPermissionForPack(_creator, pickedAssetPacks[i]) == false){\n                assetManager.givePermission(msg.sender, pickedAssetPacks[i]);\n            }\n        }\n\n        uint id = createImage(_creator);\n\n        imageMetadata[id] = ImageMetadata({\n            finalSeed: finalSeed,\n            potentialAssets: _potentialAssets,\n            timestamp: _timestamp,\n            creator: _creator,\n            ipfsHash: _ipfsHash\n        });\n\n        idToIpfsHash[id] = _ipfsHash;\n        seedExists[finalSeed] = true;\n        return id;\n    }\n\n    /// @notice Function to calculate final price for an image based on selected assets\n    /// @param _pickedAssets is array of picked packs\n    /// @param _owner is address of image owner\n    /// @return finalPrice for the image\n    function calculatePrice(uint[] _pickedAssets, address _owner) public view returns (uint) {\n        if(_pickedAssets.length == 0) {\n            return 0;\n        }\n\n        uint[] memory pickedAssetPacks = assetManager.pickUniquePacks(_pickedAssets);\n        uint finalPrice = 0;\n        for(uint i = 0; i<pickedAssetPacks.length; i++) {\n            if(assetManager.checkHasPermissionForPack(_owner, pickedAssetPacks[i]) == false) {\n                finalPrice += assetManager.getAssetPackPrice(pickedAssetPacks[i]);\n            }\n        }\n\n        return finalPrice;\n    }\n\n\n\n    function getImageMetadata(uint _imageId) public view returns(uint, bytes32[], uint, string, address, string) {\n        require(_imageId < numOfImages);\n\n        ImageMetadata memory metadata = imageMetadata[_imageId];\n\n        return(\n            metadata.finalSeed,\n            metadata.potentialAssets,\n            metadata.timestamp,\n            addressToUser[metadata.creator].username,\n            ownerOf(_imageId),\n            metadata.ipfsHash\n        );\n\n    }\n\n\n\n    /// @notice adds marketplace address to contract only if it doesn't already exist\n    /// @param _marketplaceContract address of marketplace contract\n    function addMarketplaceContract(address _marketplaceContract) public onlyOwner {\n        // not required while on testnet\n        // @dev require(address(marketplaceContract) == 0x0);\n        marketplaceContract = _marketplaceContract;\n    }\n\n\n    /// @notice approving image to be taken from specific address\n    /// @param _from address from which we transfer image\n    /// @param _to address that we give permission to take image\n    /// @param _imageId we are willing to give\n    function transferFromMarketplace(address _from, address _to, uint256 _imageId) public onlyMarketplaceContract {\n        require(tokensForOwner[_imageId] != 0x0);\n        require(ownerOf(_imageId) == _from);\n\n        tokensForApproved[_imageId] = 0x0;\n        removeImage(_from, _imageId);\n        addImage(_to, _imageId);\n\n        emit Approval(_from, 0, _imageId);\n        emit Transfer(_from, _to, _imageId);\n    }\n\n\n    /// @notice Function to add assetManager\n    /// @dev during testing can be changed, after deployment to main network can be set only once\n    /// @param _assetManager is address of assetManager contract\n    function addAssetManager(address _assetManager) public onlyOwner {\n        assetManager = IAssetManager(_assetManager);\n    }\n\n}",
  "sourcePath": "/Users/nikolaklipa/Decenter/Cryptographics/contracts/Image/DigitalPrintImage.sol",
  "compiler": {
    "name": "solc",
    "version": "0.4.24+commit.e67f0147.Emscripten.clang"
  },
  "schemaVersion": "2.0.1",
  "updatedAt": "2018-07-13T12:35:38.360Z"
}