{
  "contractName": "DigitalPrintImage",
  "abi": [
    {
      "constant": true,
      "inputs": [
        {
          "name": "",
          "type": "uint256"
        }
      ],
      "name": "tokenPosInArr",
      "outputs": [
        {
          "name": "",
          "type": "uint256"
        }
      ],
      "payable": false,
      "stateMutability": "view",
      "type": "function"
    },
    {
      "constant": true,
      "inputs": [],
      "name": "name",
      "outputs": [
        {
          "name": "",
          "type": "string"
        }
      ],
      "payable": false,
      "stateMutability": "view",
      "type": "function"
    },
    {
      "constant": true,
      "inputs": [
        {
          "name": "",
          "type": "uint256"
        }
      ],
      "name": "tokensForOwner",
      "outputs": [
        {
          "name": "",
          "type": "address"
        }
      ],
      "payable": false,
      "stateMutability": "view",
      "type": "function"
    },
    {
      "constant": false,
      "inputs": [
        {
          "name": "_to",
          "type": "address"
        },
        {
          "name": "_imageId",
          "type": "uint256"
        }
      ],
      "name": "approve",
      "outputs": [],
      "payable": false,
      "stateMutability": "nonpayable",
      "type": "function"
    },
    {
      "constant": true,
      "inputs": [
        {
          "name": "",
          "type": "uint256"
        }
      ],
      "name": "tokensForApproved",
      "outputs": [
        {
          "name": "",
          "type": "address"
        }
      ],
      "payable": false,
      "stateMutability": "view",
      "type": "function"
    },
    {
      "constant": true,
      "inputs": [],
      "name": "implementsERC721",
      "outputs": [
        {
          "name": "",
          "type": "bool"
        }
      ],
      "payable": false,
      "stateMutability": "pure",
      "type": "function"
    },
    {
      "constant": true,
      "inputs": [],
      "name": "totalSupply",
      "outputs": [
        {
          "name": "",
          "type": "uint256"
        }
      ],
      "payable": false,
      "stateMutability": "view",
      "type": "function"
    },
    {
      "constant": false,
      "inputs": [
        {
          "name": "_from",
          "type": "address"
        },
        {
          "name": "_to",
          "type": "address"
        },
        {
          "name": "_imageId",
          "type": "uint256"
        }
      ],
      "name": "transferFrom",
      "outputs": [],
      "payable": false,
      "stateMutability": "nonpayable",
      "type": "function"
    },
    {
      "constant": true,
      "inputs": [
        {
          "name": "_random_seed",
          "type": "uint256"
        }
      ],
      "name": "pickRandomAssetPosition",
      "outputs": [
        {
          "name": "",
          "type": "uint256"
        },
        {
          "name": "",
          "type": "uint256"
        },
        {
          "name": "",
          "type": "uint256"
        },
        {
          "name": "",
          "type": "uint256"
        }
      ],
      "payable": false,
      "stateMutability": "view",
      "type": "function"
    },
    {
      "constant": true,
      "inputs": [
        {
          "name": "_owner",
          "type": "address"
        },
        {
          "name": "_index",
          "type": "uint256"
        }
      ],
      "name": "tokenOfOwnerByIndex",
      "outputs": [
        {
          "name": "",
          "type": "uint256"
        }
      ],
      "payable": false,
      "stateMutability": "view",
      "type": "function"
    },
    {
      "constant": false,
      "inputs": [],
      "name": "fillWithHashes",
      "outputs": [],
      "payable": false,
      "stateMutability": "nonpayable",
      "type": "function"
    },
    {
      "constant": true,
      "inputs": [
        {
          "name": "_random_seed",
          "type": "uint256"
        },
        {
          "name": "_iterations",
          "type": "uint256"
        }
      ],
      "name": "getFinalSeed",
      "outputs": [
        {
          "name": "",
          "type": "bytes32"
        }
      ],
      "payable": false,
      "stateMutability": "view",
      "type": "function"
    },
    {
      "constant": true,
      "inputs": [],
      "name": "getLen",
      "outputs": [
        {
          "name": "",
          "type": "uint256"
        }
      ],
      "payable": false,
      "stateMutability": "view",
      "type": "function"
    },
    {
      "constant": true,
      "inputs": [
        {
          "name": "",
          "type": "uint256"
        }
      ],
      "name": "imageMetadata",
      "outputs": [
        {
          "name": "randomSeed",
          "type": "uint256"
        },
        {
          "name": "iterations",
          "type": "uint256"
        },
        {
          "name": "timestamp",
          "type": "uint256"
        },
        {
          "name": "author",
          "type": "string"
        },
        {
          "name": "owner",
          "type": "address"
        },
        {
          "name": "ipfsHash",
          "type": "string"
        }
      ],
      "payable": false,
      "stateMutability": "view",
      "type": "function"
    },
    {
      "constant": true,
      "inputs": [
        {
          "name": "_imageId",
          "type": "uint256"
        }
      ],
      "name": "ownerOf",
      "outputs": [
        {
          "name": "",
          "type": "address"
        }
      ],
      "payable": false,
      "stateMutability": "view",
      "type": "function"
    },
    {
      "constant": true,
      "inputs": [
        {
          "name": "_owner",
          "type": "address"
        }
      ],
      "name": "balanceOf",
      "outputs": [
        {
          "name": "balance",
          "type": "uint256"
        }
      ],
      "payable": false,
      "stateMutability": "view",
      "type": "function"
    },
    {
      "constant": true,
      "inputs": [
        {
          "name": "",
          "type": "address"
        },
        {
          "name": "",
          "type": "uint256"
        }
      ],
      "name": "tokensOwned",
      "outputs": [
        {
          "name": "",
          "type": "uint256"
        }
      ],
      "payable": false,
      "stateMutability": "view",
      "type": "function"
    },
    {
      "constant": true,
      "inputs": [],
      "name": "owner",
      "outputs": [
        {
          "name": "",
          "type": "address"
        }
      ],
      "payable": false,
      "stateMutability": "view",
      "type": "function"
    },
    {
      "constant": true,
      "inputs": [],
      "name": "symbol",
      "outputs": [
        {
          "name": "",
          "type": "string"
        }
      ],
      "payable": false,
      "stateMutability": "view",
      "type": "function"
    },
    {
      "constant": true,
      "inputs": [
        {
          "name": "assetId",
          "type": "uint256"
        },
        {
          "name": "random_seed",
          "type": "uint256"
        }
      ],
      "name": "getSeed",
      "outputs": [
        {
          "name": "",
          "type": "uint256"
        }
      ],
      "payable": false,
      "stateMutability": "pure",
      "type": "function"
    },
    {
      "constant": true,
      "inputs": [
        {
          "name": "_random_seed",
          "type": "uint256"
        },
        {
          "name": "_iterations",
          "type": "uint256"
        },
        {
          "name": "_potentialAssets",
          "type": "bytes32[]"
        }
      ],
      "name": "pickRandomAssets",
      "outputs": [
        {
          "name": "",
          "type": "uint256[]"
        },
        {
          "name": "",
          "type": "uint256[]"
        },
        {
          "name": "",
          "type": "uint256[]"
        }
      ],
      "payable": false,
      "stateMutability": "view",
      "type": "function"
    },
    {
      "constant": false,
      "inputs": [
        {
          "name": "_to",
          "type": "address"
        },
        {
          "name": "_imageId",
          "type": "uint256"
        }
      ],
      "name": "transfer",
      "outputs": [],
      "payable": false,
      "stateMutability": "nonpayable",
      "type": "function"
    },
    {
      "constant": true,
      "inputs": [
        {
          "name": "_index",
          "type": "uint256"
        }
      ],
      "name": "getRandomHash",
      "outputs": [
        {
          "name": "",
          "type": "bytes32"
        }
      ],
      "payable": false,
      "stateMutability": "view",
      "type": "function"
    },
    {
      "constant": true,
      "inputs": [
        {
          "name": "_randomHashIds",
          "type": "uint256[]"
        },
        {
          "name": "_timestamp",
          "type": "uint256"
        }
      ],
      "name": "calculateSeed",
      "outputs": [
        {
          "name": "",
          "type": "uint256"
        }
      ],
      "payable": false,
      "stateMutability": "view",
      "type": "function"
    },
    {
      "constant": true,
      "inputs": [
        {
          "name": "",
          "type": "uint256"
        }
      ],
      "name": "idToIpfsHash",
      "outputs": [
        {
          "name": "",
          "type": "string"
        }
      ],
      "payable": false,
      "stateMutability": "view",
      "type": "function"
    },
    {
      "constant": true,
      "inputs": [
        {
          "name": "random_seed",
          "type": "uint256"
        }
      ],
      "name": "toHex",
      "outputs": [
        {
          "name": "",
          "type": "bytes32"
        }
      ],
      "payable": false,
      "stateMutability": "view",
      "type": "function"
    },
    {
      "constant": true,
      "inputs": [
        {
          "name": "_potentialAssets",
          "type": "bytes32[]"
        }
      ],
      "name": "decodeAssets",
      "outputs": [
        {
          "name": "",
          "type": "uint256[]"
        }
      ],
      "payable": false,
      "stateMutability": "view",
      "type": "function"
    },
    {
      "constant": true,
      "inputs": [],
      "name": "marketplaceContract",
      "outputs": [
        {
          "name": "",
          "type": "address"
        }
      ],
      "payable": false,
      "stateMutability": "view",
      "type": "function"
    },
    {
      "constant": true,
      "inputs": [],
      "name": "numOfImages",
      "outputs": [
        {
          "name": "",
          "type": "uint256"
        }
      ],
      "payable": false,
      "stateMutability": "view",
      "type": "function"
    },
    {
      "constant": true,
      "inputs": [
        {
          "name": "_owner",
          "type": "address"
        }
      ],
      "name": "getUserImages",
      "outputs": [
        {
          "name": "",
          "type": "uint256[]"
        }
      ],
      "payable": false,
      "stateMutability": "view",
      "type": "function"
    },
    {
      "constant": false,
      "inputs": [
        {
          "name": "newOwner",
          "type": "address"
        }
      ],
      "name": "transferOwnership",
      "outputs": [],
      "payable": false,
      "stateMutability": "nonpayable",
      "type": "function"
    },
    {
      "anonymous": false,
      "inputs": [
        {
          "indexed": true,
          "name": "from",
          "type": "address"
        },
        {
          "indexed": true,
          "name": "to",
          "type": "address"
        },
        {
          "indexed": true,
          "name": "tokenId",
          "type": "uint256"
        }
      ],
      "name": "Transfer",
      "type": "event"
    },
    {
      "anonymous": false,
      "inputs": [
        {
          "indexed": true,
          "name": "owner",
          "type": "address"
        },
        {
          "indexed": true,
          "name": "approved",
          "type": "address"
        },
        {
          "indexed": true,
          "name": "tokenId",
          "type": "uint256"
        }
      ],
      "name": "Approval",
      "type": "event"
    },
    {
      "anonymous": false,
      "inputs": [
        {
          "indexed": true,
          "name": "_to",
          "type": "address"
        },
        {
          "indexed": true,
          "name": "_tokenId",
          "type": "uint256"
        }
      ],
      "name": "Mint",
      "type": "event"
    },
    {
      "anonymous": false,
      "inputs": [
        {
          "indexed": true,
          "name": "previousOwner",
          "type": "address"
        },
        {
          "indexed": true,
          "name": "newOwner",
          "type": "address"
        }
      ],
      "name": "OwnershipTransferred",
      "type": "event"
    },
    {
      "constant": false,
      "inputs": [],
      "name": "createImageTest",
      "outputs": [
        {
          "name": "",
          "type": "uint256"
        }
      ],
      "payable": false,
      "stateMutability": "nonpayable",
      "type": "function"
    },
    {
      "constant": false,
      "inputs": [
        {
          "name": "_randomHashIds",
          "type": "uint256[]"
        },
        {
          "name": "_timestamp",
          "type": "uint256"
        },
        {
          "name": "_iterations",
          "type": "uint256"
        },
        {
          "name": "_potentialAssets",
          "type": "bytes32[]"
        },
        {
          "name": "_author",
          "type": "string"
        },
        {
          "name": "_ipfsHash",
          "type": "string"
        }
      ],
      "name": "createImage",
      "outputs": [
        {
          "name": "",
          "type": "uint256"
        }
      ],
      "payable": true,
      "stateMutability": "payable",
      "type": "function"
    },
    {
      "constant": true,
      "inputs": [
        {
          "name": "_pickedAssets",
          "type": "uint256[]"
        },
        {
          "name": "_owner",
          "type": "address"
        }
      ],
      "name": "calculatePrice",
      "outputs": [
        {
          "name": "",
          "type": "uint256"
        }
      ],
      "payable": false,
      "stateMutability": "view",
      "type": "function"
    },
    {
      "constant": true,
      "inputs": [
        {
          "name": "_imageId",
          "type": "uint256"
        }
      ],
      "name": "getImageMetadata",
      "outputs": [
        {
          "name": "",
          "type": "uint256"
        },
        {
          "name": "",
          "type": "uint256"
        },
        {
          "name": "",
          "type": "bytes32[]"
        },
        {
          "name": "",
          "type": "uint256"
        },
        {
          "name": "",
          "type": "string"
        },
        {
          "name": "",
          "type": "address"
        },
        {
          "name": "",
          "type": "string"
        }
      ],
      "payable": false,
      "stateMutability": "view",
      "type": "function"
    },
    {
      "constant": false,
      "inputs": [
        {
          "name": "_marketplaceContract",
          "type": "address"
        }
      ],
      "name": "addMarketplaceContract",
      "outputs": [],
      "payable": false,
      "stateMutability": "nonpayable",
      "type": "function"
    },
    {
      "constant": false,
      "inputs": [
        {
          "name": "_from",
          "type": "address"
        },
        {
          "name": "_to",
          "type": "address"
        },
        {
          "name": "_imageId",
          "type": "uint256"
        }
      ],
      "name": "transferFromMarketplace",
      "outputs": [],
      "payable": false,
      "stateMutability": "nonpayable",
      "type": "function"
    },
    {
      "constant": false,
      "inputs": [
        {
          "name": "_assetManager",
          "type": "address"
        }
      ],
      "name": "addAssetManager",
      "outputs": [],
      "payable": false,
      "stateMutability": "nonpayable",
      "type": "function"
    }
  ],
  "bytecode": "0x6080604052336000806101000a81548173ffffffffffffffffffffffffffffffffffffffff021916908373ffffffffffffffffffffffffffffffffffffffff1602179055506040805190810160405280600a81526020017f496d616765546f6b656e000000000000000000000000000000000000000000008152506005908051906020019062000091929190620000ee565b506040805190810160405280600381526020017f494d54000000000000000000000000000000000000000000000000000000000081525060069080519060200190620000df929190620000ee565b5060006007819055506200019d565b828054600181600116156101000203166002900490600052602060002090601f016020900481019282601f106200013157805160ff191683800117855562000162565b8280016001018555821562000162579182015b828111156200016157825182559160200191906001019062000144565b5b50905062000171919062000175565b5090565b6200019a91905b80821115620001965760008160009055506001016200017c565b5090565b90565b61400880620001ad6000396000f3006080604052600436106101d8576000357c0100000000000000000000000000000000000000000000000000000000900463ffffffff168063040e9576146101dd578063056cf1d91461032d57806306fdde031461036e57806308a6c05a146103fe57806308adf7b11461046b578063095ea7b3146104d85780630de66a7d146105255780631051db341461059257806318160ddd146105c15780631e14d823146105ec5780632041518d1461062f57806323b872dd146106c9578063298a423c146107365780632f745c591461078c578063390b8482146107ed5780633bbb11a114610804578063469506bf146109a65780634a90be57146109f957806355d8d13514610a245780636352211e14610b7e57806370a0823114610beb578063853b5bb314610c425780638da5cb5b14610ca357806395d89b4114610cfa57806396e6031114610d8a578063987ea89914610dd55780639f6ff8a514610e18578063a9059cbb14610f77578063ab6ca6dc14610fc4578063b52c1d5b1461100d578063bb2daa7314611091578063bf1792b314611137578063bf33589b14611180578063c9334051146111ab578063d1bb5cf114611266578063e75e7005146112bd578063eb6bbd78146112e8578063f2fde38b14611380575b600080fd5b61031760048036038101908080359060200190820180359060200190808060200260200160405190810160405280939291908181526020018383602002808284378201915050505050509192919290803590602001909291908035906020019092919080359060200190820180359060200190808060200260200160405190810160405280939291908181526020018383602002808284378201915050505050509192919290803590602001908201803590602001908080601f0160208091040260200160405190810160405280939291908181526020018383808284378201915050505050509192919290803590602001908201803590602001908080601f01602080910402602001604051908101604052809392919081815260200183838082843782019150505050505091929192905050506113c3565b6040518082815260200191505060405180910390f35b34801561033957600080fd5b506103586004803603810190808035906020019092919050505061198b565b6040518082815260200191505060405180910390f35b34801561037a57600080fd5b506103836119a3565b6040518080602001828103825283818151815260200191508051906020019080838360005b838110156103c35780820151818401526020810190506103a8565b50505050905090810190601f1680156103f05780820380516001836020036101000a031916815260200191505b509250505060405180910390f35b34801561040a57600080fd5b5061042960048036038101908080359060200190929190505050611a41565b604051808273ffffffffffffffffffffffffffffffffffffffff1673ffffffffffffffffffffffffffffffffffffffff16815260200191505060405180910390f35b34801561047757600080fd5b506104d6600480360381019080803573ffffffffffffffffffffffffffffffffffffffff169060200190929190803573ffffffffffffffffffffffffffffffffffffffff16906020019092919080359060200190929190505050611a74565b005b3480156104e457600080fd5b50610523600480360381019080803573ffffffffffffffffffffffffffffffffffffffff16906020019092919080359060200190929190505050611c78565b005b34801561053157600080fd5b5061055060048036038101908080359060200190929190505050611e4a565b604051808273ffffffffffffffffffffffffffffffffffffffff1673ffffffffffffffffffffffffffffffffffffffff16815260200191505060405180910390f35b34801561059e57600080fd5b506105a7611e7d565b604051808215151515815260200191505060405180910390f35b3480156105cd57600080fd5b506105d6611e86565b6040518082815260200191505060405180910390f35b3480156105f857600080fd5b5061062d600480360381019080803573ffffffffffffffffffffffffffffffffffffffff169060200190929190505050611e90565b005b34801561063b57600080fd5b506106b360048036038101908080359060200190820180359060200190808060200260200160405190810160405280939291908181526020018383602002808284378201915050505050509192919290803573ffffffffffffffffffffffffffffffffffffffff169060200190929190505050611f2f565b6040518082815260200191505060405180910390f35b3480156106d557600080fd5b50610734600480360381019080803573ffffffffffffffffffffffffffffffffffffffff169060200190929190803573ffffffffffffffffffffffffffffffffffffffff169060200190929190803590602001909291905050506122e5565b005b34801561074257600080fd5b50610761600480360381019080803590602001909291905050506124f5565b6040518085815260200184815260200183815260200182815260200194505050505060405180910390f35b34801561079857600080fd5b506107d7600480360381019080803573ffffffffffffffffffffffffffffffffffffffff16906020019092919080359060200190929190505050612596565b6040518082815260200191505060405180910390f35b3480156107f957600080fd5b506108026125f7565b005b34801561081057600080fd5b5061082f6004803603810190808035906020019092919050505061264b565b6040518088815260200187815260200180602001868152602001806020018573ffffffffffffffffffffffffffffffffffffffff1673ffffffffffffffffffffffffffffffffffffffff16815260200180602001848103845289818151815260200191508051906020019060200280838360005b838110156108be5780820151818401526020810190506108a3565b50505050905001848103835287818151815260200191508051906020019080838360005b838110156108fd5780820151818401526020810190506108e2565b50505050905090810190601f16801561092a5780820380516001836020036101000a031916815260200191505b50848103825285818151815260200191508051906020019080838360005b83811015610963578082015181840152602081019050610948565b50505050905090810190601f1680156109905780820380516001836020036101000a031916815260200191505b509a505050505050505050505060405180910390f35b3480156109b257600080fd5b506109db60048036038101908080359060200190929190803590602001909291905050506128eb565b60405180826000191660001916815260200191505060405180910390f35b348015610a0557600080fd5b50610a0e612982565b6040518082815260200191505060405180910390f35b348015610a3057600080fd5b50610a4f6004803603810190808035906020019092919050505061298f565b60405180878152602001868152602001858152602001806020018473ffffffffffffffffffffffffffffffffffffffff1673ffffffffffffffffffffffffffffffffffffffff16815260200180602001838103835286818151815260200191508051906020019080838360005b83811015610ad7578082015181840152602081019050610abc565b50505050905090810190601f168015610b045780820380516001836020036101000a031916815260200191505b50838103825284818151815260200191508051906020019080838360005b83811015610b3d578082015181840152602081019050610b22565b50505050905090810190601f168015610b6a5780820380516001836020036101000a031916815260200191505b509850505050505050505060405180910390f35b348015610b8a57600080fd5b50610ba960048036038101908080359060200190929190505050612b1b565b604051808273ffffffffffffffffffffffffffffffffffffffff1673ffffffffffffffffffffffffffffffffffffffff16815260200191505060405180910390f35b348015610bf757600080fd5b50610c2c600480360381019080803573ffffffffffffffffffffffffffffffffffffffff169060200190929190505050612b58565b6040518082815260200191505060405180910390f35b348015610c4e57600080fd5b50610c8d600480360381019080803573ffffffffffffffffffffffffffffffffffffffff16906020019092919080359060200190929190505050612ba4565b6040518082815260200191505060405180910390f35b348015610caf57600080fd5b50610cb8612bd4565b604051808273ffffffffffffffffffffffffffffffffffffffff1673ffffffffffffffffffffffffffffffffffffffff16815260200191505060405180910390f35b348015610d0657600080fd5b50610d0f612bf9565b6040518080602001828103825283818151815260200191508051906020019080838360005b83811015610d4f578082015181840152602081019050610d34565b50505050905090810190601f168015610d7c5780820380516001836020036101000a031916815260200191505b509250505060405180910390f35b348015610d9657600080fd5b50610dbf6004803603810190808035906020019092919080359060200190929190505050612c97565b6040518082815260200191505060405180910390f35b348015610de157600080fd5b50610e16600480360381019080803573ffffffffffffffffffffffffffffffffffffffff169060200190929190505050612cc3565b005b348015610e2457600080fd5b50610e90600480360381019080803590602001909291908035906020019092919080359060200190820180359060200190808060200260200160405190810160405280939291908181526020018383602002808284378201915050505050509192919290505050612d62565b60405180806020018060200180602001848103845287818151815260200191508051906020019060200280838360005b83811015610edb578082015181840152602081019050610ec0565b50505050905001848103835286818151815260200191508051906020019060200280838360005b83811015610f1d578082015181840152602081019050610f02565b50505050905001848103825285818151815260200191508051906020019060200280838360005b83811015610f5f578082015181840152602081019050610f44565b50505050905001965050505050505060405180910390f35b348015610f8357600080fd5b50610fc2600480360381019080803573ffffffffffffffffffffffffffffffffffffffff16906020019092919080359060200190929190505050612fe1565b005b348015610fd057600080fd5b50610fef60048036038101908080359060200190929190505050613188565b60405180826000191660001916815260200191505060405180910390f35b34801561101957600080fd5b5061107b60048036038101908080359060200190820180359060200190808060200260200160405190810160405280939291908181526020018383602002808284378201915050505050509192919290803590602001909291905050506131ab565b6040518082815260200191505060405180910390f35b34801561109d57600080fd5b506110bc6004803603810190808035906020019092919050505061347e565b6040518080602001828103825283818151815260200191508051906020019080838360005b838110156110fc5780820151818401526020810190506110e1565b50505050905090810190601f1680156111295780820380516001836020036101000a031916815260200191505b509250505060405180910390f35b34801561114357600080fd5b506111626004803603810190808035906020019092919050505061352e565b60405180826000191660001916815260200191505060405180910390f35b34801561118c57600080fd5b5061119561353b565b6040518082815260200191505060405180910390f35b3480156111b757600080fd5b5061120f6004803603810190808035906020019082018035906020019080806020026020016040519081016040528093929190818152602001838360200280828437820191505050505050919291929050505061354b565b6040518080602001828103825283818151815260200191508051906020019060200280838360005b83811015611252578082015181840152602081019050611237565b505050509050019250505060405180910390f35b34801561127257600080fd5b5061127b6136e9565b604051808273ffffffffffffffffffffffffffffffffffffffff1673ffffffffffffffffffffffffffffffffffffffff16815260200191505060405180910390f35b3480156112c957600080fd5b506112d261370f565b6040518082815260200191505060405180910390f35b3480156112f457600080fd5b50611329600480360381019080803573ffffffffffffffffffffffffffffffffffffffff169060200190929190505050613715565b6040518080602001828103825283818151815260200191508051906020019060200280838360005b8381101561136c578082015181840152602081019050611351565b505050509050019250505060405180910390f35b34801561138c57600080fd5b506113c1600480360381019080803573ffffffffffffffffffffffffffffffffffffffff1690602001909291905050506137ac565b005b6000806000606060006060600080600060058c51111515156113e457600080fd5b6113ee8f8f6131ab565b97506113fa888e6128eb565b600190049650600015156009600089815260200190815260200160002060009054906101000a900460ff16151514151561143357600080fd5b61143e888e8e612d62565b90505080965050339450600d60009054906101000a900473ffffffffffffffffffffffffffffffffffffffff1673ffffffffffffffffffffffffffffffffffffffff16638f3bed06876040518263ffffffff167c01000000000000000000000000000000000000000000000000000000000281526004018080602001828103825283818151815260200191508051906020019060200280838360005b838110156114f55780820151818401526020810190506114da565b5050505090500192505050600060405180830381600087803b15801561151a57600080fd5b505af115801561152e573d6000803e3d6000fd5b505050506040513d6000823e3d601f19601f82011682018060405250602081101561155857600080fd5b81019080805164010000000081111561157057600080fd5b8281019050602081018481111561158657600080fd5b81518560208202830111640100000000821117156115a357600080fd5b505092919050505093506115b78486611f2f565b92508234101515156115c857600080fd5b600091505b83518210156117fb5760001515600d60009054906101000a900473ffffffffffffffffffffffffffffffffffffffff1673ffffffffffffffffffffffffffffffffffffffff1663ca774c8887878681518110151561162757fe5b906020019060200201516040518363ffffffff167c0100000000000000000000000000000000000000000000000000000000028152600401808373ffffffffffffffffffffffffffffffffffffffff1673ffffffffffffffffffffffffffffffffffffffff16815260200182815260200192505050602060405180830381600087803b1580156116b657600080fd5b505af11580156116ca573d6000803e3d6000fd5b505050506040513d60208110156116e057600080fd5b8101908080519060200190929190505050151514156117ee57600d60009054906101000a900473ffffffffffffffffffffffffffffffffffffffff1673ffffffffffffffffffffffffffffffffffffffff1663225c76c333868581518110151561174657fe5b906020019060200201516040518363ffffffff167c0100000000000000000000000000000000000000000000000000000000028152600401808373ffffffffffffffffffffffffffffffffffffffff1673ffffffffffffffffffffffffffffffffffffffff16815260200182815260200192505050600060405180830381600087803b1580156117d557600080fd5b505af11580156117e9573d6000803e3d6000fd5b505050505b81806001019250506115cd565b61180485613901565b905060e0604051908101604052808981526020018e81526020018d81526020018f81526020018c81526020018673ffffffffffffffffffffffffffffffffffffffff1681526020018b815250600a600083815260200190815260200160002060008201518160000155602082015181600101556040820151816002019080519060200190611893929190613dbf565b506060820151816003015560808201518160040190805190602001906118ba929190613e12565b5060a08201518160050160006101000a81548173ffffffffffffffffffffffffffffffffffffffff021916908373ffffffffffffffffffffffffffffffffffffffff16021790555060c082015181600601908051906020019061191e929190613e12565b5090505089600b60008381526020019081526020016000209080519060200190611949929190613e92565b5060016009600089815260200190815260200160002060006101000a81548160ff02191690831515021790555080985050505050505050509695505050505050565b60046020528060005260406000206000915090505481565b60058054600181600116156101000203166002900480601f016020809104026020016040519081016040528092919081815260200182805460018160011615610100020316600290048015611a395780601f10611a0e57610100808354040283529160200191611a39565b820191906000526020600020905b815481529060010190602001808311611a1c57829003601f168201915b505050505081565b60016020528060005260406000206000915054906101000a900473ffffffffffffffffffffffffffffffffffffffff1681565b600c60009054906101000a900473ffffffffffffffffffffffffffffffffffffffff1673ffffffffffffffffffffffffffffffffffffffff163373ffffffffffffffffffffffffffffffffffffffff16141515611ad057600080fd5b60006001600083815260200190815260200160002060009054906101000a900473ffffffffffffffffffffffffffffffffffffffff1673ffffffffffffffffffffffffffffffffffffffff1614151515611b2957600080fd5b8273ffffffffffffffffffffffffffffffffffffffff16611b4982612b1b565b73ffffffffffffffffffffffffffffffffffffffff16141515611b6b57600080fd5b60006002600083815260200190815260200160002060006101000a81548173ffffffffffffffffffffffffffffffffffffffff021916908373ffffffffffffffffffffffffffffffffffffffff160217905550611bc88382613a80565b611bd28282613c66565b8060008473ffffffffffffffffffffffffffffffffffffffff167f8c5be1e5ebec7d5bd14f71427d1e84f3dd0314c0f7b2291e5b200ac8c7c3b92560405160405180910390a4808273ffffffffffffffffffffffffffffffffffffffff168473ffffffffffffffffffffffffffffffffffffffff167fddf252ad1be2c89b69c2b068fc378daa952ba7f163c4a11628f55a4df523b3ef60405160405180910390a4505050565b60006001600083815260200190815260200160002060009054906101000a900473ffffffffffffffffffffffffffffffffffffffff1673ffffffffffffffffffffffffffffffffffffffff1614151515611cd157600080fd5b3373ffffffffffffffffffffffffffffffffffffffff16611cf182612b1b565b73ffffffffffffffffffffffffffffffffffffffff16141515611d1357600080fd5b3373ffffffffffffffffffffffffffffffffffffffff168273ffffffffffffffffffffffffffffffffffffffff1614151515611d4e57600080fd5b6000611d5982613d82565b73ffffffffffffffffffffffffffffffffffffffff16141580611d93575060008273ffffffffffffffffffffffffffffffffffffffff1614155b15611e4657816002600083815260200190815260200160002060006101000a81548173ffffffffffffffffffffffffffffffffffffffff021916908373ffffffffffffffffffffffffffffffffffffffff160217905550808273ffffffffffffffffffffffffffffffffffffffff163373ffffffffffffffffffffffffffffffffffffffff167f8c5be1e5ebec7d5bd14f71427d1e84f3dd0314c0f7b2291e5b200ac8c7c3b92560405160405180910390a45b5050565b60026020528060005260406000206000915054906101000a900473ffffffffffffffffffffffffffffffffffffffff1681565b60006001905090565b6000600754905090565b6000809054906101000a900473ffffffffffffffffffffffffffffffffffffffff1673ffffffffffffffffffffffffffffffffffffffff163373ffffffffffffffffffffffffffffffffffffffff16141515611eeb57600080fd5b80600c60006101000a81548173ffffffffffffffffffffffffffffffffffffffff021916908373ffffffffffffffffffffffffffffffffffffffff16021790555050565b60006060600080600086511415611f4957600093506122dc565b600d60009054906101000a900473ffffffffffffffffffffffffffffffffffffffff1673ffffffffffffffffffffffffffffffffffffffff16638f3bed06876040518263ffffffff167c01000000000000000000000000000000000000000000000000000000000281526004018080602001828103825283818151815260200191508051906020019060200280838360005b83811015611ff6578082015181840152602081019050611fdb565b5050505090500192505050600060405180830381600087803b15801561201b57600080fd5b505af115801561202f573d6000803e3d6000fd5b505050506040513d6000823e3d601f19601f82011682018060405250602081101561205957600080fd5b81019080805164010000000081111561207157600080fd5b8281019050602081018481111561208757600080fd5b81518560208202830111640100000000821117156120a457600080fd5b5050929190505050925060009150600090505b82518110156122d85760001515600d60009054906101000a900473ffffffffffffffffffffffffffffffffffffffff1673ffffffffffffffffffffffffffffffffffffffff1663ca774c8887868581518110151561211157fe5b906020019060200201516040518363ffffffff167c0100000000000000000000000000000000000000000000000000000000028152600401808373ffffffffffffffffffffffffffffffffffffffff1673ffffffffffffffffffffffffffffffffffffffff16815260200182815260200192505050602060405180830381600087803b1580156121a057600080fd5b505af11580156121b4573d6000803e3d6000fd5b505050506040513d60208110156121ca57600080fd5b8101908080519060200190929190505050151514156122cb57600d60009054906101000a900473ffffffffffffffffffffffffffffffffffffffff1673ffffffffffffffffffffffffffffffffffffffff16638c96a2c9848381518110151561222f57fe5b906020019060200201516040518263ffffffff167c010000000000000000000000000000000000000000000000000000000002815260040180828152602001915050602060405180830381600087803b15801561228b57600080fd5b505af115801561229f573d6000803e3d6000fd5b505050506040513d60208110156122b557600080fd5b8101908080519060200190929190505050820191505b80806001019150506120b7565b8193505b50505092915050565b60006001600083815260200190815260200160002060009054906101000a900473ffffffffffffffffffffffffffffffffffffffff1673ffffffffffffffffffffffffffffffffffffffff161415151561233e57600080fd5b3373ffffffffffffffffffffffffffffffffffffffff1661235e82613d82565b73ffffffffffffffffffffffffffffffffffffffff1614151561238057600080fd5b8273ffffffffffffffffffffffffffffffffffffffff166123a082612b1b565b73ffffffffffffffffffffffffffffffffffffffff161415156123c257600080fd5b60008273ffffffffffffffffffffffffffffffffffffffff16141515156123e857600080fd5b60006002600083815260200190815260200160002060006101000a81548173ffffffffffffffffffffffffffffffffffffffff021916908373ffffffffffffffffffffffffffffffffffffffff1602179055506124458382613a80565b61244f8282613c66565b8060008473ffffffffffffffffffffffffffffffffffffffff167f8c5be1e5ebec7d5bd14f71427d1e84f3dd0314c0f7b2291e5b200ac8c7c3b92560405160405180910390a4808273ffffffffffffffffffffffffffffffffffffffff168473ffffffffffffffffffffffffffffffffffffffff167fddf252ad1be2c89b69c2b068fc378daa952ba7f163c4a11628f55a4df523b3ef60405160405180910390a4505050565b6000806000806000806000806000808a1415151561251257600080fd5b8994506127108581151561252257fe5b069450600060028681151561253357fe5b06141561257e576109928581151561254757fe5b069350610dac8581151561255757fe5b06925061032060c88681151561256957fe5b060191506101688581151561257a57fe5b0690505b83838383985098509850985050505050509193509193565b6000600360008473ffffffffffffffffffffffffffffffffffffffff1673ffffffffffffffffffffffffffffffffffffffff168152602001908152602001600020828154811015156125e457fe5b9060005260206000200154905092915050565b60006064430390505b43811015612648576008814090806001815401808255809150509060018203906000526020600020016000909192909190915090600019169055508080600101915050612600565b50565b60008060606000606060006060612660613f12565b6007548910151561267057600080fd5b600a60008a815260200190815260200160002060e060405190810160405290816000820154815260200160018201548152602001600282018054806020026020016040519081016040528092919081815260200182805480156126f657602002820191906000526020600020905b815460001916815260200190600101908083116126de575b5050505050815260200160038201548152602001600482018054600181600116156101000203166002900480601f0160208091040260200160405190810160405280929190818152602001828054600181600116156101000203166002900480156127a25780601f10612777576101008083540402835291602001916127a2565b820191906000526020600020905b81548152906001019060200180831161278557829003601f168201915b505050505081526020016005820160009054906101000a900473ffffffffffffffffffffffffffffffffffffffff1673ffffffffffffffffffffffffffffffffffffffff1673ffffffffffffffffffffffffffffffffffffffff168152602001600682018054600181600116156101000203166002900480601f01602080910402602001604051908101604052809291908181526020018280546001816001161561010002031660029004801561289a5780601f1061286f5761010080835404028352916020019161289a565b820191906000526020600020905b81548152906001019060200180831161287d57829003601f168201915b5050505050815250509050806000015181602001518260400151836060015184608001518560a001518660c00151849450829250809050975097509750975097509750975050919395979092949650565b60008060008085141515156128ff57600080fd5b6000841415151561290f57600080fd5b8460010291508484604051808381526020018281526020019250505060405180910390209150600090505b838110156129775781816040518083600019166000191681526020018281526020019250505060405180910390209150808060010191505061293a565b819250505092915050565b6000600880549050905090565b600a602052806000526040600020600091509050806000015490806001015490806003015490806004018054600181600116156101000203166002900480601f016020809104026020016040519081016040528092919081815260200182805460018160011615610100020316600290048015612a4d5780601f10612a2257610100808354040283529160200191612a4d565b820191906000526020600020905b815481529060010190602001808311612a3057829003601f168201915b5050505050908060050160009054906101000a900473ffffffffffffffffffffffffffffffffffffffff1690806006018054600181600116156101000203166002900480601f016020809104026020016040519081016040528092919081815260200182805460018160011615610100020316600290048015612b115780601f10612ae657610100808354040283529160200191612b11565b820191906000526020600020905b815481529060010190602001808311612af457829003601f168201915b5050505050905086565b60006001600083815260200190815260200160002060009054906101000a900473ffffffffffffffffffffffffffffffffffffffff169050919050565b6000600360008373ffffffffffffffffffffffffffffffffffffffff1673ffffffffffffffffffffffffffffffffffffffff168152602001908152602001600020805490509050919050565b600360205281600052604060002081815481101515612bbf57fe5b90600052602060002001600091509150505481565b6000809054906101000a900473ffffffffffffffffffffffffffffffffffffffff1681565b60068054600181600116156101000203166002900480601f016020809104026020016040519081016040528092919081815260200182805460018160011615610100020316600290048015612c8f5780601f10612c6457610100808354040283529160200191612c8f565b820191906000526020600020905b815481529060010190602001808311612c7257829003601f168201915b505050505081565b600081836040518083815260200182815260200192505050604051809103902060019004905092915050565b6000809054906101000a900473ffffffffffffffffffffffffffffffffffffffff1673ffffffffffffffffffffffffffffffffffffffff163373ffffffffffffffffffffffffffffffffffffffff16141515612d1e57600080fd5b80600d60006101000a81548173ffffffffffffffffffffffffffffffffffffffff021916908373ffffffffffffffffffffffffffffffffffffffff16021790555050565b606080606080606080606060008060606000808d14151515612d8357600080fd5b60008e14151515612d9357600080fd5b60008c51111515612da357600080fd5b612dad8e8e6128eb565b600190049d50612dbc8c61354b565b97508751604051908082528060200260200182016040528015612dee5781602001602082028038833980820191505090505b5096508751604051908082528060200260200182016040528015612e215781602001602082028038833980820191505090505b5095508751604051908082528060200260200182016040528015612e545781602001602082028038833980820191505090505b50945060009350600092505b8751831015612f47578d8884815181101515612e7857fe5b9060200190602002015160405180838152602001828152602001925050506040518091039020600190049d50600060028f811515612eb257fe5b061415612f3a578783815181101515612ec757fe5b906020019060200201518785815181101515612edf57fe5b9060200190602002018181525050612ef68e6124f5565b9050508786815181101515612f0757fe5b9060200190602002018787815181101515612f1e57fe5b9060200190602002018281525082815250505083806001019450505b8280600101935050612e60565b83604051908082528060200260200182016040528015612f765781602001602082028038833980820191505090505b509150600090505b83811015612fc7578681815181101515612f9457fe5b906020019060200201518282815181101515612fac57fe5b90602001906020020181815250508080600101915050612f7e565b8186869a509a509a50505050505050505093509350939050565b60006001600083815260200190815260200160002060009054906101000a900473ffffffffffffffffffffffffffffffffffffffff1673ffffffffffffffffffffffffffffffffffffffff161415151561303a57600080fd5b3373ffffffffffffffffffffffffffffffffffffffff1661305a82612b1b565b73ffffffffffffffffffffffffffffffffffffffff1614151561307c57600080fd5b60006002600083815260200190815260200160002060006101000a81548173ffffffffffffffffffffffffffffffffffffffff021916908373ffffffffffffffffffffffffffffffffffffffff1602179055506130d93382613a80565b6130e38282613c66565b8060003373ffffffffffffffffffffffffffffffffffffffff167f8c5be1e5ebec7d5bd14f71427d1e84f3dd0314c0f7b2291e5b200ac8c7c3b92560405160405180910390a4808273ffffffffffffffffffffffffffffffffffffffff163373ffffffffffffffffffffffffffffffffffffffff167fddf252ad1be2c89b69c2b068fc378daa952ba7f163c4a11628f55a4df523b3ef60405160405180910390a45050565b600060088281548110151561319957fe5b90600052602060002001549050919050565b600080600083141515156131be57600080fd5b600a84511415156131ce57600080fd5b60088460008151811015156131df57fe5b906020019060200201518154811015156131f557fe5b9060005260206000200154600885600181518110151561321157fe5b9060200190602002015181548110151561322757fe5b9060005260206000200154600886600281518110151561324357fe5b9060200190602002015181548110151561325957fe5b9060005260206000200154600887600381518110151561327557fe5b9060200190602002015181548110151561328b57fe5b906000526020600020015460088860048151811015156132a757fe5b906020019060200201518154811015156132bd57fe5b906000526020600020015460088960058151811015156132d957fe5b906020019060200201518154811015156132ef57fe5b906000526020600020015460088a600681518110151561330b57fe5b9060200190602002015181548110151561332157fe5b906000526020600020015460088b600781518110151561333d57fe5b9060200190602002015181548110151561335357fe5b906000526020600020015460088c600881518110151561336f57fe5b9060200190602002015181548110151561338557fe5b906000526020600020015460088d60098151811015156133a157fe5b906020019060200201518154811015156133b757fe5b90600052602060002001548c604051808c600019166000191681526020018b600019166000191681526020018a6000191660001916815260200189600019166000191681526020018860001916600019168152602001876000191660001916815260200186600019166000191681526020018560001916600019168152602001846000191660001916815260200183600019166000191681526020018281526020019b50505050505050505050505060405180910390209050806001900491505092915050565b600b6020528060005260406000206000915090508054600181600116156101000203166002900480601f0160208091040260200160405190810160405280929190818152602001828054600181600116156101000203166002900480156135265780601f106134fb57610100808354040283529160200191613526565b820191906000526020600020905b81548152906001019060200180831161350957829003601f168201915b505050505081565b6000816001029050919050565b600061354633613901565b905090565b606080600080600080600080600060606000808c5111151561356c57600080fd5b600a8c510260405190808252806020026020018201604052801561359f5781602001602082028038833980820191505090505b50995060009850600097505b8b51881015613657578b888151811015156135c257fe5b906020019060200201519550859650600094505b600a85101561364a5760026018860260029060020a028115156135f557fe5b0493508362ffffff8502881681151561360a57fe5b04925060008314151561363d57828a8a81518110151561362657fe5b906020019060200201818152505088806001019950505b84806001019550506135d6565b87806001019850506135ab565b886040519080825280602002602001820160405280156136865781602001602082028038833980820191505090505b509150600090505b888110156136d75789818151811015156136a457fe5b9060200190602002015182828151811015156136bc57fe5b9060200190602002018181525050808060010191505061368e565b819a5050505050505050505050919050565b600c60009054906101000a900473ffffffffffffffffffffffffffffffffffffffff1681565b60075481565b6060600360008373ffffffffffffffffffffffffffffffffffffffff1673ffffffffffffffffffffffffffffffffffffffff1681526020019081526020016000208054806020026020016040519081016040528092919081815260200182805480156137a057602002820191906000526020600020905b81548152602001906001019080831161378c575b50505050509050919050565b6000809054906101000a900473ffffffffffffffffffffffffffffffffffffffff1673ffffffffffffffffffffffffffffffffffffffff163373ffffffffffffffffffffffffffffffffffffffff1614151561380757600080fd5b600073ffffffffffffffffffffffffffffffffffffffff168173ffffffffffffffffffffffffffffffffffffffff161415151561384357600080fd5b8073ffffffffffffffffffffffffffffffffffffffff166000809054906101000a900473ffffffffffffffffffffffffffffffffffffffff1673ffffffffffffffffffffffffffffffffffffffff167f8be0079c531659141344cd1fd0a4f28419497f9722a3daafe3b4186f6b6457e060405160405180910390a3806000806101000a81548173ffffffffffffffffffffffffffffffffffffffff021916908373ffffffffffffffffffffffffffffffffffffffff16021790555050565b6000806007549050826001600083815260200190815260200160002060006101000a81548173ffffffffffffffffffffffffffffffffffffffff021916908373ffffffffffffffffffffffffffffffffffffffff160217905550600360008473ffffffffffffffffffffffffffffffffffffffff1673ffffffffffffffffffffffffffffffffffffffff1681526020019081526020016000208190806001815401808255809150509060018203906000526020600020016000909192909190915055506001600360008573ffffffffffffffffffffffffffffffffffffffff1673ffffffffffffffffffffffffffffffffffffffff16815260200190815260200160002080549050036004600083815260200190815260200160002081905550600760008154809291906001019190505550808373ffffffffffffffffffffffffffffffffffffffff167f0f6798a560793a54c3bcfe86a93cde1e73087d944c0ea20544137d412139688560405160405180910390a380915050919050565b6000806000600360008673ffffffffffffffffffffffffffffffffffffffff1673ffffffffffffffffffffffffffffffffffffffff16815260200190815260200160002080549050925060046000858152602001908152602001600020549150600360008673ffffffffffffffffffffffffffffffffffffffff1673ffffffffffffffffffffffffffffffffffffffff16815260200190815260200160002060018403815481101515613b2f57fe5b9060005260206000200154905080600360008773ffffffffffffffffffffffffffffffffffffffff1673ffffffffffffffffffffffffffffffffffffffff16815260200190815260200160002083815481101515613b8957fe5b9060005260206000200181905550816004600083815260200190815260200160002081905550600360008673ffffffffffffffffffffffffffffffffffffffff1673ffffffffffffffffffffffffffffffffffffffff16815260200190815260200160002060018403815481101515613bfe57fe5b9060005260206000200160009055600360008673ffffffffffffffffffffffffffffffffffffffff1673ffffffffffffffffffffffffffffffffffffffff168152602001908152602001600020805480919060019003613c5e9190613f66565b505050505050565b816001600083815260200190815260200160002060006101000a81548173ffffffffffffffffffffffffffffffffffffffff021916908373ffffffffffffffffffffffffffffffffffffffff160217905550600360008373ffffffffffffffffffffffffffffffffffffffff1673ffffffffffffffffffffffffffffffffffffffff1681526020019081526020016000208190806001815401808255809150509060018203906000526020600020016000909192909190915055506001600360008473ffffffffffffffffffffffffffffffffffffffff1673ffffffffffffffffffffffffffffffffffffffff168152602001908152602001600020805490500360046000838152602001908152602001600020819055505050565b60006002600083815260200190815260200160002060009054906101000a900473ffffffffffffffffffffffffffffffffffffffff169050919050565b828054828255906000526020600020908101928215613e01579160200282015b82811115613e00578251829060001916905591602001919060010190613ddf565b5b509050613e0e9190613f92565b5090565b828054600181600116156101000203166002900490600052602060002090601f016020900481019282601f10613e5357805160ff1916838001178555613e81565b82800160010185558215613e81579182015b82811115613e80578251825591602001919060010190613e65565b5b509050613e8e9190613fb7565b5090565b828054600181600116156101000203166002900490600052602060002090601f016020900481019282601f10613ed357805160ff1916838001178555613f01565b82800160010185558215613f01579182015b82811115613f00578251825591602001919060010190613ee5565b5b509050613f0e9190613fb7565b5090565b60e0604051908101604052806000815260200160008152602001606081526020016000815260200160608152602001600073ffffffffffffffffffffffffffffffffffffffff168152602001606081525090565b815481835581811115613f8d57818360005260206000209182019101613f8c9190613fb7565b5b505050565b613fb491905b80821115613fb0576000816000905550600101613f98565b5090565b90565b613fd991905b80821115613fd5576000816000905550600101613fbd565b5090565b905600a165627a7a72305820b2dc4d5ed84ff5de72080a0fb5513b00905cee475832dc591a19d7619550e5250029",
  "source": "pragma solidity ^0.4.23;\n\nimport \"./ImageToken.sol\";\nimport \"../Utils/Functions.sol\";\nimport \"../IAssetManager.sol\";\n\n\ncontract DigitalPrintImage is ImageToken, Functions {\n\n    struct ImageMetadata {\n        uint randomSeed;\n        uint iterations;\n        bytes32[] potentialAssets;\n        uint timestamp;\n        string author;\n        address owner;\n        string ipfsHash;\n    }\n\n\n    mapping(uint => bool) seedExists;\n    mapping(uint => ImageMetadata) public imageMetadata;\n    mapping(uint => string) public idToIpfsHash;\n\n    address public marketplaceContract;\n    IAssetManager assetManager;\n\n\n    modifier onlyMarketplaceContract() {\n        require(msg.sender == address(marketplaceContract));\n        _;\n    }\n\n    function createImageTest() public returns(uint) {\n        return createImage(msg.sender);\n    }\n\n    /// @notice Function will create new image\n    /// @dev owner of image will be msg.sender, and timestamp will be automatically generated, timestamp will be automatically generated\n    /// @dev _txHash and _timestamp together with keccak256 will give us randomSeed for user\n    /// @param _randomHashIds is array of random hashes from our array\n    /// @param _timestamp is timestamp when image is created\n    /// @param _iterations is number of how many times he generated random asset positions until he liked what he got\n    /// @param _potentialAssets is set of all potential assets user selected for an image\n    /// @param _author is nickname of image owner\n    /// @param _ipfsHash is ipfsHash of the image .png\n    /// @return returns id of created image\n    function createImage(uint[] _randomHashIds, uint _timestamp, uint _iterations, bytes32[]  _potentialAssets, string _author, string _ipfsHash) public payable returns (uint) {\n        require(_potentialAssets.length <= 5);\n\n        uint randomSeed = calculateSeed(_randomHashIds, _timestamp);\n        uint finalSeed = uint(getFinalSeed(randomSeed, _iterations));\n\n        require(seedExists[finalSeed] == false);\n\n        uint[] memory pickedAssets;\n\n        (pickedAssets,,) = pickRandomAssets(randomSeed,_iterations, _potentialAssets);\n        address _owner = msg.sender;\n\n        uint[] memory pickedAssetPacks = assetManager.pickUniquePacks(pickedAssets);\n\n        uint finalPrice = calculatePrice(pickedAssetPacks, _owner);\n        require(msg.value >= finalPrice);\n\n        for(uint i=0; i<pickedAssetPacks.length ;i++) {\n            if(assetManager.checkHasPermissionForPack(_owner, pickedAssetPacks[i]) == false){\n                assetManager.givePermission(msg.sender, pickedAssetPacks[i]);\n            }\n        }\n\n        uint id = createImage(_owner);\n\n        imageMetadata[id] = ImageMetadata({\n            randomSeed: randomSeed,\n            iterations: _iterations,\n            potentialAssets: _potentialAssets,\n            timestamp: _timestamp,\n            author: _author,\n            owner: _owner,\n            ipfsHash: _ipfsHash\n        });\n\n        idToIpfsHash[id] = _ipfsHash;\n        seedExists[finalSeed] = true;\n        return id;\n    }\n\n    /// @notice Function to calculate final price for an image based on selected assets\n    /// @param _pickedAssets is array of picked packs\n    /// @param _owner is address of image owner\n    /// @return finalPrice for the image\n    function calculatePrice(uint[] _pickedAssets, address _owner) public view returns (uint) {\n        if(_pickedAssets.length == 0) {\n            return 0;\n        }\n\n        uint[] memory pickedAssetPacks = assetManager.pickUniquePacks(_pickedAssets);\n        uint finalPrice = 0;\n        for(uint i=0; i<pickedAssetPacks.length; i++) {\n            if(assetManager.checkHasPermissionForPack(_owner, pickedAssetPacks[i]) == false) {\n                finalPrice += assetManager.getAssetPackPrice(pickedAssetPacks[i]);\n            }\n        }\n\n        return finalPrice;\n    }\n\n\n\n    function getImageMetadata(uint _imageId) public view returns(uint, uint, bytes32[], uint, string, address, string) {\n        require(_imageId < numOfImages);\n\n        ImageMetadata memory metadata = imageMetadata[_imageId];\n\n        return(metadata.randomSeed, metadata.iterations, metadata.potentialAssets, metadata.timestamp, metadata.author, metadata.owner, metadata.ipfsHash);\n\n    }\n\n\n\n    /// @notice adds marketplace address to contract only if it doesn't already exist\n    /// @param _marketplaceContract address of marketplace contract\n    function addMarketplaceContract(address _marketplaceContract) public onlyOwner {\n        // not required while on testnet\n        // @dev require(address(marketplaceContract) == 0x0);\n        marketplaceContract = _marketplaceContract;\n    }\n\n\n    /// @notice approving image to be taken from specific address\n    /// @param _to address that we give permission to take image\n    /// @param _imageId we are willing to give\n    function transferFromMarketplace(address _from, address _to, uint256 _imageId) public onlyMarketplaceContract {\n        require(tokensForOwner[_imageId] != 0x0);\n        require(ownerOf(_imageId) == _from);\n\n        tokensForApproved[_imageId] = 0x0;\n        removeImage(_from, _imageId);\n        addImage(_to, _imageId);\n\n        emit Approval(_from, 0, _imageId);\n        emit Transfer(_from, _to, _imageId);\n    }\n\n\n    /// @notice Function to add assetManager\n    /// @dev during testing can be changed, after deployment to main network can be set only once\n    /// @param _assetManager is address of assetManager contract\n    function addAssetManager(address _assetManager) public onlyOwner {\n        assetManager = IAssetManager(_assetManager);\n    }\n\n}",
  "sourcePath": "/Users/nikolaklipa/Decenter/Cryptographics/contracts/Image/DigitalPrintImage.sol",
  "compiler": {
    "name": "solc",
    "version": "0.4.24+commit.e67f0147.Emscripten.clang"
  },
  "schemaVersion": "2.0.1",
  "updatedAt": "2018-07-11T08:14:57.265Z"
}