{
  "contractName": "DigitalPrintImage",
  "abi": [
    {
      "constant": true,
      "inputs": [
        {
          "name": "",
          "type": "uint256"
        }
      ],
      "name": "tokenPosInArr",
      "outputs": [
        {
          "name": "",
          "type": "uint256"
        }
      ],
      "payable": false,
      "stateMutability": "view",
      "type": "function"
    },
    {
      "constant": true,
      "inputs": [],
      "name": "name",
      "outputs": [
        {
          "name": "",
          "type": "string"
        }
      ],
      "payable": false,
      "stateMutability": "view",
      "type": "function"
    },
    {
      "constant": true,
      "inputs": [
        {
          "name": "",
          "type": "uint256"
        }
      ],
      "name": "tokensForOwner",
      "outputs": [
        {
          "name": "",
          "type": "address"
        }
      ],
      "payable": false,
      "stateMutability": "view",
      "type": "function"
    },
    {
      "constant": false,
      "inputs": [
        {
          "name": "_to",
          "type": "address"
        },
        {
          "name": "_imageId",
          "type": "uint256"
        }
      ],
      "name": "approve",
      "outputs": [],
      "payable": false,
      "stateMutability": "nonpayable",
      "type": "function"
    },
    {
      "constant": true,
      "inputs": [
        {
          "name": "",
          "type": "uint256"
        }
      ],
      "name": "tokensForApproved",
      "outputs": [
        {
          "name": "",
          "type": "address"
        }
      ],
      "payable": false,
      "stateMutability": "view",
      "type": "function"
    },
    {
      "constant": true,
      "inputs": [],
      "name": "implementsERC721",
      "outputs": [
        {
          "name": "",
          "type": "bool"
        }
      ],
      "payable": false,
      "stateMutability": "pure",
      "type": "function"
    },
    {
      "constant": true,
      "inputs": [],
      "name": "totalSupply",
      "outputs": [
        {
          "name": "",
          "type": "uint256"
        }
      ],
      "payable": false,
      "stateMutability": "view",
      "type": "function"
    },
    {
      "constant": false,
      "inputs": [
        {
          "name": "_from",
          "type": "address"
        },
        {
          "name": "_to",
          "type": "address"
        },
        {
          "name": "_imageId",
          "type": "uint256"
        }
      ],
      "name": "transferFrom",
      "outputs": [],
      "payable": false,
      "stateMutability": "nonpayable",
      "type": "function"
    },
    {
      "constant": true,
      "inputs": [
        {
          "name": "_random_seed",
          "type": "uint256"
        }
      ],
      "name": "pickRandomAssetPosition",
      "outputs": [
        {
          "name": "",
          "type": "uint256"
        },
        {
          "name": "",
          "type": "uint256"
        },
        {
          "name": "",
          "type": "uint256"
        },
        {
          "name": "",
          "type": "uint256"
        }
      ],
      "payable": false,
      "stateMutability": "pure",
      "type": "function"
    },
    {
      "constant": true,
      "inputs": [
        {
          "name": "_owner",
          "type": "address"
        },
        {
          "name": "_index",
          "type": "uint256"
        }
      ],
      "name": "tokenOfOwnerByIndex",
      "outputs": [
        {
          "name": "",
          "type": "uint256"
        }
      ],
      "payable": false,
      "stateMutability": "view",
      "type": "function"
    },
    {
      "constant": false,
      "inputs": [],
      "name": "fillWithHashes",
      "outputs": [],
      "payable": false,
      "stateMutability": "nonpayable",
      "type": "function"
    },
    {
      "constant": true,
      "inputs": [
        {
          "name": "_random_seed",
          "type": "uint256"
        },
        {
          "name": "_iterations",
          "type": "uint256"
        }
      ],
      "name": "getFinalSeed",
      "outputs": [
        {
          "name": "",
          "type": "bytes32"
        }
      ],
      "payable": false,
      "stateMutability": "pure",
      "type": "function"
    },
    {
      "constant": true,
      "inputs": [],
      "name": "getLen",
      "outputs": [
        {
          "name": "",
          "type": "uint256"
        }
      ],
      "payable": false,
      "stateMutability": "view",
      "type": "function"
    },
    {
      "constant": false,
      "inputs": [
        {
          "name": "_hashToProfilePicture",
          "type": "bytes32"
        }
      ],
      "name": "changeProfilePicture",
      "outputs": [],
      "payable": false,
      "stateMutability": "nonpayable",
      "type": "function"
    },
    {
      "constant": true,
      "inputs": [
        {
          "name": "",
          "type": "uint256"
        }
      ],
      "name": "imageMetadata",
      "outputs": [
        {
          "name": "finalSeed",
          "type": "uint256"
        },
        {
          "name": "timestamp",
          "type": "uint256"
        },
        {
          "name": "creator",
          "type": "address"
        },
        {
          "name": "ipfsHash",
          "type": "string"
        }
      ],
      "payable": false,
      "stateMutability": "view",
      "type": "function"
    },
    {
      "constant": true,
      "inputs": [
        {
          "name": "_imageId",
          "type": "uint256"
        }
      ],
      "name": "ownerOf",
      "outputs": [
        {
          "name": "",
          "type": "address"
        }
      ],
      "payable": false,
      "stateMutability": "view",
      "type": "function"
    },
    {
      "constant": true,
      "inputs": [
        {
          "name": "_address",
          "type": "address"
        }
      ],
      "name": "getUserInfo",
      "outputs": [
        {
          "name": "",
          "type": "string"
        },
        {
          "name": "",
          "type": "bytes32"
        }
      ],
      "payable": false,
      "stateMutability": "view",
      "type": "function"
    },
    {
      "constant": false,
      "inputs": [
        {
          "name": "_username",
          "type": "string"
        },
        {
          "name": "_hashToProfilePicture",
          "type": "bytes32"
        }
      ],
      "name": "register",
      "outputs": [],
      "payable": false,
      "stateMutability": "nonpayable",
      "type": "function"
    },
    {
      "constant": true,
      "inputs": [
        {
          "name": "_owner",
          "type": "address"
        }
      ],
      "name": "balanceOf",
      "outputs": [
        {
          "name": "balance",
          "type": "uint256"
        }
      ],
      "payable": false,
      "stateMutability": "view",
      "type": "function"
    },
    {
      "constant": true,
      "inputs": [
        {
          "name": "",
          "type": "address"
        },
        {
          "name": "",
          "type": "uint256"
        }
      ],
      "name": "tokensOwned",
      "outputs": [
        {
          "name": "",
          "type": "uint256"
        }
      ],
      "payable": false,
      "stateMutability": "view",
      "type": "function"
    },
    {
      "constant": true,
      "inputs": [],
      "name": "owner",
      "outputs": [
        {
          "name": "",
          "type": "address"
        }
      ],
      "payable": false,
      "stateMutability": "view",
      "type": "function"
    },
    {
      "constant": true,
      "inputs": [],
      "name": "symbol",
      "outputs": [
        {
          "name": "",
          "type": "string"
        }
      ],
      "payable": false,
      "stateMutability": "view",
      "type": "function"
    },
    {
      "constant": true,
      "inputs": [
        {
          "name": "assetId",
          "type": "uint256"
        },
        {
          "name": "random_seed",
          "type": "uint256"
        }
      ],
      "name": "getSeed",
      "outputs": [
        {
          "name": "",
          "type": "uint256"
        }
      ],
      "payable": false,
      "stateMutability": "pure",
      "type": "function"
    },
    {
      "constant": false,
      "inputs": [
        {
          "name": "_to",
          "type": "address"
        },
        {
          "name": "_imageId",
          "type": "uint256"
        }
      ],
      "name": "transfer",
      "outputs": [],
      "payable": false,
      "stateMutability": "nonpayable",
      "type": "function"
    },
    {
      "constant": true,
      "inputs": [
        {
          "name": "_index",
          "type": "uint256"
        }
      ],
      "name": "getRandomHash",
      "outputs": [
        {
          "name": "",
          "type": "bytes32"
        }
      ],
      "payable": false,
      "stateMutability": "view",
      "type": "function"
    },
    {
      "constant": true,
      "inputs": [
        {
          "name": "_randomHashIds",
          "type": "uint256[]"
        },
        {
          "name": "_timestamp",
          "type": "uint256"
        }
      ],
      "name": "calculateSeed",
      "outputs": [
        {
          "name": "",
          "type": "uint256"
        }
      ],
      "payable": false,
      "stateMutability": "view",
      "type": "function"
    },
    {
      "constant": true,
      "inputs": [
        {
          "name": "",
          "type": "uint256"
        }
      ],
      "name": "idToIpfsHash",
      "outputs": [
        {
          "name": "",
          "type": "string"
        }
      ],
      "payable": false,
      "stateMutability": "view",
      "type": "function"
    },
    {
      "constant": true,
      "inputs": [
        {
          "name": "random_seed",
          "type": "uint256"
        }
      ],
      "name": "toHex",
      "outputs": [
        {
          "name": "",
          "type": "bytes32"
        }
      ],
      "payable": false,
      "stateMutability": "pure",
      "type": "function"
    },
    {
      "constant": true,
      "inputs": [
        {
          "name": "_potentialAssets",
          "type": "bytes32[]"
        }
      ],
      "name": "decodeAssets",
      "outputs": [
        {
          "name": "",
          "type": "uint256[]"
        }
      ],
      "payable": false,
      "stateMutability": "pure",
      "type": "function"
    },
    {
      "constant": true,
      "inputs": [],
      "name": "marketplaceContract",
      "outputs": [
        {
          "name": "",
          "type": "address"
        }
      ],
      "payable": false,
      "stateMutability": "view",
      "type": "function"
    },
    {
      "constant": true,
      "inputs": [],
      "name": "numOfImages",
      "outputs": [
        {
          "name": "",
          "type": "uint256"
        }
      ],
      "payable": false,
      "stateMutability": "view",
      "type": "function"
    },
    {
      "constant": true,
      "inputs": [
        {
          "name": "_owner",
          "type": "address"
        }
      ],
      "name": "getUserImages",
      "outputs": [
        {
          "name": "",
          "type": "uint256[]"
        }
      ],
      "payable": false,
      "stateMutability": "view",
      "type": "function"
    },
    {
      "constant": true,
      "inputs": [
        {
          "name": "_finalSeed",
          "type": "uint256"
        },
        {
          "name": "_potentialAssets",
          "type": "bytes32[]"
        }
      ],
      "name": "pickRandomAssets",
      "outputs": [
        {
          "name": "finalPicked",
          "type": "uint256[]"
        },
        {
          "name": "x",
          "type": "uint256[]"
        },
        {
          "name": "y",
          "type": "uint256[]"
        },
        {
          "name": "zoom",
          "type": "uint256[]"
        },
        {
          "name": "rotation",
          "type": "uint256[]"
        }
      ],
      "payable": false,
      "stateMutability": "pure",
      "type": "function"
    },
    {
      "constant": false,
      "inputs": [
        {
          "name": "newOwner",
          "type": "address"
        }
      ],
      "name": "transferOwnership",
      "outputs": [],
      "payable": false,
      "stateMutability": "nonpayable",
      "type": "function"
    },
    {
      "anonymous": false,
      "inputs": [
        {
          "indexed": true,
          "name": "from",
          "type": "address"
        },
        {
          "indexed": true,
          "name": "to",
          "type": "address"
        },
        {
          "indexed": true,
          "name": "tokenId",
          "type": "uint256"
        }
      ],
      "name": "Transfer",
      "type": "event"
    },
    {
      "anonymous": false,
      "inputs": [
        {
          "indexed": true,
          "name": "owner",
          "type": "address"
        },
        {
          "indexed": true,
          "name": "approved",
          "type": "address"
        },
        {
          "indexed": true,
          "name": "tokenId",
          "type": "uint256"
        }
      ],
      "name": "Approval",
      "type": "event"
    },
    {
      "anonymous": false,
      "inputs": [
        {
          "indexed": true,
          "name": "_to",
          "type": "address"
        },
        {
          "indexed": true,
          "name": "_tokenId",
          "type": "uint256"
        }
      ],
      "name": "Mint",
      "type": "event"
    },
    {
      "anonymous": false,
      "inputs": [
        {
          "indexed": true,
          "name": "previousOwner",
          "type": "address"
        },
        {
          "indexed": true,
          "name": "newOwner",
          "type": "address"
        }
      ],
      "name": "OwnershipTransferred",
      "type": "event"
    },
    {
      "constant": false,
      "inputs": [
        {
          "name": "_randomHashIds",
          "type": "uint256[]"
        },
        {
          "name": "_timestamp",
          "type": "uint256"
        },
        {
          "name": "_iterations",
          "type": "uint256"
        },
        {
          "name": "_potentialAssets",
          "type": "bytes32[]"
        },
        {
          "name": "_author",
          "type": "string"
        },
        {
          "name": "_ipfsHash",
          "type": "string"
        }
      ],
      "name": "createImage",
      "outputs": [
        {
          "name": "",
          "type": "uint256"
        }
      ],
      "payable": true,
      "stateMutability": "payable",
      "type": "function"
    },
    {
      "constant": true,
      "inputs": [
        {
          "name": "_pickedAssets",
          "type": "uint256[]"
        },
        {
          "name": "_owner",
          "type": "address"
        }
      ],
      "name": "calculatePrice",
      "outputs": [
        {
          "name": "",
          "type": "uint256"
        }
      ],
      "payable": false,
      "stateMutability": "view",
      "type": "function"
    },
    {
      "constant": true,
      "inputs": [
        {
          "name": "_imageId",
          "type": "uint256"
        }
      ],
      "name": "getImageMetadata",
      "outputs": [
        {
          "name": "",
          "type": "uint256"
        },
        {
          "name": "",
          "type": "bytes32[]"
        },
        {
          "name": "",
          "type": "uint256"
        },
        {
          "name": "",
          "type": "string"
        },
        {
          "name": "",
          "type": "address"
        },
        {
          "name": "",
          "type": "string"
        }
      ],
      "payable": false,
      "stateMutability": "view",
      "type": "function"
    },
    {
      "constant": false,
      "inputs": [
        {
          "name": "_marketplaceContract",
          "type": "address"
        }
      ],
      "name": "addMarketplaceContract",
      "outputs": [],
      "payable": false,
      "stateMutability": "nonpayable",
      "type": "function"
    },
    {
      "constant": false,
      "inputs": [
        {
          "name": "_from",
          "type": "address"
        },
        {
          "name": "_to",
          "type": "address"
        },
        {
          "name": "_imageId",
          "type": "uint256"
        }
      ],
      "name": "transferFromMarketplace",
      "outputs": [],
      "payable": false,
      "stateMutability": "nonpayable",
      "type": "function"
    },
    {
      "constant": false,
      "inputs": [
        {
          "name": "_assetManager",
          "type": "address"
        }
      ],
      "name": "addAssetManager",
      "outputs": [],
      "payable": false,
      "stateMutability": "nonpayable",
      "type": "function"
    }
  ],
  "bytecode": "0x6080604052336000806101000a81548173ffffffffffffffffffffffffffffffffffffffff021916908373ffffffffffffffffffffffffffffffffffffffff1602179055506040805190810160405280600a81526020017f496d616765546f6b656e000000000000000000000000000000000000000000008152506005908051906020019062000091929190620000ee565b506040805190810160405280600381526020017f494d54000000000000000000000000000000000000000000000000000000000081525060069080519060200190620000df929190620000ee565b5060006007819055506200019d565b828054600181600116156101000203166002900490600052602060002090601f016020900481019282601f106200013157805160ff191683800117855562000162565b8280016001018555821562000162579182015b828111156200016157825182559160200191906001019062000144565b5b50905062000171919062000175565b5090565b6200019a91905b80821115620001965760008160009055506001016200017c565b5090565b90565b614a9780620001ad6000396000f3006080604052600436106101ee576000357c0100000000000000000000000000000000000000000000000000000000900463ffffffff168063040e9576146101f3578063056cf1d91461034357806306fdde031461038457806308a6c05a1461041457806308adf7b114610481578063095ea7b3146104ee5780630de66a7d1461053b5780631051db34146105a857806318160ddd146105d75780631e14d823146106025780632041518d1461064557806323b872dd146106df578063298a423c1461074c5780632f745c59146107a2578063390b8482146108035780633bbb11a11461081a578063469506bf146109b55780634a90be5714610a085780634ea8b6d014610a3357806355d8d13514610a645780636352211e14610b4b5780636386c1c714610bb8578063656afdee14610c8357806370a0823114610cfa578063853b5bb314610d515780638da5cb5b14610db257806395d89b4114610e0957806396e6031114610e99578063987ea89914610ee4578063a9059cbb14610f27578063ab6ca6dc14610f74578063b52c1d5b14610fbd578063bb2daa7314611041578063bf1792b3146110e7578063c933405114611130578063d1bb5cf1146111eb578063e75e700514611242578063eb6bbd781461126d578063ee007a5414611305578063f2fde38b146114ea575b600080fd5b61032d60048036038101908080359060200190820180359060200190808060200260200160405190810160405280939291908181526020018383602002808284378201915050505050509192919290803590602001909291908035906020019092919080359060200190820180359060200190808060200260200160405190810160405280939291908181526020018383602002808284378201915050505050509192919290803590602001908201803590602001908080601f0160208091040260200160405190810160405280939291908181526020018383808284378201915050505050509192919290803590602001908201803590602001908080601f016020809104026020016040519081016040528093929190818152602001838380828437820191505050505050919291929050505061152d565b6040518082815260200191505060405180910390f35b34801561034f57600080fd5b5061036e60048036038101908080359060200190929190505050611cb2565b6040518082815260200191505060405180910390f35b34801561039057600080fd5b50610399611cca565b6040518080602001828103825283818151815260200191508051906020019080838360005b838110156103d95780820151818401526020810190506103be565b50505050905090810190601f1680156104065780820380516001836020036101000a031916815260200191505b509250505060405180910390f35b34801561042057600080fd5b5061043f60048036038101908080359060200190929190505050611d68565b604051808273ffffffffffffffffffffffffffffffffffffffff1673ffffffffffffffffffffffffffffffffffffffff16815260200191505060405180910390f35b34801561048d57600080fd5b506104ec600480360381019080803573ffffffffffffffffffffffffffffffffffffffff169060200190929190803573ffffffffffffffffffffffffffffffffffffffff16906020019092919080359060200190929190505050611d9b565b005b3480156104fa57600080fd5b50610539600480360381019080803573ffffffffffffffffffffffffffffffffffffffff16906020019092919080359060200190929190505050611f9f565b005b34801561054757600080fd5b5061056660048036038101908080359060200190929190505050612171565b604051808273ffffffffffffffffffffffffffffffffffffffff1673ffffffffffffffffffffffffffffffffffffffff16815260200191505060405180910390f35b3480156105b457600080fd5b506105bd6121a4565b604051808215151515815260200191505060405180910390f35b3480156105e357600080fd5b506105ec6121ad565b6040518082815260200191505060405180910390f35b34801561060e57600080fd5b50610643600480360381019080803573ffffffffffffffffffffffffffffffffffffffff1690602001909291905050506121b7565b005b34801561065157600080fd5b506106c960048036038101908080359060200190820180359060200190808060200260200160405190810160405280939291908181526020018383602002808284378201915050505050509192919290803573ffffffffffffffffffffffffffffffffffffffff169060200190929190505050612256565b6040518082815260200191505060405180910390f35b3480156106eb57600080fd5b5061074a600480360381019080803573ffffffffffffffffffffffffffffffffffffffff169060200190929190803573ffffffffffffffffffffffffffffffffffffffff1690602001909291908035906020019092919050505061260c565b005b34801561075857600080fd5b506107776004803603810190808035906020019092919050505061281c565b6040518085815260200184815260200183815260200182815260200194505050505060405180910390f35b3480156107ae57600080fd5b506107ed600480360381019080803573ffffffffffffffffffffffffffffffffffffffff169060200190929190803590602001909291905050506128bd565b6040518082815260200191505060405180910390f35b34801561080f57600080fd5b5061081861291e565b005b34801561082657600080fd5b5061084560048036038101908080359060200190929190505050612972565b6040518087815260200180602001868152602001806020018573ffffffffffffffffffffffffffffffffffffffff1673ffffffffffffffffffffffffffffffffffffffff16815260200180602001848103845289818151815260200191508051906020019060200280838360005b838110156108ce5780820151818401526020810190506108b3565b50505050905001848103835287818151815260200191508051906020019080838360005b8381101561090d5780820151818401526020810190506108f2565b50505050905090810190601f16801561093a5780820380516001836020036101000a031916815260200191505b50848103825285818151815260200191508051906020019080838360005b83811015610973578082015181840152602081019050610958565b50505050905090810190601f1680156109a05780820380516001836020036101000a031916815260200191505b50995050505050505050505060405180910390f35b3480156109c157600080fd5b506109ea6004803603810190808035906020019092919080359060200190929190505050612c3a565b60405180826000191660001916815260200191505060405180910390f35b348015610a1457600080fd5b50610a1d612da9565b6040518082815260200191505060405180910390f35b348015610a3f57600080fd5b50610a626004803603810190808035600019169060200190929190505050612db6565b005b348015610a7057600080fd5b50610a8f60048036038101908080359060200190929190505050612ec8565b604051808581526020018481526020018373ffffffffffffffffffffffffffffffffffffffff1673ffffffffffffffffffffffffffffffffffffffff16815260200180602001828103825283818151815260200191508051906020019080838360005b83811015610b0d578082015181840152602081019050610af2565b50505050905090810190601f168015610b3a5780820380516001836020036101000a031916815260200191505b509550505050505060405180910390f35b348015610b5757600080fd5b50610b7660048036038101908080359060200190929190505050612fb0565b604051808273ffffffffffffffffffffffffffffffffffffffff1673ffffffffffffffffffffffffffffffffffffffff16815260200191505060405180910390f35b348015610bc457600080fd5b50610bf9600480360381019080803573ffffffffffffffffffffffffffffffffffffffff169060200190929190505050612fed565b60405180806020018360001916600019168152602001828103825284818151815260200191508051906020019080838360005b83811015610c47578082015181840152602081019050610c2c565b50505050905090810190601f168015610c745780820380516001836020036101000a031916815260200191505b50935050505060405180910390f35b348015610c8f57600080fd5b50610cf8600480360381019080803590602001908201803590602001908080601f0160208091040260200160405190810160405280939291908181526020018383808284378201915050505050509192919290803560001916906020019092919050505061312c565b005b348015610d0657600080fd5b50610d3b600480360381019080803573ffffffffffffffffffffffffffffffffffffffff16906020019092919050505061341c565b6040518082815260200191505060405180910390f35b348015610d5d57600080fd5b50610d9c600480360381019080803573ffffffffffffffffffffffffffffffffffffffff16906020019092919080359060200190929190505050613468565b6040518082815260200191505060405180910390f35b348015610dbe57600080fd5b50610dc7613498565b604051808273ffffffffffffffffffffffffffffffffffffffff1673ffffffffffffffffffffffffffffffffffffffff16815260200191505060405180910390f35b348015610e1557600080fd5b50610e1e6134bd565b6040518080602001828103825283818151815260200191508051906020019080838360005b83811015610e5e578082015181840152602081019050610e43565b50505050905090810190601f168015610e8b5780820380516001836020036101000a031916815260200191505b509250505060405180910390f35b348015610ea557600080fd5b50610ece600480360381019080803590602001909291908035906020019092919050505061355b565b6040518082815260200191505060405180910390f35b348015610ef057600080fd5b50610f25600480360381019080803573ffffffffffffffffffffffffffffffffffffffff1690602001909291905050506135f3565b005b348015610f3357600080fd5b50610f72600480360381019080803573ffffffffffffffffffffffffffffffffffffffff16906020019092919080359060200190929190505050613692565b005b348015610f8057600080fd5b50610f9f60048036038101908080359060200190929190505050613839565b60405180826000191660001916815260200191505060405180910390f35b348015610fc957600080fd5b5061102b600480360381019080803590602001908201803590602001908080602002602001604051908101604052809392919081815260200183836020028082843782019150505050505091929192908035906020019092919050505061385c565b6040518082815260200191505060405180910390f35b34801561104d57600080fd5b5061106c60048036038101908080359060200190929190505050613b9b565b6040518080602001828103825283818151815260200191508051906020019080838360005b838110156110ac578082015181840152602081019050611091565b50505050905090810190601f1680156110d95780820380516001836020036101000a031916815260200191505b509250505060405180910390f35b3480156110f357600080fd5b5061111260048036038101908080359060200190929190505050613c4b565b60405180826000191660001916815260200191505060405180910390f35b34801561113c57600080fd5b5061119460048036038101908080359060200190820180359060200190808060200260200160405190810160405280939291908181526020018383602002808284378201915050505050509192919290505050613c58565b6040518080602001828103825283818151815260200191508051906020019060200280838360005b838110156111d75780820151818401526020810190506111bc565b505050509050019250505060405180910390f35b3480156111f757600080fd5b50611200613df4565b604051808273ffffffffffffffffffffffffffffffffffffffff1673ffffffffffffffffffffffffffffffffffffffff16815260200191505060405180910390f35b34801561124e57600080fd5b50611257613e1a565b6040518082815260200191505060405180910390f35b34801561127957600080fd5b506112ae600480360381019080803573ffffffffffffffffffffffffffffffffffffffff169060200190929190505050613e20565b6040518080602001828103825283818151815260200191508051906020019060200280838360005b838110156112f15780820151818401526020810190506112d6565b505050509050019250505060405180910390f35b34801561131157600080fd5b506113736004803603810190808035906020019092919080359060200190820180359060200190808060200260200160405190810160405280939291908181526020018383602002808284378201915050505050509192919290505050613eb7565b60405180806020018060200180602001806020018060200186810386528b818151815260200191508051906020019060200280838360005b838110156113c65780820151818401526020810190506113ab565b5050505090500186810385528a818151815260200191508051906020019060200280838360005b838110156114085780820151818401526020810190506113ed565b50505050905001868103845289818151815260200191508051906020019060200280838360005b8381101561144a57808201518184015260208101905061142f565b50505050905001868103835288818151815260200191508051906020019060200280838360005b8381101561148c578082015181840152602081019050611471565b50505050905001868103825287818151815260200191508051906020019060200280838360005b838110156114ce5780820151818401526020810190506114b3565b505050509050019a505050505050505050505060405180910390f35b3480156114f657600080fd5b5061152b600480360381019080803573ffffffffffffffffffffffffffffffffffffffff169060200190929190505050614222565b005b600080606060006060600080600060058b511115151561154c57600080fd5b600c8a6040518082805190602001908083835b602083101515611584578051825260208201915060208101905060208303925061155f565b6001836020036101000a038019825116818451168082178552505050505050905001915050908152602001604051809103902060009054906101000a900473ffffffffffffffffffffffffffffffffffffffff1673ffffffffffffffffffffffffffffffffffffffff163373ffffffffffffffffffffffffffffffffffffffff1614806116875750600a8a6040518082805190602001908083835b602083101515611644578051825260208201915060208101905060208303925061161f565b6001836020036101000a038019825116818451168082178552505050505050905001915050908152602001604051809103902060009054906101000a900460ff16155b151561169257600080fd5b600a8a6040518082805190602001908083835b6020831015156116ca57805182526020820191506020810190506020830392506116a5565b6001836020036101000a038019825116818451168082178552505050505050905001915050908152602001604051809103902060009054906101000a900460ff16151561173c5761173b8a7f307830000000000000000000000000000000000000000000000000000000000061312c565b5b61174f6117498f8f61385c565b8d612c3a565b60019004965060001515600e600089815260200190815260200160002060009054906101000a900460ff16151514151561178857600080fd5b611792878c613eb7565b9091925090915090505080965050339450601260009054906101000a900473ffffffffffffffffffffffffffffffffffffffff1673ffffffffffffffffffffffffffffffffffffffff16638f3bed06876040518263ffffffff167c01000000000000000000000000000000000000000000000000000000000281526004018080602001828103825283818151815260200191508051906020019060200280838360005b83811015611850578082015181840152602081019050611835565b5050505090500192505050600060405180830381600087803b15801561187557600080fd5b505af1158015611889573d6000803e3d6000fd5b505050506040513d6000823e3d601f19601f8201168201806040525060208110156118b357600080fd5b8101908080516401000000008111156118cb57600080fd5b828101905060208101848111156118e157600080fd5b81518560208202830111640100000000821117156118fe57600080fd5b505092919050505093506119128486612256565b925082341015151561192357600080fd5b600091505b8351821015611b565760001515601260009054906101000a900473ffffffffffffffffffffffffffffffffffffffff1673ffffffffffffffffffffffffffffffffffffffff1663ca774c8887878681518110151561198257fe5b906020019060200201516040518363ffffffff167c0100000000000000000000000000000000000000000000000000000000028152600401808373ffffffffffffffffffffffffffffffffffffffff1673ffffffffffffffffffffffffffffffffffffffff16815260200182815260200192505050602060405180830381600087803b158015611a1157600080fd5b505af1158015611a25573d6000803e3d6000fd5b505050506040513d6020811015611a3b57600080fd5b810190808051906020019092919050505015151415611b4957601260009054906101000a900473ffffffffffffffffffffffffffffffffffffffff1673ffffffffffffffffffffffffffffffffffffffff1663225c76c3338685815181101515611aa157fe5b906020019060200201516040518363ffffffff167c0100000000000000000000000000000000000000000000000000000000028152600401808373ffffffffffffffffffffffffffffffffffffffff1673ffffffffffffffffffffffffffffffffffffffff16815260200182815260200192505050600060405180830381600087803b158015611b3057600080fd5b505af1158015611b44573d6000803e3d6000fd5b505050505b8180600101925050611928565b611b5f85614377565b905060a0604051908101604052808881526020018c81526020018e81526020018673ffffffffffffffffffffffffffffffffffffffff1681526020018a815250600f6000838152602001908152602001600020600082015181600001556020820151816001019080519060200190611bd8929190614835565b506040820151816002015560608201518160030160006101000a81548173ffffffffffffffffffffffffffffffffffffffff021916908373ffffffffffffffffffffffffffffffffffffffff1602179055506080820151816004019080519060200190611c46929190614888565b5090505088601060008381526020019081526020016000209080519060200190611c71929190614908565b506001600e600089815260200190815260200160002060006101000a81548160ff021916908315150217905550809750505050505050509695505050505050565b60046020528060005260406000206000915090505481565b60058054600181600116156101000203166002900480601f016020809104026020016040519081016040528092919081815260200182805460018160011615610100020316600290048015611d605780601f10611d3557610100808354040283529160200191611d60565b820191906000526020600020905b815481529060010190602001808311611d4357829003601f168201915b505050505081565b60016020528060005260406000206000915054906101000a900473ffffffffffffffffffffffffffffffffffffffff1681565b601160009054906101000a900473ffffffffffffffffffffffffffffffffffffffff1673ffffffffffffffffffffffffffffffffffffffff163373ffffffffffffffffffffffffffffffffffffffff16141515611df757600080fd5b60006001600083815260200190815260200160002060009054906101000a900473ffffffffffffffffffffffffffffffffffffffff1673ffffffffffffffffffffffffffffffffffffffff1614151515611e5057600080fd5b8273ffffffffffffffffffffffffffffffffffffffff16611e7082612fb0565b73ffffffffffffffffffffffffffffffffffffffff16141515611e9257600080fd5b60006002600083815260200190815260200160002060006101000a81548173ffffffffffffffffffffffffffffffffffffffff021916908373ffffffffffffffffffffffffffffffffffffffff160217905550611eef83826144f6565b611ef982826146dc565b8060008473ffffffffffffffffffffffffffffffffffffffff167f8c5be1e5ebec7d5bd14f71427d1e84f3dd0314c0f7b2291e5b200ac8c7c3b92560405160405180910390a4808273ffffffffffffffffffffffffffffffffffffffff168473ffffffffffffffffffffffffffffffffffffffff167fddf252ad1be2c89b69c2b068fc378daa952ba7f163c4a11628f55a4df523b3ef60405160405180910390a4505050565b60006001600083815260200190815260200160002060009054906101000a900473ffffffffffffffffffffffffffffffffffffffff1673ffffffffffffffffffffffffffffffffffffffff1614151515611ff857600080fd5b3373ffffffffffffffffffffffffffffffffffffffff1661201882612fb0565b73ffffffffffffffffffffffffffffffffffffffff1614151561203a57600080fd5b3373ffffffffffffffffffffffffffffffffffffffff168273ffffffffffffffffffffffffffffffffffffffff161415151561207557600080fd5b6000612080826147f8565b73ffffffffffffffffffffffffffffffffffffffff161415806120ba575060008273ffffffffffffffffffffffffffffffffffffffff1614155b1561216d57816002600083815260200190815260200160002060006101000a81548173ffffffffffffffffffffffffffffffffffffffff021916908373ffffffffffffffffffffffffffffffffffffffff160217905550808273ffffffffffffffffffffffffffffffffffffffff163373ffffffffffffffffffffffffffffffffffffffff167f8c5be1e5ebec7d5bd14f71427d1e84f3dd0314c0f7b2291e5b200ac8c7c3b92560405160405180910390a45b5050565b60026020528060005260406000206000915054906101000a900473ffffffffffffffffffffffffffffffffffffffff1681565b60006001905090565b6000600754905090565b6000809054906101000a900473ffffffffffffffffffffffffffffffffffffffff1673ffffffffffffffffffffffffffffffffffffffff163373ffffffffffffffffffffffffffffffffffffffff1614151561221257600080fd5b80601160006101000a81548173ffffffffffffffffffffffffffffffffffffffff021916908373ffffffffffffffffffffffffffffffffffffffff16021790555050565b600060606000806000865114156122705760009350612603565b601260009054906101000a900473ffffffffffffffffffffffffffffffffffffffff1673ffffffffffffffffffffffffffffffffffffffff16638f3bed06876040518263ffffffff167c01000000000000000000000000000000000000000000000000000000000281526004018080602001828103825283818151815260200191508051906020019060200280838360005b8381101561231d578082015181840152602081019050612302565b5050505090500192505050600060405180830381600087803b15801561234257600080fd5b505af1158015612356573d6000803e3d6000fd5b505050506040513d6000823e3d601f19601f82011682018060405250602081101561238057600080fd5b81019080805164010000000081111561239857600080fd5b828101905060208101848111156123ae57600080fd5b81518560208202830111640100000000821117156123cb57600080fd5b5050929190505050925060009150600090505b82518110156125ff5760001515601260009054906101000a900473ffffffffffffffffffffffffffffffffffffffff1673ffffffffffffffffffffffffffffffffffffffff1663ca774c8887868581518110151561243857fe5b906020019060200201516040518363ffffffff167c0100000000000000000000000000000000000000000000000000000000028152600401808373ffffffffffffffffffffffffffffffffffffffff1673ffffffffffffffffffffffffffffffffffffffff16815260200182815260200192505050602060405180830381600087803b1580156124c757600080fd5b505af11580156124db573d6000803e3d6000fd5b505050506040513d60208110156124f157600080fd5b8101908080519060200190929190505050151514156125f257601260009054906101000a900473ffffffffffffffffffffffffffffffffffffffff1673ffffffffffffffffffffffffffffffffffffffff16638c96a2c9848381518110151561255657fe5b906020019060200201516040518263ffffffff167c010000000000000000000000000000000000000000000000000000000002815260040180828152602001915050602060405180830381600087803b1580156125b257600080fd5b505af11580156125c6573d6000803e3d6000fd5b505050506040513d60208110156125dc57600080fd5b8101908080519060200190929190505050820191505b80806001019150506123de565b8193505b50505092915050565b60006001600083815260200190815260200160002060009054906101000a900473ffffffffffffffffffffffffffffffffffffffff1673ffffffffffffffffffffffffffffffffffffffff161415151561266557600080fd5b3373ffffffffffffffffffffffffffffffffffffffff16612685826147f8565b73ffffffffffffffffffffffffffffffffffffffff161415156126a757600080fd5b8273ffffffffffffffffffffffffffffffffffffffff166126c782612fb0565b73ffffffffffffffffffffffffffffffffffffffff161415156126e957600080fd5b60008273ffffffffffffffffffffffffffffffffffffffff161415151561270f57600080fd5b60006002600083815260200190815260200160002060006101000a81548173ffffffffffffffffffffffffffffffffffffffff021916908373ffffffffffffffffffffffffffffffffffffffff16021790555061276c83826144f6565b61277682826146dc565b8060008473ffffffffffffffffffffffffffffffffffffffff167f8c5be1e5ebec7d5bd14f71427d1e84f3dd0314c0f7b2291e5b200ac8c7c3b92560405160405180910390a4808273ffffffffffffffffffffffffffffffffffffffff168473ffffffffffffffffffffffffffffffffffffffff167fddf252ad1be2c89b69c2b068fc378daa952ba7f163c4a11628f55a4df523b3ef60405160405180910390a4505050565b6000806000806000806000806000808a1415151561283957600080fd5b8994506127108581151561284957fe5b069450600060028681151561285a57fe5b0614156128a5576109928581151561286e57fe5b069350610dac8581151561287e57fe5b06925061032060c88681151561289057fe5b06019150610168858115156128a157fe5b0690505b83838383985098509850985050505050509193509193565b6000600360008473ffffffffffffffffffffffffffffffffffffffff1673ffffffffffffffffffffffffffffffffffffffff1681526020019081526020016000208281548110151561290b57fe5b9060005260206000200154905092915050565b60006064430390505b4381101561296f576008814090806001815401808255809150509060018203906000526020600020016000909192909190915090600019169055508080600101915050612927565b50565b600060606000606060006060612986614988565b6007548810151561299657600080fd5b600f600089815260200190815260200160002060a060405190810160405290816000820154815260200160018201805480602002602001604051908101604052809291908181526020018280548015612a1257602002820191906000526020600020905b815460001916815260200190600101908083116129fa575b50505050508152602001600282015481526020016003820160009054906101000a900473ffffffffffffffffffffffffffffffffffffffff1673ffffffffffffffffffffffffffffffffffffffff1673ffffffffffffffffffffffffffffffffffffffff168152602001600482018054600181600116156101000203166002900480601f016020809104026020016040519081016040528092919081815260200182805460018160011615610100020316600290048015612b145780601f10612ae957610100808354040283529160200191612b14565b820191906000526020600020905b815481529060010190602001808311612af757829003601f168201915b5050505050815250509050806000015181602001518260400151600d6000856060015173ffffffffffffffffffffffffffffffffffffffff1673ffffffffffffffffffffffffffffffffffffffff168152602001908152602001600020600001612b7d8c612fb0565b8560800151849450828054600181600116156101000203166002900480601f016020809104026020016040519081016040528092919081815260200182805460018160011615610100020316600290048015612c1a5780601f10612bef57610100808354040283529160200191612c1a565b820191906000526020600020905b815481529060010190602001808311612bfd57829003601f168201915b505050505092508090509650965096509650965096505091939550919395565b6000806000808514151515612c4e57600080fd5b60008414151515612c5e57600080fd5b846001029150848460405160200180838152602001828152602001925050506040516020818303038152906040526040518082805190602001908083835b602083101515612cc15780518252602082019150602081019050602083039250612c9c565b6001836020036101000a03801982511681845116808217855250505050505090500191505060405180910390209150600090505b83811015612d9e578181604051602001808360001916600019168152602001828152602001925050506040516020818303038152906040526040518082805190602001908083835b602083101515612d625780518252602082019150602081019050602083039250612d3d565b6001836020036101000a038019825116818451168082178552505050505050905001915050604051809103902091508080600101915050612cf5565b819250505092915050565b6000600880549050905090565b600d60003373ffffffffffffffffffffffffffffffffffffffff1673ffffffffffffffffffffffffffffffffffffffff16815260200190815260200160002060020160009054906101000a900460ff161515612e7a576040517f08c379a00000000000000000000000000000000000000000000000000000000081526004018080602001828103825260138152602001807f5573657220646f65736e2774206578697374730000000000000000000000000081525060200191505060405180910390fd5b80600d60003373ffffffffffffffffffffffffffffffffffffffff1673ffffffffffffffffffffffffffffffffffffffff168152602001908152602001600020600101816000191690555050565b600f6020528060005260406000206000915090508060000154908060020154908060030160009054906101000a900473ffffffffffffffffffffffffffffffffffffffff1690806004018054600181600116156101000203166002900480601f016020809104026020016040519081016040528092919081815260200182805460018160011615610100020316600290048015612fa65780601f10612f7b57610100808354040283529160200191612fa6565b820191906000526020600020905b815481529060010190602001808311612f8957829003601f168201915b5050505050905084565b60006001600083815260200190815260200160002060009054906101000a900473ffffffffffffffffffffffffffffffffffffffff169050919050565b60606000612ff96149ce565b600d60008573ffffffffffffffffffffffffffffffffffffffff1673ffffffffffffffffffffffffffffffffffffffff16815260200190815260200160002060606040519081016040529081600082018054600181600116156101000203166002900480601f0160208091040260200160405190810160405280929190818152602001828054600181600116156101000203166002900480156130dd5780601f106130b2576101008083540402835291602001916130dd565b820191906000526020600020905b8154815290600101906020018083116130c057829003601f168201915b505050505081526020016001820154600019166000191681526020016002820160009054906101000a900460ff1615151515815250509050806000015181602001518191509250925050915091565b60001515600a836040518082805190602001908083835b6020831015156131685780518252602082019150602081019050602083039250613143565b6001836020036101000a038019825116818451168082178552505050505050905001915050908152602001604051809103902060009054906101000a900460ff1615151415156131b757600080fd5b60001515600b6000836000191660001916815260200190815260200160002060009054906101000a900460ff1615151415156131f257600080fd5b6060604051908101604052808381526020018260001916815260200160011515815250600d60003373ffffffffffffffffffffffffffffffffffffffff1673ffffffffffffffffffffffffffffffffffffffff1681526020019081526020016000206000820151816000019080519060200190613270929190614888565b506020820151816001019060001916905560408201518160020160006101000a81548160ff0219169083151502179055509050506001600a836040518082805190602001908083835b6020831015156132de57805182526020820191506020810190506020830392506132b9565b6001836020036101000a038019825116818451168082178552505050505050905001915050908152602001604051809103902060006101000a81548160ff0219169083151502179055506001600b6000836000191660001916815260200190815260200160002060006101000a81548160ff02191690831515021790555033600c836040518082805190602001908083835b6020831015156133955780518252602082019150602081019050602083039250613370565b6001836020036101000a038019825116818451168082178552505050505050905001915050908152602001604051809103902060006101000a81548173ffffffffffffffffffffffffffffffffffffffff021916908373ffffffffffffffffffffffffffffffffffffffff1602179055506009600081548092919060010191905055505050565b6000600360008373ffffffffffffffffffffffffffffffffffffffff1673ffffffffffffffffffffffffffffffffffffffff168152602001908152602001600020805490509050919050565b60036020528160005260406000208181548110151561348357fe5b90600052602060002001600091509150505481565b6000809054906101000a900473ffffffffffffffffffffffffffffffffffffffff1681565b60068054600181600116156101000203166002900480601f0160208091040260200160405190810160405280929190818152602001828054600181600116156101000203166002900480156135535780601f1061352857610100808354040283529160200191613553565b820191906000526020600020905b81548152906001019060200180831161353657829003601f168201915b505050505081565b6000818360405160200180838152602001828152602001925050506040516020818303038152906040526040518082805190602001908083835b6020831015156135ba5780518252602082019150602081019050602083039250613595565b6001836020036101000a038019825116818451168082178552505050505050905001915050604051809103902060019004905092915050565b6000809054906101000a900473ffffffffffffffffffffffffffffffffffffffff1673ffffffffffffffffffffffffffffffffffffffff163373ffffffffffffffffffffffffffffffffffffffff1614151561364e57600080fd5b80601260006101000a81548173ffffffffffffffffffffffffffffffffffffffff021916908373ffffffffffffffffffffffffffffffffffffffff16021790555050565b60006001600083815260200190815260200160002060009054906101000a900473ffffffffffffffffffffffffffffffffffffffff1673ffffffffffffffffffffffffffffffffffffffff16141515156136eb57600080fd5b3373ffffffffffffffffffffffffffffffffffffffff1661370b82612fb0565b73ffffffffffffffffffffffffffffffffffffffff1614151561372d57600080fd5b60006002600083815260200190815260200160002060006101000a81548173ffffffffffffffffffffffffffffffffffffffff021916908373ffffffffffffffffffffffffffffffffffffffff16021790555061378a33826144f6565b61379482826146dc565b8060003373ffffffffffffffffffffffffffffffffffffffff167f8c5be1e5ebec7d5bd14f71427d1e84f3dd0314c0f7b2291e5b200ac8c7c3b92560405160405180910390a4808273ffffffffffffffffffffffffffffffffffffffff163373ffffffffffffffffffffffffffffffffffffffff167fddf252ad1be2c89b69c2b068fc378daa952ba7f163c4a11628f55a4df523b3ef60405160405180910390a45050565b600060088281548110151561384a57fe5b90600052602060002001549050919050565b6000806000831415151561386f57600080fd5b600a845114151561387f57600080fd5b600884600081518110151561389057fe5b906020019060200201518154811015156138a657fe5b906000526020600020015460088560018151811015156138c257fe5b906020019060200201518154811015156138d857fe5b906000526020600020015460088660028151811015156138f457fe5b9060200190602002015181548110151561390a57fe5b9060005260206000200154600887600381518110151561392657fe5b9060200190602002015181548110151561393c57fe5b9060005260206000200154600888600481518110151561395857fe5b9060200190602002015181548110151561396e57fe5b9060005260206000200154600889600581518110151561398a57fe5b906020019060200201518154811015156139a057fe5b906000526020600020015460088a60068151811015156139bc57fe5b906020019060200201518154811015156139d257fe5b906000526020600020015460088b60078151811015156139ee57fe5b90602001906020020151815481101515613a0457fe5b906000526020600020015460088c6008815181101515613a2057fe5b90602001906020020151815481101515613a3657fe5b906000526020600020015460088d6009815181101515613a5257fe5b90602001906020020151815481101515613a6857fe5b90600052602060002001548c604051602001808c600019166000191681526020018b600019166000191681526020018a6000191660001916815260200189600019166000191681526020018860001916600019168152602001876000191660001916815260200186600019166000191681526020018560001916600019168152602001846000191660001916815260200183600019166000191681526020018281526020019b5050505050505050505050506040516020818303038152906040526040518082805190602001908083835b602083101515613b5e5780518252602082019150602081019050602083039250613b39565b6001836020036101000a03801982511681845116808217855250505050505090500191505060405180910390209050806001900491505092915050565b60106020528060005260406000206000915090508054600181600116156101000203166002900480601f016020809104026020016040519081016040528092919081815260200182805460018160011615610100020316600290048015613c435780601f10613c1857610100808354040283529160200191613c43565b820191906000526020600020905b815481529060010190602001808311613c2657829003601f168201915b505050505081565b6000816001029050919050565b6060806000806000806000806000606060008b51111515613c7857600080fd5b600a8b5102604051908082528060200260200182016040528015613cab5781602001602082028038833980820191505090505b50985060009750600096505b8a51871015613d63578a87815181101515613cce57fe5b906020019060200201519450849550600093505b600a841015613d565760026018850260029060020a02811515613d0157fe5b0492508262ffffff84028716811515613d1657fe5b049150600082141515613d4957818989815181101515613d3257fe5b906020019060200201818152505087806001019850505b8380600101945050613ce2565b8680600101975050613cb7565b87604051908082528060200260200182016040528015613d925781602001602082028038833980820191505090505b509050600093505b87841015613de3578884815181101515613db057fe5b906020019060200201518185815181101515613dc857fe5b90602001906020020181815250508380600101945050613d9a565b809950505050505050505050919050565b601160009054906101000a900473ffffffffffffffffffffffffffffffffffffffff1681565b60075481565b6060600360008373ffffffffffffffffffffffffffffffffffffffff1673ffffffffffffffffffffffffffffffffffffffff168152602001908152602001600020805480602002602001604051908101604052809291908181526020018280548015613eab57602002820191906000526020600020905b815481526020019060010190808311613e97575b50505050509050919050565b60608060608060608060606000806000808c14151515613ed657600080fd5b60008b51111515613ee657600080fd5b613eef8b613c58565b94508451604051908082528060200260200182016040528015613f215781602001602082028038833980820191505090505b5093508451604051908082528060200260200182016040528015613f545781602001602082028038833980820191505090505b5098508451604051908082528060200260200182016040528015613f875781602001602082028038833980820191505090505b5097508451604051908082528060200260200182016040528015613fba5781602001602082028038833980820191505090505b5096508451604051908082528060200260200182016040528015613fed5781602001602082028038833980820191505090505b5095508b925060009150600090505b84518110156141845782858281518110151561401457fe5b9060200190602002015160405160200180838152602001828152602001925050506040516020818303038152906040526040518082805190602001908083835b6020831015156140795780518252602082019150602081019050602083039250614054565b6001836020036101000a038019825116818451168082178552505050505050905001915050604051809103902060019004925060006002848115156140ba57fe5b0614156141775784818151811015156140cf57fe5b9060200190602002015184838151811015156140e757fe5b90602001906020020181815250506140fe8361281c565b8c8681518110151561410c57fe5b9060200190602002018c8781518110151561412357fe5b9060200190602002018c8881518110151561413a57fe5b9060200190602002018c8981518110151561415157fe5b906020019060200201848152508481525084815250848152505050505081806001019250505b8080600101915050613ffc565b816040519080825280602002602001820160405280156141b35781602001602082028038833980820191505090505b509950600090505b818110156142045783818151811015156141d157fe5b906020019060200201518a828151811015156141e957fe5b906020019060200201818152505080806001019150506141bb565b89898989899950995099509950995050505050509295509295909350565b6000809054906101000a900473ffffffffffffffffffffffffffffffffffffffff1673ffffffffffffffffffffffffffffffffffffffff163373ffffffffffffffffffffffffffffffffffffffff1614151561427d57600080fd5b600073ffffffffffffffffffffffffffffffffffffffff168173ffffffffffffffffffffffffffffffffffffffff16141515156142b957600080fd5b8073ffffffffffffffffffffffffffffffffffffffff166000809054906101000a900473ffffffffffffffffffffffffffffffffffffffff1673ffffffffffffffffffffffffffffffffffffffff167f8be0079c531659141344cd1fd0a4f28419497f9722a3daafe3b4186f6b6457e060405160405180910390a3806000806101000a81548173ffffffffffffffffffffffffffffffffffffffff021916908373ffffffffffffffffffffffffffffffffffffffff16021790555050565b6000806007549050826001600083815260200190815260200160002060006101000a81548173ffffffffffffffffffffffffffffffffffffffff021916908373ffffffffffffffffffffffffffffffffffffffff160217905550600360008473ffffffffffffffffffffffffffffffffffffffff1673ffffffffffffffffffffffffffffffffffffffff1681526020019081526020016000208190806001815401808255809150509060018203906000526020600020016000909192909190915055506001600360008573ffffffffffffffffffffffffffffffffffffffff1673ffffffffffffffffffffffffffffffffffffffff16815260200190815260200160002080549050036004600083815260200190815260200160002081905550600760008154809291906001019190505550808373ffffffffffffffffffffffffffffffffffffffff167f0f6798a560793a54c3bcfe86a93cde1e73087d944c0ea20544137d412139688560405160405180910390a380915050919050565b6000806000600360008673ffffffffffffffffffffffffffffffffffffffff1673ffffffffffffffffffffffffffffffffffffffff16815260200190815260200160002080549050925060046000858152602001908152602001600020549150600360008673ffffffffffffffffffffffffffffffffffffffff1673ffffffffffffffffffffffffffffffffffffffff168152602001908152602001600020600184038154811015156145a557fe5b9060005260206000200154905080600360008773ffffffffffffffffffffffffffffffffffffffff1673ffffffffffffffffffffffffffffffffffffffff168152602001908152602001600020838154811015156145ff57fe5b9060005260206000200181905550816004600083815260200190815260200160002081905550600360008673ffffffffffffffffffffffffffffffffffffffff1673ffffffffffffffffffffffffffffffffffffffff1681526020019081526020016000206001840381548110151561467457fe5b9060005260206000200160009055600360008673ffffffffffffffffffffffffffffffffffffffff1673ffffffffffffffffffffffffffffffffffffffff1681526020019081526020016000208054809190600190036146d491906149f5565b505050505050565b816001600083815260200190815260200160002060006101000a81548173ffffffffffffffffffffffffffffffffffffffff021916908373ffffffffffffffffffffffffffffffffffffffff160217905550600360008373ffffffffffffffffffffffffffffffffffffffff1673ffffffffffffffffffffffffffffffffffffffff1681526020019081526020016000208190806001815401808255809150509060018203906000526020600020016000909192909190915055506001600360008473ffffffffffffffffffffffffffffffffffffffff1673ffffffffffffffffffffffffffffffffffffffff168152602001908152602001600020805490500360046000838152602001908152602001600020819055505050565b60006002600083815260200190815260200160002060009054906101000a900473ffffffffffffffffffffffffffffffffffffffff169050919050565b828054828255906000526020600020908101928215614877579160200282015b82811115614876578251829060001916905591602001919060010190614855565b5b5090506148849190614a21565b5090565b828054600181600116156101000203166002900490600052602060002090601f016020900481019282601f106148c957805160ff19168380011785556148f7565b828001600101855582156148f7579182015b828111156148f65782518255916020019190600101906148db565b5b5090506149049190614a46565b5090565b828054600181600116156101000203166002900490600052602060002090601f016020900481019282601f1061494957805160ff1916838001178555614977565b82800160010185558215614977579182015b8281111561497657825182559160200191906001019061495b565b5b5090506149849190614a46565b5090565b60a060405190810160405280600081526020016060815260200160008152602001600073ffffffffffffffffffffffffffffffffffffffff168152602001606081525090565b60606040519081016040528060608152602001600080191681526020016000151581525090565b815481835581811115614a1c57818360005260206000209182019101614a1b9190614a46565b5b505050565b614a4391905b80821115614a3f576000816000905550600101614a27565b5090565b90565b614a6891905b80821115614a64576000816000905550600101614a4c565b5090565b905600a165627a7a7230582088f14cf8c02b2609509b539a4f63fd82780a7031560bddabb5a363d777003baa0029",
  "source": "pragma solidity ^0.4.23;\n\nimport \"./ImageToken.sol\";\nimport \"../Utils/Functions.sol\";\nimport \"../IAssetManager.sol\";\nimport \"../UserManager.sol\";\n\n\ncontract DigitalPrintImage is ImageToken, Functions, UserManager {\n\n    struct ImageMetadata {\n        uint finalSeed;\n        bytes32[] potentialAssets;\n        uint timestamp;\n        address creator;\n        string ipfsHash;\n    }\n\n\n    mapping(uint => bool) seedExists;\n    mapping(uint => ImageMetadata) public imageMetadata;\n    mapping(uint => string) public idToIpfsHash;\n\n    address public marketplaceContract;\n    IAssetManager assetManager;\n\n\n    modifier onlyMarketplaceContract() {\n        require(msg.sender == address(marketplaceContract));\n        _;\n    }\n\n    /// @dev only for testing purposes\n    // function createImageTest() public returns(uint) {\n    //     return createImage(msg.sender);\n    // }\n\n    /// @notice Function will create new image\n    /// @dev owner of image will be msg.sender, and timestamp will be automatically generated, timestamp will be automatically generated\n    /// @dev _txHash and _timestamp together with keccak256 will give us randomSeed for user\n    /// @param _randomHashIds is array of random hashes from our array\n    /// @param _timestamp is timestamp when image is created\n    /// @param _iterations is number of how many times he generated random asset positions until he liked what he got\n    /// @param _potentialAssets is set of all potential assets user selected for an image\n    /// @param _author is nickname of image owner\n    /// @param _ipfsHash is ipfsHash of the image .png\n    /// @return returns id of created image\n    function createImage(\n        uint[] _randomHashIds,\n        uint _timestamp,\n        uint _iterations,\n        bytes32[] _potentialAssets,\n        string _author,\n        string _ipfsHash) public payable returns (uint) {\n        require(_potentialAssets.length <= 5);\n        // if user exists send his username, if it doesn't check for some username that doesn't exists\n        require(msg.sender == usernameToAddress[_author] || !usernameExists[_author]);\n\n        // if user doesn't exists create that user with no profile picture\n        if (!usernameExists[_author]) {\n            register(_author, \"0x0\");\n        }\n\n        uint finalSeed = uint(getFinalSeed(calculateSeed(_randomHashIds, _timestamp), _iterations));\n\n        require(seedExists[finalSeed] == false);\n\n        uint[] memory pickedAssets;\n\n        (pickedAssets,,,,) = pickRandomAssets(finalSeed, _potentialAssets);\n        address _creator = msg.sender;\n\n        uint[] memory pickedAssetPacks = assetManager.pickUniquePacks(pickedAssets);\n\n        uint finalPrice = calculatePrice(pickedAssetPacks, _creator);\n        require(msg.value >= finalPrice);\n\n        for(uint i = 0; i<pickedAssetPacks.length ;i++) {\n            if(assetManager.checkHasPermissionForPack(_creator, pickedAssetPacks[i]) == false){\n                assetManager.givePermission(msg.sender, pickedAssetPacks[i]);\n            }\n        }\n\n        uint id = createImage(_creator);\n\n        imageMetadata[id] = ImageMetadata({\n            finalSeed: finalSeed,\n            potentialAssets: _potentialAssets,\n            timestamp: _timestamp,\n            creator: _creator,\n            ipfsHash: _ipfsHash\n        });\n\n        idToIpfsHash[id] = _ipfsHash;\n        seedExists[finalSeed] = true;\n        return id;\n    }\n\n    /// @notice Function to calculate final price for an image based on selected assets\n    /// @param _pickedAssets is array of picked packs\n    /// @param _owner is address of image owner\n    /// @return finalPrice for the image\n    function calculatePrice(uint[] _pickedAssets, address _owner) public view returns (uint) {\n        if(_pickedAssets.length == 0) {\n            return 0;\n        }\n\n        uint[] memory pickedAssetPacks = assetManager.pickUniquePacks(_pickedAssets);\n        uint finalPrice = 0;\n        for(uint i = 0; i<pickedAssetPacks.length; i++) {\n            if(assetManager.checkHasPermissionForPack(_owner, pickedAssetPacks[i]) == false) {\n                finalPrice += assetManager.getAssetPackPrice(pickedAssetPacks[i]);\n            }\n        }\n\n        return finalPrice;\n    }\n\n\n    function getImageMetadata(uint _imageId) public view returns(uint, bytes32[], uint, string, address, string) {\n        require(_imageId < numOfImages);\n\n        ImageMetadata memory metadata = imageMetadata[_imageId];\n\n        return(\n            metadata.finalSeed,\n            metadata.potentialAssets,\n            metadata.timestamp,\n            addressToUser[metadata.creator].username,\n            ownerOf(_imageId),\n            metadata.ipfsHash\n        );\n\n    }\n\n\n    /// @notice adds marketplace address to contract only if it doesn't already exist\n    /// @param _marketplaceContract address of marketplace contract\n    function addMarketplaceContract(address _marketplaceContract) public onlyOwner {\n        // not required while on testnet\n        // @dev require(address(marketplaceContract) == 0x0);\n        marketplaceContract = _marketplaceContract;\n    }\n\n\n    /// @notice approving image to be taken from specific address\n    /// @param _from address from which we transfer image\n    /// @param _to address that we give permission to take image\n    /// @param _imageId we are willing to give\n    function transferFromMarketplace(address _from, address _to, uint256 _imageId) public onlyMarketplaceContract {\n        require(tokensForOwner[_imageId] != 0x0);\n        require(ownerOf(_imageId) == _from);\n\n        tokensForApproved[_imageId] = 0x0;\n        removeImage(_from, _imageId);\n        addImage(_to, _imageId);\n\n        emit Approval(_from, 0, _imageId);\n        emit Transfer(_from, _to, _imageId);\n    }\n\n\n    /// @notice Function to add assetManager\n    /// @dev during testing can be changed, after deployment to main network can be set only once\n    /// @param _assetManager is address of assetManager contract\n    function addAssetManager(address _assetManager) public onlyOwner {\n        assetManager = IAssetManager(_assetManager);\n    }\n\n}",
  "sourcePath": "/Users/nikolamadjarevic/Desktop/Decenter/Cryptographics/contracts/Image/DigitalPrintImage.sol",
  "compiler": {
    "name": "solc",
    "version": "0.4.24+commit.e67f0147.Emscripten.clang"
  },
  "schemaVersion": "2.0.1",
  "updatedAt": "2018-07-18T09:12:15.214Z"
}