{
  "contractName": "Functions",
  "abi": [
    {
      "constant": false,
      "inputs": [],
      "name": "fillWithHashes",
      "outputs": [],
      "payable": false,
      "stateMutability": "nonpayable",
      "type": "function"
    },
    {
      "constant": true,
      "inputs": [
        {
          "name": "_potentialAssets",
          "type": "bytes32[]"
        }
      ],
      "name": "decodeAssets",
      "outputs": [
        {
          "name": "",
          "type": "uint256[]"
        }
      ],
      "payable": false,
      "stateMutability": "view",
      "type": "function"
    },
    {
      "constant": true,
      "inputs": [
        {
          "name": "_random_seed",
          "type": "uint256"
        },
        {
          "name": "_iterations",
          "type": "uint256"
        },
        {
          "name": "_potentialAssets",
          "type": "bytes32[]"
        }
      ],
      "name": "pickRandomAssets",
      "outputs": [
        {
          "name": "",
          "type": "uint256[]"
        },
        {
          "name": "",
          "type": "uint256[]"
        },
        {
          "name": "",
          "type": "uint256[]"
        }
      ],
      "payable": false,
      "stateMutability": "view",
      "type": "function"
    },
    {
      "constant": true,
      "inputs": [
        {
          "name": "_random_seed",
          "type": "uint256"
        }
      ],
      "name": "pickRandomAssetPosition",
      "outputs": [
        {
          "name": "",
          "type": "uint256"
        },
        {
          "name": "",
          "type": "uint256"
        },
        {
          "name": "",
          "type": "uint256"
        },
        {
          "name": "",
          "type": "uint256"
        }
      ],
      "payable": false,
      "stateMutability": "view",
      "type": "function"
    },
    {
      "constant": true,
      "inputs": [
        {
          "name": "_randomHashIds",
          "type": "uint256[]"
        },
        {
          "name": "_timestamp",
          "type": "uint256"
        }
      ],
      "name": "calculateSeed",
      "outputs": [
        {
          "name": "",
          "type": "uint256"
        }
      ],
      "payable": false,
      "stateMutability": "view",
      "type": "function"
    },
    {
      "constant": true,
      "inputs": [
        {
          "name": "_random_seed",
          "type": "uint256"
        },
        {
          "name": "_iterations",
          "type": "uint256"
        }
      ],
      "name": "getFinalSeed",
      "outputs": [
        {
          "name": "",
          "type": "bytes32"
        }
      ],
      "payable": false,
      "stateMutability": "view",
      "type": "function"
    },
    {
      "constant": true,
      "inputs": [
        {
          "name": "_index",
          "type": "uint256"
        }
      ],
      "name": "getRandomHash",
      "outputs": [
        {
          "name": "",
          "type": "bytes32"
        }
      ],
      "payable": false,
      "stateMutability": "view",
      "type": "function"
    },
    {
      "constant": true,
      "inputs": [],
      "name": "getLen",
      "outputs": [
        {
          "name": "",
          "type": "uint256"
        }
      ],
      "payable": false,
      "stateMutability": "view",
      "type": "function"
    },
    {
      "constant": true,
      "inputs": [
        {
          "name": "assetId",
          "type": "uint256"
        },
        {
          "name": "random_seed",
          "type": "uint256"
        }
      ],
      "name": "getSeed",
      "outputs": [
        {
          "name": "",
          "type": "uint256"
        }
      ],
      "payable": false,
      "stateMutability": "pure",
      "type": "function"
    },
    {
      "constant": true,
      "inputs": [
        {
          "name": "random_seed",
          "type": "uint256"
        }
      ],
      "name": "toHex",
      "outputs": [
        {
          "name": "",
          "type": "bytes32"
        }
      ],
      "payable": false,
      "stateMutability": "view",
      "type": "function"
    }
  ],
  "bytecode": "0x608060405234801561001057600080fd5b50610e1e806100206000396000f3006080604052600436106100a4576000357c0100000000000000000000000000000000000000000000000000000000900463ffffffff168063298a423c146100a9578063390b8482146100ff578063469506bf146101165780634a90be571461016957806396e60311146101945780639f6ff8a5146101df578063ab6ca6dc1461033e578063b52c1d5b14610387578063bf1792b31461040b578063c933405114610454575b600080fd5b3480156100b557600080fd5b506100d46004803603810190808035906020019092919050505061050f565b6040518085815260200184815260200183815260200182815260200194505050505060405180910390f35b34801561010b57600080fd5b506101146105b0565b005b34801561012257600080fd5b5061014b6004803603810190808035906020019092919080359060200190929190505050610604565b60405180826000191660001916815260200191505060405180910390f35b34801561017557600080fd5b5061017e61069b565b6040518082815260200191505060405180910390f35b3480156101a057600080fd5b506101c960048036038101908080359060200190929190803590602001909291905050506106a7565b6040518082815260200191505060405180910390f35b3480156101eb57600080fd5b506102576004803603810190808035906020019092919080359060200190929190803590602001908201803590602001908080602002602001604051908101604052809392919081815260200183836020028082843782019150505050505091929192905050506106d3565b60405180806020018060200180602001848103845287818151815260200191508051906020019060200280838360005b838110156102a2578082015181840152602081019050610287565b50505050905001848103835286818151815260200191508051906020019060200280838360005b838110156102e45780820151818401526020810190506102c9565b50505050905001848103825285818151815260200191508051906020019060200280838360005b8381101561032657808201518184015260208101905061030b565b50505050905001965050505050505060405180910390f35b34801561034a57600080fd5b5061036960048036038101908080359060200190929190505050610952565b60405180826000191660001916815260200191505060405180910390f35b34801561039357600080fd5b506103f56004803603810190808035906020019082018035906020019080806020026020016040519081016040528093929190818152602001838360200280828437820191505050505050919291929080359060200190929190505050610974565b6040518082815260200191505060405180910390f35b34801561041757600080fd5b5061043660048036038101908080359060200190929190505050610c47565b60405180826000191660001916815260200191505060405180910390f35b34801561046057600080fd5b506104b860048036038101908080359060200190820180359060200190808060200260200160405190810160405280939291908181526020018383602002808284378201915050505050509192919290505050610c54565b6040518080602001828103825283818151815260200191508051906020019060200280838360005b838110156104fb5780820151818401526020810190506104e0565b505050509050019250505060405180910390f35b6000806000806000806000806000808a1415151561052c57600080fd5b8994506127108581151561053c57fe5b069450600060028681151561054d57fe5b061415610598576109928581151561056157fe5b069350610dac8581151561057157fe5b06925061032060c88681151561058357fe5b060191506101688581151561059457fe5b0690505b83838383985098509850985050505050509193509193565b60006064430390505b438110156106015760008140908060018154018082558091505090600182039060005260206000200160009091929091909150906000191690555080806001019150506105b9565b50565b600080600080851415151561061857600080fd5b6000841415151561062857600080fd5b8460010291508484604051808381526020018281526020019250505060405180910390209150600090505b8381101561069057818160405180836000191660001916815260200182815260200192505050604051809103902091508080600101915050610653565b819250505092915050565b60008080549050905090565b600081836040518083815260200182815260200192505050604051809103902060019004905092915050565b606080606080606080606060008060606000808d141515156106f457600080fd5b60008e1415151561070457600080fd5b60008c5111151561071457600080fd5b61071e8e8e610604565b600190049d5061072d8c610c54565b9750875160405190808252806020026020018201604052801561075f5781602001602082028038833980820191505090505b50965087516040519080825280602002602001820160405280156107925781602001602082028038833980820191505090505b50955087516040519080825280602002602001820160405280156107c55781602001602082028038833980820191505090505b50945060009350600092505b87518310156108b8578d88848151811015156107e957fe5b9060200190602002015160405180838152602001828152602001925050506040518091039020600190049d50600060028f81151561082357fe5b0614156108ab57878381518110151561083857fe5b90602001906020020151878581518110151561085057fe5b90602001906020020181815250506108678e61050f565b905050878681518110151561087857fe5b906020019060200201878781518110151561088f57fe5b9060200190602002018281525082815250505083806001019450505b82806001019350506107d1565b836040519080825280602002602001820160405280156108e75781602001602082028038833980820191505090505b509150600090505b8381101561093857868181518110151561090557fe5b90602001906020020151828281518110151561091d57fe5b906020019060200201818152505080806001019150506108ef565b8186869a509a509a50505050505050505093509350939050565b6000808281548110151561096257fe5b90600052602060002001549050919050565b6000806000831415151561098757600080fd5b600a845114151561099757600080fd5b60008460008151811015156109a857fe5b906020019060200201518154811015156109be57fe5b906000526020600020015460008560018151811015156109da57fe5b906020019060200201518154811015156109f057fe5b90600052602060002001546000866002815181101515610a0c57fe5b90602001906020020151815481101515610a2257fe5b90600052602060002001546000876003815181101515610a3e57fe5b90602001906020020151815481101515610a5457fe5b90600052602060002001546000886004815181101515610a7057fe5b90602001906020020151815481101515610a8657fe5b90600052602060002001546000896005815181101515610aa257fe5b90602001906020020151815481101515610ab857fe5b906000526020600020015460008a6006815181101515610ad457fe5b90602001906020020151815481101515610aea57fe5b906000526020600020015460008b6007815181101515610b0657fe5b90602001906020020151815481101515610b1c57fe5b906000526020600020015460008c6008815181101515610b3857fe5b90602001906020020151815481101515610b4e57fe5b906000526020600020015460008d6009815181101515610b6a57fe5b90602001906020020151815481101515610b8057fe5b90600052602060002001548c604051808c600019166000191681526020018b600019166000191681526020018a6000191660001916815260200189600019166000191681526020018860001916600019168152602001876000191660001916815260200186600019166000191681526020018560001916600019168152602001846000191660001916815260200183600019166000191681526020018281526020019b50505050505050505050505060405180910390209050806001900491505092915050565b6000816001029050919050565b606080600080600080600080600060606000808c51111515610c7557600080fd5b600a8c5102604051908082528060200260200182016040528015610ca85781602001602082028038833980820191505090505b50995060009850600097505b8b51881015610d60578b88815181101515610ccb57fe5b906020019060200201519550859650600094505b600a851015610d535760026018860260029060020a02811515610cfe57fe5b0493508362ffffff85028816811515610d1357fe5b049250600083141515610d4657828a8a815181101515610d2f57fe5b906020019060200201818152505088806001019950505b8480600101955050610cdf565b8780600101985050610cb4565b88604051908082528060200260200182016040528015610d8f5781602001602082028038833980820191505090505b509150600090505b88811015610de0578981815181101515610dad57fe5b906020019060200201518282815181101515610dc557fe5b90602001906020020181815250508080600101915050610d97565b819a50505050505050505050509190505600a165627a7a723058207f9a55e95e754b0a6ff6c31aee6c418f957706a7e00c7b3b94d06d446d58b0270029",
  "source": "pragma solidity ^0.4.23;\n\ncontract Functions {\n\n    bytes32[] randomHashes;\n\n    function fillWithHashes() public {\n        for(uint i = block.number - 100; i < block.number; i++){\n            randomHashes.push(blockhash(i));\n        }\n    }\n\n    //        /// @notice Function for test purposes because in local rpc can't get last 100 blocks\n    //        function fillRadnomHashes() public {\n    //            bytes32 initialHash = \"0x1234567891011111112131311\";\n    //\n    //            for(uint i=0; i<100; i++){\n    //                randomHashes.push(keccak256(initialHash,i));\n    //            }\n    //        }\n\n\n    /// @notice Function which decodes bytes32 to array of integers\n    /// @param _potentialAssets are potential assets user would like to have\n    /// @return array of assetIds\n    function decodeAssets(bytes32[] _potentialAssets) public view returns (uint[]) {\n        require(_potentialAssets.length > 0);\n        uint[] memory assets = new uint[](_potentialAssets.length*10);\n        uint numberOfAssets = 0;\n\n        for(uint j=0; j<_potentialAssets.length; j++){\n            uint input;\n            bytes32 pot = _potentialAssets[j];\n\n            assembly {\n                input := pot\n            }\n\n            for(uint i=0;i<10;i++){\n                uint mask = (2 << (i * 24)) / 2;\n                uint b = (input & (mask * 16777215)) / mask;\n\n                if(b!=0) {\n                    assets[numberOfAssets] = b;\n                    numberOfAssets++;\n                }\n            }\n        }\n\n        uint[] memory ass = new uint[](numberOfAssets);\n        for(uint z=0; z< numberOfAssets; z++){\n            ass[z] = assets[z];\n        }\n\n\n        return ass;\n    }\n\n\n    /// @notice Function to pick random assets from potentialAssets array\n    /// @param _random_seed is random seed at that moment\n    /// @param _potentialAssets is bytes32[] array of potential assets\n    /// @return uint[] array of randomly picked assets\n    function pickRandomAssets(uint _random_seed, uint _iterations, bytes32[] _potentialAssets) public view returns(uint[],uint[],uint[]) {\n        require(_iterations!=0);\n        require(_random_seed!=0);\n        require(_potentialAssets.length > 0);\n        _random_seed = uint(getFinalSeed(_random_seed,_iterations));\n\n        uint[] memory assetIds = decodeAssets(_potentialAssets);\n        uint[] memory pickedIds = new uint[](assetIds.length);\n        uint[] memory x = new uint[](assetIds.length);\n        uint[] memory y = new uint[](assetIds.length);\n\n\n\n        uint index = 0;\n\n        for(uint i=0; i<assetIds.length; i++){\n            _random_seed = uint(keccak256(_random_seed, assetIds[i]));\n            if(_random_seed % 2 == 0){\n                //randoms[index] = _random_seed;\n                pickedIds[index] = assetIds[i];\n                (x[index],y[index],,) = pickRandomAssetPosition(_random_seed);\n                index++;\n            }\n\n        }\n\n        uint[] memory finalPicked = new uint[](index);\n        for(uint z=0; z<index; z++){\n            finalPicked[z] = pickedIds[z];\n        }\n\n        return (finalPicked,x,y);\n    }\n\n\n    /// @notice Function to pick random position for an asset\n    /// @dev based on id and random_seed\n    /// @param _random_seed is random seed for that image\n    /// @return tuple of uints representing x,y,zoom,and rotation\n    function pickRandomAssetPosition(uint _random_seed) public view returns (uint,uint,uint,uint) {\n        require(_random_seed!=0);\n        uint rs = _random_seed;\n\n        rs = rs % 10000;\n\n        uint x;\n        uint y;\n        uint zoom;\n        uint rotation;\n\n        if (rs %2 ==0) {\n            x = rs%2450;\n            y = rs%3500;\n            zoom = rs%200 + 800;\n            rotation = rs%360;\n        }\n\n        return (x,y,zoom,rotation);\n    }\n\n\n    /// @notice Function to calculate initial random seed based on our hashes\n    /// @param _randomHashIds are ids in our array of hashes\n    /// @param _timestamp is timestamp for that hash\n    /// @return uint representation of random seed\n    function calculateSeed(uint[] _randomHashIds, uint _timestamp) public view returns (uint){\n        require(_timestamp!=0);\n        require(_randomHashIds.length == 10);\n\n        bytes32 randomSeed = keccak256(randomHashes[_randomHashIds[0]],\n            randomHashes[_randomHashIds[1]],randomHashes[_randomHashIds[2]],\n            randomHashes[_randomHashIds[3]], randomHashes[_randomHashIds[4]],\n            randomHashes[_randomHashIds[5]], randomHashes[_randomHashIds[6]],\n            randomHashes[_randomHashIds[7]], randomHashes[_randomHashIds[8]],\n            randomHashes[_randomHashIds[9]], _timestamp);\n\n        return uint(randomSeed);\n    }\n\n\n    /// @notice Function to calculate final random seed for user\n    /// @param _random_seed is initially given random seed\n    /// @param _iterations is number of iterations\n    /// @return final seed for user as uint\n    function getFinalSeed(uint _random_seed, uint _iterations) public view returns (bytes32){\n        require(_random_seed!=0);\n        require(_iterations!=0);\n        bytes32 finalSeed = bytes32(_random_seed);\n\n        finalSeed = keccak256(_random_seed,_iterations);\n        for(uint i=0; i<_iterations; i++){\n            finalSeed = keccak256(finalSeed,i);\n        }\n\n        return finalSeed;\n    }\n\n\n    function getRandomHash(uint _index) public view returns(bytes32){\n        return randomHashes[_index];\n    }\n\n    function getLen() public view returns(uint) {\n        return randomHashes.length;\n    }\n\n    function getSeed(uint assetId, uint random_seed) public pure returns(uint) {\n        return uint(keccak256(random_seed,assetId));\n    }\n\n    function toHex(uint random_seed) public view returns (bytes32) {\n        return bytes32(random_seed);\n    }\n\n}\n",
  "sourcePath": "/Users/nikolaklipa/Decenter/Cryptographics/contracts/Utils/Functions.sol",
  "compiler": {
    "name": "solc",
    "version": "0.4.24+commit.e67f0147.Emscripten.clang"
  },
  "schemaVersion": "2.0.1",
  "updatedAt": "2018-07-11T08:10:50.360Z"
}