{
  "contractName": "Functions",
  "abi": [
    {
      "constant": false,
      "inputs": [],
      "name": "fillWithHashes",
      "outputs": [],
      "payable": false,
      "stateMutability": "nonpayable",
      "type": "function"
    },
    {
      "constant": true,
      "inputs": [
        {
          "name": "_potentialAssets",
          "type": "bytes32[]"
        }
      ],
      "name": "decodeAssets",
      "outputs": [
        {
          "name": "",
          "type": "uint256[]"
        }
      ],
      "payable": false,
      "stateMutability": "pure",
      "type": "function"
    },
    {
      "constant": true,
      "inputs": [
        {
          "name": "_finalSeed",
          "type": "uint256"
        },
        {
          "name": "_potentialAssets",
          "type": "bytes32[]"
        }
      ],
      "name": "pickRandomAssets",
      "outputs": [
        {
          "name": "",
          "type": "uint256[]"
        },
        {
          "name": "",
          "type": "uint256[]"
        },
        {
          "name": "",
          "type": "uint256[]"
        }
      ],
      "payable": false,
      "stateMutability": "pure",
      "type": "function"
    },
    {
      "constant": true,
      "inputs": [
        {
          "name": "_random_seed",
          "type": "uint256"
        }
      ],
      "name": "pickRandomAssetPosition",
      "outputs": [
        {
          "name": "",
          "type": "uint256"
        },
        {
          "name": "",
          "type": "uint256"
        },
        {
          "name": "",
          "type": "uint256"
        },
        {
          "name": "",
          "type": "uint256"
        }
      ],
      "payable": false,
      "stateMutability": "pure",
      "type": "function"
    },
    {
      "constant": true,
      "inputs": [
        {
          "name": "_randomHashIds",
          "type": "uint256[]"
        },
        {
          "name": "_timestamp",
          "type": "uint256"
        }
      ],
      "name": "calculateSeed",
      "outputs": [
        {
          "name": "",
          "type": "uint256"
        }
      ],
      "payable": false,
      "stateMutability": "view",
      "type": "function"
    },
    {
      "constant": true,
      "inputs": [
        {
          "name": "_random_seed",
          "type": "uint256"
        },
        {
          "name": "_iterations",
          "type": "uint256"
        }
      ],
      "name": "getFinalSeed",
      "outputs": [
        {
          "name": "",
          "type": "bytes32"
        }
      ],
      "payable": false,
      "stateMutability": "pure",
      "type": "function"
    },
    {
      "constant": true,
      "inputs": [
        {
          "name": "_index",
          "type": "uint256"
        }
      ],
      "name": "getRandomHash",
      "outputs": [
        {
          "name": "",
          "type": "bytes32"
        }
      ],
      "payable": false,
      "stateMutability": "view",
      "type": "function"
    },
    {
      "constant": true,
      "inputs": [],
      "name": "getLen",
      "outputs": [
        {
          "name": "",
          "type": "uint256"
        }
      ],
      "payable": false,
      "stateMutability": "view",
      "type": "function"
    },
    {
      "constant": true,
      "inputs": [
        {
          "name": "assetId",
          "type": "uint256"
        },
        {
          "name": "random_seed",
          "type": "uint256"
        }
      ],
      "name": "getSeed",
      "outputs": [
        {
          "name": "",
          "type": "uint256"
        }
      ],
      "payable": false,
      "stateMutability": "pure",
      "type": "function"
    },
    {
      "constant": true,
      "inputs": [
        {
          "name": "random_seed",
          "type": "uint256"
        }
      ],
      "name": "toHex",
      "outputs": [
        {
          "name": "",
          "type": "bytes32"
        }
      ],
      "payable": false,
      "stateMutability": "pure",
      "type": "function"
    }
  ],
  "bytecode": "0x608060405234801561001057600080fd5b50611010806100206000396000f3006080604052600436106100a4576000357c0100000000000000000000000000000000000000000000000000000000900463ffffffff168063298a423c146100a9578063390b8482146100ff578063469506bf146101165780634a90be571461016957806396e6031114610194578063ab6ca6dc146101df578063b52c1d5b14610228578063bf1792b3146102ac578063c9334051146102f5578063ee007a54146103b0575b600080fd5b3480156100b557600080fd5b506100d460048036038101908080359060200190929190505050610505565b6040518085815260200184815260200183815260200182815260200194505050505060405180910390f35b34801561010b57600080fd5b506101146105a6565b005b34801561012257600080fd5b5061014b60048036038101908080359060200190929190803590602001909291905050506105fa565b60405180826000191660001916815260200191505060405180910390f35b34801561017557600080fd5b5061017e610769565b6040518082815260200191505060405180910390f35b3480156101a057600080fd5b506101c96004803603810190808035906020019092919080359060200190929190505050610775565b6040518082815260200191505060405180910390f35b3480156101eb57600080fd5b5061020a6004803603810190808035906020019092919050505061080d565b60405180826000191660001916815260200191505060405180910390f35b34801561023457600080fd5b50610296600480360381019080803590602001908201803590602001908080602002602001604051908101604052809392919081815260200183836020028082843782019150505050505091929192908035906020019092919050505061082f565b6040518082815260200191505060405180910390f35b3480156102b857600080fd5b506102d760048036038101908080359060200190929190505050610b6e565b60405180826000191660001916815260200191505060405180910390f35b34801561030157600080fd5b5061035960048036038101908080359060200190820180359060200190808060200260200160405190810160405280939291908181526020018383602002808284378201915050505050509192919290505050610b7b565b6040518080602001828103825283818151815260200191508051906020019060200280838360005b8381101561039c578082015181840152602081019050610381565b505050509050019250505060405180910390f35b3480156103bc57600080fd5b5061041e6004803603810190808035906020019092919080359060200190820180359060200190808060200260200160405190810160405280939291908181526020018383602002808284378201915050505050509192919290505050610d17565b60405180806020018060200180602001848103845287818151815260200191508051906020019060200280838360005b8381101561046957808201518184015260208101905061044e565b50505050905001848103835286818151815260200191508051906020019060200280838360005b838110156104ab578082015181840152602081019050610490565b50505050905001848103825285818151815260200191508051906020019060200280838360005b838110156104ed5780820151818401526020810190506104d2565b50505050905001965050505050505060405180910390f35b6000806000806000806000806000808a1415151561052257600080fd5b8994506127108581151561053257fe5b069450600060028681151561054357fe5b06141561058e576109928581151561055757fe5b069350610dac8581151561056757fe5b06925061032060c88681151561057957fe5b060191506101688581151561058a57fe5b0690505b83838383985098509850985050505050509193509193565b60006064430390505b438110156105f75760008140908060018154018082558091505090600182039060005260206000200160009091929091909150906000191690555080806001019150506105af565b50565b600080600080851415151561060e57600080fd5b6000841415151561061e57600080fd5b846001029150848460405160200180838152602001828152602001925050506040516020818303038152906040526040518082805190602001908083835b602083101515610681578051825260208201915060208101905060208303925061065c565b6001836020036101000a03801982511681845116808217855250505050505090500191505060405180910390209150600090505b8381101561075e578181604051602001808360001916600019168152602001828152602001925050506040516020818303038152906040526040518082805190602001908083835b60208310151561072257805182526020820191506020810190506020830392506106fd565b6001836020036101000a0380198251168184511680821785525050505050509050019150506040518091039020915080806001019150506106b5565b819250505092915050565b60008080549050905090565b6000818360405160200180838152602001828152602001925050506040516020818303038152906040526040518082805190602001908083835b6020831015156107d457805182526020820191506020810190506020830392506107af565b6001836020036101000a038019825116818451168082178552505050505050905001915050604051809103902060019004905092915050565b6000808281548110151561081d57fe5b90600052602060002001549050919050565b6000806000831415151561084257600080fd5b600a845114151561085257600080fd5b600084600081518110151561086357fe5b9060200190602002015181548110151561087957fe5b9060005260206000200154600085600181518110151561089557fe5b906020019060200201518154811015156108ab57fe5b906000526020600020015460008660028151811015156108c757fe5b906020019060200201518154811015156108dd57fe5b906000526020600020015460008760038151811015156108f957fe5b9060200190602002015181548110151561090f57fe5b9060005260206000200154600088600481518110151561092b57fe5b9060200190602002015181548110151561094157fe5b9060005260206000200154600089600581518110151561095d57fe5b9060200190602002015181548110151561097357fe5b906000526020600020015460008a600681518110151561098f57fe5b906020019060200201518154811015156109a557fe5b906000526020600020015460008b60078151811015156109c157fe5b906020019060200201518154811015156109d757fe5b906000526020600020015460008c60088151811015156109f357fe5b90602001906020020151815481101515610a0957fe5b906000526020600020015460008d6009815181101515610a2557fe5b90602001906020020151815481101515610a3b57fe5b90600052602060002001548c604051602001808c600019166000191681526020018b600019166000191681526020018a6000191660001916815260200189600019166000191681526020018860001916600019168152602001876000191660001916815260200186600019166000191681526020018560001916600019168152602001846000191660001916815260200183600019166000191681526020018281526020019b5050505050505050505050506040516020818303038152906040526040518082805190602001908083835b602083101515610b315780518252602082019150602081019050602083039250610b0c565b6001836020036101000a03801982511681845116808217855250505050505090500191505060405180910390209050806001900491505092915050565b6000816001029050919050565b6060806000806000806000806000606060008b51111515610b9b57600080fd5b600a8b5102604051908082528060200260200182016040528015610bce5781602001602082028038833980820191505090505b50985060009750600096505b8a51871015610c86578a87815181101515610bf157fe5b906020019060200201519450849550600093505b600a841015610c795760026018850260029060020a02811515610c2457fe5b0492508262ffffff84028716811515610c3957fe5b049150600082141515610c6c57818989815181101515610c5557fe5b906020019060200201818152505087806001019850505b8380600101945050610c05565b8680600101975050610bda565b87604051908082528060200260200182016040528015610cb55781602001602082028038833980820191505090505b509050600093505b87841015610d06578884815181101515610cd357fe5b906020019060200201518185815181101515610ceb57fe5b90602001906020020181815250508380600101945050610cbd565b809950505050505050505050919050565b60608060608060608060606000806000606060008d14151515610d3957600080fd5b60008c51111515610d4957600080fd5b610d528c610b7b565b97508751604051908082528060200260200182016040528015610d845781602001602082028038833980820191505090505b5096508751604051908082528060200260200182016040528015610db75781602001602082028038833980820191505090505b5095508751604051908082528060200260200182016040528015610dea5781602001602082028038833980820191505090505b5094508c935060009250600091505b8751821015610f4c57838883815181101515610e1157fe5b9060200190602002015160405160200180838152602001828152602001925050506040516020818303038152906040526040518082805190602001908083835b602083101515610e765780518252602082019150602081019050602083039250610e51565b6001836020036101000a03801982511681845116808217855250505050505090500191505060405180910390206001900493506000600285811515610eb757fe5b061415610f3f578782815181101515610ecc57fe5b906020019060200201518784815181101515610ee457fe5b9060200190602002018181525050610efb84610505565b9050508785815181101515610f0c57fe5b9060200190602002018786815181101515610f2357fe5b9060200190602002018281525082815250505082806001019350505b8180600101925050610df9565b82604051908082528060200260200182016040528015610f7b5781602001602082028038833980820191505090505b509050600091505b82821015610fcc578682815181101515610f9957fe5b906020019060200201518183815181101515610fb157fe5b90602001906020020181815250508180600101925050610f83565b8086869a509a509a50505050505050505092509250925600a165627a7a723058202f522800d317fb9561a25a44b5472e7fdc295ca4eff6fce7c3410e6ab9bfc6550029",
  "source": "pragma solidity ^0.4.23;\n\ncontract Functions {\n\n    bytes32[] randomHashes;\n\n    function fillWithHashes() public {\n        for(uint i = block.number - 100; i < block.number; i++){\n            randomHashes.push(blockhash(i));\n        }\n    }\n\n    //        /// @notice Function for test purposes because in local rpc can't get last 100 blocks\n    //        function fillRadnomHashes() public {\n    //            bytes32 initialHash = \"0x1234567891011111112131311\";\n    //\n    //            for(uint i=0; i<100; i++){\n    //                randomHashes.push(keccak256(initialHash,i));\n    //            }\n    //        }\n\n\n    /// @notice Function which decodes bytes32 to array of integers\n    /// @param _potentialAssets are potential assets user would like to have\n    /// @return array of assetIds\n    function decodeAssets(bytes32[] _potentialAssets) public pure returns (uint[]) {\n        require(_potentialAssets.length > 0);\n        uint[] memory assets = new uint[](_potentialAssets.length*10);\n        uint numberOfAssets = 0;\n\n        for(uint j = 0; j<_potentialAssets.length; j++){\n            uint input;\n            bytes32 pot = _potentialAssets[j];\n\n            assembly {\n                input := pot\n            }\n\n            for(uint i = 0; i<10; i++){\n                uint mask = (2 << (i * 24)) / 2;\n                uint b = (input & (mask * 16777215)) / mask;\n\n                if(b!=0) {\n                    assets[numberOfAssets] = b;\n                    numberOfAssets++;\n                }\n            }\n        }\n\n        uint[] memory ass = new uint[](numberOfAssets);\n        for(i = 0; i<numberOfAssets; i++){\n            ass[i] = assets[i];\n        }\n\n        return ass;\n    }\n\n\n    /// @notice Function to pick random assets from potentialAssets array\n    /// @param _finalSeed is final random seed\n    /// @param _potentialAssets is bytes32[] array of potential assets\n    /// @return uint[] array of randomly picked assets\n    function pickRandomAssets(uint _finalSeed, bytes32[] _potentialAssets) public pure returns(uint[],uint[],uint[]) {\n        require(_finalSeed != 0);\n        require(_potentialAssets.length > 0);\n\n        uint[] memory assetIds = decodeAssets(_potentialAssets);\n        uint[] memory pickedIds = new uint[](assetIds.length);\n        uint[] memory x = new uint[](assetIds.length);\n        uint[] memory y = new uint[](assetIds.length);\n\n        uint finalSeedCopy = _finalSeed;\n        uint index = 0;\n\n        for(uint i = 0; i<assetIds.length; i++){\n            finalSeedCopy = uint(keccak256(abi.encodePacked(finalSeedCopy, assetIds[i])));\n            if(finalSeedCopy % 2 == 0){\n                pickedIds[index] = assetIds[i];\n                (x[index],y[index],,) = pickRandomAssetPosition(finalSeedCopy);\n                index++;\n            }\n        }\n\n        uint[] memory finalPicked = new uint[](index);\n        for(i = 0; i<index; i++){\n            finalPicked[i] = pickedIds[i];\n        }\n\n        return (finalPicked,x,y);\n    }\n\n\n    /// @notice Function to pick random position for an asset\n    /// @dev based on id and random_seed\n    /// @param _random_seed is random seed for that image\n    /// @return tuple of uints representing x,y,zoom,and rotation\n    function pickRandomAssetPosition(uint _random_seed) public pure returns (uint,uint,uint,uint) {\n        require(_random_seed!=0);\n        uint rs = _random_seed;\n\n        rs = rs % 10000;\n\n        uint x;\n        uint y;\n        uint zoom;\n        uint rotation;\n\n        if (rs % 2 == 0) {\n            x = rs%2450;\n            y = rs%3500;\n            zoom = rs%200 + 800;\n            rotation = rs%360;\n        }\n\n        return (x,y,zoom,rotation);\n    }\n\n\n    /// @notice Function to calculate initial random seed based on our hashes\n    /// @param _randomHashIds are ids in our array of hashes\n    /// @param _timestamp is timestamp for that hash\n    /// @return uint representation of random seed\n    function calculateSeed(uint[] _randomHashIds, uint _timestamp) public view returns (uint){\n        require(_timestamp!=0);\n        require(_randomHashIds.length == 10);\n\n        bytes32 randomSeed = keccak256(\n            abi.encodePacked(\n            randomHashes[_randomHashIds[0]], randomHashes[_randomHashIds[1]],\n            randomHashes[_randomHashIds[2]], randomHashes[_randomHashIds[3]],\n            randomHashes[_randomHashIds[4]], randomHashes[_randomHashIds[5]],\n            randomHashes[_randomHashIds[6]], randomHashes[_randomHashIds[7]],\n            randomHashes[_randomHashIds[8]], randomHashes[_randomHashIds[9]],\n            _timestamp\n            )\n        );\n\n        return uint(randomSeed);\n    }\n\n\n    /// @notice Function to calculate final random seed for user\n    /// @param _random_seed is initially given random seed\n    /// @param _iterations is number of iterations\n    /// @return final seed for user as uint\n    function getFinalSeed(uint _random_seed, uint _iterations) public pure returns (bytes32){\n        require(_random_seed!=0);\n        require(_iterations!=0);\n        bytes32 finalSeed = bytes32(_random_seed);\n\n        finalSeed = keccak256(abi.encodePacked(_random_seed, _iterations));\n        for(uint i = 0; i<_iterations; i++){\n            finalSeed = keccak256(abi.encodePacked(finalSeed, i));\n        }\n\n        return finalSeed;\n    }\n\n\n    function getRandomHash(uint _index) public view returns(bytes32){\n        return randomHashes[_index];\n    }\n\n    function getLen() public view returns(uint) {\n        return randomHashes.length;\n    }\n\n    function getSeed(uint assetId, uint random_seed) public pure returns(uint) {\n        return uint(keccak256(abi.encodePacked(random_seed, assetId)));\n    }\n\n    function toHex(uint random_seed) public pure returns (bytes32) {\n        return bytes32(random_seed);\n    }\n}\n",
  "sourcePath": "/Users/nikolaklipa/Decenter/Cryptographics/contracts/Utils/Functions.sol",
  "compiler": {
    "name": "solc",
    "version": "0.4.24+commit.e67f0147.Emscripten.clang"
  },
  "schemaVersion": "2.0.1",
  "updatedAt": "2018-07-13T12:59:48.880Z"
}