{
  "contractName": "Functions",
  "abi": [
    {
      "constant": false,
      "inputs": [],
      "name": "fillWithHashes",
      "outputs": [],
      "payable": false,
      "stateMutability": "nonpayable",
      "type": "function"
    },
    {
      "constant": true,
      "inputs": [
        {
          "name": "_potentialAssets",
          "type": "bytes32[]"
        }
      ],
      "name": "decodeAssets",
      "outputs": [
        {
          "name": "",
          "type": "uint256[]"
        }
      ],
      "payable": false,
      "stateMutability": "pure",
      "type": "function"
    },
    {
      "constant": true,
      "inputs": [
        {
          "name": "_finalSeed",
          "type": "uint256"
        },
        {
          "name": "_potentialAssets",
          "type": "bytes32[]"
        }
      ],
      "name": "pickRandomAssets",
      "outputs": [
        {
          "name": "",
          "type": "uint256[]"
        },
        {
          "name": "",
          "type": "uint256[]"
        },
        {
          "name": "",
          "type": "uint256[]"
        }
      ],
      "payable": false,
      "stateMutability": "pure",
      "type": "function"
    },
    {
      "constant": true,
      "inputs": [
        {
          "name": "_finalSeed",
          "type": "uint256"
        },
        {
          "name": "_potentialAssets",
          "type": "bytes32[]"
        }
      ],
      "name": "pickRandomZoomAndRotation",
      "outputs": [
        {
          "name": "",
          "type": "uint256[]"
        },
        {
          "name": "",
          "type": "uint256[]"
        },
        {
          "name": "",
          "type": "uint256[]"
        }
      ],
      "payable": false,
      "stateMutability": "pure",
      "type": "function"
    },
    {
      "constant": true,
      "inputs": [
        {
          "name": "_random_seed",
          "type": "uint256"
        }
      ],
      "name": "pickRandomAssetPosition",
      "outputs": [
        {
          "name": "",
          "type": "uint256"
        },
        {
          "name": "",
          "type": "uint256"
        },
        {
          "name": "",
          "type": "uint256"
        },
        {
          "name": "",
          "type": "uint256"
        }
      ],
      "payable": false,
      "stateMutability": "pure",
      "type": "function"
    },
    {
      "constant": true,
      "inputs": [
        {
          "name": "_randomHashIds",
          "type": "uint256[]"
        },
        {
          "name": "_timestamp",
          "type": "uint256"
        }
      ],
      "name": "calculateSeed",
      "outputs": [
        {
          "name": "",
          "type": "uint256"
        }
      ],
      "payable": false,
      "stateMutability": "view",
      "type": "function"
    },
    {
      "constant": true,
      "inputs": [
        {
          "name": "_random_seed",
          "type": "uint256"
        },
        {
          "name": "_iterations",
          "type": "uint256"
        }
      ],
      "name": "getFinalSeed",
      "outputs": [
        {
          "name": "",
          "type": "bytes32"
        }
      ],
      "payable": false,
      "stateMutability": "pure",
      "type": "function"
    },
    {
      "constant": true,
      "inputs": [
        {
          "name": "_index",
          "type": "uint256"
        }
      ],
      "name": "getRandomHash",
      "outputs": [
        {
          "name": "",
          "type": "bytes32"
        }
      ],
      "payable": false,
      "stateMutability": "view",
      "type": "function"
    },
    {
      "constant": true,
      "inputs": [],
      "name": "getLen",
      "outputs": [
        {
          "name": "",
          "type": "uint256"
        }
      ],
      "payable": false,
      "stateMutability": "view",
      "type": "function"
    },
    {
      "constant": true,
      "inputs": [
        {
          "name": "assetId",
          "type": "uint256"
        },
        {
          "name": "random_seed",
          "type": "uint256"
        }
      ],
      "name": "getSeed",
      "outputs": [
        {
          "name": "",
          "type": "uint256"
        }
      ],
      "payable": false,
      "stateMutability": "pure",
      "type": "function"
    },
    {
      "constant": true,
      "inputs": [
        {
          "name": "random_seed",
          "type": "uint256"
        }
      ],
      "name": "toHex",
      "outputs": [
        {
          "name": "",
          "type": "bytes32"
        }
      ],
      "payable": false,
      "stateMutability": "pure",
      "type": "function"
    }
  ],
  "bytecode": "0x608060405234801561001057600080fd5b50611441806100206000396000f3006080604052600436106100af576000357c0100000000000000000000000000000000000000000000000000000000900463ffffffff1680630e6d6465146100b4578063298a423c14610209578063390b84821461025f578063469506bf146102765780634a90be57146102c957806396e60311146102f4578063ab6ca6dc1461033f578063b52c1d5b14610388578063bf1792b31461040c578063c933405114610455578063ee007a5414610510575b600080fd5b3480156100c057600080fd5b506101226004803603810190808035906020019092919080359060200190820180359060200190808060200260200160405190810160405280939291908181526020018383602002808284378201915050505050509192919290505050610665565b60405180806020018060200180602001848103845287818151815260200191508051906020019060200280838360005b8381101561016d578082015181840152602081019050610152565b50505050905001848103835286818151815260200191508051906020019060200280838360005b838110156101af578082015181840152602081019050610194565b50505050905001848103825285818151815260200191508051906020019060200280838360005b838110156101f15780820151818401526020810190506101d6565b50505050905001965050505050505060405180910390f35b34801561021557600080fd5b5061023460048036038101908080359060200190929190505050610936565b6040518085815260200184815260200183815260200182815260200194505050505060405180910390f35b34801561026b57600080fd5b506102746109d7565b005b34801561028257600080fd5b506102ab6004803603810190808035906020019092919080359060200190929190505050610a2b565b60405180826000191660001916815260200191505060405180910390f35b3480156102d557600080fd5b506102de610b9a565b6040518082815260200191505060405180910390f35b34801561030057600080fd5b506103296004803603810190808035906020019092919080359060200190929190505050610ba6565b6040518082815260200191505060405180910390f35b34801561034b57600080fd5b5061036a60048036038101908080359060200190929190505050610c3e565b60405180826000191660001916815260200191505060405180910390f35b34801561039457600080fd5b506103f66004803603810190808035906020019082018035906020019080806020026020016040519081016040528093929190818152602001838360200280828437820191505050505050919291929080359060200190929190505050610c60565b6040518082815260200191505060405180910390f35b34801561041857600080fd5b5061043760048036038101908080359060200190929190505050610f9f565b60405180826000191660001916815260200191505060405180910390f35b34801561046157600080fd5b506104b960048036038101908080359060200190820180359060200190808060200260200160405190810160405280939291908181526020018383602002808284378201915050505050509192919290505050610fac565b6040518080602001828103825283818151815260200191508051906020019060200280838360005b838110156104fc5780820151818401526020810190506104e1565b505050509050019250505060405180910390f35b34801561051c57600080fd5b5061057e6004803603810190808035906020019092919080359060200190820180359060200190808060200260200160405190810160405280939291908181526020018383602002808284378201915050505050509192919290505050611148565b60405180806020018060200180602001848103845287818151815260200191508051906020019060200280838360005b838110156105c95780820151818401526020810190506105ae565b50505050905001848103835286818151815260200191508051906020019060200280838360005b8381101561060b5780820151818401526020810190506105f0565b50505050905001848103825285818151815260200191508051906020019060200280838360005b8381101561064d578082015181840152602081019050610632565b50505050905001965050505050505060405180910390f35b60608060608060608060606000806000606060008d1415151561068757600080fd5b60008c5111151561069757600080fd5b6106a08c610fac565b975087516040519080825280602002602001820160405280156106d25781602001602082028038833980820191505090505b50965087516040519080825280602002602001820160405280156107055781602001602082028038833980820191505090505b50955087516040519080825280602002602001820160405280156107385781602001602082028038833980820191505090505b5094508c935060009250600091505b875182101561089e5783888381518110151561075f57fe5b9060200190602002015160405160200180838152602001828152602001925050506040516020818303038152906040526040518082805190602001908083835b6020831015156107c4578051825260208201915060208101905060208303925061079f565b6001836020036101000a0380198251168184511680821785525050505050509050019150506040518091039020600190049350600060028581151561080557fe5b06141561089157878281518110151561081a57fe5b90602001906020020151878481518110151561083257fe5b906020019060200201818152505061084984610936565b90919250909150878581518110151561085e57fe5b906020019060200201878681518110151561087557fe5b9060200190602002018281525082815250505082806001019350505b8180600101925050610747565b826040519080825280602002602001820160405280156108cd5781602001602082028038833980820191505090505b509050600091505b8282101561091e5786828151811015156108eb57fe5b90602001906020020151818381518110151561090357fe5b906020019060200201818152505081806001019250506108d5565b8086869a509a509a5050505050505050509250925092565b6000806000806000806000806000808a1415151561095357600080fd5b8994506127108581151561096357fe5b069450600060028681151561097457fe5b0614156109bf576109928581151561098857fe5b069350610dac8581151561099857fe5b06925061032060c8868115156109aa57fe5b06019150610168858115156109bb57fe5b0690505b83838383985098509850985050505050509193509193565b60006064430390505b43811015610a285760008140908060018154018082558091505090600182039060005260206000200160009091929091909150906000191690555080806001019150506109e0565b50565b6000806000808514151515610a3f57600080fd5b60008414151515610a4f57600080fd5b846001029150848460405160200180838152602001828152602001925050506040516020818303038152906040526040518082805190602001908083835b602083101515610ab25780518252602082019150602081019050602083039250610a8d565b6001836020036101000a03801982511681845116808217855250505050505090500191505060405180910390209150600090505b83811015610b8f578181604051602001808360001916600019168152602001828152602001925050506040516020818303038152906040526040518082805190602001908083835b602083101515610b535780518252602082019150602081019050602083039250610b2e565b6001836020036101000a038019825116818451168082178552505050505050905001915050604051809103902091508080600101915050610ae6565b819250505092915050565b60008080549050905090565b6000818360405160200180838152602001828152602001925050506040516020818303038152906040526040518082805190602001908083835b602083101515610c055780518252602082019150602081019050602083039250610be0565b6001836020036101000a038019825116818451168082178552505050505050905001915050604051809103902060019004905092915050565b60008082815481101515610c4e57fe5b90600052602060002001549050919050565b60008060008314151515610c7357600080fd5b600a8451141515610c8357600080fd5b6000846000815181101515610c9457fe5b90602001906020020151815481101515610caa57fe5b90600052602060002001546000856001815181101515610cc657fe5b90602001906020020151815481101515610cdc57fe5b90600052602060002001546000866002815181101515610cf857fe5b90602001906020020151815481101515610d0e57fe5b90600052602060002001546000876003815181101515610d2a57fe5b90602001906020020151815481101515610d4057fe5b90600052602060002001546000886004815181101515610d5c57fe5b90602001906020020151815481101515610d7257fe5b90600052602060002001546000896005815181101515610d8e57fe5b90602001906020020151815481101515610da457fe5b906000526020600020015460008a6006815181101515610dc057fe5b90602001906020020151815481101515610dd657fe5b906000526020600020015460008b6007815181101515610df257fe5b90602001906020020151815481101515610e0857fe5b906000526020600020015460008c6008815181101515610e2457fe5b90602001906020020151815481101515610e3a57fe5b906000526020600020015460008d6009815181101515610e5657fe5b90602001906020020151815481101515610e6c57fe5b90600052602060002001548c604051602001808c600019166000191681526020018b600019166000191681526020018a6000191660001916815260200189600019166000191681526020018860001916600019168152602001876000191660001916815260200186600019166000191681526020018560001916600019168152602001846000191660001916815260200183600019166000191681526020018281526020019b5050505050505050505050506040516020818303038152906040526040518082805190602001908083835b602083101515610f625780518252602082019150602081019050602083039250610f3d565b6001836020036101000a03801982511681845116808217855250505050505090500191505060405180910390209050806001900491505092915050565b6000816001029050919050565b6060806000806000806000806000606060008b51111515610fcc57600080fd5b600a8b5102604051908082528060200260200182016040528015610fff5781602001602082028038833980820191505090505b50985060009750600096505b8a518710156110b7578a8781518110151561102257fe5b906020019060200201519450849550600093505b600a8410156110aa5760026018850260029060020a0281151561105557fe5b0492508262ffffff8402871681151561106a57fe5b04915060008214151561109d5781898981518110151561108657fe5b906020019060200201818152505087806001019850505b8380600101945050611036565b868060010197505061100b565b876040519080825280602002602001820160405280156110e65781602001602082028038833980820191505090505b509050600093505b8784101561113757888481518110151561110457fe5b90602001906020020151818581518110151561111c57fe5b906020019060200201818152505083806001019450506110ee565b809950505050505050505050919050565b60608060608060608060606000806000606060008d1415151561116a57600080fd5b60008c5111151561117a57600080fd5b6111838c610fac565b975087516040519080825280602002602001820160405280156111b55781602001602082028038833980820191505090505b50965087516040519080825280602002602001820160405280156111e85781602001602082028038833980820191505090505b509550875160405190808252806020026020018201604052801561121b5781602001602082028038833980820191505090505b5094508c935060009250600091505b875182101561137d5783888381518110151561124257fe5b9060200190602002015160405160200180838152602001828152602001925050506040516020818303038152906040526040518082805190602001908083835b6020831015156112a75780518252602082019150602081019050602083039250611282565b6001836020036101000a038019825116818451168082178552505050505050905001915050604051809103902060019004935060006002858115156112e857fe5b0614156113705787828151811015156112fd57fe5b90602001906020020151878481518110151561131557fe5b906020019060200201818152505061132c84610936565b905050878581518110151561133d57fe5b906020019060200201878681518110151561135457fe5b9060200190602002018281525082815250505082806001019350505b818060010192505061122a565b826040519080825280602002602001820160405280156113ac5781602001602082028038833980820191505090505b509050600091505b828210156113fd5786828151811015156113ca57fe5b9060200190602002015181838151811015156113e257fe5b906020019060200201818152505081806001019250506113b4565b8086869a509a509a50505050505050505092509250925600a165627a7a723058200615cff7df0b042e848312ee0ba96443c3e000b149a3a5112fc6f6ced92fb1cc0029",
  "source": "pragma solidity ^0.4.23;\n\ncontract Functions {\n\n    bytes32[] randomHashes;\n\n    function fillWithHashes() public {\n        for(uint i = block.number - 100; i < block.number; i++){\n            randomHashes.push(blockhash(i));\n        }\n    }\n\n    //        /// @notice Function for test purposes because in local rpc can't get last 100 blocks\n    //        function fillRadnomHashes() public {\n    //            bytes32 initialHash = \"0x1234567891011111112131311\";\n    //\n    //            for(uint i=0; i<100; i++){\n    //                randomHashes.push(keccak256(initialHash,i));\n    //            }\n    //        }\n\n\n    /// @notice Function which decodes bytes32 to array of integers\n    /// @param _potentialAssets are potential assets user would like to have\n    /// @return array of assetIds\n    function decodeAssets(bytes32[] _potentialAssets) public pure returns (uint[]) {\n        require(_potentialAssets.length > 0);\n        uint[] memory assets = new uint[](_potentialAssets.length*10);\n        uint numberOfAssets = 0;\n\n        for(uint j = 0; j<_potentialAssets.length; j++){\n            uint input;\n            bytes32 pot = _potentialAssets[j];\n\n            assembly {\n                input := pot\n            }\n\n            for(uint i = 0; i<10; i++){\n                uint mask = (2 << (i * 24)) / 2;\n                uint b = (input & (mask * 16777215)) / mask;\n\n                if(b!=0) {\n                    assets[numberOfAssets] = b;\n                    numberOfAssets++;\n                }\n            }\n        }\n\n        uint[] memory ass = new uint[](numberOfAssets);\n        for(i = 0; i<numberOfAssets; i++){\n            ass[i] = assets[i];\n        }\n\n        return ass;\n    }\n\n\n    /// @notice Function to pick random assets from potentialAssets array\n    /// @param _finalSeed is final random seed\n    /// @param _potentialAssets is bytes32[] array of potential assets\n    /// @return uint[] array of randomly picked assets\n    function pickRandomAssets(uint _finalSeed, bytes32[] _potentialAssets) public pure returns(uint[],uint[],uint[]) {\n        require(_finalSeed != 0);\n        require(_potentialAssets.length > 0);\n\n        uint[] memory assetIds = decodeAssets(_potentialAssets);\n        uint[] memory pickedIds = new uint[](assetIds.length);\n        uint[] memory x = new uint[](assetIds.length);\n        uint[] memory y = new uint[](assetIds.length);\n\n        uint finalSeedCopy = _finalSeed;\n        uint index = 0;\n\n        for(uint i = 0; i<assetIds.length; i++){\n            finalSeedCopy = uint(keccak256(abi.encodePacked(finalSeedCopy, assetIds[i])));\n            if(finalSeedCopy % 2 == 0){\n                pickedIds[index] = assetIds[i];\n                (x[index],y[index],,) = pickRandomAssetPosition(finalSeedCopy);\n                index++;\n            }\n        }\n\n        uint[] memory finalPicked = new uint[](index);\n        for(i = 0; i<index; i++){\n            finalPicked[i] = pickedIds[i];\n        }\n\n        return (finalPicked,x,y);\n    }\n    /// @notice Function to pick random assets from potentialAssets array\n    /// @param _finalSeed is final random seed\n    /// @param _potentialAssets is bytes32[] array of potential assets\n    /// @return uint[] array of randomly picked assets\n    function pickRandomZoomAndRotation(uint _finalSeed, bytes32[] _potentialAssets) public pure returns(uint[],uint[],uint[]) {\n        require(_finalSeed != 0);\n        require(_potentialAssets.length > 0);\n\n        uint[] memory assetIds = decodeAssets(_potentialAssets);\n        uint[] memory pickedIds = new uint[](assetIds.length);\n        uint[] memory zoom = new uint[](assetIds.length);\n        uint[] memory rotation = new uint[](assetIds.length);\n\n        uint finalSeedCopy = _finalSeed;\n        uint index = 0;\n\n        for(uint i = 0; i<assetIds.length; i++){\n            finalSeedCopy = uint(keccak256(abi.encodePacked(finalSeedCopy, assetIds[i])));\n            if(finalSeedCopy % 2 == 0){\n                pickedIds[index] = assetIds[i];\n                (,,zoom[index],rotation[index]) = pickRandomAssetPosition(finalSeedCopy);\n                index++;\n            }\n        }\n\n        uint[] memory finalPicked = new uint[](index);\n        for(i = 0; i<index; i++){\n            finalPicked[i] = pickedIds[i];\n        }\n\n        return (finalPicked,zoom,rotation);\n    }\n\n    /// @notice Function to pick random position for an asset\n    /// @dev based on id and random_seed\n    /// @param _random_seed is random seed for that image\n    /// @return tuple of uints representing x,y,zoom,and rotation\n    function pickRandomAssetPosition(uint _random_seed) public pure returns (uint,uint,uint,uint) {\n        require(_random_seed!=0);\n        uint rs = _random_seed;\n\n        rs = rs % 10000;\n\n        uint x;\n        uint y;\n        uint zoom;\n        uint rotation;\n\n        if (rs % 2 == 0) {\n            x = rs%2450;\n            y = rs%3500;\n            zoom = rs%200 + 800;\n            rotation = rs%360;\n        }\n\n        return (x,y,zoom,rotation);\n    }\n\n\n    /// @notice Function to calculate initial random seed based on our hashes\n    /// @param _randomHashIds are ids in our array of hashes\n    /// @param _timestamp is timestamp for that hash\n    /// @return uint representation of random seed\n    function calculateSeed(uint[] _randomHashIds, uint _timestamp) public view returns (uint){\n        require(_timestamp!=0);\n        require(_randomHashIds.length == 10);\n\n        bytes32 randomSeed = keccak256(\n            abi.encodePacked(\n            randomHashes[_randomHashIds[0]], randomHashes[_randomHashIds[1]],\n            randomHashes[_randomHashIds[2]], randomHashes[_randomHashIds[3]],\n            randomHashes[_randomHashIds[4]], randomHashes[_randomHashIds[5]],\n            randomHashes[_randomHashIds[6]], randomHashes[_randomHashIds[7]],\n            randomHashes[_randomHashIds[8]], randomHashes[_randomHashIds[9]],\n            _timestamp\n            )\n        );\n\n        return uint(randomSeed);\n    }\n\n\n    /// @notice Function to calculate final random seed for user\n    /// @param _random_seed is initially given random seed\n    /// @param _iterations is number of iterations\n    /// @return final seed for user as uint\n    function getFinalSeed(uint _random_seed, uint _iterations) public pure returns (bytes32){\n        require(_random_seed!=0);\n        require(_iterations!=0);\n        bytes32 finalSeed = bytes32(_random_seed);\n\n        finalSeed = keccak256(abi.encodePacked(_random_seed, _iterations));\n        for(uint i = 0; i<_iterations; i++){\n            finalSeed = keccak256(abi.encodePacked(finalSeed, i));\n        }\n\n        return finalSeed;\n    }\n\n\n    function getRandomHash(uint _index) public view returns(bytes32){\n        return randomHashes[_index];\n    }\n\n    function getLen() public view returns(uint) {\n        return randomHashes.length;\n    }\n\n    function getSeed(uint assetId, uint random_seed) public pure returns(uint) {\n        return uint(keccak256(abi.encodePacked(random_seed, assetId)));\n    }\n\n    function toHex(uint random_seed) public pure returns (bytes32) {\n        return bytes32(random_seed);\n    }\n}\n",
  "sourcePath": "/Users/nikolamadjarevic/Desktop/Decenter/Cryptographics/contracts/Utils/Functions.sol",
  "compiler": {
    "name": "solc",
    "version": "0.4.24+commit.e67f0147.Emscripten.clang"
  },
  "schemaVersion": "2.0.1",
  "updatedAt": "2018-07-17T09:41:19.478Z"
}