{
  "contractName": "ImageToken",
  "abi": [
    {
      "constant": true,
      "inputs": [
        {
          "name": "",
          "type": "uint256"
        }
      ],
      "name": "tokenPosInArr",
      "outputs": [
        {
          "name": "",
          "type": "uint256"
        }
      ],
      "payable": false,
      "stateMutability": "view",
      "type": "function"
    },
    {
      "constant": true,
      "inputs": [],
      "name": "name",
      "outputs": [
        {
          "name": "",
          "type": "string"
        }
      ],
      "payable": false,
      "stateMutability": "view",
      "type": "function"
    },
    {
      "constant": true,
      "inputs": [
        {
          "name": "",
          "type": "uint256"
        }
      ],
      "name": "tokensForOwner",
      "outputs": [
        {
          "name": "",
          "type": "address"
        }
      ],
      "payable": false,
      "stateMutability": "view",
      "type": "function"
    },
    {
      "constant": true,
      "inputs": [
        {
          "name": "",
          "type": "uint256"
        }
      ],
      "name": "tokensForApproved",
      "outputs": [
        {
          "name": "",
          "type": "address"
        }
      ],
      "payable": false,
      "stateMutability": "view",
      "type": "function"
    },
    {
      "constant": true,
      "inputs": [
        {
          "name": "",
          "type": "address"
        },
        {
          "name": "",
          "type": "uint256"
        }
      ],
      "name": "tokensOwned",
      "outputs": [
        {
          "name": "",
          "type": "uint256"
        }
      ],
      "payable": false,
      "stateMutability": "view",
      "type": "function"
    },
    {
      "constant": true,
      "inputs": [],
      "name": "owner",
      "outputs": [
        {
          "name": "",
          "type": "address"
        }
      ],
      "payable": false,
      "stateMutability": "view",
      "type": "function"
    },
    {
      "constant": true,
      "inputs": [],
      "name": "symbol",
      "outputs": [
        {
          "name": "",
          "type": "string"
        }
      ],
      "payable": false,
      "stateMutability": "view",
      "type": "function"
    },
    {
      "constant": true,
      "inputs": [],
      "name": "numOfImages",
      "outputs": [
        {
          "name": "",
          "type": "uint256"
        }
      ],
      "payable": false,
      "stateMutability": "view",
      "type": "function"
    },
    {
      "constant": false,
      "inputs": [
        {
          "name": "newOwner",
          "type": "address"
        }
      ],
      "name": "transferOwnership",
      "outputs": [],
      "payable": false,
      "stateMutability": "nonpayable",
      "type": "function"
    },
    {
      "inputs": [],
      "payable": false,
      "stateMutability": "nonpayable",
      "type": "constructor"
    },
    {
      "anonymous": false,
      "inputs": [
        {
          "indexed": true,
          "name": "from",
          "type": "address"
        },
        {
          "indexed": true,
          "name": "to",
          "type": "address"
        },
        {
          "indexed": true,
          "name": "tokenId",
          "type": "uint256"
        }
      ],
      "name": "Transfer",
      "type": "event"
    },
    {
      "anonymous": false,
      "inputs": [
        {
          "indexed": true,
          "name": "owner",
          "type": "address"
        },
        {
          "indexed": true,
          "name": "approved",
          "type": "address"
        },
        {
          "indexed": true,
          "name": "tokenId",
          "type": "uint256"
        }
      ],
      "name": "Approval",
      "type": "event"
    },
    {
      "anonymous": false,
      "inputs": [
        {
          "indexed": true,
          "name": "_to",
          "type": "address"
        },
        {
          "indexed": true,
          "name": "_tokenId",
          "type": "uint256"
        }
      ],
      "name": "Mint",
      "type": "event"
    },
    {
      "anonymous": false,
      "inputs": [
        {
          "indexed": true,
          "name": "previousOwner",
          "type": "address"
        },
        {
          "indexed": true,
          "name": "newOwner",
          "type": "address"
        }
      ],
      "name": "OwnershipTransferred",
      "type": "event"
    },
    {
      "constant": false,
      "inputs": [
        {
          "name": "_to",
          "type": "address"
        },
        {
          "name": "_imageId",
          "type": "uint256"
        }
      ],
      "name": "transfer",
      "outputs": [],
      "payable": false,
      "stateMutability": "nonpayable",
      "type": "function"
    },
    {
      "constant": false,
      "inputs": [
        {
          "name": "_to",
          "type": "address"
        },
        {
          "name": "_imageId",
          "type": "uint256"
        }
      ],
      "name": "approve",
      "outputs": [],
      "payable": false,
      "stateMutability": "nonpayable",
      "type": "function"
    },
    {
      "constant": false,
      "inputs": [
        {
          "name": "_from",
          "type": "address"
        },
        {
          "name": "_to",
          "type": "address"
        },
        {
          "name": "_imageId",
          "type": "uint256"
        }
      ],
      "name": "transferFrom",
      "outputs": [],
      "payable": false,
      "stateMutability": "nonpayable",
      "type": "function"
    },
    {
      "constant": true,
      "inputs": [],
      "name": "totalSupply",
      "outputs": [
        {
          "name": "",
          "type": "uint256"
        }
      ],
      "payable": false,
      "stateMutability": "view",
      "type": "function"
    },
    {
      "constant": true,
      "inputs": [
        {
          "name": "_owner",
          "type": "address"
        }
      ],
      "name": "balanceOf",
      "outputs": [
        {
          "name": "balance",
          "type": "uint256"
        }
      ],
      "payable": false,
      "stateMutability": "view",
      "type": "function"
    },
    {
      "constant": true,
      "inputs": [
        {
          "name": "_imageId",
          "type": "uint256"
        }
      ],
      "name": "ownerOf",
      "outputs": [
        {
          "name": "",
          "type": "address"
        }
      ],
      "payable": false,
      "stateMutability": "view",
      "type": "function"
    },
    {
      "constant": true,
      "inputs": [
        {
          "name": "_owner",
          "type": "address"
        },
        {
          "name": "_index",
          "type": "uint256"
        }
      ],
      "name": "tokenOfOwnerByIndex",
      "outputs": [
        {
          "name": "",
          "type": "uint256"
        }
      ],
      "payable": false,
      "stateMutability": "view",
      "type": "function"
    },
    {
      "constant": true,
      "inputs": [
        {
          "name": "_owner",
          "type": "address"
        }
      ],
      "name": "getUserImages",
      "outputs": [
        {
          "name": "",
          "type": "uint256[]"
        }
      ],
      "payable": false,
      "stateMutability": "view",
      "type": "function"
    },
    {
      "constant": true,
      "inputs": [],
      "name": "implementsERC721",
      "outputs": [
        {
          "name": "",
          "type": "bool"
        }
      ],
      "payable": false,
      "stateMutability": "pure",
      "type": "function"
    }
  ],
  "bytecode": "0x60806040523480156200001157600080fd5b50336000806101000a81548173ffffffffffffffffffffffffffffffffffffffff021916908373ffffffffffffffffffffffffffffffffffffffff1602179055506040805190810160405280600a81526020017f496d616765546f6b656e00000000000000000000000000000000000000000000815250600590805190602001906200009f929190620000fc565b506040805190810160405280600381526020017f494d54000000000000000000000000000000000000000000000000000000000081525060069080519060200190620000ed929190620000fc565b506000600781905550620001ab565b828054600181600116156101000203166002900490600052602060002090601f016020900481019282601f106200013f57805160ff191683800117855562000170565b8280016001018555821562000170579182015b828111156200016f57825182559160200191906001019062000152565b5b5090506200017f919062000183565b5090565b620001a891905b80821115620001a45760008160009055506001016200018a565b5090565b90565b6115c380620001bb6000396000f3006080604052600436106100fc576000357c0100000000000000000000000000000000000000000000000000000000900463ffffffff168063056cf1d91461010157806306fdde031461014257806308a6c05a146101d2578063095ea7b31461023f5780630de66a7d1461028c5780631051db34146102f957806318160ddd1461032857806323b872dd146103535780632f745c59146103c05780636352211e1461042157806370a082311461048e578063853b5bb3146104e55780638da5cb5b1461054657806395d89b411461059d578063a9059cbb1461062d578063e75e70051461067a578063eb6bbd78146106a5578063f2fde38b1461073d575b600080fd5b34801561010d57600080fd5b5061012c60048036038101908080359060200190929190505050610780565b6040518082815260200191505060405180910390f35b34801561014e57600080fd5b50610157610798565b6040518080602001828103825283818151815260200191508051906020019080838360005b8381101561019757808201518184015260208101905061017c565b50505050905090810190601f1680156101c45780820380516001836020036101000a031916815260200191505b509250505060405180910390f35b3480156101de57600080fd5b506101fd60048036038101908080359060200190929190505050610836565b604051808273ffffffffffffffffffffffffffffffffffffffff1673ffffffffffffffffffffffffffffffffffffffff16815260200191505060405180910390f35b34801561024b57600080fd5b5061028a600480360381019080803573ffffffffffffffffffffffffffffffffffffffff16906020019092919080359060200190929190505050610869565b005b34801561029857600080fd5b506102b760048036038101908080359060200190929190505050610a3b565b604051808273ffffffffffffffffffffffffffffffffffffffff1673ffffffffffffffffffffffffffffffffffffffff16815260200191505060405180910390f35b34801561030557600080fd5b5061030e610a6e565b604051808215151515815260200191505060405180910390f35b34801561033457600080fd5b5061033d610a77565b6040518082815260200191505060405180910390f35b34801561035f57600080fd5b506103be600480360381019080803573ffffffffffffffffffffffffffffffffffffffff169060200190929190803573ffffffffffffffffffffffffffffffffffffffff16906020019092919080359060200190929190505050610a81565b005b3480156103cc57600080fd5b5061040b600480360381019080803573ffffffffffffffffffffffffffffffffffffffff16906020019092919080359060200190929190505050610c91565b6040518082815260200191505060405180910390f35b34801561042d57600080fd5b5061044c60048036038101908080359060200190929190505050610cf2565b604051808273ffffffffffffffffffffffffffffffffffffffff1673ffffffffffffffffffffffffffffffffffffffff16815260200191505060405180910390f35b34801561049a57600080fd5b506104cf600480360381019080803573ffffffffffffffffffffffffffffffffffffffff169060200190929190505050610d2f565b6040518082815260200191505060405180910390f35b3480156104f157600080fd5b50610530600480360381019080803573ffffffffffffffffffffffffffffffffffffffff16906020019092919080359060200190929190505050610d7b565b6040518082815260200191505060405180910390f35b34801561055257600080fd5b5061055b610dab565b604051808273ffffffffffffffffffffffffffffffffffffffff1673ffffffffffffffffffffffffffffffffffffffff16815260200191505060405180910390f35b3480156105a957600080fd5b506105b2610dd0565b6040518080602001828103825283818151815260200191508051906020019080838360005b838110156105f25780820151818401526020810190506105d7565b50505050905090810190601f16801561061f5780820380516001836020036101000a031916815260200191505b509250505060405180910390f35b34801561063957600080fd5b50610678600480360381019080803573ffffffffffffffffffffffffffffffffffffffff16906020019092919080359060200190929190505050610e6e565b005b34801561068657600080fd5b5061068f611015565b6040518082815260200191505060405180910390f35b3480156106b157600080fd5b506106e6600480360381019080803573ffffffffffffffffffffffffffffffffffffffff16906020019092919050505061101b565b6040518080602001828103825283818151815260200191508051906020019060200280838360005b8381101561072957808201518184015260208101905061070e565b505050509050019250505060405180910390f35b34801561074957600080fd5b5061077e600480360381019080803573ffffffffffffffffffffffffffffffffffffffff1690602001909291905050506110b2565b005b60046020528060005260406000206000915090505481565b60058054600181600116156101000203166002900480601f01602080910402602001604051908101604052809291908181526020018280546001816001161561010002031660029004801561082e5780601f106108035761010080835404028352916020019161082e565b820191906000526020600020905b81548152906001019060200180831161081157829003601f168201915b505050505081565b60016020528060005260406000206000915054906101000a900473ffffffffffffffffffffffffffffffffffffffff1681565b60006001600083815260200190815260200160002060009054906101000a900473ffffffffffffffffffffffffffffffffffffffff1673ffffffffffffffffffffffffffffffffffffffff16141515156108c257600080fd5b3373ffffffffffffffffffffffffffffffffffffffff166108e282610cf2565b73ffffffffffffffffffffffffffffffffffffffff1614151561090457600080fd5b3373ffffffffffffffffffffffffffffffffffffffff168273ffffffffffffffffffffffffffffffffffffffff161415151561093f57600080fd5b600061094a82611207565b73ffffffffffffffffffffffffffffffffffffffff16141580610984575060008273ffffffffffffffffffffffffffffffffffffffff1614155b15610a3757816002600083815260200190815260200160002060006101000a81548173ffffffffffffffffffffffffffffffffffffffff021916908373ffffffffffffffffffffffffffffffffffffffff160217905550808273ffffffffffffffffffffffffffffffffffffffff163373ffffffffffffffffffffffffffffffffffffffff167f8c5be1e5ebec7d5bd14f71427d1e84f3dd0314c0f7b2291e5b200ac8c7c3b92560405160405180910390a45b5050565b60026020528060005260406000206000915054906101000a900473ffffffffffffffffffffffffffffffffffffffff1681565b60006001905090565b6000600754905090565b60006001600083815260200190815260200160002060009054906101000a900473ffffffffffffffffffffffffffffffffffffffff1673ffffffffffffffffffffffffffffffffffffffff1614151515610ada57600080fd5b3373ffffffffffffffffffffffffffffffffffffffff16610afa82611207565b73ffffffffffffffffffffffffffffffffffffffff16141515610b1c57600080fd5b8273ffffffffffffffffffffffffffffffffffffffff16610b3c82610cf2565b73ffffffffffffffffffffffffffffffffffffffff16141515610b5e57600080fd5b60008273ffffffffffffffffffffffffffffffffffffffff1614151515610b8457600080fd5b60006002600083815260200190815260200160002060006101000a81548173ffffffffffffffffffffffffffffffffffffffff021916908373ffffffffffffffffffffffffffffffffffffffff160217905550610be18382611244565b610beb828261142a565b8060008473ffffffffffffffffffffffffffffffffffffffff167f8c5be1e5ebec7d5bd14f71427d1e84f3dd0314c0f7b2291e5b200ac8c7c3b92560405160405180910390a4808273ffffffffffffffffffffffffffffffffffffffff168473ffffffffffffffffffffffffffffffffffffffff167fddf252ad1be2c89b69c2b068fc378daa952ba7f163c4a11628f55a4df523b3ef60405160405180910390a4505050565b6000600360008473ffffffffffffffffffffffffffffffffffffffff1673ffffffffffffffffffffffffffffffffffffffff16815260200190815260200160002082815481101515610cdf57fe5b9060005260206000200154905092915050565b60006001600083815260200190815260200160002060009054906101000a900473ffffffffffffffffffffffffffffffffffffffff169050919050565b6000600360008373ffffffffffffffffffffffffffffffffffffffff1673ffffffffffffffffffffffffffffffffffffffff168152602001908152602001600020805490509050919050565b600360205281600052604060002081815481101515610d9657fe5b90600052602060002001600091509150505481565b6000809054906101000a900473ffffffffffffffffffffffffffffffffffffffff1681565b60068054600181600116156101000203166002900480601f016020809104026020016040519081016040528092919081815260200182805460018160011615610100020316600290048015610e665780601f10610e3b57610100808354040283529160200191610e66565b820191906000526020600020905b815481529060010190602001808311610e4957829003601f168201915b505050505081565b60006001600083815260200190815260200160002060009054906101000a900473ffffffffffffffffffffffffffffffffffffffff1673ffffffffffffffffffffffffffffffffffffffff1614151515610ec757600080fd5b3373ffffffffffffffffffffffffffffffffffffffff16610ee782610cf2565b73ffffffffffffffffffffffffffffffffffffffff16141515610f0957600080fd5b60006002600083815260200190815260200160002060006101000a81548173ffffffffffffffffffffffffffffffffffffffff021916908373ffffffffffffffffffffffffffffffffffffffff160217905550610f663382611244565b610f70828261142a565b8060003373ffffffffffffffffffffffffffffffffffffffff167f8c5be1e5ebec7d5bd14f71427d1e84f3dd0314c0f7b2291e5b200ac8c7c3b92560405160405180910390a4808273ffffffffffffffffffffffffffffffffffffffff163373ffffffffffffffffffffffffffffffffffffffff167fddf252ad1be2c89b69c2b068fc378daa952ba7f163c4a11628f55a4df523b3ef60405160405180910390a45050565b60075481565b6060600360008373ffffffffffffffffffffffffffffffffffffffff1673ffffffffffffffffffffffffffffffffffffffff1681526020019081526020016000208054806020026020016040519081016040528092919081815260200182805480156110a657602002820191906000526020600020905b815481526020019060010190808311611092575b50505050509050919050565b6000809054906101000a900473ffffffffffffffffffffffffffffffffffffffff1673ffffffffffffffffffffffffffffffffffffffff163373ffffffffffffffffffffffffffffffffffffffff1614151561110d57600080fd5b600073ffffffffffffffffffffffffffffffffffffffff168173ffffffffffffffffffffffffffffffffffffffff161415151561114957600080fd5b8073ffffffffffffffffffffffffffffffffffffffff166000809054906101000a900473ffffffffffffffffffffffffffffffffffffffff1673ffffffffffffffffffffffffffffffffffffffff167f8be0079c531659141344cd1fd0a4f28419497f9722a3daafe3b4186f6b6457e060405160405180910390a3806000806101000a81548173ffffffffffffffffffffffffffffffffffffffff021916908373ffffffffffffffffffffffffffffffffffffffff16021790555050565b60006002600083815260200190815260200160002060009054906101000a900473ffffffffffffffffffffffffffffffffffffffff169050919050565b6000806000600360008673ffffffffffffffffffffffffffffffffffffffff1673ffffffffffffffffffffffffffffffffffffffff16815260200190815260200160002080549050925060046000858152602001908152602001600020549150600360008673ffffffffffffffffffffffffffffffffffffffff1673ffffffffffffffffffffffffffffffffffffffff168152602001908152602001600020600184038154811015156112f357fe5b9060005260206000200154905080600360008773ffffffffffffffffffffffffffffffffffffffff1673ffffffffffffffffffffffffffffffffffffffff1681526020019081526020016000208381548110151561134d57fe5b9060005260206000200181905550816004600083815260200190815260200160002081905550600360008673ffffffffffffffffffffffffffffffffffffffff1673ffffffffffffffffffffffffffffffffffffffff168152602001908152602001600020600184038154811015156113c257fe5b9060005260206000200160009055600360008673ffffffffffffffffffffffffffffffffffffffff1673ffffffffffffffffffffffffffffffffffffffff1681526020019081526020016000208054809190600190036114229190611546565b505050505050565b816001600083815260200190815260200160002060006101000a81548173ffffffffffffffffffffffffffffffffffffffff021916908373ffffffffffffffffffffffffffffffffffffffff160217905550600360008373ffffffffffffffffffffffffffffffffffffffff1673ffffffffffffffffffffffffffffffffffffffff1681526020019081526020016000208190806001815401808255809150509060018203906000526020600020016000909192909190915055506001600360008473ffffffffffffffffffffffffffffffffffffffff1673ffffffffffffffffffffffffffffffffffffffff168152602001908152602001600020805490500360046000838152602001908152602001600020819055505050565b81548183558181111561156d5781836000526020600020918201910161156c9190611572565b5b505050565b61159491905b80821115611590576000816000905550600101611578565b5090565b905600a165627a7a7230582003813dc68d3d800a48b83f34cd7acd1e64031d3e3b1117f21e2604e14c440d480029",
  "source": "pragma solidity ^0.4.23;\n\nimport \"../Utils/Ownable.sol\";\nimport \"./ERC721.sol\";\n\ncontract ImageToken is Ownable,ERC721 {\n\n    mapping (uint => address) public tokensForOwner;\n    mapping (uint => address) public tokensForApproved;\n    mapping (address => uint[]) public tokensOwned;\n    mapping (uint => uint) public tokenPosInArr;\n\n\n    string public name;\n    string public symbol;\n    uint public numOfImages;\n\n    event Transfer(address indexed from, address indexed to, uint256 indexed tokenId);\n    event Approval(address indexed owner, address indexed approved, uint256 indexed tokenId);\n    event Mint(address indexed _to, uint256 indexed _tokenId);\n\n\n    /// @notice Function constructor\n    /// @dev will set name, symbol, and initial number of existing images to zero.\n    constructor () public {\n        name = \"ImageToken\";\n        symbol = \"IMT\";\n        numOfImages = 0;\n    }\n\n    /// @notice create image for specific owner\n    /// @param _owner address for image owner\n    /// @return function returns id of created image\n    function createImage(address _owner) internal returns (uint) {\n        uint imageId = numOfImages;\n        tokensForOwner[imageId] = _owner;\n        tokensOwned[_owner].push(imageId);\n        tokenPosInArr[imageId] = tokensOwned[_owner].length - 1;\n\n        numOfImages++;\n        emit Mint(_owner, imageId);\n        return imageId;\n    }\n\n    /// @notice transfer image to another address\n    /// @param _to address to whom we send image\n    /// @param _imageId id of image we have that we send to another address\n    function transfer(address _to, uint256 _imageId) public {\n        require(tokensForOwner[_imageId] != 0x0);\n        require(ownerOf(_imageId) == msg.sender);\n\n        tokensForApproved[_imageId] = 0x0;\n        removeImage(msg.sender, _imageId);\n        addImage(_to, _imageId);\n\n        emit Approval(msg.sender, 0, _imageId);\n        emit Transfer(msg.sender, _to, _imageId);\n    }\n\n    /// @notice approving image to be taken from specific address\n    /// @param _to address that we give permission to take image\n    /// @param _imageId is id of image we are going to give\n    function approve(address _to, uint256 _imageId) public {\n        require(tokensForOwner[_imageId] != 0x0);\n        require(ownerOf(_imageId) == msg.sender);\n        require(_to != msg.sender);\n\n        if(_getApproved(_imageId) != 0x0 || _to != 0x0) {\n            tokensForApproved[_imageId] = _to;\n            emit Approval(msg.sender, _to, _imageId);\n        }\n    }\n\n    /// @notice takes approved image from another user and sends it to another address\n    /// @param _from is address of current owner of image\n    /// @param _to is address of new image owner (address we are giving ownership to)\n    /// @param _imageId is id of image we are going to transfer\n    function transferFrom(address _from, address _to, uint256 _imageId) public {\n        require(tokensForOwner[_imageId] != 0x0);\n        require(_getApproved(_imageId) == msg.sender);\n        require(ownerOf(_imageId) == _from);\n        require(_to != 0x0);\n\n        tokensForApproved[_imageId] = 0x0;\n        removeImage(_from, _imageId);\n        addImage(_to, _imageId);\n\n        emit Approval(_from, 0, _imageId);\n        emit Transfer(_from, _to, _imageId);\n    }\n\n    /// @notice add image with image id to Owner\n    /// @dev for internal usage, will be called in another method, just writing clean code\n    /// @param _owner is address of new image owner\n    /// @param _imageId is Id of image for new owner\n    function addImage(address _owner, uint _imageId) internal {\n        tokensForOwner[_imageId] = _owner;\n        tokensOwned[_owner].push(_imageId);\n        tokenPosInArr[_imageId] = tokensOwned[_owner].length - 1;\n    }\n\n\n    /// @notice remove image with image id from owner\n    /// @dev for internal usage, will be called in another method, just writing clean code\n    /// @param _owner is address of current image owner\n    /// @param _imageId is Id of image we are removing from him\n    function removeImage(address _owner, uint _imageId) internal {\n        uint length = tokensOwned[_owner].length;\n        uint index = tokenPosInArr[_imageId];\n        uint swapToken = tokensOwned[_owner][length-1];\n\n        tokensOwned[_owner][index] = swapToken;\n        tokenPosInArr[swapToken] = index;\n\n        delete tokensOwned[_owner][length -1];\n        tokensOwned[_owner].length--;\n    }\n\n    function totalSupply() public view returns (uint256) {\n        return numOfImages;\n    }\n\n    function balanceOf(address _owner) public view returns (uint256 balance) {\n        return tokensOwned[_owner].length;\n    }\n\n    function ownerOf(uint256 _imageId) public view returns (address) {\n        return tokensForOwner[_imageId];\n    }\n\n    function tokenOfOwnerByIndex(address _owner, uint256 _index) public view returns (uint256) {\n        return tokensOwned[_owner][_index];\n    }\n\n    function getUserImages(address _owner) public view returns (uint[]) {\n        return tokensOwned[_owner];\n    }\n\n    function _getApproved(uint _imageId) internal view returns (address) {\n        return tokensForApproved[_imageId];\n    }\n\n    function implementsERC721() public pure returns (bool) {\n        return true;\n    }\n}",
  "sourcePath": "/Users/nikolaklipa/Decenter/Cryptographics/contracts/Image/ImageToken.sol",
  "compiler": {
    "name": "solc",
    "version": "0.4.24+commit.e67f0147.Emscripten.clang"
  },
  "schemaVersion": "2.0.1",
  "updatedAt": "2018-07-13T09:28:32.011Z"
}