{
  "contractName": "Marketplace",
  "abi": [
    {
      "constant": true,
      "inputs": [],
      "name": "digitalPrintImageContract",
      "outputs": [
        {
          "name": "",
          "type": "address"
        }
      ],
      "payable": false,
      "stateMutability": "view",
      "type": "function"
    },
    {
      "constant": true,
      "inputs": [],
      "name": "owner",
      "outputs": [
        {
          "name": "",
          "type": "address"
        }
      ],
      "payable": false,
      "stateMutability": "view",
      "type": "function"
    },
    {
      "constant": true,
      "inputs": [
        {
          "name": "",
          "type": "uint256"
        }
      ],
      "name": "allAds",
      "outputs": [
        {
          "name": "",
          "type": "uint256"
        }
      ],
      "payable": false,
      "stateMutability": "view",
      "type": "function"
    },
    {
      "constant": true,
      "inputs": [
        {
          "name": "",
          "type": "uint256"
        }
      ],
      "name": "sellAds",
      "outputs": [
        {
          "name": "price",
          "type": "uint256"
        },
        {
          "name": "exchanger",
          "type": "address"
        },
        {
          "name": "exists",
          "type": "bool"
        }
      ],
      "payable": false,
      "stateMutability": "view",
      "type": "function"
    },
    {
      "constant": true,
      "inputs": [],
      "name": "creatorPercentage",
      "outputs": [
        {
          "name": "",
          "type": "uint256"
        }
      ],
      "payable": false,
      "stateMutability": "view",
      "type": "function"
    },
    {
      "constant": false,
      "inputs": [
        {
          "name": "newOwner",
          "type": "address"
        }
      ],
      "name": "transferOwnership",
      "outputs": [],
      "payable": false,
      "stateMutability": "nonpayable",
      "type": "function"
    },
    {
      "constant": true,
      "inputs": [],
      "name": "numberOfAds",
      "outputs": [
        {
          "name": "",
          "type": "uint256"
        }
      ],
      "payable": false,
      "stateMutability": "view",
      "type": "function"
    },
    {
      "inputs": [
        {
          "name": "_digitalPrintImageContract",
          "type": "address"
        }
      ],
      "payable": false,
      "stateMutability": "nonpayable",
      "type": "constructor"
    },
    {
      "anonymous": false,
      "inputs": [
        {
          "indexed": true,
          "name": "previousOwner",
          "type": "address"
        },
        {
          "indexed": true,
          "name": "newOwner",
          "type": "address"
        }
      ],
      "name": "OwnershipTransferred",
      "type": "event"
    },
    {
      "constant": false,
      "inputs": [
        {
          "name": "_imageId",
          "type": "uint256"
        },
        {
          "name": "_price",
          "type": "uint256"
        }
      ],
      "name": "sell",
      "outputs": [],
      "payable": false,
      "stateMutability": "nonpayable",
      "type": "function"
    },
    {
      "constant": true,
      "inputs": [],
      "name": "getActiveAds",
      "outputs": [
        {
          "name": "",
          "type": "uint256[]"
        },
        {
          "name": "",
          "type": "uint256[]"
        }
      ],
      "payable": false,
      "stateMutability": "view",
      "type": "function"
    },
    {
      "constant": true,
      "inputs": [
        {
          "name": "_imageId",
          "type": "uint256"
        }
      ],
      "name": "isImageOnSale",
      "outputs": [
        {
          "name": "",
          "type": "bool"
        }
      ],
      "payable": false,
      "stateMutability": "view",
      "type": "function"
    },
    {
      "constant": false,
      "inputs": [
        {
          "name": "_imageId",
          "type": "uint256"
        }
      ],
      "name": "buy",
      "outputs": [],
      "payable": true,
      "stateMutability": "payable",
      "type": "function"
    },
    {
      "constant": false,
      "inputs": [
        {
          "name": "_imageId",
          "type": "uint256"
        }
      ],
      "name": "cancel",
      "outputs": [],
      "payable": false,
      "stateMutability": "nonpayable",
      "type": "function"
    }
  ],
  "bytecode": "0x6080604052600560025534801561001557600080fd5b506040516020806110ee83398101806040528101908080519060200190929190505050336000806101000a81548173ffffffffffffffffffffffffffffffffffffffff021916908373ffffffffffffffffffffffffffffffffffffffff16021790555080600160006101000a81548173ffffffffffffffffffffffffffffffffffffffff021916908373ffffffffffffffffffffffffffffffffffffffff16021790555060006003819055505061101d806100d16000396000f3006080604052600436106100ba576000357c0100000000000000000000000000000000000000000000000000000000900463ffffffff16806308d4ca92146100bf57806340e58ee51461010457806362784793146101315780638da5cb5b14610188578063c23e3802146101df578063d04fe10714610220578063d79875eb146102d4578063d96a094a1461030b578063e50eea8d1461032b578063f071bf4f146103aa578063f2fde38b146103d5578063fb4b821b14610418575b600080fd5b3480156100cb57600080fd5b506100ea60048036038101908080359060200190929190505050610443565b604051808215151515815260200191505060405180910390f35b34801561011057600080fd5b5061012f600480360381019080803590602001909291905050506105fc565b005b34801561013d57600080fd5b506101466106ae565b604051808273ffffffffffffffffffffffffffffffffffffffff1673ffffffffffffffffffffffffffffffffffffffff16815260200191505060405180910390f35b34801561019457600080fd5b5061019d6106d4565b604051808273ffffffffffffffffffffffffffffffffffffffff1673ffffffffffffffffffffffffffffffffffffffff16815260200191505060405180910390f35b3480156101eb57600080fd5b5061020a600480360381019080803590602001909291905050506106f9565b6040518082815260200191505060405180910390f35b34801561022c57600080fd5b5061023561071c565b604051808060200180602001838103835285818151815260200191508051906020019060200280838360005b8381101561027c578082015181840152602081019050610261565b50505050905001838103825284818151815260200191508051906020019060200280838360005b838110156102be5780820151818401526020810190506102a3565b5050505090500194505050505060405180910390f35b3480156102e057600080fd5b5061030960048036038101908080359060200190929190803590602001909291905050506109eb565b005b61032960048036038101908080359060200190929190505050610c1f565b005b34801561033757600080fd5b5061035660048036038101908080359060200190929190505050610dcd565b604051808481526020018373ffffffffffffffffffffffffffffffffffffffff1673ffffffffffffffffffffffffffffffffffffffff16815260200182151515158152602001935050505060405180910390f35b3480156103b657600080fd5b506103bf610e24565b6040518082815260200191505060405180910390f35b3480156103e157600080fd5b50610416600480360381019080803573ffffffffffffffffffffffffffffffffffffffff169060200190929190505050610e2a565b005b34801561042457600080fd5b5061042d610f7f565b6040518082815260200191505060405180910390f35b600061044d610fb7565b6005600084815260200190815260200160002060606040519081016040529081600082015481526020016001820160009054906101000a900473ffffffffffffffffffffffffffffffffffffffff1673ffffffffffffffffffffffffffffffffffffffff1673ffffffffffffffffffffffffffffffffffffffff1681526020016001820160149054906101000a900460ff1615151515815250509050806040015180156105f45750600160009054906101000a900473ffffffffffffffffffffffffffffffffffffffff1673ffffffffffffffffffffffffffffffffffffffff16636352211e846040518263ffffffff167c010000000000000000000000000000000000000000000000000000000002815260040180828152602001915050602060405180830381600087803b15801561058657600080fd5b505af115801561059a573d6000803e3d6000fd5b505050506040513d60208110156105b057600080fd5b810190808051906020019092919050505073ffffffffffffffffffffffffffffffffffffffff16816020015173ffffffffffffffffffffffffffffffffffffffff16145b915050919050565b600115156005600083815260200190815260200160002060010160149054906101000a900460ff16151514151561063257600080fd5b3373ffffffffffffffffffffffffffffffffffffffff166005600083815260200190815260200160002060010160009054906101000a900473ffffffffffffffffffffffffffffffffffffffff1673ffffffffffffffffffffffffffffffffffffffff161415156106a257600080fd5b6106ab81610f85565b50565b600160009054906101000a900473ffffffffffffffffffffffffffffffffffffffff1681565b6000809054906101000a900473ffffffffffffffffffffffffffffffffffffffff1681565b60048181548110151561070857fe5b906000526020600020016000915090505481565b60608060008061072a610fb7565b606080600093505b60035484101561082e576005600060048681548110151561074f57fe5b9060005260206000200154815260200190815260200160002060606040519081016040529081600082015481526020016001820160009054906101000a900473ffffffffffffffffffffffffffffffffffffffff1673ffffffffffffffffffffffffffffffffffffffff1673ffffffffffffffffffffffffffffffffffffffff1681526020016001820160149054906101000a900460ff161515151581525050925061081360048581548110151561080357fe5b9060005260206000200154610443565b156108215784806001019550505b8380600101945050610732565b8460405190808252806020026020018201604052801561085d5781602001602082028038833980820191505090505b5091508460405190808252806020026020018201604052801561088f5781602001602082028038833980820191505090505b509050600093505b6003548410156109e257600560006004868154811015156108b457fe5b9060005260206000200154815260200190815260200160002060606040519081016040529081600082015481526020016001820160009054906101000a900473ffffffffffffffffffffffffffffffffffffffff1673ffffffffffffffffffffffffffffffffffffffff1673ffffffffffffffffffffffffffffffffffffffff1681526020016001820160149054906101000a900460ff161515151581525050925061097860048581548110151561096857fe5b9060005260206000200154610443565b156109d55760048481548110151561098c57fe5b906000526020600020015482858151811015156109a557fe5b9060200190602002018181525050826000015181858151811015156109c657fe5b90602001906020020181815250505b8380600101945050610897565b50505050509091565b60003373ffffffffffffffffffffffffffffffffffffffff16600160009054906101000a900473ffffffffffffffffffffffffffffffffffffffff1673ffffffffffffffffffffffffffffffffffffffff16636352211e856040518263ffffffff167c010000000000000000000000000000000000000000000000000000000002815260040180828152602001915050602060405180830381600087803b158015610a9557600080fd5b505af1158015610aa9573d6000803e3d6000fd5b505050506040513d6020811015610abf57600080fd5b810190808051906020019092919050505073ffffffffffffffffffffffffffffffffffffffff16141515610af257600080fd5b6005600084815260200190815260200160002060010160149054906101000a900460ff1690506060604051908101604052808381526020013373ffffffffffffffffffffffffffffffffffffffff16815260200160011515815250600560008581526020019081526020016000206000820151816000015560208201518160010160006101000a81548173ffffffffffffffffffffffffffffffffffffffff021916908373ffffffffffffffffffffffffffffffffffffffff16021790555060408201518160010160146101000a81548160ff021916908315150217905550905050801515610c1a5760036000815480929190600101919050555060048390806001815401808255809150509060018203906000526020600020016000909192909190915055505b505050565b600115156005600083815260200190815260200160002060010160149054906101000a900460ff161515141515610c5557600080fd5b60056000828152602001908152602001600020600001543410151515610c7a57600080fd5b610c8381610f85565b600160009054906101000a900473ffffffffffffffffffffffffffffffffffffffff1673ffffffffffffffffffffffffffffffffffffffff166308adf7b16005600084815260200190815260200160002060010160009054906101000a900473ffffffffffffffffffffffffffffffffffffffff1633846040518463ffffffff167c0100000000000000000000000000000000000000000000000000000000028152600401808473ffffffffffffffffffffffffffffffffffffffff1673ffffffffffffffffffffffffffffffffffffffff1681526020018373ffffffffffffffffffffffffffffffffffffffff1673ffffffffffffffffffffffffffffffffffffffff1681526020018281526020019350505050600060405180830381600087803b158015610db257600080fd5b505af1158015610dc6573d6000803e3d6000fd5b5050505050565b60056020528060005260406000206000915090508060000154908060010160009054906101000a900473ffffffffffffffffffffffffffffffffffffffff16908060010160149054906101000a900460ff16905083565b60025481565b6000809054906101000a900473ffffffffffffffffffffffffffffffffffffffff1673ffffffffffffffffffffffffffffffffffffffff163373ffffffffffffffffffffffffffffffffffffffff16141515610e8557600080fd5b600073ffffffffffffffffffffffffffffffffffffffff168173ffffffffffffffffffffffffffffffffffffffff1614151515610ec157600080fd5b8073ffffffffffffffffffffffffffffffffffffffff166000809054906101000a900473ffffffffffffffffffffffffffffffffffffffff1673ffffffffffffffffffffffffffffffffffffffff167f8be0079c531659141344cd1fd0a4f28419497f9722a3daafe3b4186f6b6457e060405160405180910390a3806000806101000a81548173ffffffffffffffffffffffffffffffffffffffff021916908373ffffffffffffffffffffffffffffffffffffffff16021790555050565b60035481565b60006005600083815260200190815260200160002060010160146101000a81548160ff02191690831515021790555050565b60606040519081016040528060008152602001600073ffffffffffffffffffffffffffffffffffffffff16815260200160001515815250905600a165627a7a72305820c548e02a1453817a410dc4f89f40ae325ff6579795936686e51c5ed70a19318b0029",
  "source": "pragma solidity ^0.4.23;\n\nimport \"./Utils/Ownable.sol\";\nimport \"./Image/DigitalPrintImage.sol\";\n\ncontract Marketplace is Ownable {\n\n    struct Ad {\n        uint price;\n        address exchanger;\n        bool exists;\n    }\n\n    DigitalPrintImage public digitalPrintImageContract;\n\n    uint public creatorPercentage = 5; // 5 percentage\n    uint public numberOfAds;\n    uint[] public allAds;\n    //image id to Ad\n    mapping(uint => Ad) public sellAds;\n\n    constructor(address _digitalPrintImageContract) public{\n        digitalPrintImageContract = DigitalPrintImage(_digitalPrintImageContract);\n        numberOfAds = 0;\n    }\n\n    /// @notice Function to add image on marketplace\n    /// @dev only image owner can add image to marketplace\n    /// @param _imageId is id of image\n    /// @param _price is price for which we are going to sell image\n    function sell(uint _imageId, uint _price) public {\n        require(digitalPrintImageContract.ownerOf(_imageId) == msg.sender);\n\n        bool exists = sellAds[_imageId].exists;\n\n        sellAds[_imageId] = Ad({\n            price: _price,\n            exchanger: msg.sender,\n            exists: true\n        });\n\n        if (!exists) {\n            numberOfAds++;\n            allAds.push(_imageId);\n        }\n    }\n\n    function getActiveAds() public view returns (uint[], uint[]) {\n        uint count;\n        for (uint i = 0; i<numberOfAds; i++) {\n            Ad memory ad = sellAds[allAds[i]];\n            // active on sale are only those that exists and its still the same owner\n            if (isImageOnSale(allAds[i])) {\n                count++;\n            }\n        }\n\n        uint[] memory imageIds = new uint[](count);\n        uint[] memory prices = new uint[](count);\n        for (i = 0; i<numberOfAds; i++) {\n            ad = sellAds[allAds[i]];\n            // active on sale are only those that exists and its still the same owner\n            if (isImageOnSale(allAds[i])) {\n                imageIds[i] = allAds[i];\n                prices[i] = ad.price;\n            }\n        }\n    }\n\n    function isImageOnSale(uint _imageId) public view returns(bool) {\n        Ad memory ad = sellAds[_imageId];\n\n        return ad.exists && (ad.exchanger == digitalPrintImageContract.ownerOf(_imageId));\n    }\n\n    /// @notice Function to buy image from Marketplace\n    /// @param _imageId is Id of image we are going to buy\n    function buy(uint _imageId) public payable {\n        require(sellAds[_imageId].exists == true);\n        require(msg.value >= sellAds[_imageId].price);\n\n        removeOrder(_imageId);\n\n        digitalPrintImageContract.transferFromMarketplace(sellAds[_imageId].exchanger, msg.sender, _imageId);\n    }\n\n    /// @notice Function to remove image from Marketplace\n    /// @dev image can be withdrawed only by its owner\n    /// @param _imageId is id of image we would like to get back\n    function cancel(uint _imageId) public  {\n        require(sellAds[_imageId].exists == true);\n        require(sellAds[_imageId].exchanger == msg.sender);\n\n        removeOrder(_imageId);\n    }\n\n    /// @notice Removes image from imgagesOnSale list\n    /// @param _imageId is id of image we want to remove\n    function removeOrder(uint _imageId) private {\n        sellAds[_imageId].exists = false;\n    }\n}\n",
  "sourcePath": "/Users/nikolaklipa/Decenter/Cryptographics/contracts/Marketplace.sol",
  "compiler": {
    "name": "solc",
    "version": "0.4.24+commit.e67f0147.Emscripten.clang"
  },
  "schemaVersion": "2.0.1",
  "updatedAt": "2018-07-11T08:14:57.260Z"
}