{
  "contractName": "Marketplace",
  "abi": [
    {
      "constant": true,
      "inputs": [],
      "name": "marketplacePercentage",
      "outputs": [
        {
          "name": "",
          "type": "uint256"
        }
      ],
      "payable": false,
      "stateMutability": "view",
      "type": "function"
    },
    {
      "constant": true,
      "inputs": [
        {
          "name": "",
          "type": "address"
        }
      ],
      "name": "balances",
      "outputs": [
        {
          "name": "",
          "type": "uint256"
        }
      ],
      "payable": false,
      "stateMutability": "view",
      "type": "function"
    },
    {
      "constant": true,
      "inputs": [],
      "name": "digitalPrintImageContract",
      "outputs": [
        {
          "name": "",
          "type": "address"
        }
      ],
      "payable": false,
      "stateMutability": "view",
      "type": "function"
    },
    {
      "constant": true,
      "inputs": [],
      "name": "owner",
      "outputs": [
        {
          "name": "",
          "type": "address"
        }
      ],
      "payable": false,
      "stateMutability": "view",
      "type": "function"
    },
    {
      "constant": true,
      "inputs": [
        {
          "name": "",
          "type": "uint256"
        }
      ],
      "name": "allAds",
      "outputs": [
        {
          "name": "",
          "type": "uint256"
        }
      ],
      "payable": false,
      "stateMutability": "view",
      "type": "function"
    },
    {
      "constant": true,
      "inputs": [
        {
          "name": "",
          "type": "uint256"
        }
      ],
      "name": "sellAds",
      "outputs": [
        {
          "name": "price",
          "type": "uint256"
        },
        {
          "name": "exchanger",
          "type": "address"
        },
        {
          "name": "exists",
          "type": "bool"
        }
      ],
      "payable": false,
      "stateMutability": "view",
      "type": "function"
    },
    {
      "constant": true,
      "inputs": [],
      "name": "creatorPercentage",
      "outputs": [
        {
          "name": "",
          "type": "uint256"
        }
      ],
      "payable": false,
      "stateMutability": "view",
      "type": "function"
    },
    {
      "constant": false,
      "inputs": [
        {
          "name": "newOwner",
          "type": "address"
        }
      ],
      "name": "transferOwnership",
      "outputs": [],
      "payable": false,
      "stateMutability": "nonpayable",
      "type": "function"
    },
    {
      "constant": true,
      "inputs": [],
      "name": "numberOfAds",
      "outputs": [
        {
          "name": "",
          "type": "uint256"
        }
      ],
      "payable": false,
      "stateMutability": "view",
      "type": "function"
    },
    {
      "inputs": [
        {
          "name": "_digitalPrintImageContract",
          "type": "address"
        }
      ],
      "payable": false,
      "stateMutability": "nonpayable",
      "type": "constructor"
    },
    {
      "anonymous": false,
      "inputs": [
        {
          "indexed": true,
          "name": "previousOwner",
          "type": "address"
        },
        {
          "indexed": true,
          "name": "newOwner",
          "type": "address"
        }
      ],
      "name": "OwnershipTransferred",
      "type": "event"
    },
    {
      "constant": false,
      "inputs": [
        {
          "name": "_imageId",
          "type": "uint256"
        },
        {
          "name": "_price",
          "type": "uint256"
        }
      ],
      "name": "sell",
      "outputs": [],
      "payable": false,
      "stateMutability": "nonpayable",
      "type": "function"
    },
    {
      "constant": true,
      "inputs": [],
      "name": "getActiveAds",
      "outputs": [
        {
          "name": "",
          "type": "uint256[]"
        },
        {
          "name": "",
          "type": "uint256[]"
        }
      ],
      "payable": false,
      "stateMutability": "view",
      "type": "function"
    },
    {
      "constant": true,
      "inputs": [
        {
          "name": "_imageId",
          "type": "uint256"
        }
      ],
      "name": "isImageOnSale",
      "outputs": [
        {
          "name": "",
          "type": "bool"
        }
      ],
      "payable": false,
      "stateMutability": "view",
      "type": "function"
    },
    {
      "constant": false,
      "inputs": [
        {
          "name": "_imageId",
          "type": "uint256"
        }
      ],
      "name": "buy",
      "outputs": [],
      "payable": true,
      "stateMutability": "payable",
      "type": "function"
    },
    {
      "constant": false,
      "inputs": [
        {
          "name": "_imageId",
          "type": "uint256"
        }
      ],
      "name": "cancel",
      "outputs": [],
      "payable": false,
      "stateMutability": "nonpayable",
      "type": "function"
    },
    {
      "constant": false,
      "inputs": [],
      "name": "withdraw",
      "outputs": [],
      "payable": false,
      "stateMutability": "nonpayable",
      "type": "function"
    }
  ],
  "bytecode": "0x60806040526003600255600260035534801561001a57600080fd5b506040516020806115b583398101806040528101908080519060200190929190505050336000806101000a81548173ffffffffffffffffffffffffffffffffffffffff021916908373ffffffffffffffffffffffffffffffffffffffff16021790555080600160006101000a81548173ffffffffffffffffffffffffffffffffffffffff021916908373ffffffffffffffffffffffffffffffffffffffff1602179055506000600481905550506114df806100d66000396000f3006080604052600436106100db576000357c0100000000000000000000000000000000000000000000000000000000900463ffffffff16806302756ddc146100e057806308d4ca921461010b57806327e235e3146101505780633ccfd60b146101a757806340e58ee5146101be57806362784793146101eb5780638da5cb5b14610242578063c23e380214610299578063d04fe107146102da578063d79875eb1461038e578063d96a094a146103c5578063e50eea8d146103e5578063f071bf4f14610464578063f2fde38b1461048f578063fb4b821b146104d2575b600080fd5b3480156100ec57600080fd5b506100f56104fd565b6040518082815260200191505060405180910390f35b34801561011757600080fd5b5061013660048036038101908080359060200190929190505050610503565b604051808215151515815260200191505060405180910390f35b34801561015c57600080fd5b50610191600480360381019080803573ffffffffffffffffffffffffffffffffffffffff1690602001909291905050506106bc565b6040518082815260200191505060405180910390f35b3480156101b357600080fd5b506101bc6106d4565b005b3480156101ca57600080fd5b506101e9600480360381019080803590602001909291905050506107a7565b005b3480156101f757600080fd5b50610200610859565b604051808273ffffffffffffffffffffffffffffffffffffffff1673ffffffffffffffffffffffffffffffffffffffff16815260200191505060405180910390f35b34801561024e57600080fd5b5061025761087f565b604051808273ffffffffffffffffffffffffffffffffffffffff1673ffffffffffffffffffffffffffffffffffffffff16815260200191505060405180910390f35b3480156102a557600080fd5b506102c4600480360381019080803590602001909291905050506108a4565b6040518082815260200191505060405180910390f35b3480156102e657600080fd5b506102ef6108c7565b604051808060200180602001838103835285818151815260200191508051906020019060200280838360005b8381101561033657808201518184015260208101905061031b565b50505050905001838103825284818151815260200191508051906020019060200280838360005b8381101561037857808201518184015260208101905061035d565b5050505090500194505050505060405180910390f35b34801561039a57600080fd5b506103c36004803603810190808035906020019092919080359060200190929190505050610b96565b005b6103e360048036038101908080359060200190929190505050610dca565b005b3480156103f157600080fd5b506104106004803603810190808035906020019092919050505061128f565b604051808481526020018373ffffffffffffffffffffffffffffffffffffffff1673ffffffffffffffffffffffffffffffffffffffff16815260200182151515158152602001935050505060405180910390f35b34801561047057600080fd5b506104796112e6565b6040518082815260200191505060405180910390f35b34801561049b57600080fd5b506104d0600480360381019080803573ffffffffffffffffffffffffffffffffffffffff1690602001909291905050506112ec565b005b3480156104de57600080fd5b506104e7611441565b6040518082815260200191505060405180910390f35b60035481565b600061050d611479565b6006600084815260200190815260200160002060606040519081016040529081600082015481526020016001820160009054906101000a900473ffffffffffffffffffffffffffffffffffffffff1673ffffffffffffffffffffffffffffffffffffffff1673ffffffffffffffffffffffffffffffffffffffff1681526020016001820160149054906101000a900460ff1615151515815250509050806040015180156106b45750600160009054906101000a900473ffffffffffffffffffffffffffffffffffffffff1673ffffffffffffffffffffffffffffffffffffffff16636352211e846040518263ffffffff167c010000000000000000000000000000000000000000000000000000000002815260040180828152602001915050602060405180830381600087803b15801561064657600080fd5b505af115801561065a573d6000803e3d6000fd5b505050506040513d602081101561067057600080fd5b810190808051906020019092919050505073ffffffffffffffffffffffffffffffffffffffff16816020015173ffffffffffffffffffffffffffffffffffffffff16145b915050919050565b60076020528060005260406000206000915090505481565b6000600760003373ffffffffffffffffffffffffffffffffffffffff1673ffffffffffffffffffffffffffffffffffffffff1681526020019081526020016000205490506000600760003373ffffffffffffffffffffffffffffffffffffffff1673ffffffffffffffffffffffffffffffffffffffff168152602001908152602001600020819055503373ffffffffffffffffffffffffffffffffffffffff166108fc829081150290604051600060405180830381858888f193505050501580156107a3573d6000803e3d6000fd5b5050565b600115156006600083815260200190815260200160002060010160149054906101000a900460ff1615151415156107dd57600080fd5b3373ffffffffffffffffffffffffffffffffffffffff166006600083815260200190815260200160002060010160009054906101000a900473ffffffffffffffffffffffffffffffffffffffff1673ffffffffffffffffffffffffffffffffffffffff1614151561084d57600080fd5b61085681611447565b50565b600160009054906101000a900473ffffffffffffffffffffffffffffffffffffffff1681565b6000809054906101000a900473ffffffffffffffffffffffffffffffffffffffff1681565b6005818154811015156108b357fe5b906000526020600020016000915090505481565b6060806000806108d5611479565b606080600093505b6004548410156109d957600660006005868154811015156108fa57fe5b9060005260206000200154815260200190815260200160002060606040519081016040529081600082015481526020016001820160009054906101000a900473ffffffffffffffffffffffffffffffffffffffff1673ffffffffffffffffffffffffffffffffffffffff1673ffffffffffffffffffffffffffffffffffffffff1681526020016001820160149054906101000a900460ff16151515158152505092506109be6005858154811015156109ae57fe5b9060005260206000200154610503565b156109cc5784806001019550505b83806001019450506108dd565b84604051908082528060200260200182016040528015610a085781602001602082028038833980820191505090505b50915084604051908082528060200260200182016040528015610a3a5781602001602082028038833980820191505090505b509050600093505b600454841015610b8d5760066000600586815481101515610a5f57fe5b9060005260206000200154815260200190815260200160002060606040519081016040529081600082015481526020016001820160009054906101000a900473ffffffffffffffffffffffffffffffffffffffff1673ffffffffffffffffffffffffffffffffffffffff1673ffffffffffffffffffffffffffffffffffffffff1681526020016001820160149054906101000a900460ff1615151515815250509250610b23600585815481101515610b1357fe5b9060005260206000200154610503565b15610b8057600584815481101515610b3757fe5b90600052602060002001548285815181101515610b5057fe5b906020019060200201818152505082600001518185815181101515610b7157fe5b90602001906020020181815250505b8380600101945050610a42565b50505050509091565b60003373ffffffffffffffffffffffffffffffffffffffff16600160009054906101000a900473ffffffffffffffffffffffffffffffffffffffff1673ffffffffffffffffffffffffffffffffffffffff16636352211e856040518263ffffffff167c010000000000000000000000000000000000000000000000000000000002815260040180828152602001915050602060405180830381600087803b158015610c4057600080fd5b505af1158015610c54573d6000803e3d6000fd5b505050506040513d6020811015610c6a57600080fd5b810190808051906020019092919050505073ffffffffffffffffffffffffffffffffffffffff16141515610c9d57600080fd5b6006600084815260200190815260200160002060010160149054906101000a900460ff1690506060604051908101604052808381526020013373ffffffffffffffffffffffffffffffffffffffff16815260200160011515815250600660008581526020019081526020016000206000820151816000015560208201518160010160006101000a81548173ffffffffffffffffffffffffffffffffffffffff021916908373ffffffffffffffffffffffffffffffffffffffff16021790555060408201518160010160146101000a81548160ff021916908315150217905550905050801515610dc55760046000815480929190600101919050555060058390806001815401808255809150509060018203906000526020600020016000909192909190915055505b505050565b600080610dd683610503565b1515610de157600080fd5b60066000848152602001908152602001600020600001543410151515610e0657600080fd5b610e0f83611447565b600160009054906101000a900473ffffffffffffffffffffffffffffffffffffffff1673ffffffffffffffffffffffffffffffffffffffff16636352211e846040518263ffffffff167c010000000000000000000000000000000000000000000000000000000002815260040180828152602001915050602060405180830381600087803b158015610ea057600080fd5b505af1158015610eb4573d6000803e3d6000fd5b505050506040513d6020811015610eca57600080fd5b81019080805190602001909291905050509050600160009054906101000a900473ffffffffffffffffffffffffffffffffffffffff1673ffffffffffffffffffffffffffffffffffffffff166355d8d135846040518263ffffffff167c010000000000000000000000000000000000000000000000000000000002815260040180828152602001915050600060405180830381600087803b158015610f6e57600080fd5b505af1158015610f82573d6000803e3d6000fd5b505050506040513d6000823e3d601f19601f820116820180604052506080811015610fac57600080fd5b810190808051906020019092919080519060200190929190805190602001909291908051640100000000811115610fe257600080fd5b82810190506020810184811115610ff857600080fd5b815185600182028301116401000000008211171561101557600080fd5b505092919050505090919250909150508092505060646003340281151561103857fe5b04600760008473ffffffffffffffffffffffffffffffffffffffff1673ffffffffffffffffffffffffffffffffffffffff1681526020019081526020016000208190555060646002340281151561108b57fe5b04600760008060009054906101000a900473ffffffffffffffffffffffffffffffffffffffff1673ffffffffffffffffffffffffffffffffffffffff1673ffffffffffffffffffffffffffffffffffffffff168152602001908152602001600020819055506064605f34028115156110ff57fe5b04600760008373ffffffffffffffffffffffffffffffffffffffff1673ffffffffffffffffffffffffffffffffffffffff16815260200190815260200160002081905550600160009054906101000a900473ffffffffffffffffffffffffffffffffffffffff1673ffffffffffffffffffffffffffffffffffffffff166308adf7b16006600086815260200190815260200160002060010160009054906101000a900473ffffffffffffffffffffffffffffffffffffffff1633866040518463ffffffff167c0100000000000000000000000000000000000000000000000000000000028152600401808473ffffffffffffffffffffffffffffffffffffffff1673ffffffffffffffffffffffffffffffffffffffff1681526020018373ffffffffffffffffffffffffffffffffffffffff1673ffffffffffffffffffffffffffffffffffffffff1681526020018281526020019350505050600060405180830381600087803b15801561127257600080fd5b505af1158015611286573d6000803e3d6000fd5b50505050505050565b60066020528060005260406000206000915090508060000154908060010160009054906101000a900473ffffffffffffffffffffffffffffffffffffffff16908060010160149054906101000a900460ff16905083565b60025481565b6000809054906101000a900473ffffffffffffffffffffffffffffffffffffffff1673ffffffffffffffffffffffffffffffffffffffff163373ffffffffffffffffffffffffffffffffffffffff1614151561134757600080fd5b600073ffffffffffffffffffffffffffffffffffffffff168173ffffffffffffffffffffffffffffffffffffffff161415151561138357600080fd5b8073ffffffffffffffffffffffffffffffffffffffff166000809054906101000a900473ffffffffffffffffffffffffffffffffffffffff1673ffffffffffffffffffffffffffffffffffffffff167f8be0079c531659141344cd1fd0a4f28419497f9722a3daafe3b4186f6b6457e060405160405180910390a3806000806101000a81548173ffffffffffffffffffffffffffffffffffffffff021916908373ffffffffffffffffffffffffffffffffffffffff16021790555050565b60045481565b60006006600083815260200190815260200160002060010160146101000a81548160ff02191690831515021790555050565b60606040519081016040528060008152602001600073ffffffffffffffffffffffffffffffffffffffff16815260200160001515815250905600a165627a7a723058207b9366f71ed933044486845e8a26b0fb28c265f768b905d8f53bc5772fc14a680029",
  "source": "pragma solidity ^0.4.23;\n\nimport \"./Utils/Ownable.sol\";\nimport \"./Image/DigitalPrintImage.sol\";\n\ncontract Marketplace is Ownable {\n\n    struct Ad {\n        uint price;\n        address exchanger;\n        bool exists;\n    }\n\n    DigitalPrintImage public digitalPrintImageContract;\n\n    uint public creatorPercentage = 3; // 3 percentage\n    uint public marketplacePercentage = 2; // 2 percentage\n    uint public numberOfAds;\n    uint[] public allAds;\n    //image id to Ad\n    mapping(uint => Ad) public sellAds;\n    mapping(address => uint) public balances;\n\n    constructor(address _digitalPrintImageContract) public{\n        digitalPrintImageContract = DigitalPrintImage(_digitalPrintImageContract);\n        numberOfAds = 0;\n    }\n\n    /// @notice Function to add image on marketplace\n    /// @dev only image owner can add image to marketplace\n    /// @param _imageId is id of image\n    /// @param _price is price for which we are going to sell image\n    function sell(uint _imageId, uint _price) public {\n        require(digitalPrintImageContract.ownerOf(_imageId) == msg.sender);\n\n        bool exists = sellAds[_imageId].exists;\n\n        sellAds[_imageId] = Ad({\n            price: _price,\n            exchanger: msg.sender,\n            exists: true\n        });\n\n        if (!exists) {\n            numberOfAds++;\n            allAds.push(_imageId);\n        }\n    }\n\n    function getActiveAds() public view returns (uint[], uint[]) {\n        uint count;\n        for (uint i = 0; i<numberOfAds; i++) {\n            Ad memory ad = sellAds[allAds[i]];\n            // active on sale are only those that exists and its still the same owner\n            if (isImageOnSale(allAds[i])) {\n                count++;\n            }\n        }\n\n        uint[] memory imageIds = new uint[](count);\n        uint[] memory prices = new uint[](count);\n        for (i = 0; i<numberOfAds; i++) {\n            ad = sellAds[allAds[i]];\n            // active on sale are only those that exists and its still the same owner\n            if (isImageOnSale(allAds[i])) {\n                imageIds[i] = allAds[i];\n                prices[i] = ad.price;\n            }\n        }\n    }\n\n    function isImageOnSale(uint _imageId) public view returns(bool) {\n        Ad memory ad = sellAds[_imageId];\n\n        return ad.exists && (ad.exchanger == digitalPrintImageContract.ownerOf(_imageId));\n    }\n\n    /// @notice Function to buy image from Marketplace\n    /// @param _imageId is Id of image we are going to buy\n    function buy(uint _imageId) public payable {\n        require(isImageOnSale(_imageId));\n        require(msg.value >= sellAds[_imageId].price);\n\n        removeOrder(_imageId);\n\n        address _creator;\n        address _imageOwner = digitalPrintImageContract.ownerOf(_imageId);\n        (,,_creator,) = digitalPrintImageContract.imageMetadata(_imageId);\n\n        balances[_creator] = msg.value * 3 / 100;\n        balances[owner] = msg.value * 2 / 100;\n        balances[_imageOwner] = msg.value * 95 / 100;\n\n        digitalPrintImageContract.transferFromMarketplace(sellAds[_imageId].exchanger, msg.sender, _imageId);\n    }\n\n    /// @notice Function to remove image from Marketplace\n    /// @dev image can be withdrawed only by its owner\n    /// @param _imageId is id of image we would like to get back\n    function cancel(uint _imageId) public  {\n        require(sellAds[_imageId].exists == true);\n        require(sellAds[_imageId].exchanger == msg.sender);\n\n        removeOrder(_imageId);\n    }\n\n    /// @notice Removes image from imgagesOnSale list\n    /// @param _imageId is id of image we want to remove\n    function removeOrder(uint _imageId) private {\n        sellAds[_imageId].exists = false;\n    }\n\n    function withdraw() public {\n        \n        uint amount = balances[msg.sender];\n        balances[msg.sender] = 0;\n\n        msg.sender.transfer(amount);\n    }\n}\n",
  "sourcePath": "/Users/nikolaklipa/Decenter/Cryptographics/contracts/Marketplace.sol",
  "compiler": {
    "name": "solc",
    "version": "0.4.24+commit.e67f0147.Emscripten.clang"
  },
  "schemaVersion": "2.0.1",
  "updatedAt": "2018-07-13T12:59:49.655Z"
}